{
  "_format": "hh-sol-artifact-1",
  "contractName": "BudgetDAO",
  "sourceName": "contracts/BudgetDAO.sol",
  "abi": [
    {
      "inputs": [
        {
          "internalType": "address",
          "name": "_token",
          "type": "address"
        },
        {
          "internalType": "address",
          "name": "_budgetController",
          "type": "address"
        },
        {
          "internalType": "address",
          "name": "_departmentRegistry",
          "type": "address"
        }
      ],
      "stateMutability": "nonpayable",
      "type": "constructor"
    },
    {
      "inputs": [
        {
          "internalType": "address",
          "name": "owner",
          "type": "address"
        }
      ],
      "name": "OwnableInvalidOwner",
      "type": "error"
    },
    {
      "inputs": [
        {
          "internalType": "address",
          "name": "account",
          "type": "address"
        }
      ],
      "name": "OwnableUnauthorizedAccount",
      "type": "error"
    },
    {
      "anonymous": false,
      "inputs": [
        {
          "indexed": true,
          "internalType": "uint256",
          "name": "id",
          "type": "uint256"
        },
        {
          "indexed": false,
          "internalType": "address",
          "name": "department",
          "type": "address"
        },
        {
          "indexed": false,
          "internalType": "uint256",
          "name": "amount",
          "type": "uint256"
        }
      ],
      "name": "BudgetProposalCreated",
      "type": "event"
    },
    {
      "anonymous": false,
      "inputs": [
        {
          "indexed": true,
          "internalType": "address",
          "name": "previousOwner",
          "type": "address"
        },
        {
          "indexed": true,
          "internalType": "address",
          "name": "newOwner",
          "type": "address"
        }
      ],
      "name": "OwnershipTransferred",
      "type": "event"
    },
    {
      "anonymous": false,
      "inputs": [
        {
          "indexed": true,
          "internalType": "uint256",
          "name": "proposalId",
          "type": "uint256"
        }
      ],
      "name": "ProposalExecuted",
      "type": "event"
    },
    {
      "anonymous": false,
      "inputs": [
        {
          "indexed": true,
          "internalType": "uint256",
          "name": "proposalId",
          "type": "uint256"
        },
        {
          "indexed": true,
          "internalType": "address",
          "name": "voter",
          "type": "address"
        },
        {
          "indexed": false,
          "internalType": "bool",
          "name": "support",
          "type": "bool"
        }
      ],
      "name": "Voted",
      "type": "event"
    },
    {
      "inputs": [],
      "name": "EXECUTION_DELAY",
      "outputs": [
        {
          "internalType": "uint256",
          "name": "",
          "type": "uint256"
        }
      ],
      "stateMutability": "view",
      "type": "function"
    },
    {
      "inputs": [],
      "name": "VOTING_PERIOD",
      "outputs": [
        {
          "internalType": "uint256",
          "name": "",
          "type": "uint256"
        }
      ],
      "stateMutability": "view",
      "type": "function"
    },
    {
      "inputs": [],
      "name": "budgetController",
      "outputs": [
        {
          "internalType": "contract BudgetController",
          "name": "",
          "type": "address"
        }
      ],
      "stateMutability": "view",
      "type": "function"
    },
    {
      "inputs": [
        {
          "internalType": "uint256",
          "name": "",
          "type": "uint256"
        }
      ],
      "name": "budgetProposals",
      "outputs": [
        {
          "internalType": "uint256",
          "name": "id",
          "type": "uint256"
        },
        {
          "internalType": "address",
          "name": "department",
          "type": "address"
        },
        {
          "internalType": "uint256",
          "name": "proposedBudget",
          "type": "uint256"
        },
        {
          "internalType": "uint256",
          "name": "votesFor",
          "type": "uint256"
        },
        {
          "internalType": "uint256",
          "name": "votesAgainst",
          "type": "uint256"
        },
        {
          "internalType": "uint256",
          "name": "startTime",
          "type": "uint256"
        },
        {
          "internalType": "uint256",
          "name": "endTime",
          "type": "uint256"
        },
        {
          "internalType": "bool",
          "name": "executed",
          "type": "bool"
        }
      ],
      "stateMutability": "view",
      "type": "function"
    },
    {
      "inputs": [],
      "name": "departmentRegistry",
      "outputs": [
        {
          "internalType": "contract DepartmentRegistry",
          "name": "",
          "type": "address"
        }
      ],
      "stateMutability": "view",
      "type": "function"
    },
    {
      "inputs": [
        {
          "internalType": "uint256",
          "name": "proposalId",
          "type": "uint256"
        }
      ],
      "name": "executeProposal",
      "outputs": [],
      "stateMutability": "nonpayable",
      "type": "function"
    },
    {
      "inputs": [],
      "name": "getAllProposals",
      "outputs": [
        {
          "internalType": "uint256[]",
          "name": "ids",
          "type": "uint256[]"
        },
        {
          "internalType": "address[]",
          "name": "departments",
          "type": "address[]"
        },
        {
          "internalType": "uint256[]",
          "name": "budgets",
          "type": "uint256[]"
        },
        {
          "internalType": "uint256[]",
          "name": "votesFor",
          "type": "uint256[]"
        },
        {
          "internalType": "uint256[]",
          "name": "votesAgainst",
          "type": "uint256[]"
        },
        {
          "internalType": "uint256[]",
          "name": "startTimes",
          "type": "uint256[]"
        },
        {
          "internalType": "uint256[]",
          "name": "endTimes",
          "type": "uint256[]"
        },
        {
          "internalType": "bool[]",
          "name": "executed",
          "type": "bool[]"
        }
      ],
      "stateMutability": "view",
      "type": "function"
    },
    {
      "inputs": [
        {
          "internalType": "uint256",
          "name": "proposalId",
          "type": "uint256"
        }
      ],
      "name": "getProposalDetails",
      "outputs": [
        {
          "internalType": "uint256",
          "name": "id",
          "type": "uint256"
        },
        {
          "internalType": "address",
          "name": "department",
          "type": "address"
        },
        {
          "internalType": "uint256",
          "name": "proposedBudget",
          "type": "uint256"
        },
        {
          "internalType": "uint256",
          "name": "votesFor",
          "type": "uint256"
        },
        {
          "internalType": "uint256",
          "name": "votesAgainst",
          "type": "uint256"
        },
        {
          "internalType": "uint256",
          "name": "startTime",
          "type": "uint256"
        },
        {
          "internalType": "uint256",
          "name": "endTime",
          "type": "uint256"
        },
        {
          "internalType": "bool",
          "name": "executed",
          "type": "bool"
        }
      ],
      "stateMutability": "view",
      "type": "function"
    },
    {
      "inputs": [
        {
          "internalType": "uint256",
          "name": "proposalId",
          "type": "uint256"
        },
        {
          "internalType": "address",
          "name": "voter",
          "type": "address"
        }
      ],
      "name": "hasVoted",
      "outputs": [
        {
          "internalType": "bool",
          "name": "",
          "type": "bool"
        }
      ],
      "stateMutability": "view",
      "type": "function"
    },
    {
      "inputs": [],
      "name": "owner",
      "outputs": [
        {
          "internalType": "address",
          "name": "",
          "type": "address"
        }
      ],
      "stateMutability": "view",
      "type": "function"
    },
    {
      "inputs": [],
      "name": "proposalCount",
      "outputs": [
        {
          "internalType": "uint256",
          "name": "",
          "type": "uint256"
        }
      ],
      "stateMutability": "view",
      "type": "function"
    },
    {
      "inputs": [
        {
          "internalType": "address",
          "name": "department",
          "type": "address"
        },
        {
          "internalType": "uint256",
          "name": "amount",
          "type": "uint256"
        }
      ],
      "name": "proposeBudget",
      "outputs": [
        {
          "internalType": "uint256",
          "name": "",
          "type": "uint256"
        }
      ],
      "stateMutability": "nonpayable",
      "type": "function"
    },
    {
      "inputs": [],
      "name": "renounceOwnership",
      "outputs": [],
      "stateMutability": "nonpayable",
      "type": "function"
    },
    {
      "inputs": [
        {
          "internalType": "address",
          "name": "_budgetController",
          "type": "address"
        }
      ],
      "name": "setBudgetController",
      "outputs": [],
      "stateMutability": "nonpayable",
      "type": "function"
    },
    {
      "inputs": [],
      "name": "token",
      "outputs": [
        {
          "internalType": "contract GovernanceToken",
          "name": "",
          "type": "address"
        }
      ],
      "stateMutability": "view",
      "type": "function"
    },
    {
      "inputs": [
        {
          "internalType": "address",
          "name": "newOwner",
          "type": "address"
        }
      ],
      "name": "transferOwnership",
      "outputs": [],
      "stateMutability": "nonpayable",
      "type": "function"
    },
    {
      "inputs": [
        {
          "internalType": "uint256",
          "name": "proposalId",
          "type": "uint256"
        },
        {
          "internalType": "bool",
          "name": "support",
          "type": "bool"
        }
      ],
      "name": "vote",
      "outputs": [],
      "stateMutability": "nonpayable",
      "type": "function"
    }
  ],
  "bytecode": "0x608060405234801561001057600080fd5b5060405161137638038061137683398101604081905261002f9161010d565b338061005557604051631e4fbdf760e01b81526000600482015260240160405180910390fd5b61005e816100a1565b50600180546001600160a01b039485166001600160a01b031991821617909155600280549385169382169390931790925560038054919093169116179055610150565b600080546001600160a01b038381166001600160a01b0319831681178455604051919092169283917f8be0079c531659141344cd1fd0a4f28419497f9722a3daafe3b4186f6b6457e09190a35050565b80516001600160a01b038116811461010857600080fd5b919050565b60008060006060848603121561012257600080fd5b61012b846100f1565b9250610139602085016100f1565b9150610147604085016100f1565b90509250925092565b6112178061015f6000396000f3fe608060405234801561001057600080fd5b506004361061010b5760003560e01c8063b1610d7e116100a2578063cceb68f511610071578063cceb68f5146102a5578063da35c664146102c1578063ded24148146102ca578063f2fde38b14610328578063fc0c546a1461033b57600080fd5b8063b1610d7e14610262578063b7b47b071461026c578063c9d27afe1461027f578063cb62a60e1461029257600080fd5b80633b4d01a7116100de5780633b4d01a7146101805780634385963214610226578063715018a6146102495780638da5cb5b1461025157600080fd5b80630405d044146101105780630d61b51914610140578063261b3e491461015557806337f135d714610168575b600080fd5b600254610123906001600160a01b031681565b6040516001600160a01b0390911681526020015b60405180910390f35b61015361014e366004610f14565b61034e565b005b600354610123906001600160a01b031681565b6101726201518081565b604051908152602001610137565b6101e161018e366004610f14565b60009081526004602081905260409091208054600182015460028301546003840154948401546005850154600686015460079096015494976001600160a01b039094169692959294919390929160ff1690565b604080519889526001600160a01b039097166020890152958701949094526060860192909252608085015260a084015260c0830152151560e082015261010001610137565b610239610234366004610f49565b610510565b6040519015158152602001610137565b610153610596565b6000546001600160a01b0316610123565b6101726203f48081565b61015361027a366004610f75565b6105aa565b61015361028d366004610f97565b610661565b6101726102a0366004610fcc565b6108cc565b6102ad610a43565b604051610137989796959493929190611066565b61017260055481565b6101e16102d8366004610f14565b60046020819052600091825260409091208054600182015460028301546003840154948401546005850154600686015460079096015494966001600160a01b039094169592949192909160ff1688565b610153610336366004610f75565b610e59565b600154610123906001600160a01b031681565b6000818152600460205260409020600681015442116103a75760405162461bcd60e51b815260206004820152601060248201526f159bdd1a5b99c81b9bdd08195b99195960821b60448201526064015b60405180910390fd5b600781015460ff16156103ef5760405162461bcd60e51b815260206004820152601060248201526f105b1c9958591e48195e1958dd5d195960821b604482015260640161039e565b620151808160060154610402919061115d565b4210156104515760405162461bcd60e51b815260206004820152601760248201527f457865637574696f6e2064656c6179206e6f74206d6574000000000000000000604482015260640161039e565b80600401548160030154111561050c5760028054600183015491830154604051630344541b60e21b81526001600160a01b0393841660048201526024810191909152911690630d11506c90604401600060405180830381600087803b1580156104b957600080fd5b505af11580156104cd573d6000803e3d6000fd5b50505060078201805460ff191660011790555060405182907f712ae1383f79ac853f8d882153778e0260ef8f03b504e2866e0593e04d2b291f90600090a25b5050565b6000808311801561052357506005548311155b6105655760405162461bcd60e51b8152602060048201526013602482015272125b9d985b1a59081c1c9bdc1bdcd85b081251606a1b604482015260640161039e565b5060008281526004602090815260408083206001600160a01b038516845260080190915290205460ff165b92915050565b61059e610e97565b6105a86000610ec4565b565b6000546001600160a01b031633146105f05760405162461bcd60e51b81526020600482015260096024820152682737ba1037bbb732b960b91b604482015260640161039e565b6002546001600160a01b03161561063f5760405162461bcd60e51b8152602060048201526013602482015272105b1c9958591e481a5b9a5d1a585b1a5e9959606a1b604482015260640161039e565b600280546001600160a01b0319166001600160a01b0392909216919091179055565b600082815260046020526040902060068101544211156106b25760405162461bcd60e51b815260206004820152600c60248201526b159bdd1a5b99c8195b99195960a21b604482015260640161039e565b33600090815260088201602052604090205460ff16156107045760405162461bcd60e51b815260206004820152600d60248201526c105b1c9958591e481d9bdd1959609a1b604482015260640161039e565b6001546040516370a0823160e01b81523360048201526000916001600160a01b0316906370a0823190602401602060405180830381865afa15801561074d573d6000803e3d6000fd5b505050506040513d601f19601f820116820180604052508101906107719190611170565b116107be5760405162461bcd60e51b815260206004820152601b60248201527f4d75737420686f6c6420676f7665726e616e636520746f6b656e730000000000604482015260640161039e565b6001546040516370a0823160e01b81523360048201526000916001600160a01b0316906370a0823190602401602060405180830381865afa158015610807573d6000803e3d6000fd5b505050506040513d601f19601f8201168201806040525081019061082b9190611170565b905082156108525780826003016000828254610847919061115d565b9091555061086c9050565b80826004016000828254610866919061115d565b90915550505b33600081815260088401602052604090819020805460ff191660011790555185907ff2913dbe661ee2acc4a046d8fbcdc792373bda34c41c6086484b5345e5785e5f906108be90871515815260200190565b60405180910390a350505050565b6001546040516370a0823160e01b815233600482015260009182916001600160a01b03909116906370a0823190602401602060405180830381865afa158015610919573d6000803e3d6000fd5b505050506040513d601f19601f8201168201806040525081019061093d9190611170565b1161098a5760405162461bcd60e51b815260206004820152601b60248201527f4d75737420686f6c6420676f7665726e616e636520746f6b656e730000000000604482015260640161039e565b6005805490600061099a83611189565b90915550506005805460008181526004602052604090209081556001810180546001600160a01b0319166001600160a01b0387161790556002810184905542918101829055906109ee906203f4809061115d565b6006820155600554604080516001600160a01b0387168152602081018690527fce50a489b5e0e065d018075e96837fa2b593bd34cf3c1e840cca93631122344c910160405180910390a2505060055492915050565b606080606080606080606080600060055467ffffffffffffffff811115610a6c57610a6c6111a2565b604051908082528060200260200182016040528015610a95578160200160208202803683370190505b509050600060055467ffffffffffffffff811115610ab557610ab56111a2565b604051908082528060200260200182016040528015610ade578160200160208202803683370190505b509050600060055467ffffffffffffffff811115610afe57610afe6111a2565b604051908082528060200260200182016040528015610b27578160200160208202803683370190505b509050600060055467ffffffffffffffff811115610b4757610b476111a2565b604051908082528060200260200182016040528015610b70578160200160208202803683370190505b509050600060055467ffffffffffffffff811115610b9057610b906111a2565b604051908082528060200260200182016040528015610bb9578160200160208202803683370190505b509050600060055467ffffffffffffffff811115610bd957610bd96111a2565b604051908082528060200260200182016040528015610c02578160200160208202803683370190505b509050600060055467ffffffffffffffff811115610c2257610c226111a2565b604051908082528060200260200182016040528015610c4b578160200160208202803683370190505b509050600060055467ffffffffffffffff811115610c6b57610c6b6111a2565b604051908082528060200260200182016040528015610c94578160200160208202803683370190505b50905060015b6005548111610e40576000818152600460205260409020818a610cbe6001836111b8565b81518110610cce57610cce6111cb565b60209081029190910101526001808201546001600160a01b0316908a90610cf590856111b8565b81518110610d0557610d056111cb565b6001600160a01b0390921660209283029190910190910152600281015488610d2e6001856111b8565b81518110610d3e57610d3e6111cb565b6020908102919091010152600381015487610d5a6001856111b8565b81518110610d6a57610d6a6111cb565b6020908102919091010152600481015486610d866001856111b8565b81518110610d9657610d966111cb565b6020908102919091010152600581015485610db26001856111b8565b81518110610dc257610dc26111cb565b6020908102919091010152600681015484610dde6001856111b8565b81518110610dee57610dee6111cb565b6020908102919091010152600781015460ff1683610e0d6001856111b8565b81518110610e1d57610e1d6111cb565b911515602092830291909101909101525080610e3881611189565b915050610c9a565b50969f959e50939c50919a509850965094509092509050565b610e61610e97565b6001600160a01b038116610e8b57604051631e4fbdf760e01b81526000600482015260240161039e565b610e9481610ec4565b50565b6000546001600160a01b031633146105a85760405163118cdaa760e01b815233600482015260240161039e565b600080546001600160a01b038381166001600160a01b0319831681178455604051919092169283917f8be0079c531659141344cd1fd0a4f28419497f9722a3daafe3b4186f6b6457e09190a35050565b600060208284031215610f2657600080fd5b5035919050565b80356001600160a01b0381168114610f4457600080fd5b919050565b60008060408385031215610f5c57600080fd5b82359150610f6c60208401610f2d565b90509250929050565b600060208284031215610f8757600080fd5b610f9082610f2d565b9392505050565b60008060408385031215610faa57600080fd5b8235915060208301358015158114610fc157600080fd5b809150509250929050565b60008060408385031215610fdf57600080fd5b610fe883610f2d565b946020939093013593505050565b600081518084526020840193506020830160005b8281101561102857815186526020958601959091019060010161100a565b5093949350505050565b600081518084526020840193506020830160005b828110156110285781511515865260209586019590910190600101611046565b6101008152600061107b61010083018b610ff6565b8281036020840152808a5180835260208301915060208c01925060005b818110156110bf5783516001600160a01b0316835260209384019390920191600101611098565b505083810360408501526110d3818b610ff6565b91505082810360608401526110e88189610ff6565b905082810360808401526110fc8188610ff6565b905082810360a08401526111108187610ff6565b905082810360c08401526111248186610ff6565b905082810360e08401526111388185611032565b9b9a5050505050505050505050565b634e487b7160e01b600052601160045260246000fd5b8082018082111561059057610590611147565b60006020828403121561118257600080fd5b5051919050565b60006001820161119b5761119b611147565b5060010190565b634e487b7160e01b600052604160045260246000fd5b8181038181111561059057610590611147565b634e487b7160e01b600052603260045260246000fdfea264697066735822122040d06f4d4699b8607d04c41d5a851af8ce91630658fe6a60d721fd98779824bb64736f6c634300081c0033",
  "linkReferences": {},
  "deployedLinkReferences": {}
}