{"contracts/BudgetController.sol":{"BudgetController":{"abi":[{"inputs":[{"internalType":"address","name":"_departmentRegistry","type":"address"},{"internalType":"address","name":"_budgetDAO","type":"address"}],"stateMutability":"nonpayable","type":"constructor"},{"anonymous":false,"inputs":[{"indexed":true,"internalType":"address","name":"department","type":"address"},{"indexed":false,"internalType":"uint256","name":"spent","type":"uint256"},{"indexed":false,"internalType":"uint256","name":"budget","type":"uint256"}],"name":"BudgetLimitWarning","type":"event"},{"anonymous":false,"inputs":[{"indexed":true,"internalType":"address","name":"department","type":"address"},{"indexed":false,"internalType":"uint256","name":"oldBudget","type":"uint256"},{"indexed":false,"internalType":"uint256","name":"newBudget","type":"uint256"},{"indexed":false,"internalType":"uint256","name":"transactionId","type":"uint256"}],"name":"BudgetUpdated","type":"event"},{"anonymous":false,"inputs":[{"indexed":true,"internalType":"uint256","name":"id","type":"uint256"},{"indexed":false,"internalType":"enum BudgetController.TransactionStatus","name":"status","type":"uint8"}],"name":"TransactionCompleted","type":"event"},{"anonymous":false,"inputs":[{"indexed":true,"internalType":"uint256","name":"id","type":"uint256"},{"indexed":true,"internalType":"address","name":"department","type":"address"},{"indexed":false,"internalType":"enum BudgetController.TransactionType","name":"txType","type":"uint8"},{"indexed":false,"internalType":"uint256","name":"amount","type":"uint256"}],"name":"TransactionCreated","type":"event"},{"inputs":[],"name":"budgetDAO","outputs":[{"internalType":"address","name":"","type":"address"}],"stateMutability":"view","type":"function"},{"inputs":[{"internalType":"enum BudgetController.TransactionType","name":"txType","type":"uint8"},{"internalType":"uint256","name":"amount","type":"uint256"},{"internalType":"string","name":"description","type":"string"}],"name":"createTransaction","outputs":[{"internalType":"uint256","name":"","type":"uint256"}],"stateMutability":"nonpayable","type":"function"},{"inputs":[],"name":"departmentRegistry","outputs":[{"internalType":"contract IDepartmentRegistry","name":"","type":"address"}],"stateMutability":"view","type":"function"},{"inputs":[{"internalType":"address","name":"","type":"address"}],"name":"departmentTransactionCount","outputs":[{"internalType":"uint256","name":"","type":"uint256"}],"stateMutability":"view","type":"function"},{"inputs":[{"internalType":"address","name":"","type":"address"},{"internalType":"uint256","name":"","type":"uint256"}],"name":"departmentTransactions","outputs":[{"internalType":"uint256","name":"","type":"uint256"}],"stateMutability":"view","type":"function"},{"inputs":[{"internalType":"address","name":"department","type":"address"}],"name":"getTransactionsByDepartment","outputs":[{"components":[{"internalType":"uint256","name":"id","type":"uint256"},{"internalType":"address","name":"department","type":"address"},{"internalType":"enum BudgetController.TransactionType","name":"txType","type":"uint8"},{"internalType":"uint256","name":"amount","type":"uint256"},{"internalType":"string","name":"description","type":"string"},{"internalType":"enum BudgetController.TransactionStatus","name":"status","type":"uint8"},{"internalType":"uint256","name":"timestamp","type":"uint256"}],"internalType":"struct BudgetController.Transaction[]","name":"","type":"tuple[]"}],"stateMutability":"view","type":"function"},{"inputs":[{"internalType":"address","name":"department","type":"address"},{"internalType":"uint256","name":"initialBudget","type":"uint256"}],"name":"initializeDepartmentBudget","outputs":[],"stateMutability":"nonpayable","type":"function"},{"inputs":[{"internalType":"uint256","name":"transactionId","type":"uint256"}],"name":"processTransaction","outputs":[],"stateMutability":"nonpayable","type":"function"},{"inputs":[{"internalType":"enum BudgetController.TransactionType","name":"txType","type":"uint8"},{"internalType":"uint256","name":"amount","type":"uint256"},{"internalType":"string","name":"description","type":"string"}],"name":"submitTransaction","outputs":[{"internalType":"uint256","name":"","type":"uint256"}],"stateMutability":"nonpayable","type":"function"},{"inputs":[],"name":"transactionCount","outputs":[{"internalType":"uint256","name":"","type":"uint256"}],"stateMutability":"view","type":"function"},{"inputs":[{"internalType":"uint256","name":"","type":"uint256"}],"name":"transactions","outputs":[{"internalType":"uint256","name":"id","type":"uint256"},{"internalType":"address","name":"department","type":"address"},{"internalType":"enum BudgetController.TransactionType","name":"txType","type":"uint8"},{"internalType":"uint256","name":"amount","type":"uint256"},{"internalType":"string","name":"description","type":"string"},{"internalType":"enum BudgetController.TransactionStatus","name":"status","type":"uint8"},{"internalType":"uint256","name":"timestamp","type":"uint256"}],"stateMutability":"view","type":"function"},{"inputs":[{"internalType":"address","name":"department","type":"address"},{"internalType":"uint256","name":"newBudget","type":"uint256"}],"name":"updateDepartmentBudget","outputs":[],"stateMutability":"nonpayable","type":"function"}],"evm":{"bytecode":{"linkReferences":{},"object":"6080604052348015600f57600080fd5b50604051611ece380380611ece833981016040819052602c916077565b600080546001600160a01b039384166001600160a01b0319918216179091556005805492909316911617905560a5565b80516001600160a01b0381168114607257600080fd5b919050565b60008060408385031215608957600080fd5b609083605c565b9150609c60208401605c565b90509250929050565b611e1a806100b46000396000f3fe608060405234801561001057600080fd5b50600436106100b45760003560e01c8063680c09b511610071578063680c09b5146101585780639ace38c214610178578063b5ddbda81461019e578063b77bf600146101be578063f0066f83146101c7578063f57c5ecc146101da57600080fd5b80630d11506c146100b95780631c434df0146100ce578063200c5b9d146100e1578063261b3e491461010757806335c7bf9e146101325780635df5010c14610145575b600080fd5b6100cc6100c73660046116f9565b6101ed565b005b6100cc6100dc3660046116f9565b6104ca565b6100f46100ef3660046117bd565b6108e5565b6040519081526020015b60405180910390f35b60005461011a906001600160a01b031681565b6040516001600160a01b0390911681526020016100fe565b6100f46101403660046116f9565b610b8d565b6100f46101533660046117bd565b610bbe565b6100f461016636600461185d565b60046020526000908152604090205481565b61018b610186366004611881565b610d9a565b6040516100fe9796959493929190611924565b6101b16101ac36600461185d565b610e71565b6040516100fe9190611980565b6100f460025481565b6100cc6101d5366004611881565b6110f9565b60055461011a906001600160a01b031681565b600054604051635692e5a160e11b81523360048201526001600160a01b039091169063ad25cb4290602401602060405180830381865afa158015610235573d6000803e3d6000fd5b505050506040513d601f19601f820116820180604052508101906102599190611a60565b8061026e57506005546001600160a01b031633145b6102935760405162461bcd60e51b815260040161028a90611a7b565b60405180910390fd5b6000546040516344d49dcd60e11b81526001600160a01b038481166004830152909116906389a93b9a90602401602060405180830381865afa1580156102dd573d6000803e3d6000fd5b505050506040513d601f19601f820116820180604052508101906103019190611a60565b61034d5760405162461bcd60e51b815260206004820152601860248201527f4465706172746d656e74206973206e6f74206163746976650000000000000000604482015260640161028a565b60008054604051636e68c25360e01b81526001600160a01b03858116600483015290911690636e68c25390602401602060405180830381865afa158015610398573d6000803e3d6000fd5b505050506040513d601f19601f820116820180604052508101906103bc9190611aa3565b9050600061041060028385116103db576103d68585611ad2565b6103e5565b6103e58486611ad2565b6040518060400160405280600d81526020016c4275646765742055706461746560981b815250610bbe565b600054604051630344541b60e21b81526001600160a01b03878116600483015260248201879052929350911690630d11506c90604401600060405180830381600087803b15801561046057600080fd5b505af1158015610474573d6000803e3d6000fd5b505060408051858152602081018790529081018490526001600160a01b03871692507f1c6f534fc8e314bccb4945dbaba4438a802afe2c11d64b93b3eaa79c5f017c6e915060600160405180910390a250505050565b600054604051635692e5a160e11b81523360048201526001600160a01b039091169063ad25cb4290602401602060405180830381865afa158015610512573d6000803e3d6000fd5b505050506040513d601f19601f820116820180604052508101906105369190611a60565b8061054b57506005546001600160a01b031633145b6105675760405162461bcd60e51b815260040161028a90611a7b565b600054600160a01b900460ff16156105b25760405162461bcd60e51b815260206004820152600e60248201526d1499595b9d1c985b9d0818d85b1b60921b604482015260640161028a565b6000805460ff60a01b1916600160a01b1790558080158015906105df575069152d02c7e14af68000008111155b61061c5760405162461bcd60e51b815260206004820152600e60248201526d125b9d985b1a5908185b5bdd5b9d60921b604482015260640161028a565b600054604051630cd29ba760e31b81526001600160a01b03858116600483015290911690636694dd3890602401600060405180830381865afa158015610666573d6000803e3d6000fd5b505050506040513d6000823e601f3d908101601f1916820160405261068e9190810190611b3d565b60a001516106d65760405162461bcd60e51b81526020600482015260156024820152744465706172746d656e74206e6f742061637469766560581b604482015260640161028a565b600280549060006106e683611bf8565b90915550506002546040805160e0810182528281526001600160a01b0386811660208084019182526000848601818152606086018a905286518088018852601981527f496e697469616c2062756467657420616c6c6f636174696f6e00000000000000818501526080870152600160a087018190524260c08801528883529283905295902084518155915190820180546001600160a01b03198116929094169182178155945193949193926001600160a81b03191617600160a01b8360038111156107b3576107b361189a565b021790555060608201516002820155608082015160038201906107d69082611c9a565b5060a082015160048201805460ff191660018360028111156107fa576107fa61189a565b021790555060c091909101516005909101556001600160a01b03841660008181526003602090815260408083208054600181018255908452828420018590559282526004905290812080549161084f83611bf8565b9190505550836001600160a01b0316817fc5617696b75e538ed738f904611fdfb78dff557717f05c9ea38595041503c5f0600086604051610891929190611d59565b60405180910390a3807f11a3517410d399d687a3dac00c28ef32ffea27e8991a0d4d2283382878b118f660016040516108ca9190611d74565b60405180910390a250506000805460ff60a01b191690555050565b6000805460405163266ebeb160e21b81523360048201526001600160a01b03909116906399bafac490602401602060405180830381865afa15801561092e573d6000803e3d6000fd5b505050506040513d601f19601f820116820180604052508101906109529190611a60565b6109945760405162461bcd60e51b8152602060048201526013602482015272139bdd0819195c185c9d1b595b9d081a195859606a1b604482015260640161028a565b6000831180156109ae575069152d02c7e14af68000008311155b6109eb5760405162461bcd60e51b815260206004820152600e60248201526d125b9d985b1a5908185b5bdd5b9d60921b604482015260640161028a565b600280549060006109fb83611bf8565b90915550506002546040805160e081018252828152336020820152908101866003811115610a2b57610a2b61189a565b81526020810186905260408101859052606001600081524260209182015260008381526001808352604091829020845181559284015190830180546001600160a01b039092166001600160a01b0319831681178255928501519290916001600160a81b03191617600160a01b836003811115610aa957610aa961189a565b02179055506060820151600282015560808201516003820190610acc9082611c9a565b5060a082015160048201805460ff19166001836002811115610af057610af061189a565b021790555060c0919091015160059091015533600081815260036020908152604080832080546001810182559084528284200185905592825260049052908120805491610b3c83611bf8565b9190505550336001600160a01b0316817fc5617696b75e538ed738f904611fdfb78dff557717f05c9ea38595041503c5f08787604051610b7d929190611d59565b60405180910390a3949350505050565b60036020528160005260406000208181548110610ba957600080fd5b90600052602060002001600091509150505481565b6002805460009182610bcf83611bf8565b90915550506002546040805160e081018252828152336020820152908101866003811115610bff57610bff61189a565b81526020810186905260408101859052606001600181524260209182015260008381526001808352604091829020845181559284015190830180546001600160a01b039092166001600160a01b0319831681178255928501519290916001600160a81b03191617600160a01b836003811115610c7d57610c7d61189a565b02179055506060820151600282015560808201516003820190610ca09082611c9a565b5060a082015160048201805460ff19166001836002811115610cc457610cc461189a565b021790555060c0919091015160059091015533600081815260036020908152604080832080546001810182559084528284200185905592825260049052908120805491610d1083611bf8565b9190505550336001600160a01b0316817fc5617696b75e538ed738f904611fdfb78dff557717f05c9ea38595041503c5f08787604051610d51929190611d59565b60405180910390a3807f11a3517410d399d687a3dac00c28ef32ffea27e8991a0d4d2283382878b118f66001604051610d8a9190611d74565b60405180910390a2949350505050565b600160208190526000918252604090912080549181015460028201546003830180546001600160a01b03841694600160a01b90940460ff16939190610dde90611c11565b80601f0160208091040260200160405190810160405280929190818152602001828054610e0a90611c11565b8015610e575780601f10610e2c57610100808354040283529160200191610e57565b820191906000526020600020905b815481529060010190602001808311610e3a57829003601f168201915b505050506004830154600590930154919260ff1691905087565b6001600160a01b0381166000908152600360209081526040808320805482518185028101850190935280835260609493830182828015610ed057602002820191906000526020600020905b815481526020019060010190808311610ebc575b505050505090506000815167ffffffffffffffff811115610ef357610ef3611725565b604051908082528060200260200182016040528015610f5957816020015b6040805160e081018252600080825260208083018290529282018190526060808301829052608083015260a0820181905260c08201528252600019909201910181610f115790505b50905060005b82518110156110f15760016000848381518110610f7e57610f7e611d82565b6020908102919091018101518252818101929092526040908101600020815160e0810183528154815260018201546001600160a01b03811694820194909452929091830190600160a01b900460ff166003811115610fde57610fde61189a565b6003811115610fef57610fef61189a565b81526020016002820154815260200160038201805461100d90611c11565b80601f016020809104026020016040519081016040528092919081815260200182805461103990611c11565b80156110865780601f1061105b57610100808354040283529160200191611086565b820191906000526020600020905b81548152906001019060200180831161106957829003601f168201915b5050509183525050600482015460209091019060ff1660028111156110ad576110ad61189a565b60028111156110be576110be61189a565b81526020016005820154815250508282815181106110de576110de611d82565b6020908102919091010152600101610f5f565b509392505050565b600054604051635692e5a160e11b81523360048201526001600160a01b039091169063ad25cb4290602401602060405180830381865afa158015611141573d6000803e3d6000fd5b505050506040513d601f19601f820116820180604052508101906111659190611a60565b8061117a57506005546001600160a01b031633145b6111965760405162461bcd60e51b815260040161028a90611a7b565b600054600160a01b900460ff16156111e15760405162461bcd60e51b815260206004820152600e60248201526d1499595b9d1c985b9d0818d85b1b60921b604482015260640161028a565b6000805460ff60a01b1916600160a01b17815581815260016020526040812080549091036112495760405162461bcd60e51b8152602060048201526015602482015274151c985b9cd858dd1a5bdb881b9bdd08199bdd5b99605a1b604482015260640161028a565b6000600482015460ff1660028111156112645761126461189a565b146112b15760405162461bcd60e51b815260206004820152601760248201527f5472616e73616374696f6e206e6f742070656e64696e67000000000000000000604482015260640161028a565b6000805460018301546040516327a9212760e01b81526001600160a01b0391821660048201529116906327a9212790602401600060405180830381865afa158015611300573d6000803e3d6000fd5b505050506040513d6000823e601f3d908101601f191682016040526113289190810190611b3d565b905060036001830154600160a01b900460ff16600381111561134c5761134c61189a565b036113d95780602001518260020154826040015161136a9190611d98565b11156113aa5760405162461bcd60e51b815260206004820152600f60248201526e109d5919d95d08195e18d959591959608a1b604482015260640161028a565b600182015460028301546113d4916001600160a01b03811691600160a01b90910460ff16906114ed565b611490565b60006001830154600160a01b900460ff1660038111156113fb576113fb61189a565b036114905769152d02c7e14af68000008260020154826020015161141f9190611d98565b11156114665760405162461bcd60e51b815260206004820152601660248201527522bc31b2b2b2399036b0bc1030b63637b1b0ba34b7b760511b604482015260640161028a565b60018201546002830154611490916001600160a01b03811691600160a01b90910460ff16906114ed565b60048201805460ff1916600190811790915560405184917f11a3517410d399d687a3dac00c28ef32ffea27e8991a0d4d2283382878b118f6916114d39190611d74565b60405180910390a250506000805460ff60a01b1916905550565b600080546040516327a9212760e01b81526001600160a01b038681166004830152909116906327a9212790602401600060405180830381865afa158015611538573d6000803e3d6000fd5b505050506040513d6000823e601f3d908101601f191682016040526115609190810190611b3d565b604081015160208201519192509060038560038111156115825761158261189a565b03611598576115918483611d98565b91506115be565b60008560038111156115ac576115ac61189a565b036115be576115bb8482611d98565b90505b60006115ca83836116b0565b600054608086015160405162bacb0b60e01b81526001600160a01b038b8116600483015260248201859052604482019290925260648101879052929350169062bacb0b90608401600060405180830381600087803b15801561162b57600080fd5b505af115801561163f573d6000803e3d6000fd5b50505050606482605a6116529190611dab565b61165c9190611dc2565b83106116a75760408051848152602081018490526001600160a01b038916917ffa05e6c946b9b30d53ea35a0c06832056010f40d2686eba05a629781030fa8c2910160405180910390a25b50505050505050565b6000816000036116c2575060006116db565b816116ce846064611dab565b6116d89190611dc2565b90505b92915050565b6001600160a01b03811681146116f657600080fd5b50565b6000806040838503121561170c57600080fd5b8235611717816116e1565b946020939093013593505050565b634e487b7160e01b600052604160045260246000fd5b60405160e0810167ffffffffffffffff8111828210171561175e5761175e611725565b60405290565b604051601f8201601f1916810167ffffffffffffffff8111828210171561178d5761178d611725565b604052919050565b600067ffffffffffffffff8211156117af576117af611725565b50601f01601f191660200190565b6000806000606084860312156117d257600080fd5b8335600481106117e157600080fd5b925060208401359150604084013567ffffffffffffffff81111561180457600080fd5b8401601f8101861361181557600080fd5b803561182861182382611795565b611764565b81815287602083850101111561183d57600080fd5b816020840160208301376000602083830101528093505050509250925092565b60006020828403121561186f57600080fd5b813561187a816116e1565b9392505050565b60006020828403121561189357600080fd5b5035919050565b634e487b7160e01b600052602160045260246000fd5b600481106118c0576118c061189a565b9052565b60005b838110156118df5781810151838201526020016118c7565b50506000910152565b600081518084526119008160208601602086016118c4565b601f01601f19169290920160200192915050565b600381106118c0576118c061189a565b8781526001600160a01b038716602082015261194360408201876118b0565b84606082015260e06080820152600061195f60e08301866118e8565b905061196e60a0830185611914565b8260c083015298975050505050505050565b6000602082016020835280845180835260408501915060408160051b86010192506020860160005b82811015611a3f57868503603f190184528151805186526020808201516001600160a01b031690870152604080820151906119e5908801826118b0565b5060608101516060870152608081015160e06080880152611a0960e08801826118e8565b905060a0820151611a1d60a0890182611914565b5060c091820151969091019590955260209384019391909101906001016119a8565b50929695505050505050565b80518015158114611a5b57600080fd5b919050565b600060208284031215611a7257600080fd5b6116d882611a4b565b6020808252600e908201526d139bdd08185d5d1a1bdc9a5e995960921b604082015260600190565b600060208284031215611ab557600080fd5b5051919050565b634e487b7160e01b600052601160045260246000fd5b818103818111156116db576116db611abc565b600082601f830112611af657600080fd5b8151611b0461182382611795565b818152846020838601011115611b1957600080fd5b611b2a8260208301602087016118c4565b949350505050565b8051611a5b816116e1565b600060208284031215611b4f57600080fd5b815167ffffffffffffffff811115611b6657600080fd5b820160e08185031215611b7857600080fd5b611b8061173b565b815167ffffffffffffffff811115611b9757600080fd5b611ba386828501611ae5565b82525060208281015190820152604080830151908201526060808301519082015260808083015190820152611bda60a08301611a4b565b60a0820152611beb60c08301611b32565b60c0820152949350505050565b600060018201611c0a57611c0a611abc565b5060010190565b600181811c90821680611c2557607f821691505b602082108103611c4557634e487b7160e01b600052602260045260246000fd5b50919050565b601f821115611c9557806000526020600020601f840160051c81016020851015611c725750805b601f840160051c820191505b81811015611c925760008155600101611c7e565b50505b505050565b815167ffffffffffffffff811115611cb457611cb4611725565b611cc881611cc28454611c11565b84611c4b565b6020601f821160018114611cfc5760008315611ce45750848201515b600019600385901b1c1916600184901b178455611c92565b600084815260208120601f198516915b82811015611d2c5787850151825560209485019460019092019101611d0c565b5084821015611d4a5786840151600019600387901b60f8161c191681555b50505050600190811b01905550565b60408101611d6782856118b0565b8260208301529392505050565b602081016116db8284611914565b634e487b7160e01b600052603260045260246000fd5b808201808211156116db576116db611abc565b80820281158282048414176116db576116db611abc565b600082611ddf57634e487b7160e01b600052601260045260246000fd5b50049056fea2646970667358221220020237cc5156f0833e0c93a016d7f14bff796f9741fd714d6ede615cb5bb9c0264736f6c634300081c0033","opcodes":"PUSH1 0x80 PUSH1 0x40 MSTORE CALLVALUE DUP1 ISZERO PUSH1 0xF JUMPI PUSH1 0x0 DUP1 REVERT JUMPDEST POP PUSH1 0x40 MLOAD PUSH2 0x1ECE CODESIZE SUB DUP1 PUSH2 0x1ECE DUP4 CODECOPY DUP2 ADD PUSH1 0x40 DUP2 SWAP1 MSTORE PUSH1 0x2C SWAP2 PUSH1 0x77 JUMP JUMPDEST PUSH1 0x0 DUP1 SLOAD PUSH1 0x1 PUSH1 0x1 PUSH1 0xA0 SHL SUB SWAP4 DUP5 AND PUSH1 0x1 PUSH1 0x1 PUSH1 0xA0 SHL SUB NOT SWAP2 DUP3 AND OR SWAP1 SWAP2 SSTORE PUSH1 0x5 DUP1 SLOAD SWAP3 SWAP1 SWAP4 AND SWAP2 AND OR SWAP1 SSTORE PUSH1 0xA5 JUMP JUMPDEST DUP1 MLOAD PUSH1 0x1 PUSH1 0x1 PUSH1 0xA0 SHL SUB DUP2 AND DUP2 EQ PUSH1 0x72 JUMPI PUSH1 0x0 DUP1 REVERT JUMPDEST SWAP2 SWAP1 POP JUMP JUMPDEST PUSH1 0x0 DUP1 PUSH1 0x40 DUP4 DUP6 SUB SLT ISZERO PUSH1 0x89 JUMPI PUSH1 0x0 DUP1 REVERT JUMPDEST PUSH1 0x90 DUP4 PUSH1 0x5C JUMP JUMPDEST SWAP2 POP PUSH1 0x9C PUSH1 0x20 DUP5 ADD PUSH1 0x5C JUMP JUMPDEST SWAP1 POP SWAP3 POP SWAP3 SWAP1 POP JUMP JUMPDEST PUSH2 0x1E1A DUP1 PUSH2 0xB4 PUSH1 0x0 CODECOPY PUSH1 0x0 RETURN INVALID PUSH1 0x80 PUSH1 0x40 MSTORE CALLVALUE DUP1 ISZERO PUSH2 0x10 JUMPI PUSH1 0x0 DUP1 REVERT JUMPDEST POP PUSH1 0x4 CALLDATASIZE LT PUSH2 0xB4 JUMPI PUSH1 0x0 CALLDATALOAD PUSH1 0xE0 SHR DUP1 PUSH4 0x680C09B5 GT PUSH2 0x71 JUMPI DUP1 PUSH4 0x680C09B5 EQ PUSH2 0x158 JUMPI DUP1 PUSH4 0x9ACE38C2 EQ PUSH2 0x178 JUMPI DUP1 PUSH4 0xB5DDBDA8 EQ PUSH2 0x19E JUMPI DUP1 PUSH4 0xB77BF600 EQ PUSH2 0x1BE JUMPI DUP1 PUSH4 0xF0066F83 EQ PUSH2 0x1C7 JUMPI DUP1 PUSH4 0xF57C5ECC EQ PUSH2 0x1DA JUMPI PUSH1 0x0 DUP1 REVERT JUMPDEST DUP1 PUSH4 0xD11506C EQ PUSH2 0xB9 JUMPI DUP1 PUSH4 0x1C434DF0 EQ PUSH2 0xCE JUMPI DUP1 PUSH4 0x200C5B9D EQ PUSH2 0xE1 JUMPI DUP1 PUSH4 0x261B3E49 EQ PUSH2 0x107 JUMPI DUP1 PUSH4 0x35C7BF9E EQ PUSH2 0x132 JUMPI DUP1 PUSH4 0x5DF5010C EQ PUSH2 0x145 JUMPI JUMPDEST PUSH1 0x0 DUP1 REVERT JUMPDEST PUSH2 0xCC PUSH2 0xC7 CALLDATASIZE PUSH1 0x4 PUSH2 0x16F9 JUMP JUMPDEST PUSH2 0x1ED JUMP JUMPDEST STOP JUMPDEST PUSH2 0xCC PUSH2 0xDC CALLDATASIZE PUSH1 0x4 PUSH2 0x16F9 JUMP JUMPDEST PUSH2 0x4CA JUMP JUMPDEST PUSH2 0xF4 PUSH2 0xEF CALLDATASIZE PUSH1 0x4 PUSH2 0x17BD JUMP JUMPDEST PUSH2 0x8E5 JUMP JUMPDEST PUSH1 0x40 MLOAD SWAP1 DUP2 MSTORE PUSH1 0x20 ADD JUMPDEST PUSH1 0x40 MLOAD DUP1 SWAP2 SUB SWAP1 RETURN JUMPDEST PUSH1 0x0 SLOAD PUSH2 0x11A SWAP1 PUSH1 0x1 PUSH1 0x1 PUSH1 0xA0 SHL SUB AND DUP2 JUMP JUMPDEST PUSH1 0x40 MLOAD PUSH1 0x1 PUSH1 0x1 PUSH1 0xA0 SHL SUB SWAP1 SWAP2 AND DUP2 MSTORE PUSH1 0x20 ADD PUSH2 0xFE JUMP JUMPDEST PUSH2 0xF4 PUSH2 0x140 CALLDATASIZE PUSH1 0x4 PUSH2 0x16F9 JUMP JUMPDEST PUSH2 0xB8D JUMP JUMPDEST PUSH2 0xF4 PUSH2 0x153 CALLDATASIZE PUSH1 0x4 PUSH2 0x17BD JUMP JUMPDEST PUSH2 0xBBE JUMP JUMPDEST PUSH2 0xF4 PUSH2 0x166 CALLDATASIZE PUSH1 0x4 PUSH2 0x185D JUMP JUMPDEST PUSH1 0x4 PUSH1 0x20 MSTORE PUSH1 0x0 SWAP1 DUP2 MSTORE PUSH1 0x40 SWAP1 KECCAK256 SLOAD DUP2 JUMP JUMPDEST PUSH2 0x18B PUSH2 0x186 CALLDATASIZE PUSH1 0x4 PUSH2 0x1881 JUMP JUMPDEST PUSH2 0xD9A JUMP JUMPDEST PUSH1 0x40 MLOAD PUSH2 0xFE SWAP8 SWAP7 SWAP6 SWAP5 SWAP4 SWAP3 SWAP2 SWAP1 PUSH2 0x1924 JUMP JUMPDEST PUSH2 0x1B1 PUSH2 0x1AC CALLDATASIZE PUSH1 0x4 PUSH2 0x185D JUMP JUMPDEST PUSH2 0xE71 JUMP JUMPDEST PUSH1 0x40 MLOAD PUSH2 0xFE SWAP2 SWAP1 PUSH2 0x1980 JUMP JUMPDEST PUSH2 0xF4 PUSH1 0x2 SLOAD DUP2 JUMP JUMPDEST PUSH2 0xCC PUSH2 0x1D5 CALLDATASIZE PUSH1 0x4 PUSH2 0x1881 JUMP JUMPDEST PUSH2 0x10F9 JUMP JUMPDEST PUSH1 0x5 SLOAD PUSH2 0x11A SWAP1 PUSH1 0x1 PUSH1 0x1 PUSH1 0xA0 SHL SUB AND DUP2 JUMP JUMPDEST PUSH1 0x0 SLOAD PUSH1 0x40 MLOAD PUSH4 0x5692E5A1 PUSH1 0xE1 SHL DUP2 MSTORE CALLER PUSH1 0x4 DUP3 ADD MSTORE PUSH1 0x1 PUSH1 0x1 PUSH1 0xA0 SHL SUB SWAP1 SWAP2 AND SWAP1 PUSH4 0xAD25CB42 SWAP1 PUSH1 0x24 ADD PUSH1 0x20 PUSH1 0x40 MLOAD DUP1 DUP4 SUB DUP2 DUP7 GAS STATICCALL ISZERO DUP1 ISZERO PUSH2 0x235 JUMPI RETURNDATASIZE PUSH1 0x0 DUP1 RETURNDATACOPY RETURNDATASIZE PUSH1 0x0 REVERT JUMPDEST POP POP POP POP PUSH1 0x40 MLOAD RETURNDATASIZE PUSH1 0x1F NOT PUSH1 0x1F DUP3 ADD AND DUP3 ADD DUP1 PUSH1 0x40 MSTORE POP DUP2 ADD SWAP1 PUSH2 0x259 SWAP2 SWAP1 PUSH2 0x1A60 JUMP JUMPDEST DUP1 PUSH2 0x26E JUMPI POP PUSH1 0x5 SLOAD PUSH1 0x1 PUSH1 0x1 PUSH1 0xA0 SHL SUB AND CALLER EQ JUMPDEST PUSH2 0x293 JUMPI PUSH1 0x40 MLOAD PUSH3 0x461BCD PUSH1 0xE5 SHL DUP2 MSTORE PUSH1 0x4 ADD PUSH2 0x28A SWAP1 PUSH2 0x1A7B JUMP JUMPDEST PUSH1 0x40 MLOAD DUP1 SWAP2 SUB SWAP1 REVERT JUMPDEST PUSH1 0x0 SLOAD PUSH1 0x40 MLOAD PUSH4 0x44D49DCD PUSH1 0xE1 SHL DUP2 MSTORE PUSH1 0x1 PUSH1 0x1 PUSH1 0xA0 SHL SUB DUP5 DUP2 AND PUSH1 0x4 DUP4 ADD MSTORE SWAP1 SWAP2 AND SWAP1 PUSH4 0x89A93B9A SWAP1 PUSH1 0x24 ADD PUSH1 0x20 PUSH1 0x40 MLOAD DUP1 DUP4 SUB DUP2 DUP7 GAS STATICCALL ISZERO DUP1 ISZERO PUSH2 0x2DD JUMPI RETURNDATASIZE PUSH1 0x0 DUP1 RETURNDATACOPY RETURNDATASIZE PUSH1 0x0 REVERT JUMPDEST POP POP POP POP PUSH1 0x40 MLOAD RETURNDATASIZE PUSH1 0x1F NOT PUSH1 0x1F DUP3 ADD AND DUP3 ADD DUP1 PUSH1 0x40 MSTORE POP DUP2 ADD SWAP1 PUSH2 0x301 SWAP2 SWAP1 PUSH2 0x1A60 JUMP JUMPDEST PUSH2 0x34D JUMPI PUSH1 0x40 MLOAD PUSH3 0x461BCD PUSH1 0xE5 SHL DUP2 MSTORE PUSH1 0x20 PUSH1 0x4 DUP3 ADD MSTORE PUSH1 0x18 PUSH1 0x24 DUP3 ADD MSTORE PUSH32 0x4465706172746D656E74206973206E6F74206163746976650000000000000000 PUSH1 0x44 DUP3 ADD MSTORE PUSH1 0x64 ADD PUSH2 0x28A JUMP JUMPDEST PUSH1 0x0 DUP1 SLOAD PUSH1 0x40 MLOAD PUSH4 0x6E68C253 PUSH1 0xE0 SHL DUP2 MSTORE PUSH1 0x1 PUSH1 0x1 PUSH1 0xA0 SHL SUB DUP6 DUP2 AND PUSH1 0x4 DUP4 ADD MSTORE SWAP1 SWAP2 AND SWAP1 PUSH4 0x6E68C253 SWAP1 PUSH1 0x24 ADD PUSH1 0x20 PUSH1 0x40 MLOAD DUP1 DUP4 SUB DUP2 DUP7 GAS STATICCALL ISZERO DUP1 ISZERO PUSH2 0x398 JUMPI RETURNDATASIZE PUSH1 0x0 DUP1 RETURNDATACOPY RETURNDATASIZE PUSH1 0x0 REVERT JUMPDEST POP POP POP POP PUSH1 0x40 MLOAD RETURNDATASIZE PUSH1 0x1F NOT PUSH1 0x1F DUP3 ADD AND DUP3 ADD DUP1 PUSH1 0x40 MSTORE POP DUP2 ADD SWAP1 PUSH2 0x3BC SWAP2 SWAP1 PUSH2 0x1AA3 JUMP JUMPDEST SWAP1 POP PUSH1 0x0 PUSH2 0x410 PUSH1 0x2 DUP4 DUP6 GT PUSH2 0x3DB JUMPI PUSH2 0x3D6 DUP6 DUP6 PUSH2 0x1AD2 JUMP JUMPDEST PUSH2 0x3E5 JUMP JUMPDEST PUSH2 0x3E5 DUP5 DUP7 PUSH2 0x1AD2 JUMP JUMPDEST PUSH1 0x40 MLOAD DUP1 PUSH1 0x40 ADD PUSH1 0x40 MSTORE DUP1 PUSH1 0xD DUP2 MSTORE PUSH1 0x20 ADD PUSH13 0x42756467657420557064617465 PUSH1 0x98 SHL DUP2 MSTORE POP PUSH2 0xBBE JUMP JUMPDEST PUSH1 0x0 SLOAD PUSH1 0x40 MLOAD PUSH4 0x344541B PUSH1 0xE2 SHL DUP2 MSTORE PUSH1 0x1 PUSH1 0x1 PUSH1 0xA0 SHL SUB DUP8 DUP2 AND PUSH1 0x4 DUP4 ADD MSTORE PUSH1 0x24 DUP3 ADD DUP8 SWAP1 MSTORE SWAP3 SWAP4 POP SWAP2 AND SWAP1 PUSH4 0xD11506C SWAP1 PUSH1 0x44 ADD PUSH1 0x0 PUSH1 0x40 MLOAD DUP1 DUP4 SUB DUP2 PUSH1 0x0 DUP8 DUP1 EXTCODESIZE ISZERO DUP1 ISZERO PUSH2 0x460 JUMPI PUSH1 0x0 DUP1 REVERT JUMPDEST POP GAS CALL ISZERO DUP1 ISZERO PUSH2 0x474 JUMPI RETURNDATASIZE PUSH1 0x0 DUP1 RETURNDATACOPY RETURNDATASIZE PUSH1 0x0 REVERT JUMPDEST POP POP PUSH1 0x40 DUP1 MLOAD DUP6 DUP2 MSTORE PUSH1 0x20 DUP2 ADD DUP8 SWAP1 MSTORE SWAP1 DUP2 ADD DUP5 SWAP1 MSTORE PUSH1 0x1 PUSH1 0x1 PUSH1 0xA0 SHL SUB DUP8 AND SWAP3 POP PUSH32 0x1C6F534FC8E314BCCB4945DBABA4438A802AFE2C11D64B93B3EAA79C5F017C6E SWAP2 POP PUSH1 0x60 ADD PUSH1 0x40 MLOAD DUP1 SWAP2 SUB SWAP1 LOG2 POP POP POP POP JUMP JUMPDEST PUSH1 0x0 SLOAD PUSH1 0x40 MLOAD PUSH4 0x5692E5A1 PUSH1 0xE1 SHL DUP2 MSTORE CALLER PUSH1 0x4 DUP3 ADD MSTORE PUSH1 0x1 PUSH1 0x1 PUSH1 0xA0 SHL SUB SWAP1 SWAP2 AND SWAP1 PUSH4 0xAD25CB42 SWAP1 PUSH1 0x24 ADD PUSH1 0x20 PUSH1 0x40 MLOAD DUP1 DUP4 SUB DUP2 DUP7 GAS STATICCALL ISZERO DUP1 ISZERO PUSH2 0x512 JUMPI RETURNDATASIZE PUSH1 0x0 DUP1 RETURNDATACOPY RETURNDATASIZE PUSH1 0x0 REVERT JUMPDEST POP POP POP POP PUSH1 0x40 MLOAD RETURNDATASIZE PUSH1 0x1F NOT PUSH1 0x1F DUP3 ADD AND DUP3 ADD DUP1 PUSH1 0x40 MSTORE POP DUP2 ADD SWAP1 PUSH2 0x536 SWAP2 SWAP1 PUSH2 0x1A60 JUMP JUMPDEST DUP1 PUSH2 0x54B JUMPI POP PUSH1 0x5 SLOAD PUSH1 0x1 PUSH1 0x1 PUSH1 0xA0 SHL SUB AND CALLER EQ JUMPDEST PUSH2 0x567 JUMPI PUSH1 0x40 MLOAD PUSH3 0x461BCD PUSH1 0xE5 SHL DUP2 MSTORE PUSH1 0x4 ADD PUSH2 0x28A SWAP1 PUSH2 0x1A7B JUMP JUMPDEST PUSH1 0x0 SLOAD PUSH1 0x1 PUSH1 0xA0 SHL SWAP1 DIV PUSH1 0xFF AND ISZERO PUSH2 0x5B2 JUMPI PUSH1 0x40 MLOAD PUSH3 0x461BCD PUSH1 0xE5 SHL DUP2 MSTORE PUSH1 0x20 PUSH1 0x4 DUP3 ADD MSTORE PUSH1 0xE PUSH1 0x24 DUP3 ADD MSTORE PUSH14 0x1499595B9D1C985B9D0818D85B1B PUSH1 0x92 SHL PUSH1 0x44 DUP3 ADD MSTORE PUSH1 0x64 ADD PUSH2 0x28A JUMP JUMPDEST PUSH1 0x0 DUP1 SLOAD PUSH1 0xFF PUSH1 0xA0 SHL NOT AND PUSH1 0x1 PUSH1 0xA0 SHL OR SWAP1 SSTORE DUP1 DUP1 ISZERO DUP1 ISZERO SWAP1 PUSH2 0x5DF JUMPI POP PUSH10 0x152D02C7E14AF6800000 DUP2 GT ISZERO JUMPDEST PUSH2 0x61C JUMPI PUSH1 0x40 MLOAD PUSH3 0x461BCD PUSH1 0xE5 SHL DUP2 MSTORE PUSH1 0x20 PUSH1 0x4 DUP3 ADD MSTORE PUSH1 0xE PUSH1 0x24 DUP3 ADD MSTORE PUSH14 0x125B9D985B1A5908185B5BDD5B9D PUSH1 0x92 SHL PUSH1 0x44 DUP3 ADD MSTORE PUSH1 0x64 ADD PUSH2 0x28A JUMP JUMPDEST PUSH1 0x0 SLOAD PUSH1 0x40 MLOAD PUSH4 0xCD29BA7 PUSH1 0xE3 SHL DUP2 MSTORE PUSH1 0x1 PUSH1 0x1 PUSH1 0xA0 SHL SUB DUP6 DUP2 AND PUSH1 0x4 DUP4 ADD MSTORE SWAP1 SWAP2 AND SWAP1 PUSH4 0x6694DD38 SWAP1 PUSH1 0x24 ADD PUSH1 0x0 PUSH1 0x40 MLOAD DUP1 DUP4 SUB DUP2 DUP7 GAS STATICCALL ISZERO DUP1 ISZERO PUSH2 0x666 JUMPI RETURNDATASIZE PUSH1 0x0 DUP1 RETURNDATACOPY RETURNDATASIZE PUSH1 0x0 REVERT JUMPDEST POP POP POP POP PUSH1 0x40 MLOAD RETURNDATASIZE PUSH1 0x0 DUP3 RETURNDATACOPY PUSH1 0x1F RETURNDATASIZE SWAP1 DUP2 ADD PUSH1 0x1F NOT AND DUP3 ADD PUSH1 0x40 MSTORE PUSH2 0x68E SWAP2 SWAP1 DUP2 ADD SWAP1 PUSH2 0x1B3D JUMP JUMPDEST PUSH1 0xA0 ADD MLOAD PUSH2 0x6D6 JUMPI PUSH1 0x40 MLOAD PUSH3 0x461BCD PUSH1 0xE5 SHL DUP2 MSTORE PUSH1 0x20 PUSH1 0x4 DUP3 ADD MSTORE PUSH1 0x15 PUSH1 0x24 DUP3 ADD MSTORE PUSH21 0x4465706172746D656E74206E6F7420616374697665 PUSH1 0x58 SHL PUSH1 0x44 DUP3 ADD MSTORE PUSH1 0x64 ADD PUSH2 0x28A JUMP JUMPDEST PUSH1 0x2 DUP1 SLOAD SWAP1 PUSH1 0x0 PUSH2 0x6E6 DUP4 PUSH2 0x1BF8 JUMP JUMPDEST SWAP1 SWAP2 SSTORE POP POP PUSH1 0x2 SLOAD PUSH1 0x40 DUP1 MLOAD PUSH1 0xE0 DUP2 ADD DUP3 MSTORE DUP3 DUP2 MSTORE PUSH1 0x1 PUSH1 0x1 PUSH1 0xA0 SHL SUB DUP7 DUP2 AND PUSH1 0x20 DUP1 DUP5 ADD SWAP2 DUP3 MSTORE PUSH1 0x0 DUP5 DUP7 ADD DUP2 DUP2 MSTORE PUSH1 0x60 DUP7 ADD DUP11 SWAP1 MSTORE DUP7 MLOAD DUP1 DUP9 ADD DUP9 MSTORE PUSH1 0x19 DUP2 MSTORE PUSH32 0x496E697469616C2062756467657420616C6C6F636174696F6E00000000000000 DUP2 DUP6 ADD MSTORE PUSH1 0x80 DUP8 ADD MSTORE PUSH1 0x1 PUSH1 0xA0 DUP8 ADD DUP2 SWAP1 MSTORE TIMESTAMP PUSH1 0xC0 DUP9 ADD MSTORE DUP9 DUP4 MSTORE SWAP3 DUP4 SWAP1 MSTORE SWAP6 SWAP1 KECCAK256 DUP5 MLOAD DUP2 SSTORE SWAP2 MLOAD SWAP1 DUP3 ADD DUP1 SLOAD PUSH1 0x1 PUSH1 0x1 PUSH1 0xA0 SHL SUB NOT DUP2 AND SWAP3 SWAP1 SWAP5 AND SWAP2 DUP3 OR DUP2 SSTORE SWAP5 MLOAD SWAP4 SWAP5 SWAP2 SWAP4 SWAP3 PUSH1 0x1 PUSH1 0x1 PUSH1 0xA8 SHL SUB NOT AND OR PUSH1 0x1 PUSH1 0xA0 SHL DUP4 PUSH1 0x3 DUP2 GT ISZERO PUSH2 0x7B3 JUMPI PUSH2 0x7B3 PUSH2 0x189A JUMP JUMPDEST MUL OR SWAP1 SSTORE POP PUSH1 0x60 DUP3 ADD MLOAD PUSH1 0x2 DUP3 ADD SSTORE PUSH1 0x80 DUP3 ADD MLOAD PUSH1 0x3 DUP3 ADD SWAP1 PUSH2 0x7D6 SWAP1 DUP3 PUSH2 0x1C9A JUMP JUMPDEST POP PUSH1 0xA0 DUP3 ADD MLOAD PUSH1 0x4 DUP3 ADD DUP1 SLOAD PUSH1 0xFF NOT AND PUSH1 0x1 DUP4 PUSH1 0x2 DUP2 GT ISZERO PUSH2 0x7FA JUMPI PUSH2 0x7FA PUSH2 0x189A JUMP JUMPDEST MUL OR SWAP1 SSTORE POP PUSH1 0xC0 SWAP2 SWAP1 SWAP2 ADD MLOAD PUSH1 0x5 SWAP1 SWAP2 ADD SSTORE PUSH1 0x1 PUSH1 0x1 PUSH1 0xA0 SHL SUB DUP5 AND PUSH1 0x0 DUP2 DUP2 MSTORE PUSH1 0x3 PUSH1 0x20 SWAP1 DUP2 MSTORE PUSH1 0x40 DUP1 DUP4 KECCAK256 DUP1 SLOAD PUSH1 0x1 DUP2 ADD DUP3 SSTORE SWAP1 DUP5 MSTORE DUP3 DUP5 KECCAK256 ADD DUP6 SWAP1 SSTORE SWAP3 DUP3 MSTORE PUSH1 0x4 SWAP1 MSTORE SWAP1 DUP2 KECCAK256 DUP1 SLOAD SWAP2 PUSH2 0x84F DUP4 PUSH2 0x1BF8 JUMP JUMPDEST SWAP2 SWAP1 POP SSTORE POP DUP4 PUSH1 0x1 PUSH1 0x1 PUSH1 0xA0 SHL SUB AND DUP2 PUSH32 0xC5617696B75E538ED738F904611FDFB78DFF557717F05C9EA38595041503C5F0 PUSH1 0x0 DUP7 PUSH1 0x40 MLOAD PUSH2 0x891 SWAP3 SWAP2 SWAP1 PUSH2 0x1D59 JUMP JUMPDEST PUSH1 0x40 MLOAD DUP1 SWAP2 SUB SWAP1 LOG3 DUP1 PUSH32 0x11A3517410D399D687A3DAC00C28EF32FFEA27E8991A0D4D2283382878B118F6 PUSH1 0x1 PUSH1 0x40 MLOAD PUSH2 0x8CA SWAP2 SWAP1 PUSH2 0x1D74 JUMP JUMPDEST PUSH1 0x40 MLOAD DUP1 SWAP2 SUB SWAP1 LOG2 POP POP PUSH1 0x0 DUP1 SLOAD PUSH1 0xFF PUSH1 0xA0 SHL NOT AND SWAP1 SSTORE POP POP JUMP JUMPDEST PUSH1 0x0 DUP1 SLOAD PUSH1 0x40 MLOAD PUSH4 0x266EBEB1 PUSH1 0xE2 SHL DUP2 MSTORE CALLER PUSH1 0x4 DUP3 ADD MSTORE PUSH1 0x1 PUSH1 0x1 PUSH1 0xA0 SHL SUB SWAP1 SWAP2 AND SWAP1 PUSH4 0x99BAFAC4 SWAP1 PUSH1 0x24 ADD PUSH1 0x20 PUSH1 0x40 MLOAD DUP1 DUP4 SUB DUP2 DUP7 GAS STATICCALL ISZERO DUP1 ISZERO PUSH2 0x92E JUMPI RETURNDATASIZE PUSH1 0x0 DUP1 RETURNDATACOPY RETURNDATASIZE PUSH1 0x0 REVERT JUMPDEST POP POP POP POP PUSH1 0x40 MLOAD RETURNDATASIZE PUSH1 0x1F NOT PUSH1 0x1F DUP3 ADD AND DUP3 ADD DUP1 PUSH1 0x40 MSTORE POP DUP2 ADD SWAP1 PUSH2 0x952 SWAP2 SWAP1 PUSH2 0x1A60 JUMP JUMPDEST PUSH2 0x994 JUMPI PUSH1 0x40 MLOAD PUSH3 0x461BCD PUSH1 0xE5 SHL DUP2 MSTORE PUSH1 0x20 PUSH1 0x4 DUP3 ADD MSTORE PUSH1 0x13 PUSH1 0x24 DUP3 ADD MSTORE PUSH19 0x139BDD0819195C185C9D1B595B9D081A195859 PUSH1 0x6A SHL PUSH1 0x44 DUP3 ADD MSTORE PUSH1 0x64 ADD PUSH2 0x28A JUMP JUMPDEST PUSH1 0x0 DUP4 GT DUP1 ISZERO PUSH2 0x9AE JUMPI POP PUSH10 0x152D02C7E14AF6800000 DUP4 GT ISZERO JUMPDEST PUSH2 0x9EB JUMPI PUSH1 0x40 MLOAD PUSH3 0x461BCD PUSH1 0xE5 SHL DUP2 MSTORE PUSH1 0x20 PUSH1 0x4 DUP3 ADD MSTORE PUSH1 0xE PUSH1 0x24 DUP3 ADD MSTORE PUSH14 0x125B9D985B1A5908185B5BDD5B9D PUSH1 0x92 SHL PUSH1 0x44 DUP3 ADD MSTORE PUSH1 0x64 ADD PUSH2 0x28A JUMP JUMPDEST PUSH1 0x2 DUP1 SLOAD SWAP1 PUSH1 0x0 PUSH2 0x9FB DUP4 PUSH2 0x1BF8 JUMP JUMPDEST SWAP1 SWAP2 SSTORE POP POP PUSH1 0x2 SLOAD PUSH1 0x40 DUP1 MLOAD PUSH1 0xE0 DUP2 ADD DUP3 MSTORE DUP3 DUP2 MSTORE CALLER PUSH1 0x20 DUP3 ADD MSTORE SWAP1 DUP2 ADD DUP7 PUSH1 0x3 DUP2 GT ISZERO PUSH2 0xA2B JUMPI PUSH2 0xA2B PUSH2 0x189A JUMP JUMPDEST DUP2 MSTORE PUSH1 0x20 DUP2 ADD DUP7 SWAP1 MSTORE PUSH1 0x40 DUP2 ADD DUP6 SWAP1 MSTORE PUSH1 0x60 ADD PUSH1 0x0 DUP2 MSTORE TIMESTAMP PUSH1 0x20 SWAP2 DUP3 ADD MSTORE PUSH1 0x0 DUP4 DUP2 MSTORE PUSH1 0x1 DUP1 DUP4 MSTORE PUSH1 0x40 SWAP2 DUP3 SWAP1 KECCAK256 DUP5 MLOAD DUP2 SSTORE SWAP3 DUP5 ADD MLOAD SWAP1 DUP4 ADD DUP1 SLOAD PUSH1 0x1 PUSH1 0x1 PUSH1 0xA0 SHL SUB SWAP1 SWAP3 AND PUSH1 0x1 PUSH1 0x1 PUSH1 0xA0 SHL SUB NOT DUP4 AND DUP2 OR DUP3 SSTORE SWAP3 DUP6 ADD MLOAD SWAP3 SWAP1 SWAP2 PUSH1 0x1 PUSH1 0x1 PUSH1 0xA8 SHL SUB NOT AND OR PUSH1 0x1 PUSH1 0xA0 SHL DUP4 PUSH1 0x3 DUP2 GT ISZERO PUSH2 0xAA9 JUMPI PUSH2 0xAA9 PUSH2 0x189A JUMP JUMPDEST MUL OR SWAP1 SSTORE POP PUSH1 0x60 DUP3 ADD MLOAD PUSH1 0x2 DUP3 ADD SSTORE PUSH1 0x80 DUP3 ADD MLOAD PUSH1 0x3 DUP3 ADD SWAP1 PUSH2 0xACC SWAP1 DUP3 PUSH2 0x1C9A JUMP JUMPDEST POP PUSH1 0xA0 DUP3 ADD MLOAD PUSH1 0x4 DUP3 ADD DUP1 SLOAD PUSH1 0xFF NOT AND PUSH1 0x1 DUP4 PUSH1 0x2 DUP2 GT ISZERO PUSH2 0xAF0 JUMPI PUSH2 0xAF0 PUSH2 0x189A JUMP JUMPDEST MUL OR SWAP1 SSTORE POP PUSH1 0xC0 SWAP2 SWAP1 SWAP2 ADD MLOAD PUSH1 0x5 SWAP1 SWAP2 ADD SSTORE CALLER PUSH1 0x0 DUP2 DUP2 MSTORE PUSH1 0x3 PUSH1 0x20 SWAP1 DUP2 MSTORE PUSH1 0x40 DUP1 DUP4 KECCAK256 DUP1 SLOAD PUSH1 0x1 DUP2 ADD DUP3 SSTORE SWAP1 DUP5 MSTORE DUP3 DUP5 KECCAK256 ADD DUP6 SWAP1 SSTORE SWAP3 DUP3 MSTORE PUSH1 0x4 SWAP1 MSTORE SWAP1 DUP2 KECCAK256 DUP1 SLOAD SWAP2 PUSH2 0xB3C DUP4 PUSH2 0x1BF8 JUMP JUMPDEST SWAP2 SWAP1 POP SSTORE POP CALLER PUSH1 0x1 PUSH1 0x1 PUSH1 0xA0 SHL SUB AND DUP2 PUSH32 0xC5617696B75E538ED738F904611FDFB78DFF557717F05C9EA38595041503C5F0 DUP8 DUP8 PUSH1 0x40 MLOAD PUSH2 0xB7D SWAP3 SWAP2 SWAP1 PUSH2 0x1D59 JUMP JUMPDEST PUSH1 0x40 MLOAD DUP1 SWAP2 SUB SWAP1 LOG3 SWAP5 SWAP4 POP POP POP POP JUMP JUMPDEST PUSH1 0x3 PUSH1 0x20 MSTORE DUP2 PUSH1 0x0 MSTORE PUSH1 0x40 PUSH1 0x0 KECCAK256 DUP2 DUP2 SLOAD DUP2 LT PUSH2 0xBA9 JUMPI PUSH1 0x0 DUP1 REVERT JUMPDEST SWAP1 PUSH1 0x0 MSTORE PUSH1 0x20 PUSH1 0x0 KECCAK256 ADD PUSH1 0x0 SWAP2 POP SWAP2 POP POP SLOAD DUP2 JUMP JUMPDEST PUSH1 0x2 DUP1 SLOAD PUSH1 0x0 SWAP2 DUP3 PUSH2 0xBCF DUP4 PUSH2 0x1BF8 JUMP JUMPDEST SWAP1 SWAP2 SSTORE POP POP PUSH1 0x2 SLOAD PUSH1 0x40 DUP1 MLOAD PUSH1 0xE0 DUP2 ADD DUP3 MSTORE DUP3 DUP2 MSTORE CALLER PUSH1 0x20 DUP3 ADD MSTORE SWAP1 DUP2 ADD DUP7 PUSH1 0x3 DUP2 GT ISZERO PUSH2 0xBFF JUMPI PUSH2 0xBFF PUSH2 0x189A JUMP JUMPDEST DUP2 MSTORE PUSH1 0x20 DUP2 ADD DUP7 SWAP1 MSTORE PUSH1 0x40 DUP2 ADD DUP6 SWAP1 MSTORE PUSH1 0x60 ADD PUSH1 0x1 DUP2 MSTORE TIMESTAMP PUSH1 0x20 SWAP2 DUP3 ADD MSTORE PUSH1 0x0 DUP4 DUP2 MSTORE PUSH1 0x1 DUP1 DUP4 MSTORE PUSH1 0x40 SWAP2 DUP3 SWAP1 KECCAK256 DUP5 MLOAD DUP2 SSTORE SWAP3 DUP5 ADD MLOAD SWAP1 DUP4 ADD DUP1 SLOAD PUSH1 0x1 PUSH1 0x1 PUSH1 0xA0 SHL SUB SWAP1 SWAP3 AND PUSH1 0x1 PUSH1 0x1 PUSH1 0xA0 SHL SUB NOT DUP4 AND DUP2 OR DUP3 SSTORE SWAP3 DUP6 ADD MLOAD SWAP3 SWAP1 SWAP2 PUSH1 0x1 PUSH1 0x1 PUSH1 0xA8 SHL SUB NOT AND OR PUSH1 0x1 PUSH1 0xA0 SHL DUP4 PUSH1 0x3 DUP2 GT ISZERO PUSH2 0xC7D JUMPI PUSH2 0xC7D PUSH2 0x189A JUMP JUMPDEST MUL OR SWAP1 SSTORE POP PUSH1 0x60 DUP3 ADD MLOAD PUSH1 0x2 DUP3 ADD SSTORE PUSH1 0x80 DUP3 ADD MLOAD PUSH1 0x3 DUP3 ADD SWAP1 PUSH2 0xCA0 SWAP1 DUP3 PUSH2 0x1C9A JUMP JUMPDEST POP PUSH1 0xA0 DUP3 ADD MLOAD PUSH1 0x4 DUP3 ADD DUP1 SLOAD PUSH1 0xFF NOT AND PUSH1 0x1 DUP4 PUSH1 0x2 DUP2 GT ISZERO PUSH2 0xCC4 JUMPI PUSH2 0xCC4 PUSH2 0x189A JUMP JUMPDEST MUL OR SWAP1 SSTORE POP PUSH1 0xC0 SWAP2 SWAP1 SWAP2 ADD MLOAD PUSH1 0x5 SWAP1 SWAP2 ADD SSTORE CALLER PUSH1 0x0 DUP2 DUP2 MSTORE PUSH1 0x3 PUSH1 0x20 SWAP1 DUP2 MSTORE PUSH1 0x40 DUP1 DUP4 KECCAK256 DUP1 SLOAD PUSH1 0x1 DUP2 ADD DUP3 SSTORE SWAP1 DUP5 MSTORE DUP3 DUP5 KECCAK256 ADD DUP6 SWAP1 SSTORE SWAP3 DUP3 MSTORE PUSH1 0x4 SWAP1 MSTORE SWAP1 DUP2 KECCAK256 DUP1 SLOAD SWAP2 PUSH2 0xD10 DUP4 PUSH2 0x1BF8 JUMP JUMPDEST SWAP2 SWAP1 POP SSTORE POP CALLER PUSH1 0x1 PUSH1 0x1 PUSH1 0xA0 SHL SUB AND DUP2 PUSH32 0xC5617696B75E538ED738F904611FDFB78DFF557717F05C9EA38595041503C5F0 DUP8 DUP8 PUSH1 0x40 MLOAD PUSH2 0xD51 SWAP3 SWAP2 SWAP1 PUSH2 0x1D59 JUMP JUMPDEST PUSH1 0x40 MLOAD DUP1 SWAP2 SUB SWAP1 LOG3 DUP1 PUSH32 0x11A3517410D399D687A3DAC00C28EF32FFEA27E8991A0D4D2283382878B118F6 PUSH1 0x1 PUSH1 0x40 MLOAD PUSH2 0xD8A SWAP2 SWAP1 PUSH2 0x1D74 JUMP JUMPDEST PUSH1 0x40 MLOAD DUP1 SWAP2 SUB SWAP1 LOG2 SWAP5 SWAP4 POP POP POP POP JUMP JUMPDEST PUSH1 0x1 PUSH1 0x20 DUP2 SWAP1 MSTORE PUSH1 0x0 SWAP2 DUP3 MSTORE PUSH1 0x40 SWAP1 SWAP2 KECCAK256 DUP1 SLOAD SWAP2 DUP2 ADD SLOAD PUSH1 0x2 DUP3 ADD SLOAD PUSH1 0x3 DUP4 ADD DUP1 SLOAD PUSH1 0x1 PUSH1 0x1 PUSH1 0xA0 SHL SUB DUP5 AND SWAP5 PUSH1 0x1 PUSH1 0xA0 SHL SWAP1 SWAP5 DIV PUSH1 0xFF AND SWAP4 SWAP2 SWAP1 PUSH2 0xDDE SWAP1 PUSH2 0x1C11 JUMP JUMPDEST DUP1 PUSH1 0x1F ADD PUSH1 0x20 DUP1 SWAP2 DIV MUL PUSH1 0x20 ADD PUSH1 0x40 MLOAD SWAP1 DUP2 ADD PUSH1 0x40 MSTORE DUP1 SWAP3 SWAP2 SWAP1 DUP2 DUP2 MSTORE PUSH1 0x20 ADD DUP3 DUP1 SLOAD PUSH2 0xE0A SWAP1 PUSH2 0x1C11 JUMP JUMPDEST DUP1 ISZERO PUSH2 0xE57 JUMPI DUP1 PUSH1 0x1F LT PUSH2 0xE2C JUMPI PUSH2 0x100 DUP1 DUP4 SLOAD DIV MUL DUP4 MSTORE SWAP2 PUSH1 0x20 ADD SWAP2 PUSH2 0xE57 JUMP JUMPDEST DUP3 ADD SWAP2 SWAP1 PUSH1 0x0 MSTORE PUSH1 0x20 PUSH1 0x0 KECCAK256 SWAP1 JUMPDEST DUP2 SLOAD DUP2 MSTORE SWAP1 PUSH1 0x1 ADD SWAP1 PUSH1 0x20 ADD DUP1 DUP4 GT PUSH2 0xE3A JUMPI DUP3 SWAP1 SUB PUSH1 0x1F AND DUP3 ADD SWAP2 JUMPDEST POP POP POP POP PUSH1 0x4 DUP4 ADD SLOAD PUSH1 0x5 SWAP1 SWAP4 ADD SLOAD SWAP2 SWAP3 PUSH1 0xFF AND SWAP2 SWAP1 POP DUP8 JUMP JUMPDEST PUSH1 0x1 PUSH1 0x1 PUSH1 0xA0 SHL SUB DUP2 AND PUSH1 0x0 SWAP1 DUP2 MSTORE PUSH1 0x3 PUSH1 0x20 SWAP1 DUP2 MSTORE PUSH1 0x40 DUP1 DUP4 KECCAK256 DUP1 SLOAD DUP3 MLOAD DUP2 DUP6 MUL DUP2 ADD DUP6 ADD SWAP1 SWAP4 MSTORE DUP1 DUP4 MSTORE PUSH1 0x60 SWAP5 SWAP4 DUP4 ADD DUP3 DUP3 DUP1 ISZERO PUSH2 0xED0 JUMPI PUSH1 0x20 MUL DUP3 ADD SWAP2 SWAP1 PUSH1 0x0 MSTORE PUSH1 0x20 PUSH1 0x0 KECCAK256 SWAP1 JUMPDEST DUP2 SLOAD DUP2 MSTORE PUSH1 0x20 ADD SWAP1 PUSH1 0x1 ADD SWAP1 DUP1 DUP4 GT PUSH2 0xEBC JUMPI JUMPDEST POP POP POP POP POP SWAP1 POP PUSH1 0x0 DUP2 MLOAD PUSH8 0xFFFFFFFFFFFFFFFF DUP2 GT ISZERO PUSH2 0xEF3 JUMPI PUSH2 0xEF3 PUSH2 0x1725 JUMP JUMPDEST PUSH1 0x40 MLOAD SWAP1 DUP1 DUP3 MSTORE DUP1 PUSH1 0x20 MUL PUSH1 0x20 ADD DUP3 ADD PUSH1 0x40 MSTORE DUP1 ISZERO PUSH2 0xF59 JUMPI DUP2 PUSH1 0x20 ADD JUMPDEST PUSH1 0x40 DUP1 MLOAD PUSH1 0xE0 DUP2 ADD DUP3 MSTORE PUSH1 0x0 DUP1 DUP3 MSTORE PUSH1 0x20 DUP1 DUP4 ADD DUP3 SWAP1 MSTORE SWAP3 DUP3 ADD DUP2 SWAP1 MSTORE PUSH1 0x60 DUP1 DUP4 ADD DUP3 SWAP1 MSTORE PUSH1 0x80 DUP4 ADD MSTORE PUSH1 0xA0 DUP3 ADD DUP2 SWAP1 MSTORE PUSH1 0xC0 DUP3 ADD MSTORE DUP3 MSTORE PUSH1 0x0 NOT SWAP1 SWAP3 ADD SWAP2 ADD DUP2 PUSH2 0xF11 JUMPI SWAP1 POP JUMPDEST POP SWAP1 POP PUSH1 0x0 JUMPDEST DUP3 MLOAD DUP2 LT ISZERO PUSH2 0x10F1 JUMPI PUSH1 0x1 PUSH1 0x0 DUP5 DUP4 DUP2 MLOAD DUP2 LT PUSH2 0xF7E JUMPI PUSH2 0xF7E PUSH2 0x1D82 JUMP JUMPDEST PUSH1 0x20 SWAP1 DUP2 MUL SWAP2 SWAP1 SWAP2 ADD DUP2 ADD MLOAD DUP3 MSTORE DUP2 DUP2 ADD SWAP3 SWAP1 SWAP3 MSTORE PUSH1 0x40 SWAP1 DUP2 ADD PUSH1 0x0 KECCAK256 DUP2 MLOAD PUSH1 0xE0 DUP2 ADD DUP4 MSTORE DUP2 SLOAD DUP2 MSTORE PUSH1 0x1 DUP3 ADD SLOAD PUSH1 0x1 PUSH1 0x1 PUSH1 0xA0 SHL SUB DUP2 AND SWAP5 DUP3 ADD SWAP5 SWAP1 SWAP5 MSTORE SWAP3 SWAP1 SWAP2 DUP4 ADD SWAP1 PUSH1 0x1 PUSH1 0xA0 SHL SWAP1 DIV PUSH1 0xFF AND PUSH1 0x3 DUP2 GT ISZERO PUSH2 0xFDE JUMPI PUSH2 0xFDE PUSH2 0x189A JUMP JUMPDEST PUSH1 0x3 DUP2 GT ISZERO PUSH2 0xFEF JUMPI PUSH2 0xFEF PUSH2 0x189A JUMP JUMPDEST DUP2 MSTORE PUSH1 0x20 ADD PUSH1 0x2 DUP3 ADD SLOAD DUP2 MSTORE PUSH1 0x20 ADD PUSH1 0x3 DUP3 ADD DUP1 SLOAD PUSH2 0x100D SWAP1 PUSH2 0x1C11 JUMP JUMPDEST DUP1 PUSH1 0x1F ADD PUSH1 0x20 DUP1 SWAP2 DIV MUL PUSH1 0x20 ADD PUSH1 0x40 MLOAD SWAP1 DUP2 ADD PUSH1 0x40 MSTORE DUP1 SWAP3 SWAP2 SWAP1 DUP2 DUP2 MSTORE PUSH1 0x20 ADD DUP3 DUP1 SLOAD PUSH2 0x1039 SWAP1 PUSH2 0x1C11 JUMP JUMPDEST DUP1 ISZERO PUSH2 0x1086 JUMPI DUP1 PUSH1 0x1F LT PUSH2 0x105B JUMPI PUSH2 0x100 DUP1 DUP4 SLOAD DIV MUL DUP4 MSTORE SWAP2 PUSH1 0x20 ADD SWAP2 PUSH2 0x1086 JUMP JUMPDEST DUP3 ADD SWAP2 SWAP1 PUSH1 0x0 MSTORE PUSH1 0x20 PUSH1 0x0 KECCAK256 SWAP1 JUMPDEST DUP2 SLOAD DUP2 MSTORE SWAP1 PUSH1 0x1 ADD SWAP1 PUSH1 0x20 ADD DUP1 DUP4 GT PUSH2 0x1069 JUMPI DUP3 SWAP1 SUB PUSH1 0x1F AND DUP3 ADD SWAP2 JUMPDEST POP POP POP SWAP2 DUP4 MSTORE POP POP PUSH1 0x4 DUP3 ADD SLOAD PUSH1 0x20 SWAP1 SWAP2 ADD SWAP1 PUSH1 0xFF AND PUSH1 0x2 DUP2 GT ISZERO PUSH2 0x10AD JUMPI PUSH2 0x10AD PUSH2 0x189A JUMP JUMPDEST PUSH1 0x2 DUP2 GT ISZERO PUSH2 0x10BE JUMPI PUSH2 0x10BE PUSH2 0x189A JUMP JUMPDEST DUP2 MSTORE PUSH1 0x20 ADD PUSH1 0x5 DUP3 ADD SLOAD DUP2 MSTORE POP POP DUP3 DUP3 DUP2 MLOAD DUP2 LT PUSH2 0x10DE JUMPI PUSH2 0x10DE PUSH2 0x1D82 JUMP JUMPDEST PUSH1 0x20 SWAP1 DUP2 MUL SWAP2 SWAP1 SWAP2 ADD ADD MSTORE PUSH1 0x1 ADD PUSH2 0xF5F JUMP JUMPDEST POP SWAP4 SWAP3 POP POP POP JUMP JUMPDEST PUSH1 0x0 SLOAD PUSH1 0x40 MLOAD PUSH4 0x5692E5A1 PUSH1 0xE1 SHL DUP2 MSTORE CALLER PUSH1 0x4 DUP3 ADD MSTORE PUSH1 0x1 PUSH1 0x1 PUSH1 0xA0 SHL SUB SWAP1 SWAP2 AND SWAP1 PUSH4 0xAD25CB42 SWAP1 PUSH1 0x24 ADD PUSH1 0x20 PUSH1 0x40 MLOAD DUP1 DUP4 SUB DUP2 DUP7 GAS STATICCALL ISZERO DUP1 ISZERO PUSH2 0x1141 JUMPI RETURNDATASIZE PUSH1 0x0 DUP1 RETURNDATACOPY RETURNDATASIZE PUSH1 0x0 REVERT JUMPDEST POP POP POP POP PUSH1 0x40 MLOAD RETURNDATASIZE PUSH1 0x1F NOT PUSH1 0x1F DUP3 ADD AND DUP3 ADD DUP1 PUSH1 0x40 MSTORE POP DUP2 ADD SWAP1 PUSH2 0x1165 SWAP2 SWAP1 PUSH2 0x1A60 JUMP JUMPDEST DUP1 PUSH2 0x117A JUMPI POP PUSH1 0x5 SLOAD PUSH1 0x1 PUSH1 0x1 PUSH1 0xA0 SHL SUB AND CALLER EQ JUMPDEST PUSH2 0x1196 JUMPI PUSH1 0x40 MLOAD PUSH3 0x461BCD PUSH1 0xE5 SHL DUP2 MSTORE PUSH1 0x4 ADD PUSH2 0x28A SWAP1 PUSH2 0x1A7B JUMP JUMPDEST PUSH1 0x0 SLOAD PUSH1 0x1 PUSH1 0xA0 SHL SWAP1 DIV PUSH1 0xFF AND ISZERO PUSH2 0x11E1 JUMPI PUSH1 0x40 MLOAD PUSH3 0x461BCD PUSH1 0xE5 SHL DUP2 MSTORE PUSH1 0x20 PUSH1 0x4 DUP3 ADD MSTORE PUSH1 0xE PUSH1 0x24 DUP3 ADD MSTORE PUSH14 0x1499595B9D1C985B9D0818D85B1B PUSH1 0x92 SHL PUSH1 0x44 DUP3 ADD MSTORE PUSH1 0x64 ADD PUSH2 0x28A JUMP JUMPDEST PUSH1 0x0 DUP1 SLOAD PUSH1 0xFF PUSH1 0xA0 SHL NOT AND PUSH1 0x1 PUSH1 0xA0 SHL OR DUP2 SSTORE DUP2 DUP2 MSTORE PUSH1 0x1 PUSH1 0x20 MSTORE PUSH1 0x40 DUP2 KECCAK256 DUP1 SLOAD SWAP1 SWAP2 SUB PUSH2 0x1249 JUMPI PUSH1 0x40 MLOAD PUSH3 0x461BCD PUSH1 0xE5 SHL DUP2 MSTORE PUSH1 0x20 PUSH1 0x4 DUP3 ADD MSTORE PUSH1 0x15 PUSH1 0x24 DUP3 ADD MSTORE PUSH21 0x151C985B9CD858DD1A5BDB881B9BDD08199BDD5B99 PUSH1 0x5A SHL PUSH1 0x44 DUP3 ADD MSTORE PUSH1 0x64 ADD PUSH2 0x28A JUMP JUMPDEST PUSH1 0x0 PUSH1 0x4 DUP3 ADD SLOAD PUSH1 0xFF AND PUSH1 0x2 DUP2 GT ISZERO PUSH2 0x1264 JUMPI PUSH2 0x1264 PUSH2 0x189A JUMP JUMPDEST EQ PUSH2 0x12B1 JUMPI PUSH1 0x40 MLOAD PUSH3 0x461BCD PUSH1 0xE5 SHL DUP2 MSTORE PUSH1 0x20 PUSH1 0x4 DUP3 ADD MSTORE PUSH1 0x17 PUSH1 0x24 DUP3 ADD MSTORE PUSH32 0x5472616E73616374696F6E206E6F742070656E64696E67000000000000000000 PUSH1 0x44 DUP3 ADD MSTORE PUSH1 0x64 ADD PUSH2 0x28A JUMP JUMPDEST PUSH1 0x0 DUP1 SLOAD PUSH1 0x1 DUP4 ADD SLOAD PUSH1 0x40 MLOAD PUSH4 0x27A92127 PUSH1 0xE0 SHL DUP2 MSTORE PUSH1 0x1 PUSH1 0x1 PUSH1 0xA0 SHL SUB SWAP2 DUP3 AND PUSH1 0x4 DUP3 ADD MSTORE SWAP2 AND SWAP1 PUSH4 0x27A92127 SWAP1 PUSH1 0x24 ADD PUSH1 0x0 PUSH1 0x40 MLOAD DUP1 DUP4 SUB DUP2 DUP7 GAS STATICCALL ISZERO DUP1 ISZERO PUSH2 0x1300 JUMPI RETURNDATASIZE PUSH1 0x0 DUP1 RETURNDATACOPY RETURNDATASIZE PUSH1 0x0 REVERT JUMPDEST POP POP POP POP PUSH1 0x40 MLOAD RETURNDATASIZE PUSH1 0x0 DUP3 RETURNDATACOPY PUSH1 0x1F RETURNDATASIZE SWAP1 DUP2 ADD PUSH1 0x1F NOT AND DUP3 ADD PUSH1 0x40 MSTORE PUSH2 0x1328 SWAP2 SWAP1 DUP2 ADD SWAP1 PUSH2 0x1B3D JUMP JUMPDEST SWAP1 POP PUSH1 0x3 PUSH1 0x1 DUP4 ADD SLOAD PUSH1 0x1 PUSH1 0xA0 SHL SWAP1 DIV PUSH1 0xFF AND PUSH1 0x3 DUP2 GT ISZERO PUSH2 0x134C JUMPI PUSH2 0x134C PUSH2 0x189A JUMP JUMPDEST SUB PUSH2 0x13D9 JUMPI DUP1 PUSH1 0x20 ADD MLOAD DUP3 PUSH1 0x2 ADD SLOAD DUP3 PUSH1 0x40 ADD MLOAD PUSH2 0x136A SWAP2 SWAP1 PUSH2 0x1D98 JUMP JUMPDEST GT ISZERO PUSH2 0x13AA JUMPI PUSH1 0x40 MLOAD PUSH3 0x461BCD PUSH1 0xE5 SHL DUP2 MSTORE PUSH1 0x20 PUSH1 0x4 DUP3 ADD MSTORE PUSH1 0xF PUSH1 0x24 DUP3 ADD MSTORE PUSH15 0x109D5919D95D08195E18D959591959 PUSH1 0x8A SHL PUSH1 0x44 DUP3 ADD MSTORE PUSH1 0x64 ADD PUSH2 0x28A JUMP JUMPDEST PUSH1 0x1 DUP3 ADD SLOAD PUSH1 0x2 DUP4 ADD SLOAD PUSH2 0x13D4 SWAP2 PUSH1 0x1 PUSH1 0x1 PUSH1 0xA0 SHL SUB DUP2 AND SWAP2 PUSH1 0x1 PUSH1 0xA0 SHL SWAP1 SWAP2 DIV PUSH1 0xFF AND SWAP1 PUSH2 0x14ED JUMP JUMPDEST PUSH2 0x1490 JUMP JUMPDEST PUSH1 0x0 PUSH1 0x1 DUP4 ADD SLOAD PUSH1 0x1 PUSH1 0xA0 SHL SWAP1 DIV PUSH1 0xFF AND PUSH1 0x3 DUP2 GT ISZERO PUSH2 0x13FB JUMPI PUSH2 0x13FB PUSH2 0x189A JUMP JUMPDEST SUB PUSH2 0x1490 JUMPI PUSH10 0x152D02C7E14AF6800000 DUP3 PUSH1 0x2 ADD SLOAD DUP3 PUSH1 0x20 ADD MLOAD PUSH2 0x141F SWAP2 SWAP1 PUSH2 0x1D98 JUMP JUMPDEST GT ISZERO PUSH2 0x1466 JUMPI PUSH1 0x40 MLOAD PUSH3 0x461BCD PUSH1 0xE5 SHL DUP2 MSTORE PUSH1 0x20 PUSH1 0x4 DUP3 ADD MSTORE PUSH1 0x16 PUSH1 0x24 DUP3 ADD MSTORE PUSH22 0x22BC31B2B2B2399036B0BC1030B63637B1B0BA34B7B7 PUSH1 0x51 SHL PUSH1 0x44 DUP3 ADD MSTORE PUSH1 0x64 ADD PUSH2 0x28A JUMP JUMPDEST PUSH1 0x1 DUP3 ADD SLOAD PUSH1 0x2 DUP4 ADD SLOAD PUSH2 0x1490 SWAP2 PUSH1 0x1 PUSH1 0x1 PUSH1 0xA0 SHL SUB DUP2 AND SWAP2 PUSH1 0x1 PUSH1 0xA0 SHL SWAP1 SWAP2 DIV PUSH1 0xFF AND SWAP1 PUSH2 0x14ED JUMP JUMPDEST PUSH1 0x4 DUP3 ADD DUP1 SLOAD PUSH1 0xFF NOT AND PUSH1 0x1 SWAP1 DUP2 OR SWAP1 SWAP2 SSTORE PUSH1 0x40 MLOAD DUP5 SWAP2 PUSH32 0x11A3517410D399D687A3DAC00C28EF32FFEA27E8991A0D4D2283382878B118F6 SWAP2 PUSH2 0x14D3 SWAP2 SWAP1 PUSH2 0x1D74 JUMP JUMPDEST PUSH1 0x40 MLOAD DUP1 SWAP2 SUB SWAP1 LOG2 POP POP PUSH1 0x0 DUP1 SLOAD PUSH1 0xFF PUSH1 0xA0 SHL NOT AND SWAP1 SSTORE POP JUMP JUMPDEST PUSH1 0x0 DUP1 SLOAD PUSH1 0x40 MLOAD PUSH4 0x27A92127 PUSH1 0xE0 SHL DUP2 MSTORE PUSH1 0x1 PUSH1 0x1 PUSH1 0xA0 SHL SUB DUP7 DUP2 AND PUSH1 0x4 DUP4 ADD MSTORE SWAP1 SWAP2 AND SWAP1 PUSH4 0x27A92127 SWAP1 PUSH1 0x24 ADD PUSH1 0x0 PUSH1 0x40 MLOAD DUP1 DUP4 SUB DUP2 DUP7 GAS STATICCALL ISZERO DUP1 ISZERO PUSH2 0x1538 JUMPI RETURNDATASIZE PUSH1 0x0 DUP1 RETURNDATACOPY RETURNDATASIZE PUSH1 0x0 REVERT JUMPDEST POP POP POP POP PUSH1 0x40 MLOAD RETURNDATASIZE PUSH1 0x0 DUP3 RETURNDATACOPY PUSH1 0x1F RETURNDATASIZE SWAP1 DUP2 ADD PUSH1 0x1F NOT AND DUP3 ADD PUSH1 0x40 MSTORE PUSH2 0x1560 SWAP2 SWAP1 DUP2 ADD SWAP1 PUSH2 0x1B3D JUMP JUMPDEST PUSH1 0x40 DUP2 ADD MLOAD PUSH1 0x20 DUP3 ADD MLOAD SWAP2 SWAP3 POP SWAP1 PUSH1 0x3 DUP6 PUSH1 0x3 DUP2 GT ISZERO PUSH2 0x1582 JUMPI PUSH2 0x1582 PUSH2 0x189A JUMP JUMPDEST SUB PUSH2 0x1598 JUMPI PUSH2 0x1591 DUP5 DUP4 PUSH2 0x1D98 JUMP JUMPDEST SWAP2 POP PUSH2 0x15BE JUMP JUMPDEST PUSH1 0x0 DUP6 PUSH1 0x3 DUP2 GT ISZERO PUSH2 0x15AC JUMPI PUSH2 0x15AC PUSH2 0x189A JUMP JUMPDEST SUB PUSH2 0x15BE JUMPI PUSH2 0x15BB DUP5 DUP3 PUSH2 0x1D98 JUMP JUMPDEST SWAP1 POP JUMPDEST PUSH1 0x0 PUSH2 0x15CA DUP4 DUP4 PUSH2 0x16B0 JUMP JUMPDEST PUSH1 0x0 SLOAD PUSH1 0x80 DUP7 ADD MLOAD PUSH1 0x40 MLOAD PUSH3 0xBACB0B PUSH1 0xE0 SHL DUP2 MSTORE PUSH1 0x1 PUSH1 0x1 PUSH1 0xA0 SHL SUB DUP12 DUP2 AND PUSH1 0x4 DUP4 ADD MSTORE PUSH1 0x24 DUP3 ADD DUP6 SWAP1 MSTORE PUSH1 0x44 DUP3 ADD SWAP3 SWAP1 SWAP3 MSTORE PUSH1 0x64 DUP2 ADD DUP8 SWAP1 MSTORE SWAP3 SWAP4 POP AND SWAP1 PUSH3 0xBACB0B SWAP1 PUSH1 0x84 ADD PUSH1 0x0 PUSH1 0x40 MLOAD DUP1 DUP4 SUB DUP2 PUSH1 0x0 DUP8 DUP1 EXTCODESIZE ISZERO DUP1 ISZERO PUSH2 0x162B JUMPI PUSH1 0x0 DUP1 REVERT JUMPDEST POP GAS CALL ISZERO DUP1 ISZERO PUSH2 0x163F JUMPI RETURNDATASIZE PUSH1 0x0 DUP1 RETURNDATACOPY RETURNDATASIZE PUSH1 0x0 REVERT JUMPDEST POP POP POP POP PUSH1 0x64 DUP3 PUSH1 0x5A PUSH2 0x1652 SWAP2 SWAP1 PUSH2 0x1DAB JUMP JUMPDEST PUSH2 0x165C SWAP2 SWAP1 PUSH2 0x1DC2 JUMP JUMPDEST DUP4 LT PUSH2 0x16A7 JUMPI PUSH1 0x40 DUP1 MLOAD DUP5 DUP2 MSTORE PUSH1 0x20 DUP2 ADD DUP5 SWAP1 MSTORE PUSH1 0x1 PUSH1 0x1 PUSH1 0xA0 SHL SUB DUP10 AND SWAP2 PUSH32 0xFA05E6C946B9B30D53EA35A0C06832056010F40D2686EBA05A629781030FA8C2 SWAP2 ADD PUSH1 0x40 MLOAD DUP1 SWAP2 SUB SWAP1 LOG2 JUMPDEST POP POP POP POP POP POP POP JUMP JUMPDEST PUSH1 0x0 DUP2 PUSH1 0x0 SUB PUSH2 0x16C2 JUMPI POP PUSH1 0x0 PUSH2 0x16DB JUMP JUMPDEST DUP2 PUSH2 0x16CE DUP5 PUSH1 0x64 PUSH2 0x1DAB JUMP JUMPDEST PUSH2 0x16D8 SWAP2 SWAP1 PUSH2 0x1DC2 JUMP JUMPDEST SWAP1 POP JUMPDEST SWAP3 SWAP2 POP POP JUMP JUMPDEST PUSH1 0x1 PUSH1 0x1 PUSH1 0xA0 SHL SUB DUP2 AND DUP2 EQ PUSH2 0x16F6 JUMPI PUSH1 0x0 DUP1 REVERT JUMPDEST POP JUMP JUMPDEST PUSH1 0x0 DUP1 PUSH1 0x40 DUP4 DUP6 SUB SLT ISZERO PUSH2 0x170C JUMPI PUSH1 0x0 DUP1 REVERT JUMPDEST DUP3 CALLDATALOAD PUSH2 0x1717 DUP2 PUSH2 0x16E1 JUMP JUMPDEST SWAP5 PUSH1 0x20 SWAP4 SWAP1 SWAP4 ADD CALLDATALOAD SWAP4 POP POP POP JUMP JUMPDEST PUSH4 0x4E487B71 PUSH1 0xE0 SHL PUSH1 0x0 MSTORE PUSH1 0x41 PUSH1 0x4 MSTORE PUSH1 0x24 PUSH1 0x0 REVERT JUMPDEST PUSH1 0x40 MLOAD PUSH1 0xE0 DUP2 ADD PUSH8 0xFFFFFFFFFFFFFFFF DUP2 GT DUP3 DUP3 LT OR ISZERO PUSH2 0x175E JUMPI PUSH2 0x175E PUSH2 0x1725 JUMP JUMPDEST PUSH1 0x40 MSTORE SWAP1 JUMP JUMPDEST PUSH1 0x40 MLOAD PUSH1 0x1F DUP3 ADD PUSH1 0x1F NOT AND DUP2 ADD PUSH8 0xFFFFFFFFFFFFFFFF DUP2 GT DUP3 DUP3 LT OR ISZERO PUSH2 0x178D JUMPI PUSH2 0x178D PUSH2 0x1725 JUMP JUMPDEST PUSH1 0x40 MSTORE SWAP2 SWAP1 POP JUMP JUMPDEST PUSH1 0x0 PUSH8 0xFFFFFFFFFFFFFFFF DUP3 GT ISZERO PUSH2 0x17AF JUMPI PUSH2 0x17AF PUSH2 0x1725 JUMP JUMPDEST POP PUSH1 0x1F ADD PUSH1 0x1F NOT AND PUSH1 0x20 ADD SWAP1 JUMP JUMPDEST PUSH1 0x0 DUP1 PUSH1 0x0 PUSH1 0x60 DUP5 DUP7 SUB SLT ISZERO PUSH2 0x17D2 JUMPI PUSH1 0x0 DUP1 REVERT JUMPDEST DUP4 CALLDATALOAD PUSH1 0x4 DUP2 LT PUSH2 0x17E1 JUMPI PUSH1 0x0 DUP1 REVERT JUMPDEST SWAP3 POP PUSH1 0x20 DUP5 ADD CALLDATALOAD SWAP2 POP PUSH1 0x40 DUP5 ADD CALLDATALOAD PUSH8 0xFFFFFFFFFFFFFFFF DUP2 GT ISZERO PUSH2 0x1804 JUMPI PUSH1 0x0 DUP1 REVERT JUMPDEST DUP5 ADD PUSH1 0x1F DUP2 ADD DUP7 SGT PUSH2 0x1815 JUMPI PUSH1 0x0 DUP1 REVERT JUMPDEST DUP1 CALLDATALOAD PUSH2 0x1828 PUSH2 0x1823 DUP3 PUSH2 0x1795 JUMP JUMPDEST PUSH2 0x1764 JUMP JUMPDEST DUP2 DUP2 MSTORE DUP8 PUSH1 0x20 DUP4 DUP6 ADD ADD GT ISZERO PUSH2 0x183D JUMPI PUSH1 0x0 DUP1 REVERT JUMPDEST DUP2 PUSH1 0x20 DUP5 ADD PUSH1 0x20 DUP4 ADD CALLDATACOPY PUSH1 0x0 PUSH1 0x20 DUP4 DUP4 ADD ADD MSTORE DUP1 SWAP4 POP POP POP POP SWAP3 POP SWAP3 POP SWAP3 JUMP JUMPDEST PUSH1 0x0 PUSH1 0x20 DUP3 DUP5 SUB SLT ISZERO PUSH2 0x186F JUMPI PUSH1 0x0 DUP1 REVERT JUMPDEST DUP2 CALLDATALOAD PUSH2 0x187A DUP2 PUSH2 0x16E1 JUMP JUMPDEST SWAP4 SWAP3 POP POP POP JUMP JUMPDEST PUSH1 0x0 PUSH1 0x20 DUP3 DUP5 SUB SLT ISZERO PUSH2 0x1893 JUMPI PUSH1 0x0 DUP1 REVERT JUMPDEST POP CALLDATALOAD SWAP2 SWAP1 POP JUMP JUMPDEST PUSH4 0x4E487B71 PUSH1 0xE0 SHL PUSH1 0x0 MSTORE PUSH1 0x21 PUSH1 0x4 MSTORE PUSH1 0x24 PUSH1 0x0 REVERT JUMPDEST PUSH1 0x4 DUP2 LT PUSH2 0x18C0 JUMPI PUSH2 0x18C0 PUSH2 0x189A JUMP JUMPDEST SWAP1 MSTORE JUMP JUMPDEST PUSH1 0x0 JUMPDEST DUP4 DUP2 LT ISZERO PUSH2 0x18DF JUMPI DUP2 DUP2 ADD MLOAD DUP4 DUP3 ADD MSTORE PUSH1 0x20 ADD PUSH2 0x18C7 JUMP JUMPDEST POP POP PUSH1 0x0 SWAP2 ADD MSTORE JUMP JUMPDEST PUSH1 0x0 DUP2 MLOAD DUP1 DUP5 MSTORE PUSH2 0x1900 DUP2 PUSH1 0x20 DUP7 ADD PUSH1 0x20 DUP7 ADD PUSH2 0x18C4 JUMP JUMPDEST PUSH1 0x1F ADD PUSH1 0x1F NOT AND SWAP3 SWAP1 SWAP3 ADD PUSH1 0x20 ADD SWAP3 SWAP2 POP POP JUMP JUMPDEST PUSH1 0x3 DUP2 LT PUSH2 0x18C0 JUMPI PUSH2 0x18C0 PUSH2 0x189A JUMP JUMPDEST DUP8 DUP2 MSTORE PUSH1 0x1 PUSH1 0x1 PUSH1 0xA0 SHL SUB DUP8 AND PUSH1 0x20 DUP3 ADD MSTORE PUSH2 0x1943 PUSH1 0x40 DUP3 ADD DUP8 PUSH2 0x18B0 JUMP JUMPDEST DUP5 PUSH1 0x60 DUP3 ADD MSTORE PUSH1 0xE0 PUSH1 0x80 DUP3 ADD MSTORE PUSH1 0x0 PUSH2 0x195F PUSH1 0xE0 DUP4 ADD DUP7 PUSH2 0x18E8 JUMP JUMPDEST SWAP1 POP PUSH2 0x196E PUSH1 0xA0 DUP4 ADD DUP6 PUSH2 0x1914 JUMP JUMPDEST DUP3 PUSH1 0xC0 DUP4 ADD MSTORE SWAP9 SWAP8 POP POP POP POP POP POP POP POP JUMP JUMPDEST PUSH1 0x0 PUSH1 0x20 DUP3 ADD PUSH1 0x20 DUP4 MSTORE DUP1 DUP5 MLOAD DUP1 DUP4 MSTORE PUSH1 0x40 DUP6 ADD SWAP2 POP PUSH1 0x40 DUP2 PUSH1 0x5 SHL DUP7 ADD ADD SWAP3 POP PUSH1 0x20 DUP7 ADD PUSH1 0x0 JUMPDEST DUP3 DUP2 LT ISZERO PUSH2 0x1A3F JUMPI DUP7 DUP6 SUB PUSH1 0x3F NOT ADD DUP5 MSTORE DUP2 MLOAD DUP1 MLOAD DUP7 MSTORE PUSH1 0x20 DUP1 DUP3 ADD MLOAD PUSH1 0x1 PUSH1 0x1 PUSH1 0xA0 SHL SUB AND SWAP1 DUP8 ADD MSTORE PUSH1 0x40 DUP1 DUP3 ADD MLOAD SWAP1 PUSH2 0x19E5 SWAP1 DUP9 ADD DUP3 PUSH2 0x18B0 JUMP JUMPDEST POP PUSH1 0x60 DUP2 ADD MLOAD PUSH1 0x60 DUP8 ADD MSTORE PUSH1 0x80 DUP2 ADD MLOAD PUSH1 0xE0 PUSH1 0x80 DUP9 ADD MSTORE PUSH2 0x1A09 PUSH1 0xE0 DUP9 ADD DUP3 PUSH2 0x18E8 JUMP JUMPDEST SWAP1 POP PUSH1 0xA0 DUP3 ADD MLOAD PUSH2 0x1A1D PUSH1 0xA0 DUP10 ADD DUP3 PUSH2 0x1914 JUMP JUMPDEST POP PUSH1 0xC0 SWAP2 DUP3 ADD MLOAD SWAP7 SWAP1 SWAP2 ADD SWAP6 SWAP1 SWAP6 MSTORE PUSH1 0x20 SWAP4 DUP5 ADD SWAP4 SWAP2 SWAP1 SWAP2 ADD SWAP1 PUSH1 0x1 ADD PUSH2 0x19A8 JUMP JUMPDEST POP SWAP3 SWAP7 SWAP6 POP POP POP POP POP POP JUMP JUMPDEST DUP1 MLOAD DUP1 ISZERO ISZERO DUP2 EQ PUSH2 0x1A5B JUMPI PUSH1 0x0 DUP1 REVERT JUMPDEST SWAP2 SWAP1 POP JUMP JUMPDEST PUSH1 0x0 PUSH1 0x20 DUP3 DUP5 SUB SLT ISZERO PUSH2 0x1A72 JUMPI PUSH1 0x0 DUP1 REVERT JUMPDEST PUSH2 0x16D8 DUP3 PUSH2 0x1A4B JUMP JUMPDEST PUSH1 0x20 DUP1 DUP3 MSTORE PUSH1 0xE SWAP1 DUP3 ADD MSTORE PUSH14 0x139BDD08185D5D1A1BDC9A5E9959 PUSH1 0x92 SHL PUSH1 0x40 DUP3 ADD MSTORE PUSH1 0x60 ADD SWAP1 JUMP JUMPDEST PUSH1 0x0 PUSH1 0x20 DUP3 DUP5 SUB SLT ISZERO PUSH2 0x1AB5 JUMPI PUSH1 0x0 DUP1 REVERT JUMPDEST POP MLOAD SWAP2 SWAP1 POP JUMP JUMPDEST PUSH4 0x4E487B71 PUSH1 0xE0 SHL PUSH1 0x0 MSTORE PUSH1 0x11 PUSH1 0x4 MSTORE PUSH1 0x24 PUSH1 0x0 REVERT JUMPDEST DUP2 DUP2 SUB DUP2 DUP2 GT ISZERO PUSH2 0x16DB JUMPI PUSH2 0x16DB PUSH2 0x1ABC JUMP JUMPDEST PUSH1 0x0 DUP3 PUSH1 0x1F DUP4 ADD SLT PUSH2 0x1AF6 JUMPI PUSH1 0x0 DUP1 REVERT JUMPDEST DUP2 MLOAD PUSH2 0x1B04 PUSH2 0x1823 DUP3 PUSH2 0x1795 JUMP JUMPDEST DUP2 DUP2 MSTORE DUP5 PUSH1 0x20 DUP4 DUP7 ADD ADD GT ISZERO PUSH2 0x1B19 JUMPI PUSH1 0x0 DUP1 REVERT JUMPDEST PUSH2 0x1B2A DUP3 PUSH1 0x20 DUP4 ADD PUSH1 0x20 DUP8 ADD PUSH2 0x18C4 JUMP JUMPDEST SWAP5 SWAP4 POP POP POP POP JUMP JUMPDEST DUP1 MLOAD PUSH2 0x1A5B DUP2 PUSH2 0x16E1 JUMP JUMPDEST PUSH1 0x0 PUSH1 0x20 DUP3 DUP5 SUB SLT ISZERO PUSH2 0x1B4F JUMPI PUSH1 0x0 DUP1 REVERT JUMPDEST DUP2 MLOAD PUSH8 0xFFFFFFFFFFFFFFFF DUP2 GT ISZERO PUSH2 0x1B66 JUMPI PUSH1 0x0 DUP1 REVERT JUMPDEST DUP3 ADD PUSH1 0xE0 DUP2 DUP6 SUB SLT ISZERO PUSH2 0x1B78 JUMPI PUSH1 0x0 DUP1 REVERT JUMPDEST PUSH2 0x1B80 PUSH2 0x173B JUMP JUMPDEST DUP2 MLOAD PUSH8 0xFFFFFFFFFFFFFFFF DUP2 GT ISZERO PUSH2 0x1B97 JUMPI PUSH1 0x0 DUP1 REVERT JUMPDEST PUSH2 0x1BA3 DUP7 DUP3 DUP6 ADD PUSH2 0x1AE5 JUMP JUMPDEST DUP3 MSTORE POP PUSH1 0x20 DUP3 DUP2 ADD MLOAD SWAP1 DUP3 ADD MSTORE PUSH1 0x40 DUP1 DUP4 ADD MLOAD SWAP1 DUP3 ADD MSTORE PUSH1 0x60 DUP1 DUP4 ADD MLOAD SWAP1 DUP3 ADD MSTORE PUSH1 0x80 DUP1 DUP4 ADD MLOAD SWAP1 DUP3 ADD MSTORE PUSH2 0x1BDA PUSH1 0xA0 DUP4 ADD PUSH2 0x1A4B JUMP JUMPDEST PUSH1 0xA0 DUP3 ADD MSTORE PUSH2 0x1BEB PUSH1 0xC0 DUP4 ADD PUSH2 0x1B32 JUMP JUMPDEST PUSH1 0xC0 DUP3 ADD MSTORE SWAP5 SWAP4 POP POP POP POP JUMP JUMPDEST PUSH1 0x0 PUSH1 0x1 DUP3 ADD PUSH2 0x1C0A JUMPI PUSH2 0x1C0A PUSH2 0x1ABC JUMP JUMPDEST POP PUSH1 0x1 ADD SWAP1 JUMP JUMPDEST PUSH1 0x1 DUP2 DUP2 SHR SWAP1 DUP3 AND DUP1 PUSH2 0x1C25 JUMPI PUSH1 0x7F DUP3 AND SWAP2 POP JUMPDEST PUSH1 0x20 DUP3 LT DUP2 SUB PUSH2 0x1C45 JUMPI PUSH4 0x4E487B71 PUSH1 0xE0 SHL PUSH1 0x0 MSTORE PUSH1 0x22 PUSH1 0x4 MSTORE PUSH1 0x24 PUSH1 0x0 REVERT JUMPDEST POP SWAP2 SWAP1 POP JUMP JUMPDEST PUSH1 0x1F DUP3 GT ISZERO PUSH2 0x1C95 JUMPI DUP1 PUSH1 0x0 MSTORE PUSH1 0x20 PUSH1 0x0 KECCAK256 PUSH1 0x1F DUP5 ADD PUSH1 0x5 SHR DUP2 ADD PUSH1 0x20 DUP6 LT ISZERO PUSH2 0x1C72 JUMPI POP DUP1 JUMPDEST PUSH1 0x1F DUP5 ADD PUSH1 0x5 SHR DUP3 ADD SWAP2 POP JUMPDEST DUP2 DUP2 LT ISZERO PUSH2 0x1C92 JUMPI PUSH1 0x0 DUP2 SSTORE PUSH1 0x1 ADD PUSH2 0x1C7E JUMP JUMPDEST POP POP JUMPDEST POP POP POP JUMP JUMPDEST DUP2 MLOAD PUSH8 0xFFFFFFFFFFFFFFFF DUP2 GT ISZERO PUSH2 0x1CB4 JUMPI PUSH2 0x1CB4 PUSH2 0x1725 JUMP JUMPDEST PUSH2 0x1CC8 DUP2 PUSH2 0x1CC2 DUP5 SLOAD PUSH2 0x1C11 JUMP JUMPDEST DUP5 PUSH2 0x1C4B JUMP JUMPDEST PUSH1 0x20 PUSH1 0x1F DUP3 GT PUSH1 0x1 DUP2 EQ PUSH2 0x1CFC JUMPI PUSH1 0x0 DUP4 ISZERO PUSH2 0x1CE4 JUMPI POP DUP5 DUP3 ADD MLOAD JUMPDEST PUSH1 0x0 NOT PUSH1 0x3 DUP6 SWAP1 SHL SHR NOT AND PUSH1 0x1 DUP5 SWAP1 SHL OR DUP5 SSTORE PUSH2 0x1C92 JUMP JUMPDEST PUSH1 0x0 DUP5 DUP2 MSTORE PUSH1 0x20 DUP2 KECCAK256 PUSH1 0x1F NOT DUP6 AND SWAP2 JUMPDEST DUP3 DUP2 LT ISZERO PUSH2 0x1D2C JUMPI DUP8 DUP6 ADD MLOAD DUP3 SSTORE PUSH1 0x20 SWAP5 DUP6 ADD SWAP5 PUSH1 0x1 SWAP1 SWAP3 ADD SWAP2 ADD PUSH2 0x1D0C JUMP JUMPDEST POP DUP5 DUP3 LT ISZERO PUSH2 0x1D4A JUMPI DUP7 DUP5 ADD MLOAD PUSH1 0x0 NOT PUSH1 0x3 DUP8 SWAP1 SHL PUSH1 0xF8 AND SHR NOT AND DUP2 SSTORE JUMPDEST POP POP POP POP PUSH1 0x1 SWAP1 DUP2 SHL ADD SWAP1 SSTORE POP JUMP JUMPDEST PUSH1 0x40 DUP2 ADD PUSH2 0x1D67 DUP3 DUP6 PUSH2 0x18B0 JUMP JUMPDEST DUP3 PUSH1 0x20 DUP4 ADD MSTORE SWAP4 SWAP3 POP POP POP JUMP JUMPDEST PUSH1 0x20 DUP2 ADD PUSH2 0x16DB DUP3 DUP5 PUSH2 0x1914 JUMP JUMPDEST PUSH4 0x4E487B71 PUSH1 0xE0 SHL PUSH1 0x0 MSTORE PUSH1 0x32 PUSH1 0x4 MSTORE PUSH1 0x24 PUSH1 0x0 REVERT JUMPDEST DUP1 DUP3 ADD DUP1 DUP3 GT ISZERO PUSH2 0x16DB JUMPI PUSH2 0x16DB PUSH2 0x1ABC JUMP JUMPDEST DUP1 DUP3 MUL DUP2 ISZERO DUP3 DUP3 DIV DUP5 EQ OR PUSH2 0x16DB JUMPI PUSH2 0x16DB PUSH2 0x1ABC JUMP JUMPDEST PUSH1 0x0 DUP3 PUSH2 0x1DDF JUMPI PUSH4 0x4E487B71 PUSH1 0xE0 SHL PUSH1 0x0 MSTORE PUSH1 0x12 PUSH1 0x4 MSTORE PUSH1 0x24 PUSH1 0x0 REVERT JUMPDEST POP DIV SWAP1 JUMP INVALID LOG2 PUSH5 0x6970667358 0x22 SLT KECCAK256 MUL MUL CALLDATACOPY 0xCC MLOAD JUMP CREATE DUP4 RETURNDATACOPY 0xC SWAP4 LOG0 AND 0xD7 CALL 0x4B SELFDESTRUCT PUSH26 0x6F9741FD714D6EDE615CB5BB9C0264736F6C634300081C003300 "},"methodIdentifiers":{"budgetDAO()":"f57c5ecc","createTransaction(uint8,uint256,string)":"5df5010c","departmentRegistry()":"261b3e49","departmentTransactionCount(address)":"680c09b5","departmentTransactions(address,uint256)":"35c7bf9e","getTransactionsByDepartment(address)":"b5ddbda8","initializeDepartmentBudget(address,uint256)":"1c434df0","processTransaction(uint256)":"f0066f83","submitTransaction(uint8,uint256,string)":"200c5b9d","transactionCount()":"b77bf600","transactions(uint256)":"9ace38c2","updateDepartmentBudget(address,uint256)":"0d11506c"}}}}}