{"contracts/BudgetController.sol":{"BudgetController":{"abi":[{"inputs":[{"internalType":"address","name":"_departmentRegistry","type":"address"}],"stateMutability":"nonpayable","type":"constructor"},{"anonymous":false,"inputs":[{"indexed":true,"internalType":"address","name":"department","type":"address"},{"indexed":false,"internalType":"uint256","name":"spent","type":"uint256"},{"indexed":false,"internalType":"uint256","name":"budget","type":"uint256"}],"name":"BudgetLimitWarning","type":"event"},{"anonymous":false,"inputs":[{"indexed":true,"internalType":"address","name":"department","type":"address"},{"indexed":false,"internalType":"uint256","name":"oldBudget","type":"uint256"},{"indexed":false,"internalType":"uint256","name":"newBudget","type":"uint256"},{"indexed":false,"internalType":"uint256","name":"transactionId","type":"uint256"}],"name":"BudgetUpdated","type":"event"},{"anonymous":false,"inputs":[{"indexed":false,"internalType":"uint256","name":"newTotalBudget","type":"uint256"}],"name":"TotalBudgetUpdated","type":"event"},{"anonymous":false,"inputs":[{"indexed":false,"internalType":"uint256","name":"newTotalSpent","type":"uint256"}],"name":"TotalSpentUpdated","type":"event"},{"anonymous":false,"inputs":[{"indexed":true,"internalType":"uint256","name":"id","type":"uint256"},{"indexed":false,"internalType":"enum BudgetController.TransactionStatus","name":"status","type":"uint8"}],"name":"TransactionCompleted","type":"event"},{"anonymous":false,"inputs":[{"indexed":true,"internalType":"uint256","name":"id","type":"uint256"},{"indexed":true,"internalType":"address","name":"department","type":"address"},{"indexed":false,"internalType":"enum BudgetController.TransactionType","name":"txType","type":"uint8"},{"indexed":false,"internalType":"uint256","name":"amount","type":"uint256"}],"name":"TransactionCreated","type":"event"},{"inputs":[{"internalType":"enum BudgetController.TransactionType","name":"txType","type":"uint8"},{"internalType":"uint256","name":"amount","type":"uint256"},{"internalType":"string","name":"description","type":"string"}],"name":"createTransaction","outputs":[{"internalType":"uint256","name":"","type":"uint256"}],"stateMutability":"nonpayable","type":"function"},{"inputs":[],"name":"departmentRegistry","outputs":[{"internalType":"contract IDepartmentRegistry","name":"","type":"address"}],"stateMutability":"view","type":"function"},{"inputs":[{"internalType":"address","name":"","type":"address"}],"name":"departmentTransactionCount","outputs":[{"internalType":"uint256","name":"","type":"uint256"}],"stateMutability":"view","type":"function"},{"inputs":[{"internalType":"address","name":"","type":"address"},{"internalType":"uint256","name":"","type":"uint256"}],"name":"departmentTransactions","outputs":[{"internalType":"uint256","name":"","type":"uint256"}],"stateMutability":"view","type":"function"},{"inputs":[],"name":"getSystemMetrics","outputs":[{"internalType":"uint256","name":"totalBudget","type":"uint256"},{"internalType":"uint256","name":"totalSpent","type":"uint256"},{"internalType":"uint256","name":"pendingTransactionCount","type":"uint256"},{"internalType":"uint256","name":"completedTransactionCount","type":"uint256"}],"stateMutability":"view","type":"function"},{"inputs":[{"internalType":"address","name":"department","type":"address"}],"name":"getTransactionsByDepartment","outputs":[{"components":[{"internalType":"uint256","name":"id","type":"uint256"},{"internalType":"address","name":"department","type":"address"},{"internalType":"enum BudgetController.TransactionType","name":"txType","type":"uint8"},{"internalType":"uint256","name":"amount","type":"uint256"},{"internalType":"string","name":"description","type":"string"},{"internalType":"enum BudgetController.TransactionStatus","name":"status","type":"uint8"},{"internalType":"uint256","name":"timestamp","type":"uint256"}],"internalType":"struct BudgetController.Transaction[]","name":"","type":"tuple[]"}],"stateMutability":"view","type":"function"},{"inputs":[{"internalType":"address","name":"department","type":"address"},{"internalType":"uint256","name":"initialBudget","type":"uint256"}],"name":"initializeDepartmentBudget","outputs":[],"stateMutability":"nonpayable","type":"function"},{"inputs":[{"internalType":"uint256","name":"transactionId","type":"uint256"}],"name":"processTransaction","outputs":[],"stateMutability":"nonpayable","type":"function"},{"inputs":[{"internalType":"enum BudgetController.TransactionType","name":"txType","type":"uint8"},{"internalType":"uint256","name":"amount","type":"uint256"},{"internalType":"string","name":"description","type":"string"}],"name":"submitTransaction","outputs":[{"internalType":"uint256","name":"","type":"uint256"}],"stateMutability":"nonpayable","type":"function"},{"inputs":[],"name":"totalBudgetAllocated","outputs":[{"internalType":"uint256","name":"","type":"uint256"}],"stateMutability":"view","type":"function"},{"inputs":[],"name":"totalBudgetSpent","outputs":[{"internalType":"uint256","name":"","type":"uint256"}],"stateMutability":"view","type":"function"},{"inputs":[],"name":"transactionCount","outputs":[{"internalType":"uint256","name":"","type":"uint256"}],"stateMutability":"view","type":"function"},{"inputs":[{"internalType":"uint256","name":"","type":"uint256"}],"name":"transactions","outputs":[{"internalType":"uint256","name":"id","type":"uint256"},{"internalType":"address","name":"department","type":"address"},{"internalType":"enum BudgetController.TransactionType","name":"txType","type":"uint8"},{"internalType":"uint256","name":"amount","type":"uint256"},{"internalType":"string","name":"description","type":"string"},{"internalType":"enum BudgetController.TransactionStatus","name":"status","type":"uint8"},{"internalType":"uint256","name":"timestamp","type":"uint256"}],"stateMutability":"view","type":"function"},{"inputs":[{"internalType":"address","name":"department","type":"address"},{"internalType":"uint256","name":"newBudget","type":"uint256"}],"name":"updateDepartmentBudget","outputs":[],"stateMutability":"nonpayable","type":"function"},{"inputs":[],"name":"updateTotals","outputs":[],"stateMutability":"nonpayable","type":"function"}],"evm":{"bytecode":{"linkReferences":{},"object":"6080604052348015600f57600080fd5b5060405161221d38038061221d833981016040819052602c916050565b600080546001600160a01b0319166001600160a01b0392909216919091179055607e565b600060208284031215606157600080fd5b81516001600160a01b0381168114607757600080fd5b9392505050565b6121908061008d6000396000f3fe608060405234801561001057600080fd5b50600436106100f55760003560e01c80635df5010c11610097578063b5ddbda811610066578063b5ddbda814610218578063b77bf60014610238578063dd60639114610241578063f0066f831461024a57600080fd5b80635df5010c14610197578063680c09b5146101aa5780636cfccc2f146101ca5780639ace38c2146101f257600080fd5b8063261b3e49116100d3578063261b3e491461014857806335c7bf9e146101735780635155b3ce1461018657806358f940311461018e57600080fd5b80630d11506c146100fa5780631c434df01461010f578063200c5b9d14610122575b600080fd5b61010d6101083660046119b5565b61025d565b005b61010d61011d3660046119b5565b610525565b610135610130366004611a79565b61092b565b6040519081526020015b60405180910390f35b60005461015b906001600160a01b031681565b6040516001600160a01b03909116815260200161013f565b6101356101813660046119b5565b610bd3565b61010d610c04565b61013560055481565b6101356101a5366004611a79565b610dd8565b6101356101b8366004611b19565b60046020526000908152604090205481565b6101d2610fb4565b60408051948552602085019390935291830152606082015260800161013f565b610205610200366004611b3d565b611066565b60405161013f9796959493929190611be0565b61022b610226366004611b19565b61113d565b60405161013f9190611c3c565b61013560025481565b61013560065481565b61010d610258366004611b3d565b6113c5565b600054604051635692e5a160e11b81523360048201526001600160a01b039091169063ad25cb4290602401602060405180830381865afa1580156102a5573d6000803e3d6000fd5b505050506040513d601f19601f820116820180604052508101906102c99190611d1c565b6102ee5760405162461bcd60e51b81526004016102e590611d37565b60405180910390fd5b6000546040516344d49dcd60e11b81526001600160a01b038481166004830152909116906389a93b9a90602401602060405180830381865afa158015610338573d6000803e3d6000fd5b505050506040513d601f19601f8201168201806040525081019061035c9190611d1c565b6103a85760405162461bcd60e51b815260206004820152601860248201527f4465706172746d656e74206973206e6f7420616374697665000000000000000060448201526064016102e5565b60008054604051636e68c25360e01b81526001600160a01b03858116600483015290911690636e68c25390602401602060405180830381865afa1580156103f3573d6000803e3d6000fd5b505050506040513d601f19601f820116820180604052508101906104179190611d60565b9050600061046b6002838511610436576104318585611d8f565b610440565b6104408486611d8f565b6040518060400160405280600d81526020016c4275646765742055706461746560981b815250610dd8565b600054604051630344541b60e21b81526001600160a01b03878116600483015260248201879052929350911690630d11506c90604401600060405180830381600087803b1580156104bb57600080fd5b505af11580156104cf573d6000803e3d6000fd5b505060408051858152602081018790529081018490526001600160a01b03871692507f1c6f534fc8e314bccb4945dbaba4438a802afe2c11d64b93b3eaa79c5f017c6e915060600160405180910390a250505050565b600054604051635692e5a160e11b81523360048201526001600160a01b039091169063ad25cb4290602401602060405180830381865afa15801561056d573d6000803e3d6000fd5b505050506040513d601f19601f820116820180604052508101906105919190611d1c565b6105ad5760405162461bcd60e51b81526004016102e590611d37565b600054600160a01b900460ff16156105f85760405162461bcd60e51b815260206004820152600e60248201526d1499595b9d1c985b9d0818d85b1b60921b60448201526064016102e5565b6000805460ff60a01b1916600160a01b179055808015801590610625575069152d02c7e14af68000008111155b6106625760405162461bcd60e51b815260206004820152600e60248201526d125b9d985b1a5908185b5bdd5b9d60921b60448201526064016102e5565b600054604051630cd29ba760e31b81526001600160a01b03858116600483015290911690636694dd3890602401600060405180830381865afa1580156106ac573d6000803e3d6000fd5b505050506040513d6000823e601f3d908101601f191682016040526106d49190810190611dfa565b60a0015161071c5760405162461bcd60e51b81526020600482015260156024820152744465706172746d656e74206e6f742061637469766560581b60448201526064016102e5565b6002805490600061072c83611eb5565b90915550506002546040805160e0810182528281526001600160a01b0386811660208084019182526000848601818152606086018a905286518088018852601981527f496e697469616c2062756467657420616c6c6f636174696f6e00000000000000818501526080870152600160a087018190524260c08801528883529283905295902084518155915190820180546001600160a01b03198116929094169182178155945193949193926001600160a81b03191617600160a01b8360038111156107f9576107f9611b56565b0217905550606082015160028201556080820151600382019061081c9082611f57565b5060a082015160048201805460ff1916600183600281111561084057610840611b56565b021790555060c091909101516005909101556001600160a01b03841660008181526003602090815260408083208054600181018255908452828420018590559282526004905290812080549161089583611eb5565b9190505550836001600160a01b0316817fc5617696b75e538ed738f904611fdfb78dff557717f05c9ea38595041503c5f06000866040516108d7929190612016565b60405180910390a3807f11a3517410d399d687a3dac00c28ef32ffea27e8991a0d4d2283382878b118f660016040516109109190612031565b60405180910390a250506000805460ff60a01b191690555050565b6000805460405163266ebeb160e21b81523360048201526001600160a01b03909116906399bafac490602401602060405180830381865afa158015610974573d6000803e3d6000fd5b505050506040513d601f19601f820116820180604052508101906109989190611d1c565b6109da5760405162461bcd60e51b8152602060048201526013602482015272139bdd0819195c185c9d1b595b9d081a195859606a1b60448201526064016102e5565b6000831180156109f4575069152d02c7e14af68000008311155b610a315760405162461bcd60e51b815260206004820152600e60248201526d125b9d985b1a5908185b5bdd5b9d60921b60448201526064016102e5565b60028054906000610a4183611eb5565b90915550506002546040805160e081018252828152336020820152908101866003811115610a7157610a71611b56565b81526020810186905260408101859052606001600081524260209182015260008381526001808352604091829020845181559284015190830180546001600160a01b039092166001600160a01b0319831681178255928501519290916001600160a81b03191617600160a01b836003811115610aef57610aef611b56565b02179055506060820151600282015560808201516003820190610b129082611f57565b5060a082015160048201805460ff19166001836002811115610b3657610b36611b56565b021790555060c0919091015160059091015533600081815260036020908152604080832080546001810182559084528284200185905592825260049052908120805491610b8283611eb5565b9190505550336001600160a01b0316817fc5617696b75e538ed738f904611fdfb78dff557717f05c9ea38595041503c5f08787604051610bc3929190612016565b60405180910390a3949350505050565b60036020528160005260406000208181548110610bef57600080fd5b90600052602060002001600091509150505481565b60008060008060009054906101000a90046001600160a01b03166001600160a01b03166386c3a49c6040518163ffffffff1660e01b8152600401600060405180830381865afa158015610c5b573d6000803e3d6000fd5b505050506040513d6000823e601f3d908101601f19168201604052610c83919081019061203f565b905060005b8151811015610d62576000805483516001600160a01b03909116906327a9212790859085908110610cbb57610cbb6120f8565b60200260200101516040518263ffffffff1660e01b8152600401610cee91906001600160a01b0391909116815260200190565b600060405180830381865afa158015610d0b573d6000803e3d6000fd5b505050506040513d6000823e601f3d908101601f19168201604052610d339190810190611dfa565b9050806020015185610d45919061210e565b9450806040015184610d57919061210e565b935050600101610c88565b50600583905560068290556040518381527f4dfcea5534e430bad95ff41acae4f2a378560e369ce29b71affe10a986cc7cfa9060200160405180910390a16040518281527ff7bbcd269fa2c82d62b258820df285e9b0d85df8637cf63c22ee5c350e7ff3fa9060200160405180910390a1505050565b6002805460009182610de983611eb5565b90915550506002546040805160e081018252828152336020820152908101866003811115610e1957610e19611b56565b81526020810186905260408101859052606001600181524260209182015260008381526001808352604091829020845181559284015190830180546001600160a01b039092166001600160a01b0319831681178255928501519290916001600160a81b03191617600160a01b836003811115610e9757610e97611b56565b02179055506060820151600282015560808201516003820190610eba9082611f57565b5060a082015160048201805460ff19166001836002811115610ede57610ede611b56565b021790555060c0919091015160059091015533600081815260036020908152604080832080546001810182559084528284200185905592825260049052908120805491610f2a83611eb5565b9190505550336001600160a01b0316817fc5617696b75e538ed738f904611fdfb78dff557717f05c9ea38595041503c5f08787604051610f6b929190612016565b60405180910390a3807f11a3517410d399d687a3dac00c28ef32ffea27e8991a0d4d2283382878b118f66001604051610fa49190612031565b60405180910390a2949350505050565b6000808080808060015b60025481116110515760008181526001602052604081206004015460ff166002811115610fed57610fed611b56565b036110045782610ffc81611eb5565b93505061103f565b600160008281526001602052604090206004015460ff16600281111561102c5761102c611b56565b0361103f578161103b81611eb5565b9250505b8061104981611eb5565b915050610fbe565b50600554600654909790965091945092509050565b600160208190526000918252604090912080549181015460028201546003830180546001600160a01b03841694600160a01b90940460ff169391906110aa90611ece565b80601f01602080910402602001604051908101604052809291908181526020018280546110d690611ece565b80156111235780601f106110f857610100808354040283529160200191611123565b820191906000526020600020905b81548152906001019060200180831161110657829003601f168201915b505050506004830154600590930154919260ff1691905087565b6001600160a01b038116600090815260036020908152604080832080548251818502810185019093528083526060949383018282801561119c57602002820191906000526020600020905b815481526020019060010190808311611188575b505050505090506000815167ffffffffffffffff8111156111bf576111bf6119e1565b60405190808252806020026020018201604052801561122557816020015b6040805160e081018252600080825260208083018290529282018190526060808301829052608083015260a0820181905260c082015282526000199092019101816111dd5790505b50905060005b82518110156113bd576001600084838151811061124a5761124a6120f8565b6020908102919091018101518252818101929092526040908101600020815160e0810183528154815260018201546001600160a01b03811694820194909452929091830190600160a01b900460ff1660038111156112aa576112aa611b56565b60038111156112bb576112bb611b56565b8152602001600282015481526020016003820180546112d990611ece565b80601f016020809104026020016040519081016040528092919081815260200182805461130590611ece565b80156113525780601f1061132757610100808354040283529160200191611352565b820191906000526020600020905b81548152906001019060200180831161133557829003601f168201915b5050509183525050600482015460209091019060ff16600281111561137957611379611b56565b600281111561138a5761138a611b56565b81526020016005820154815250508282815181106113aa576113aa6120f8565b602090810291909101015260010161122b565b509392505050565b600054604051635692e5a160e11b81523360048201526001600160a01b039091169063ad25cb4290602401602060405180830381865afa15801561140d573d6000803e3d6000fd5b505050506040513d601f19601f820116820180604052508101906114319190611d1c565b61144d5760405162461bcd60e51b81526004016102e590611d37565b600054600160a01b900460ff16156114985760405162461bcd60e51b815260206004820152600e60248201526d1499595b9d1c985b9d0818d85b1b60921b60448201526064016102e5565b6000805460ff60a01b1916600160a01b17815581815260016020526040812080549091036115005760405162461bcd60e51b8152602060048201526015602482015274151c985b9cd858dd1a5bdb881b9bdd08199bdd5b99605a1b60448201526064016102e5565b6000600482015460ff16600281111561151b5761151b611b56565b146115685760405162461bcd60e51b815260206004820152601760248201527f5472616e73616374696f6e206e6f742070656e64696e6700000000000000000060448201526064016102e5565b6000805460018301546040516327a9212760e01b81526001600160a01b0391821660048201529116906327a9212790602401600060405180830381865afa1580156115b7573d6000803e3d6000fd5b505050506040513d6000823e601f3d908101601f191682016040526115df9190810190611dfa565b905060036001830154600160a01b900460ff16600381111561160357611603611b56565b0361169057806020015182600201548260400151611621919061210e565b11156116615760405162461bcd60e51b815260206004820152600f60248201526e109d5919d95d08195e18d959591959608a1b60448201526064016102e5565b6001820154600283015461168b916001600160a01b03811691600160a01b90910460ff16906117a9565b611747565b60006001830154600160a01b900460ff1660038111156116b2576116b2611b56565b036117475769152d02c7e14af6800000826002015482602001516116d6919061210e565b111561171d5760405162461bcd60e51b815260206004820152601660248201527522bc31b2b2b2399036b0bc1030b63637b1b0ba34b7b760511b60448201526064016102e5565b60018201546002830154611747916001600160a01b03811691600160a01b90910460ff16906117a9565b60048201805460ff1916600117905561175e610c04565b827f11a3517410d399d687a3dac00c28ef32ffea27e8991a0d4d2283382878b118f6600160405161178f9190612031565b60405180910390a250506000805460ff60a01b1916905550565b600080546040516327a9212760e01b81526001600160a01b038681166004830152909116906327a9212790602401600060405180830381865afa1580156117f4573d6000803e3d6000fd5b505050506040513d6000823e601f3d908101601f1916820160405261181c9190810190611dfa565b6040810151602082015191925090600385600381111561183e5761183e611b56565b036118545761184d848361210e565b915061187a565b600085600381111561186857611868611b56565b0361187a57611877848261210e565b90505b6000611886838361196c565b600054608086015160405162bacb0b60e01b81526001600160a01b038b8116600483015260248201859052604482019290925260648101879052929350169062bacb0b90608401600060405180830381600087803b1580156118e757600080fd5b505af11580156118fb573d6000803e3d6000fd5b50505050606482605a61190e9190612121565b6119189190612138565b83106119635760408051848152602081018490526001600160a01b038916917ffa05e6c946b9b30d53ea35a0c06832056010f40d2686eba05a629781030fa8c2910160405180910390a25b50505050505050565b60008160000361197e57506000611997565b8161198a846064612121565b6119949190612138565b90505b92915050565b6001600160a01b03811681146119b257600080fd5b50565b600080604083850312156119c857600080fd5b82356119d38161199d565b946020939093013593505050565b634e487b7160e01b600052604160045260246000fd5b60405160e0810167ffffffffffffffff81118282101715611a1a57611a1a6119e1565b60405290565b604051601f8201601f1916810167ffffffffffffffff81118282101715611a4957611a496119e1565b604052919050565b600067ffffffffffffffff821115611a6b57611a6b6119e1565b50601f01601f191660200190565b600080600060608486031215611a8e57600080fd5b833560048110611a9d57600080fd5b925060208401359150604084013567ffffffffffffffff811115611ac057600080fd5b8401601f81018613611ad157600080fd5b8035611ae4611adf82611a51565b611a20565b818152876020838501011115611af957600080fd5b816020840160208301376000602083830101528093505050509250925092565b600060208284031215611b2b57600080fd5b8135611b368161199d565b9392505050565b600060208284031215611b4f57600080fd5b5035919050565b634e487b7160e01b600052602160045260246000fd5b60048110611b7c57611b7c611b56565b9052565b60005b83811015611b9b578181015183820152602001611b83565b50506000910152565b60008151808452611bbc816020860160208601611b80565b601f01601f19169290920160200192915050565b60038110611b7c57611b7c611b56565b8781526001600160a01b0387166020820152611bff6040820187611b6c565b84606082015260e060808201526000611c1b60e0830186611ba4565b9050611c2a60a0830185611bd0565b8260c083015298975050505050505050565b6000602082016020835280845180835260408501915060408160051b86010192506020860160005b82811015611cfb57868503603f190184528151805186526020808201516001600160a01b03169087015260408082015190611ca190880182611b6c565b5060608101516060870152608081015160e06080880152611cc560e0880182611ba4565b905060a0820151611cd960a0890182611bd0565b5060c09182015196909101959095526020938401939190910190600101611c64565b50929695505050505050565b80518015158114611d1757600080fd5b919050565b600060208284031215611d2e57600080fd5b61199482611d07565b6020808252600f908201526e2737ba1039bab832b91030b236b4b760891b604082015260600190565b600060208284031215611d7257600080fd5b5051919050565b634e487b7160e01b600052601160045260246000fd5b8181038181111561199757611997611d79565b600082601f830112611db357600080fd5b8151611dc1611adf82611a51565b818152846020838601011115611dd657600080fd5b611de7826020830160208701611b80565b949350505050565b8051611d178161199d565b600060208284031215611e0c57600080fd5b815167ffffffffffffffff811115611e2357600080fd5b820160e08185031215611e3557600080fd5b611e3d6119f7565b815167ffffffffffffffff811115611e5457600080fd5b611e6086828501611da2565b82525060208281015190820152604080830151908201526060808301519082015260808083015190820152611e9760a08301611d07565b60a0820152611ea860c08301611def565b60c0820152949350505050565b600060018201611ec757611ec7611d79565b5060010190565b600181811c90821680611ee257607f821691505b602082108103611f0257634e487b7160e01b600052602260045260246000fd5b50919050565b601f821115611f5257806000526020600020601f840160051c81016020851015611f2f5750805b601f840160051c820191505b81811015611f4f5760008155600101611f3b565b50505b505050565b815167ffffffffffffffff811115611f7157611f716119e1565b611f8581611f7f8454611ece565b84611f08565b6020601f821160018114611fb95760008315611fa15750848201515b600019600385901b1c1916600184901b178455611f4f565b600084815260208120601f198516915b82811015611fe95787850151825560209485019460019092019101611fc9565b50848210156120075786840151600019600387901b60f8161c191681555b50505050600190811b01905550565b604081016120248285611b6c565b8260208301529392505050565b602081016119978284611bd0565b60006020828403121561205157600080fd5b815167ffffffffffffffff81111561206857600080fd5b8201601f8101841361207957600080fd5b805167ffffffffffffffff811115612093576120936119e1565b8060051b6120a360208201611a20565b918252602081840181019290810190878411156120bf57600080fd5b6020850194505b838510156120ed57845192506120db8361199d565b828252602094850194909101906120c6565b979650505050505050565b634e487b7160e01b600052603260045260246000fd5b8082018082111561199757611997611d79565b808202811582820484141761199757611997611d79565b60008261215557634e487b7160e01b600052601260045260246000fd5b50049056fea2646970667358221220b722c66b527c0dbd55ed2faa18f796a7d3c660606a8003d3c5dcbe4f160cdc4664736f6c634300081c0033","opcodes":"PUSH1 0x80 PUSH1 0x40 MSTORE CALLVALUE DUP1 ISZERO PUSH1 0xF JUMPI PUSH1 0x0 DUP1 REVERT JUMPDEST POP PUSH1 0x40 MLOAD PUSH2 0x221D CODESIZE SUB DUP1 PUSH2 0x221D DUP4 CODECOPY DUP2 ADD PUSH1 0x40 DUP2 SWAP1 MSTORE PUSH1 0x2C SWAP2 PUSH1 0x50 JUMP JUMPDEST PUSH1 0x0 DUP1 SLOAD PUSH1 0x1 PUSH1 0x1 PUSH1 0xA0 SHL SUB NOT AND PUSH1 0x1 PUSH1 0x1 PUSH1 0xA0 SHL SUB SWAP3 SWAP1 SWAP3 AND SWAP2 SWAP1 SWAP2 OR SWAP1 SSTORE PUSH1 0x7E JUMP JUMPDEST PUSH1 0x0 PUSH1 0x20 DUP3 DUP5 SUB SLT ISZERO PUSH1 0x61 JUMPI PUSH1 0x0 DUP1 REVERT JUMPDEST DUP2 MLOAD PUSH1 0x1 PUSH1 0x1 PUSH1 0xA0 SHL SUB DUP2 AND DUP2 EQ PUSH1 0x77 JUMPI PUSH1 0x0 DUP1 REVERT JUMPDEST SWAP4 SWAP3 POP POP POP JUMP JUMPDEST PUSH2 0x2190 DUP1 PUSH2 0x8D PUSH1 0x0 CODECOPY PUSH1 0x0 RETURN INVALID PUSH1 0x80 PUSH1 0x40 MSTORE CALLVALUE DUP1 ISZERO PUSH2 0x10 JUMPI PUSH1 0x0 DUP1 REVERT JUMPDEST POP PUSH1 0x4 CALLDATASIZE LT PUSH2 0xF5 JUMPI PUSH1 0x0 CALLDATALOAD PUSH1 0xE0 SHR DUP1 PUSH4 0x5DF5010C GT PUSH2 0x97 JUMPI DUP1 PUSH4 0xB5DDBDA8 GT PUSH2 0x66 JUMPI DUP1 PUSH4 0xB5DDBDA8 EQ PUSH2 0x218 JUMPI DUP1 PUSH4 0xB77BF600 EQ PUSH2 0x238 JUMPI DUP1 PUSH4 0xDD606391 EQ PUSH2 0x241 JUMPI DUP1 PUSH4 0xF0066F83 EQ PUSH2 0x24A JUMPI PUSH1 0x0 DUP1 REVERT JUMPDEST DUP1 PUSH4 0x5DF5010C EQ PUSH2 0x197 JUMPI DUP1 PUSH4 0x680C09B5 EQ PUSH2 0x1AA JUMPI DUP1 PUSH4 0x6CFCCC2F EQ PUSH2 0x1CA JUMPI DUP1 PUSH4 0x9ACE38C2 EQ PUSH2 0x1F2 JUMPI PUSH1 0x0 DUP1 REVERT JUMPDEST DUP1 PUSH4 0x261B3E49 GT PUSH2 0xD3 JUMPI DUP1 PUSH4 0x261B3E49 EQ PUSH2 0x148 JUMPI DUP1 PUSH4 0x35C7BF9E EQ PUSH2 0x173 JUMPI DUP1 PUSH4 0x5155B3CE EQ PUSH2 0x186 JUMPI DUP1 PUSH4 0x58F94031 EQ PUSH2 0x18E JUMPI PUSH1 0x0 DUP1 REVERT JUMPDEST DUP1 PUSH4 0xD11506C EQ PUSH2 0xFA JUMPI DUP1 PUSH4 0x1C434DF0 EQ PUSH2 0x10F JUMPI DUP1 PUSH4 0x200C5B9D EQ PUSH2 0x122 JUMPI JUMPDEST PUSH1 0x0 DUP1 REVERT JUMPDEST PUSH2 0x10D PUSH2 0x108 CALLDATASIZE PUSH1 0x4 PUSH2 0x19B5 JUMP JUMPDEST PUSH2 0x25D JUMP JUMPDEST STOP JUMPDEST PUSH2 0x10D PUSH2 0x11D CALLDATASIZE PUSH1 0x4 PUSH2 0x19B5 JUMP JUMPDEST PUSH2 0x525 JUMP JUMPDEST PUSH2 0x135 PUSH2 0x130 CALLDATASIZE PUSH1 0x4 PUSH2 0x1A79 JUMP JUMPDEST PUSH2 0x92B JUMP JUMPDEST PUSH1 0x40 MLOAD SWAP1 DUP2 MSTORE PUSH1 0x20 ADD JUMPDEST PUSH1 0x40 MLOAD DUP1 SWAP2 SUB SWAP1 RETURN JUMPDEST PUSH1 0x0 SLOAD PUSH2 0x15B SWAP1 PUSH1 0x1 PUSH1 0x1 PUSH1 0xA0 SHL SUB AND DUP2 JUMP JUMPDEST PUSH1 0x40 MLOAD PUSH1 0x1 PUSH1 0x1 PUSH1 0xA0 SHL SUB SWAP1 SWAP2 AND DUP2 MSTORE PUSH1 0x20 ADD PUSH2 0x13F JUMP JUMPDEST PUSH2 0x135 PUSH2 0x181 CALLDATASIZE PUSH1 0x4 PUSH2 0x19B5 JUMP JUMPDEST PUSH2 0xBD3 JUMP JUMPDEST PUSH2 0x10D PUSH2 0xC04 JUMP JUMPDEST PUSH2 0x135 PUSH1 0x5 SLOAD DUP2 JUMP JUMPDEST PUSH2 0x135 PUSH2 0x1A5 CALLDATASIZE PUSH1 0x4 PUSH2 0x1A79 JUMP JUMPDEST PUSH2 0xDD8 JUMP JUMPDEST PUSH2 0x135 PUSH2 0x1B8 CALLDATASIZE PUSH1 0x4 PUSH2 0x1B19 JUMP JUMPDEST PUSH1 0x4 PUSH1 0x20 MSTORE PUSH1 0x0 SWAP1 DUP2 MSTORE PUSH1 0x40 SWAP1 KECCAK256 SLOAD DUP2 JUMP JUMPDEST PUSH2 0x1D2 PUSH2 0xFB4 JUMP JUMPDEST PUSH1 0x40 DUP1 MLOAD SWAP5 DUP6 MSTORE PUSH1 0x20 DUP6 ADD SWAP4 SWAP1 SWAP4 MSTORE SWAP2 DUP4 ADD MSTORE PUSH1 0x60 DUP3 ADD MSTORE PUSH1 0x80 ADD PUSH2 0x13F JUMP JUMPDEST PUSH2 0x205 PUSH2 0x200 CALLDATASIZE PUSH1 0x4 PUSH2 0x1B3D JUMP JUMPDEST PUSH2 0x1066 JUMP JUMPDEST PUSH1 0x40 MLOAD PUSH2 0x13F SWAP8 SWAP7 SWAP6 SWAP5 SWAP4 SWAP3 SWAP2 SWAP1 PUSH2 0x1BE0 JUMP JUMPDEST PUSH2 0x22B PUSH2 0x226 CALLDATASIZE PUSH1 0x4 PUSH2 0x1B19 JUMP JUMPDEST PUSH2 0x113D JUMP JUMPDEST PUSH1 0x40 MLOAD PUSH2 0x13F SWAP2 SWAP1 PUSH2 0x1C3C JUMP JUMPDEST PUSH2 0x135 PUSH1 0x2 SLOAD DUP2 JUMP JUMPDEST PUSH2 0x135 PUSH1 0x6 SLOAD DUP2 JUMP JUMPDEST PUSH2 0x10D PUSH2 0x258 CALLDATASIZE PUSH1 0x4 PUSH2 0x1B3D JUMP JUMPDEST PUSH2 0x13C5 JUMP JUMPDEST PUSH1 0x0 SLOAD PUSH1 0x40 MLOAD PUSH4 0x5692E5A1 PUSH1 0xE1 SHL DUP2 MSTORE CALLER PUSH1 0x4 DUP3 ADD MSTORE PUSH1 0x1 PUSH1 0x1 PUSH1 0xA0 SHL SUB SWAP1 SWAP2 AND SWAP1 PUSH4 0xAD25CB42 SWAP1 PUSH1 0x24 ADD PUSH1 0x20 PUSH1 0x40 MLOAD DUP1 DUP4 SUB DUP2 DUP7 GAS STATICCALL ISZERO DUP1 ISZERO PUSH2 0x2A5 JUMPI RETURNDATASIZE PUSH1 0x0 DUP1 RETURNDATACOPY RETURNDATASIZE PUSH1 0x0 REVERT JUMPDEST POP POP POP POP PUSH1 0x40 MLOAD RETURNDATASIZE PUSH1 0x1F NOT PUSH1 0x1F DUP3 ADD AND DUP3 ADD DUP1 PUSH1 0x40 MSTORE POP DUP2 ADD SWAP1 PUSH2 0x2C9 SWAP2 SWAP1 PUSH2 0x1D1C JUMP JUMPDEST PUSH2 0x2EE JUMPI PUSH1 0x40 MLOAD PUSH3 0x461BCD PUSH1 0xE5 SHL DUP2 MSTORE PUSH1 0x4 ADD PUSH2 0x2E5 SWAP1 PUSH2 0x1D37 JUMP JUMPDEST PUSH1 0x40 MLOAD DUP1 SWAP2 SUB SWAP1 REVERT JUMPDEST PUSH1 0x0 SLOAD PUSH1 0x40 MLOAD PUSH4 0x44D49DCD PUSH1 0xE1 SHL DUP2 MSTORE PUSH1 0x1 PUSH1 0x1 PUSH1 0xA0 SHL SUB DUP5 DUP2 AND PUSH1 0x4 DUP4 ADD MSTORE SWAP1 SWAP2 AND SWAP1 PUSH4 0x89A93B9A SWAP1 PUSH1 0x24 ADD PUSH1 0x20 PUSH1 0x40 MLOAD DUP1 DUP4 SUB DUP2 DUP7 GAS STATICCALL ISZERO DUP1 ISZERO PUSH2 0x338 JUMPI RETURNDATASIZE PUSH1 0x0 DUP1 RETURNDATACOPY RETURNDATASIZE PUSH1 0x0 REVERT JUMPDEST POP POP POP POP PUSH1 0x40 MLOAD RETURNDATASIZE PUSH1 0x1F NOT PUSH1 0x1F DUP3 ADD AND DUP3 ADD DUP1 PUSH1 0x40 MSTORE POP DUP2 ADD SWAP1 PUSH2 0x35C SWAP2 SWAP1 PUSH2 0x1D1C JUMP JUMPDEST PUSH2 0x3A8 JUMPI PUSH1 0x40 MLOAD PUSH3 0x461BCD PUSH1 0xE5 SHL DUP2 MSTORE PUSH1 0x20 PUSH1 0x4 DUP3 ADD MSTORE PUSH1 0x18 PUSH1 0x24 DUP3 ADD MSTORE PUSH32 0x4465706172746D656E74206973206E6F74206163746976650000000000000000 PUSH1 0x44 DUP3 ADD MSTORE PUSH1 0x64 ADD PUSH2 0x2E5 JUMP JUMPDEST PUSH1 0x0 DUP1 SLOAD PUSH1 0x40 MLOAD PUSH4 0x6E68C253 PUSH1 0xE0 SHL DUP2 MSTORE PUSH1 0x1 PUSH1 0x1 PUSH1 0xA0 SHL SUB DUP6 DUP2 AND PUSH1 0x4 DUP4 ADD MSTORE SWAP1 SWAP2 AND SWAP1 PUSH4 0x6E68C253 SWAP1 PUSH1 0x24 ADD PUSH1 0x20 PUSH1 0x40 MLOAD DUP1 DUP4 SUB DUP2 DUP7 GAS STATICCALL ISZERO DUP1 ISZERO PUSH2 0x3F3 JUMPI RETURNDATASIZE PUSH1 0x0 DUP1 RETURNDATACOPY RETURNDATASIZE PUSH1 0x0 REVERT JUMPDEST POP POP POP POP PUSH1 0x40 MLOAD RETURNDATASIZE PUSH1 0x1F NOT PUSH1 0x1F DUP3 ADD AND DUP3 ADD DUP1 PUSH1 0x40 MSTORE POP DUP2 ADD SWAP1 PUSH2 0x417 SWAP2 SWAP1 PUSH2 0x1D60 JUMP JUMPDEST SWAP1 POP PUSH1 0x0 PUSH2 0x46B PUSH1 0x2 DUP4 DUP6 GT PUSH2 0x436 JUMPI PUSH2 0x431 DUP6 DUP6 PUSH2 0x1D8F JUMP JUMPDEST PUSH2 0x440 JUMP JUMPDEST PUSH2 0x440 DUP5 DUP7 PUSH2 0x1D8F JUMP JUMPDEST PUSH1 0x40 MLOAD DUP1 PUSH1 0x40 ADD PUSH1 0x40 MSTORE DUP1 PUSH1 0xD DUP2 MSTORE PUSH1 0x20 ADD PUSH13 0x42756467657420557064617465 PUSH1 0x98 SHL DUP2 MSTORE POP PUSH2 0xDD8 JUMP JUMPDEST PUSH1 0x0 SLOAD PUSH1 0x40 MLOAD PUSH4 0x344541B PUSH1 0xE2 SHL DUP2 MSTORE PUSH1 0x1 PUSH1 0x1 PUSH1 0xA0 SHL SUB DUP8 DUP2 AND PUSH1 0x4 DUP4 ADD MSTORE PUSH1 0x24 DUP3 ADD DUP8 SWAP1 MSTORE SWAP3 SWAP4 POP SWAP2 AND SWAP1 PUSH4 0xD11506C SWAP1 PUSH1 0x44 ADD PUSH1 0x0 PUSH1 0x40 MLOAD DUP1 DUP4 SUB DUP2 PUSH1 0x0 DUP8 DUP1 EXTCODESIZE ISZERO DUP1 ISZERO PUSH2 0x4BB JUMPI PUSH1 0x0 DUP1 REVERT JUMPDEST POP GAS CALL ISZERO DUP1 ISZERO PUSH2 0x4CF JUMPI RETURNDATASIZE PUSH1 0x0 DUP1 RETURNDATACOPY RETURNDATASIZE PUSH1 0x0 REVERT JUMPDEST POP POP PUSH1 0x40 DUP1 MLOAD DUP6 DUP2 MSTORE PUSH1 0x20 DUP2 ADD DUP8 SWAP1 MSTORE SWAP1 DUP2 ADD DUP5 SWAP1 MSTORE PUSH1 0x1 PUSH1 0x1 PUSH1 0xA0 SHL SUB DUP8 AND SWAP3 POP PUSH32 0x1C6F534FC8E314BCCB4945DBABA4438A802AFE2C11D64B93B3EAA79C5F017C6E SWAP2 POP PUSH1 0x60 ADD PUSH1 0x40 MLOAD DUP1 SWAP2 SUB SWAP1 LOG2 POP POP POP POP JUMP JUMPDEST PUSH1 0x0 SLOAD PUSH1 0x40 MLOAD PUSH4 0x5692E5A1 PUSH1 0xE1 SHL DUP2 MSTORE CALLER PUSH1 0x4 DUP3 ADD MSTORE PUSH1 0x1 PUSH1 0x1 PUSH1 0xA0 SHL SUB SWAP1 SWAP2 AND SWAP1 PUSH4 0xAD25CB42 SWAP1 PUSH1 0x24 ADD PUSH1 0x20 PUSH1 0x40 MLOAD DUP1 DUP4 SUB DUP2 DUP7 GAS STATICCALL ISZERO DUP1 ISZERO PUSH2 0x56D JUMPI RETURNDATASIZE PUSH1 0x0 DUP1 RETURNDATACOPY RETURNDATASIZE PUSH1 0x0 REVERT JUMPDEST POP POP POP POP PUSH1 0x40 MLOAD RETURNDATASIZE PUSH1 0x1F NOT PUSH1 0x1F DUP3 ADD AND DUP3 ADD DUP1 PUSH1 0x40 MSTORE POP DUP2 ADD SWAP1 PUSH2 0x591 SWAP2 SWAP1 PUSH2 0x1D1C JUMP JUMPDEST PUSH2 0x5AD JUMPI PUSH1 0x40 MLOAD PUSH3 0x461BCD PUSH1 0xE5 SHL DUP2 MSTORE PUSH1 0x4 ADD PUSH2 0x2E5 SWAP1 PUSH2 0x1D37 JUMP JUMPDEST PUSH1 0x0 SLOAD PUSH1 0x1 PUSH1 0xA0 SHL SWAP1 DIV PUSH1 0xFF AND ISZERO PUSH2 0x5F8 JUMPI PUSH1 0x40 MLOAD PUSH3 0x461BCD PUSH1 0xE5 SHL DUP2 MSTORE PUSH1 0x20 PUSH1 0x4 DUP3 ADD MSTORE PUSH1 0xE PUSH1 0x24 DUP3 ADD MSTORE PUSH14 0x1499595B9D1C985B9D0818D85B1B PUSH1 0x92 SHL PUSH1 0x44 DUP3 ADD MSTORE PUSH1 0x64 ADD PUSH2 0x2E5 JUMP JUMPDEST PUSH1 0x0 DUP1 SLOAD PUSH1 0xFF PUSH1 0xA0 SHL NOT AND PUSH1 0x1 PUSH1 0xA0 SHL OR SWAP1 SSTORE DUP1 DUP1 ISZERO DUP1 ISZERO SWAP1 PUSH2 0x625 JUMPI POP PUSH10 0x152D02C7E14AF6800000 DUP2 GT ISZERO JUMPDEST PUSH2 0x662 JUMPI PUSH1 0x40 MLOAD PUSH3 0x461BCD PUSH1 0xE5 SHL DUP2 MSTORE PUSH1 0x20 PUSH1 0x4 DUP3 ADD MSTORE PUSH1 0xE PUSH1 0x24 DUP3 ADD MSTORE PUSH14 0x125B9D985B1A5908185B5BDD5B9D PUSH1 0x92 SHL PUSH1 0x44 DUP3 ADD MSTORE PUSH1 0x64 ADD PUSH2 0x2E5 JUMP JUMPDEST PUSH1 0x0 SLOAD PUSH1 0x40 MLOAD PUSH4 0xCD29BA7 PUSH1 0xE3 SHL DUP2 MSTORE PUSH1 0x1 PUSH1 0x1 PUSH1 0xA0 SHL SUB DUP6 DUP2 AND PUSH1 0x4 DUP4 ADD MSTORE SWAP1 SWAP2 AND SWAP1 PUSH4 0x6694DD38 SWAP1 PUSH1 0x24 ADD PUSH1 0x0 PUSH1 0x40 MLOAD DUP1 DUP4 SUB DUP2 DUP7 GAS STATICCALL ISZERO DUP1 ISZERO PUSH2 0x6AC JUMPI RETURNDATASIZE PUSH1 0x0 DUP1 RETURNDATACOPY RETURNDATASIZE PUSH1 0x0 REVERT JUMPDEST POP POP POP POP PUSH1 0x40 MLOAD RETURNDATASIZE PUSH1 0x0 DUP3 RETURNDATACOPY PUSH1 0x1F RETURNDATASIZE SWAP1 DUP2 ADD PUSH1 0x1F NOT AND DUP3 ADD PUSH1 0x40 MSTORE PUSH2 0x6D4 SWAP2 SWAP1 DUP2 ADD SWAP1 PUSH2 0x1DFA JUMP JUMPDEST PUSH1 0xA0 ADD MLOAD PUSH2 0x71C JUMPI PUSH1 0x40 MLOAD PUSH3 0x461BCD PUSH1 0xE5 SHL DUP2 MSTORE PUSH1 0x20 PUSH1 0x4 DUP3 ADD MSTORE PUSH1 0x15 PUSH1 0x24 DUP3 ADD MSTORE PUSH21 0x4465706172746D656E74206E6F7420616374697665 PUSH1 0x58 SHL PUSH1 0x44 DUP3 ADD MSTORE PUSH1 0x64 ADD PUSH2 0x2E5 JUMP JUMPDEST PUSH1 0x2 DUP1 SLOAD SWAP1 PUSH1 0x0 PUSH2 0x72C DUP4 PUSH2 0x1EB5 JUMP JUMPDEST SWAP1 SWAP2 SSTORE POP POP PUSH1 0x2 SLOAD PUSH1 0x40 DUP1 MLOAD PUSH1 0xE0 DUP2 ADD DUP3 MSTORE DUP3 DUP2 MSTORE PUSH1 0x1 PUSH1 0x1 PUSH1 0xA0 SHL SUB DUP7 DUP2 AND PUSH1 0x20 DUP1 DUP5 ADD SWAP2 DUP3 MSTORE PUSH1 0x0 DUP5 DUP7 ADD DUP2 DUP2 MSTORE PUSH1 0x60 DUP7 ADD DUP11 SWAP1 MSTORE DUP7 MLOAD DUP1 DUP9 ADD DUP9 MSTORE PUSH1 0x19 DUP2 MSTORE PUSH32 0x496E697469616C2062756467657420616C6C6F636174696F6E00000000000000 DUP2 DUP6 ADD MSTORE PUSH1 0x80 DUP8 ADD MSTORE PUSH1 0x1 PUSH1 0xA0 DUP8 ADD DUP2 SWAP1 MSTORE TIMESTAMP PUSH1 0xC0 DUP9 ADD MSTORE DUP9 DUP4 MSTORE SWAP3 DUP4 SWAP1 MSTORE SWAP6 SWAP1 KECCAK256 DUP5 MLOAD DUP2 SSTORE SWAP2 MLOAD SWAP1 DUP3 ADD DUP1 SLOAD PUSH1 0x1 PUSH1 0x1 PUSH1 0xA0 SHL SUB NOT DUP2 AND SWAP3 SWAP1 SWAP5 AND SWAP2 DUP3 OR DUP2 SSTORE SWAP5 MLOAD SWAP4 SWAP5 SWAP2 SWAP4 SWAP3 PUSH1 0x1 PUSH1 0x1 PUSH1 0xA8 SHL SUB NOT AND OR PUSH1 0x1 PUSH1 0xA0 SHL DUP4 PUSH1 0x3 DUP2 GT ISZERO PUSH2 0x7F9 JUMPI PUSH2 0x7F9 PUSH2 0x1B56 JUMP JUMPDEST MUL OR SWAP1 SSTORE POP PUSH1 0x60 DUP3 ADD MLOAD PUSH1 0x2 DUP3 ADD SSTORE PUSH1 0x80 DUP3 ADD MLOAD PUSH1 0x3 DUP3 ADD SWAP1 PUSH2 0x81C SWAP1 DUP3 PUSH2 0x1F57 JUMP JUMPDEST POP PUSH1 0xA0 DUP3 ADD MLOAD PUSH1 0x4 DUP3 ADD DUP1 SLOAD PUSH1 0xFF NOT AND PUSH1 0x1 DUP4 PUSH1 0x2 DUP2 GT ISZERO PUSH2 0x840 JUMPI PUSH2 0x840 PUSH2 0x1B56 JUMP JUMPDEST MUL OR SWAP1 SSTORE POP PUSH1 0xC0 SWAP2 SWAP1 SWAP2 ADD MLOAD PUSH1 0x5 SWAP1 SWAP2 ADD SSTORE PUSH1 0x1 PUSH1 0x1 PUSH1 0xA0 SHL SUB DUP5 AND PUSH1 0x0 DUP2 DUP2 MSTORE PUSH1 0x3 PUSH1 0x20 SWAP1 DUP2 MSTORE PUSH1 0x40 DUP1 DUP4 KECCAK256 DUP1 SLOAD PUSH1 0x1 DUP2 ADD DUP3 SSTORE SWAP1 DUP5 MSTORE DUP3 DUP5 KECCAK256 ADD DUP6 SWAP1 SSTORE SWAP3 DUP3 MSTORE PUSH1 0x4 SWAP1 MSTORE SWAP1 DUP2 KECCAK256 DUP1 SLOAD SWAP2 PUSH2 0x895 DUP4 PUSH2 0x1EB5 JUMP JUMPDEST SWAP2 SWAP1 POP SSTORE POP DUP4 PUSH1 0x1 PUSH1 0x1 PUSH1 0xA0 SHL SUB AND DUP2 PUSH32 0xC5617696B75E538ED738F904611FDFB78DFF557717F05C9EA38595041503C5F0 PUSH1 0x0 DUP7 PUSH1 0x40 MLOAD PUSH2 0x8D7 SWAP3 SWAP2 SWAP1 PUSH2 0x2016 JUMP JUMPDEST PUSH1 0x40 MLOAD DUP1 SWAP2 SUB SWAP1 LOG3 DUP1 PUSH32 0x11A3517410D399D687A3DAC00C28EF32FFEA27E8991A0D4D2283382878B118F6 PUSH1 0x1 PUSH1 0x40 MLOAD PUSH2 0x910 SWAP2 SWAP1 PUSH2 0x2031 JUMP JUMPDEST PUSH1 0x40 MLOAD DUP1 SWAP2 SUB SWAP1 LOG2 POP POP PUSH1 0x0 DUP1 SLOAD PUSH1 0xFF PUSH1 0xA0 SHL NOT AND SWAP1 SSTORE POP POP JUMP JUMPDEST PUSH1 0x0 DUP1 SLOAD PUSH1 0x40 MLOAD PUSH4 0x266EBEB1 PUSH1 0xE2 SHL DUP2 MSTORE CALLER PUSH1 0x4 DUP3 ADD MSTORE PUSH1 0x1 PUSH1 0x1 PUSH1 0xA0 SHL SUB SWAP1 SWAP2 AND SWAP1 PUSH4 0x99BAFAC4 SWAP1 PUSH1 0x24 ADD PUSH1 0x20 PUSH1 0x40 MLOAD DUP1 DUP4 SUB DUP2 DUP7 GAS STATICCALL ISZERO DUP1 ISZERO PUSH2 0x974 JUMPI RETURNDATASIZE PUSH1 0x0 DUP1 RETURNDATACOPY RETURNDATASIZE PUSH1 0x0 REVERT JUMPDEST POP POP POP POP PUSH1 0x40 MLOAD RETURNDATASIZE PUSH1 0x1F NOT PUSH1 0x1F DUP3 ADD AND DUP3 ADD DUP1 PUSH1 0x40 MSTORE POP DUP2 ADD SWAP1 PUSH2 0x998 SWAP2 SWAP1 PUSH2 0x1D1C JUMP JUMPDEST PUSH2 0x9DA JUMPI PUSH1 0x40 MLOAD PUSH3 0x461BCD PUSH1 0xE5 SHL DUP2 MSTORE PUSH1 0x20 PUSH1 0x4 DUP3 ADD MSTORE PUSH1 0x13 PUSH1 0x24 DUP3 ADD MSTORE PUSH19 0x139BDD0819195C185C9D1B595B9D081A195859 PUSH1 0x6A SHL PUSH1 0x44 DUP3 ADD MSTORE PUSH1 0x64 ADD PUSH2 0x2E5 JUMP JUMPDEST PUSH1 0x0 DUP4 GT DUP1 ISZERO PUSH2 0x9F4 JUMPI POP PUSH10 0x152D02C7E14AF6800000 DUP4 GT ISZERO JUMPDEST PUSH2 0xA31 JUMPI PUSH1 0x40 MLOAD PUSH3 0x461BCD PUSH1 0xE5 SHL DUP2 MSTORE PUSH1 0x20 PUSH1 0x4 DUP3 ADD MSTORE PUSH1 0xE PUSH1 0x24 DUP3 ADD MSTORE PUSH14 0x125B9D985B1A5908185B5BDD5B9D PUSH1 0x92 SHL PUSH1 0x44 DUP3 ADD MSTORE PUSH1 0x64 ADD PUSH2 0x2E5 JUMP JUMPDEST PUSH1 0x2 DUP1 SLOAD SWAP1 PUSH1 0x0 PUSH2 0xA41 DUP4 PUSH2 0x1EB5 JUMP JUMPDEST SWAP1 SWAP2 SSTORE POP POP PUSH1 0x2 SLOAD PUSH1 0x40 DUP1 MLOAD PUSH1 0xE0 DUP2 ADD DUP3 MSTORE DUP3 DUP2 MSTORE CALLER PUSH1 0x20 DUP3 ADD MSTORE SWAP1 DUP2 ADD DUP7 PUSH1 0x3 DUP2 GT ISZERO PUSH2 0xA71 JUMPI PUSH2 0xA71 PUSH2 0x1B56 JUMP JUMPDEST DUP2 MSTORE PUSH1 0x20 DUP2 ADD DUP7 SWAP1 MSTORE PUSH1 0x40 DUP2 ADD DUP6 SWAP1 MSTORE PUSH1 0x60 ADD PUSH1 0x0 DUP2 MSTORE TIMESTAMP PUSH1 0x20 SWAP2 DUP3 ADD MSTORE PUSH1 0x0 DUP4 DUP2 MSTORE PUSH1 0x1 DUP1 DUP4 MSTORE PUSH1 0x40 SWAP2 DUP3 SWAP1 KECCAK256 DUP5 MLOAD DUP2 SSTORE SWAP3 DUP5 ADD MLOAD SWAP1 DUP4 ADD DUP1 SLOAD PUSH1 0x1 PUSH1 0x1 PUSH1 0xA0 SHL SUB SWAP1 SWAP3 AND PUSH1 0x1 PUSH1 0x1 PUSH1 0xA0 SHL SUB NOT DUP4 AND DUP2 OR DUP3 SSTORE SWAP3 DUP6 ADD MLOAD SWAP3 SWAP1 SWAP2 PUSH1 0x1 PUSH1 0x1 PUSH1 0xA8 SHL SUB NOT AND OR PUSH1 0x1 PUSH1 0xA0 SHL DUP4 PUSH1 0x3 DUP2 GT ISZERO PUSH2 0xAEF JUMPI PUSH2 0xAEF PUSH2 0x1B56 JUMP JUMPDEST MUL OR SWAP1 SSTORE POP PUSH1 0x60 DUP3 ADD MLOAD PUSH1 0x2 DUP3 ADD SSTORE PUSH1 0x80 DUP3 ADD MLOAD PUSH1 0x3 DUP3 ADD SWAP1 PUSH2 0xB12 SWAP1 DUP3 PUSH2 0x1F57 JUMP JUMPDEST POP PUSH1 0xA0 DUP3 ADD MLOAD PUSH1 0x4 DUP3 ADD DUP1 SLOAD PUSH1 0xFF NOT AND PUSH1 0x1 DUP4 PUSH1 0x2 DUP2 GT ISZERO PUSH2 0xB36 JUMPI PUSH2 0xB36 PUSH2 0x1B56 JUMP JUMPDEST MUL OR SWAP1 SSTORE POP PUSH1 0xC0 SWAP2 SWAP1 SWAP2 ADD MLOAD PUSH1 0x5 SWAP1 SWAP2 ADD SSTORE CALLER PUSH1 0x0 DUP2 DUP2 MSTORE PUSH1 0x3 PUSH1 0x20 SWAP1 DUP2 MSTORE PUSH1 0x40 DUP1 DUP4 KECCAK256 DUP1 SLOAD PUSH1 0x1 DUP2 ADD DUP3 SSTORE SWAP1 DUP5 MSTORE DUP3 DUP5 KECCAK256 ADD DUP6 SWAP1 SSTORE SWAP3 DUP3 MSTORE PUSH1 0x4 SWAP1 MSTORE SWAP1 DUP2 KECCAK256 DUP1 SLOAD SWAP2 PUSH2 0xB82 DUP4 PUSH2 0x1EB5 JUMP JUMPDEST SWAP2 SWAP1 POP SSTORE POP CALLER PUSH1 0x1 PUSH1 0x1 PUSH1 0xA0 SHL SUB AND DUP2 PUSH32 0xC5617696B75E538ED738F904611FDFB78DFF557717F05C9EA38595041503C5F0 DUP8 DUP8 PUSH1 0x40 MLOAD PUSH2 0xBC3 SWAP3 SWAP2 SWAP1 PUSH2 0x2016 JUMP JUMPDEST PUSH1 0x40 MLOAD DUP1 SWAP2 SUB SWAP1 LOG3 SWAP5 SWAP4 POP POP POP POP JUMP JUMPDEST PUSH1 0x3 PUSH1 0x20 MSTORE DUP2 PUSH1 0x0 MSTORE PUSH1 0x40 PUSH1 0x0 KECCAK256 DUP2 DUP2 SLOAD DUP2 LT PUSH2 0xBEF JUMPI PUSH1 0x0 DUP1 REVERT JUMPDEST SWAP1 PUSH1 0x0 MSTORE PUSH1 0x20 PUSH1 0x0 KECCAK256 ADD PUSH1 0x0 SWAP2 POP SWAP2 POP POP SLOAD DUP2 JUMP JUMPDEST PUSH1 0x0 DUP1 PUSH1 0x0 DUP1 PUSH1 0x0 SWAP1 SLOAD SWAP1 PUSH2 0x100 EXP SWAP1 DIV PUSH1 0x1 PUSH1 0x1 PUSH1 0xA0 SHL SUB AND PUSH1 0x1 PUSH1 0x1 PUSH1 0xA0 SHL SUB AND PUSH4 0x86C3A49C PUSH1 0x40 MLOAD DUP2 PUSH4 0xFFFFFFFF AND PUSH1 0xE0 SHL DUP2 MSTORE PUSH1 0x4 ADD PUSH1 0x0 PUSH1 0x40 MLOAD DUP1 DUP4 SUB DUP2 DUP7 GAS STATICCALL ISZERO DUP1 ISZERO PUSH2 0xC5B JUMPI RETURNDATASIZE PUSH1 0x0 DUP1 RETURNDATACOPY RETURNDATASIZE PUSH1 0x0 REVERT JUMPDEST POP POP POP POP PUSH1 0x40 MLOAD RETURNDATASIZE PUSH1 0x0 DUP3 RETURNDATACOPY PUSH1 0x1F RETURNDATASIZE SWAP1 DUP2 ADD PUSH1 0x1F NOT AND DUP3 ADD PUSH1 0x40 MSTORE PUSH2 0xC83 SWAP2 SWAP1 DUP2 ADD SWAP1 PUSH2 0x203F JUMP JUMPDEST SWAP1 POP PUSH1 0x0 JUMPDEST DUP2 MLOAD DUP2 LT ISZERO PUSH2 0xD62 JUMPI PUSH1 0x0 DUP1 SLOAD DUP4 MLOAD PUSH1 0x1 PUSH1 0x1 PUSH1 0xA0 SHL SUB SWAP1 SWAP2 AND SWAP1 PUSH4 0x27A92127 SWAP1 DUP6 SWAP1 DUP6 SWAP1 DUP2 LT PUSH2 0xCBB JUMPI PUSH2 0xCBB PUSH2 0x20F8 JUMP JUMPDEST PUSH1 0x20 MUL PUSH1 0x20 ADD ADD MLOAD PUSH1 0x40 MLOAD DUP3 PUSH4 0xFFFFFFFF AND PUSH1 0xE0 SHL DUP2 MSTORE PUSH1 0x4 ADD PUSH2 0xCEE SWAP2 SWAP1 PUSH1 0x1 PUSH1 0x1 PUSH1 0xA0 SHL SUB SWAP2 SWAP1 SWAP2 AND DUP2 MSTORE PUSH1 0x20 ADD SWAP1 JUMP JUMPDEST PUSH1 0x0 PUSH1 0x40 MLOAD DUP1 DUP4 SUB DUP2 DUP7 GAS STATICCALL ISZERO DUP1 ISZERO PUSH2 0xD0B JUMPI RETURNDATASIZE PUSH1 0x0 DUP1 RETURNDATACOPY RETURNDATASIZE PUSH1 0x0 REVERT JUMPDEST POP POP POP POP PUSH1 0x40 MLOAD RETURNDATASIZE PUSH1 0x0 DUP3 RETURNDATACOPY PUSH1 0x1F RETURNDATASIZE SWAP1 DUP2 ADD PUSH1 0x1F NOT AND DUP3 ADD PUSH1 0x40 MSTORE PUSH2 0xD33 SWAP2 SWAP1 DUP2 ADD SWAP1 PUSH2 0x1DFA JUMP JUMPDEST SWAP1 POP DUP1 PUSH1 0x20 ADD MLOAD DUP6 PUSH2 0xD45 SWAP2 SWAP1 PUSH2 0x210E JUMP JUMPDEST SWAP5 POP DUP1 PUSH1 0x40 ADD MLOAD DUP5 PUSH2 0xD57 SWAP2 SWAP1 PUSH2 0x210E JUMP JUMPDEST SWAP4 POP POP PUSH1 0x1 ADD PUSH2 0xC88 JUMP JUMPDEST POP PUSH1 0x5 DUP4 SWAP1 SSTORE PUSH1 0x6 DUP3 SWAP1 SSTORE PUSH1 0x40 MLOAD DUP4 DUP2 MSTORE PUSH32 0x4DFCEA5534E430BAD95FF41ACAE4F2A378560E369CE29B71AFFE10A986CC7CFA SWAP1 PUSH1 0x20 ADD PUSH1 0x40 MLOAD DUP1 SWAP2 SUB SWAP1 LOG1 PUSH1 0x40 MLOAD DUP3 DUP2 MSTORE PUSH32 0xF7BBCD269FA2C82D62B258820DF285E9B0D85DF8637CF63C22EE5C350E7FF3FA SWAP1 PUSH1 0x20 ADD PUSH1 0x40 MLOAD DUP1 SWAP2 SUB SWAP1 LOG1 POP POP POP JUMP JUMPDEST PUSH1 0x2 DUP1 SLOAD PUSH1 0x0 SWAP2 DUP3 PUSH2 0xDE9 DUP4 PUSH2 0x1EB5 JUMP JUMPDEST SWAP1 SWAP2 SSTORE POP POP PUSH1 0x2 SLOAD PUSH1 0x40 DUP1 MLOAD PUSH1 0xE0 DUP2 ADD DUP3 MSTORE DUP3 DUP2 MSTORE CALLER PUSH1 0x20 DUP3 ADD MSTORE SWAP1 DUP2 ADD DUP7 PUSH1 0x3 DUP2 GT ISZERO PUSH2 0xE19 JUMPI PUSH2 0xE19 PUSH2 0x1B56 JUMP JUMPDEST DUP2 MSTORE PUSH1 0x20 DUP2 ADD DUP7 SWAP1 MSTORE PUSH1 0x40 DUP2 ADD DUP6 SWAP1 MSTORE PUSH1 0x60 ADD PUSH1 0x1 DUP2 MSTORE TIMESTAMP PUSH1 0x20 SWAP2 DUP3 ADD MSTORE PUSH1 0x0 DUP4 DUP2 MSTORE PUSH1 0x1 DUP1 DUP4 MSTORE PUSH1 0x40 SWAP2 DUP3 SWAP1 KECCAK256 DUP5 MLOAD DUP2 SSTORE SWAP3 DUP5 ADD MLOAD SWAP1 DUP4 ADD DUP1 SLOAD PUSH1 0x1 PUSH1 0x1 PUSH1 0xA0 SHL SUB SWAP1 SWAP3 AND PUSH1 0x1 PUSH1 0x1 PUSH1 0xA0 SHL SUB NOT DUP4 AND DUP2 OR DUP3 SSTORE SWAP3 DUP6 ADD MLOAD SWAP3 SWAP1 SWAP2 PUSH1 0x1 PUSH1 0x1 PUSH1 0xA8 SHL SUB NOT AND OR PUSH1 0x1 PUSH1 0xA0 SHL DUP4 PUSH1 0x3 DUP2 GT ISZERO PUSH2 0xE97 JUMPI PUSH2 0xE97 PUSH2 0x1B56 JUMP JUMPDEST MUL OR SWAP1 SSTORE POP PUSH1 0x60 DUP3 ADD MLOAD PUSH1 0x2 DUP3 ADD SSTORE PUSH1 0x80 DUP3 ADD MLOAD PUSH1 0x3 DUP3 ADD SWAP1 PUSH2 0xEBA SWAP1 DUP3 PUSH2 0x1F57 JUMP JUMPDEST POP PUSH1 0xA0 DUP3 ADD MLOAD PUSH1 0x4 DUP3 ADD DUP1 SLOAD PUSH1 0xFF NOT AND PUSH1 0x1 DUP4 PUSH1 0x2 DUP2 GT ISZERO PUSH2 0xEDE JUMPI PUSH2 0xEDE PUSH2 0x1B56 JUMP JUMPDEST MUL OR SWAP1 SSTORE POP PUSH1 0xC0 SWAP2 SWAP1 SWAP2 ADD MLOAD PUSH1 0x5 SWAP1 SWAP2 ADD SSTORE CALLER PUSH1 0x0 DUP2 DUP2 MSTORE PUSH1 0x3 PUSH1 0x20 SWAP1 DUP2 MSTORE PUSH1 0x40 DUP1 DUP4 KECCAK256 DUP1 SLOAD PUSH1 0x1 DUP2 ADD DUP3 SSTORE SWAP1 DUP5 MSTORE DUP3 DUP5 KECCAK256 ADD DUP6 SWAP1 SSTORE SWAP3 DUP3 MSTORE PUSH1 0x4 SWAP1 MSTORE SWAP1 DUP2 KECCAK256 DUP1 SLOAD SWAP2 PUSH2 0xF2A DUP4 PUSH2 0x1EB5 JUMP JUMPDEST SWAP2 SWAP1 POP SSTORE POP CALLER PUSH1 0x1 PUSH1 0x1 PUSH1 0xA0 SHL SUB AND DUP2 PUSH32 0xC5617696B75E538ED738F904611FDFB78DFF557717F05C9EA38595041503C5F0 DUP8 DUP8 PUSH1 0x40 MLOAD PUSH2 0xF6B SWAP3 SWAP2 SWAP1 PUSH2 0x2016 JUMP JUMPDEST PUSH1 0x40 MLOAD DUP1 SWAP2 SUB SWAP1 LOG3 DUP1 PUSH32 0x11A3517410D399D687A3DAC00C28EF32FFEA27E8991A0D4D2283382878B118F6 PUSH1 0x1 PUSH1 0x40 MLOAD PUSH2 0xFA4 SWAP2 SWAP1 PUSH2 0x2031 JUMP JUMPDEST PUSH1 0x40 MLOAD DUP1 SWAP2 SUB SWAP1 LOG2 SWAP5 SWAP4 POP POP POP POP JUMP JUMPDEST PUSH1 0x0 DUP1 DUP1 DUP1 DUP1 DUP1 PUSH1 0x1 JUMPDEST PUSH1 0x2 SLOAD DUP2 GT PUSH2 0x1051 JUMPI PUSH1 0x0 DUP2 DUP2 MSTORE PUSH1 0x1 PUSH1 0x20 MSTORE PUSH1 0x40 DUP2 KECCAK256 PUSH1 0x4 ADD SLOAD PUSH1 0xFF AND PUSH1 0x2 DUP2 GT ISZERO PUSH2 0xFED JUMPI PUSH2 0xFED PUSH2 0x1B56 JUMP JUMPDEST SUB PUSH2 0x1004 JUMPI DUP3 PUSH2 0xFFC DUP2 PUSH2 0x1EB5 JUMP JUMPDEST SWAP4 POP POP PUSH2 0x103F JUMP JUMPDEST PUSH1 0x1 PUSH1 0x0 DUP3 DUP2 MSTORE PUSH1 0x1 PUSH1 0x20 MSTORE PUSH1 0x40 SWAP1 KECCAK256 PUSH1 0x4 ADD SLOAD PUSH1 0xFF AND PUSH1 0x2 DUP2 GT ISZERO PUSH2 0x102C JUMPI PUSH2 0x102C PUSH2 0x1B56 JUMP JUMPDEST SUB PUSH2 0x103F JUMPI DUP2 PUSH2 0x103B DUP2 PUSH2 0x1EB5 JUMP JUMPDEST SWAP3 POP POP JUMPDEST DUP1 PUSH2 0x1049 DUP2 PUSH2 0x1EB5 JUMP JUMPDEST SWAP2 POP POP PUSH2 0xFBE JUMP JUMPDEST POP PUSH1 0x5 SLOAD PUSH1 0x6 SLOAD SWAP1 SWAP8 SWAP1 SWAP7 POP SWAP2 SWAP5 POP SWAP3 POP SWAP1 POP JUMP JUMPDEST PUSH1 0x1 PUSH1 0x20 DUP2 SWAP1 MSTORE PUSH1 0x0 SWAP2 DUP3 MSTORE PUSH1 0x40 SWAP1 SWAP2 KECCAK256 DUP1 SLOAD SWAP2 DUP2 ADD SLOAD PUSH1 0x2 DUP3 ADD SLOAD PUSH1 0x3 DUP4 ADD DUP1 SLOAD PUSH1 0x1 PUSH1 0x1 PUSH1 0xA0 SHL SUB DUP5 AND SWAP5 PUSH1 0x1 PUSH1 0xA0 SHL SWAP1 SWAP5 DIV PUSH1 0xFF AND SWAP4 SWAP2 SWAP1 PUSH2 0x10AA SWAP1 PUSH2 0x1ECE JUMP JUMPDEST DUP1 PUSH1 0x1F ADD PUSH1 0x20 DUP1 SWAP2 DIV MUL PUSH1 0x20 ADD PUSH1 0x40 MLOAD SWAP1 DUP2 ADD PUSH1 0x40 MSTORE DUP1 SWAP3 SWAP2 SWAP1 DUP2 DUP2 MSTORE PUSH1 0x20 ADD DUP3 DUP1 SLOAD PUSH2 0x10D6 SWAP1 PUSH2 0x1ECE JUMP JUMPDEST DUP1 ISZERO PUSH2 0x1123 JUMPI DUP1 PUSH1 0x1F LT PUSH2 0x10F8 JUMPI PUSH2 0x100 DUP1 DUP4 SLOAD DIV MUL DUP4 MSTORE SWAP2 PUSH1 0x20 ADD SWAP2 PUSH2 0x1123 JUMP JUMPDEST DUP3 ADD SWAP2 SWAP1 PUSH1 0x0 MSTORE PUSH1 0x20 PUSH1 0x0 KECCAK256 SWAP1 JUMPDEST DUP2 SLOAD DUP2 MSTORE SWAP1 PUSH1 0x1 ADD SWAP1 PUSH1 0x20 ADD DUP1 DUP4 GT PUSH2 0x1106 JUMPI DUP3 SWAP1 SUB PUSH1 0x1F AND DUP3 ADD SWAP2 JUMPDEST POP POP POP POP PUSH1 0x4 DUP4 ADD SLOAD PUSH1 0x5 SWAP1 SWAP4 ADD SLOAD SWAP2 SWAP3 PUSH1 0xFF AND SWAP2 SWAP1 POP DUP8 JUMP JUMPDEST PUSH1 0x1 PUSH1 0x1 PUSH1 0xA0 SHL SUB DUP2 AND PUSH1 0x0 SWAP1 DUP2 MSTORE PUSH1 0x3 PUSH1 0x20 SWAP1 DUP2 MSTORE PUSH1 0x40 DUP1 DUP4 KECCAK256 DUP1 SLOAD DUP3 MLOAD DUP2 DUP6 MUL DUP2 ADD DUP6 ADD SWAP1 SWAP4 MSTORE DUP1 DUP4 MSTORE PUSH1 0x60 SWAP5 SWAP4 DUP4 ADD DUP3 DUP3 DUP1 ISZERO PUSH2 0x119C JUMPI PUSH1 0x20 MUL DUP3 ADD SWAP2 SWAP1 PUSH1 0x0 MSTORE PUSH1 0x20 PUSH1 0x0 KECCAK256 SWAP1 JUMPDEST DUP2 SLOAD DUP2 MSTORE PUSH1 0x20 ADD SWAP1 PUSH1 0x1 ADD SWAP1 DUP1 DUP4 GT PUSH2 0x1188 JUMPI JUMPDEST POP POP POP POP POP SWAP1 POP PUSH1 0x0 DUP2 MLOAD PUSH8 0xFFFFFFFFFFFFFFFF DUP2 GT ISZERO PUSH2 0x11BF JUMPI PUSH2 0x11BF PUSH2 0x19E1 JUMP JUMPDEST PUSH1 0x40 MLOAD SWAP1 DUP1 DUP3 MSTORE DUP1 PUSH1 0x20 MUL PUSH1 0x20 ADD DUP3 ADD PUSH1 0x40 MSTORE DUP1 ISZERO PUSH2 0x1225 JUMPI DUP2 PUSH1 0x20 ADD JUMPDEST PUSH1 0x40 DUP1 MLOAD PUSH1 0xE0 DUP2 ADD DUP3 MSTORE PUSH1 0x0 DUP1 DUP3 MSTORE PUSH1 0x20 DUP1 DUP4 ADD DUP3 SWAP1 MSTORE SWAP3 DUP3 ADD DUP2 SWAP1 MSTORE PUSH1 0x60 DUP1 DUP4 ADD DUP3 SWAP1 MSTORE PUSH1 0x80 DUP4 ADD MSTORE PUSH1 0xA0 DUP3 ADD DUP2 SWAP1 MSTORE PUSH1 0xC0 DUP3 ADD MSTORE DUP3 MSTORE PUSH1 0x0 NOT SWAP1 SWAP3 ADD SWAP2 ADD DUP2 PUSH2 0x11DD JUMPI SWAP1 POP JUMPDEST POP SWAP1 POP PUSH1 0x0 JUMPDEST DUP3 MLOAD DUP2 LT ISZERO PUSH2 0x13BD JUMPI PUSH1 0x1 PUSH1 0x0 DUP5 DUP4 DUP2 MLOAD DUP2 LT PUSH2 0x124A JUMPI PUSH2 0x124A PUSH2 0x20F8 JUMP JUMPDEST PUSH1 0x20 SWAP1 DUP2 MUL SWAP2 SWAP1 SWAP2 ADD DUP2 ADD MLOAD DUP3 MSTORE DUP2 DUP2 ADD SWAP3 SWAP1 SWAP3 MSTORE PUSH1 0x40 SWAP1 DUP2 ADD PUSH1 0x0 KECCAK256 DUP2 MLOAD PUSH1 0xE0 DUP2 ADD DUP4 MSTORE DUP2 SLOAD DUP2 MSTORE PUSH1 0x1 DUP3 ADD SLOAD PUSH1 0x1 PUSH1 0x1 PUSH1 0xA0 SHL SUB DUP2 AND SWAP5 DUP3 ADD SWAP5 SWAP1 SWAP5 MSTORE SWAP3 SWAP1 SWAP2 DUP4 ADD SWAP1 PUSH1 0x1 PUSH1 0xA0 SHL SWAP1 DIV PUSH1 0xFF AND PUSH1 0x3 DUP2 GT ISZERO PUSH2 0x12AA JUMPI PUSH2 0x12AA PUSH2 0x1B56 JUMP JUMPDEST PUSH1 0x3 DUP2 GT ISZERO PUSH2 0x12BB JUMPI PUSH2 0x12BB PUSH2 0x1B56 JUMP JUMPDEST DUP2 MSTORE PUSH1 0x20 ADD PUSH1 0x2 DUP3 ADD SLOAD DUP2 MSTORE PUSH1 0x20 ADD PUSH1 0x3 DUP3 ADD DUP1 SLOAD PUSH2 0x12D9 SWAP1 PUSH2 0x1ECE JUMP JUMPDEST DUP1 PUSH1 0x1F ADD PUSH1 0x20 DUP1 SWAP2 DIV MUL PUSH1 0x20 ADD PUSH1 0x40 MLOAD SWAP1 DUP2 ADD PUSH1 0x40 MSTORE DUP1 SWAP3 SWAP2 SWAP1 DUP2 DUP2 MSTORE PUSH1 0x20 ADD DUP3 DUP1 SLOAD PUSH2 0x1305 SWAP1 PUSH2 0x1ECE JUMP JUMPDEST DUP1 ISZERO PUSH2 0x1352 JUMPI DUP1 PUSH1 0x1F LT PUSH2 0x1327 JUMPI PUSH2 0x100 DUP1 DUP4 SLOAD DIV MUL DUP4 MSTORE SWAP2 PUSH1 0x20 ADD SWAP2 PUSH2 0x1352 JUMP JUMPDEST DUP3 ADD SWAP2 SWAP1 PUSH1 0x0 MSTORE PUSH1 0x20 PUSH1 0x0 KECCAK256 SWAP1 JUMPDEST DUP2 SLOAD DUP2 MSTORE SWAP1 PUSH1 0x1 ADD SWAP1 PUSH1 0x20 ADD DUP1 DUP4 GT PUSH2 0x1335 JUMPI DUP3 SWAP1 SUB PUSH1 0x1F AND DUP3 ADD SWAP2 JUMPDEST POP POP POP SWAP2 DUP4 MSTORE POP POP PUSH1 0x4 DUP3 ADD SLOAD PUSH1 0x20 SWAP1 SWAP2 ADD SWAP1 PUSH1 0xFF AND PUSH1 0x2 DUP2 GT ISZERO PUSH2 0x1379 JUMPI PUSH2 0x1379 PUSH2 0x1B56 JUMP JUMPDEST PUSH1 0x2 DUP2 GT ISZERO PUSH2 0x138A JUMPI PUSH2 0x138A PUSH2 0x1B56 JUMP JUMPDEST DUP2 MSTORE PUSH1 0x20 ADD PUSH1 0x5 DUP3 ADD SLOAD DUP2 MSTORE POP POP DUP3 DUP3 DUP2 MLOAD DUP2 LT PUSH2 0x13AA JUMPI PUSH2 0x13AA PUSH2 0x20F8 JUMP JUMPDEST PUSH1 0x20 SWAP1 DUP2 MUL SWAP2 SWAP1 SWAP2 ADD ADD MSTORE PUSH1 0x1 ADD PUSH2 0x122B JUMP JUMPDEST POP SWAP4 SWAP3 POP POP POP JUMP JUMPDEST PUSH1 0x0 SLOAD PUSH1 0x40 MLOAD PUSH4 0x5692E5A1 PUSH1 0xE1 SHL DUP2 MSTORE CALLER PUSH1 0x4 DUP3 ADD MSTORE PUSH1 0x1 PUSH1 0x1 PUSH1 0xA0 SHL SUB SWAP1 SWAP2 AND SWAP1 PUSH4 0xAD25CB42 SWAP1 PUSH1 0x24 ADD PUSH1 0x20 PUSH1 0x40 MLOAD DUP1 DUP4 SUB DUP2 DUP7 GAS STATICCALL ISZERO DUP1 ISZERO PUSH2 0x140D JUMPI RETURNDATASIZE PUSH1 0x0 DUP1 RETURNDATACOPY RETURNDATASIZE PUSH1 0x0 REVERT JUMPDEST POP POP POP POP PUSH1 0x40 MLOAD RETURNDATASIZE PUSH1 0x1F NOT PUSH1 0x1F DUP3 ADD AND DUP3 ADD DUP1 PUSH1 0x40 MSTORE POP DUP2 ADD SWAP1 PUSH2 0x1431 SWAP2 SWAP1 PUSH2 0x1D1C JUMP JUMPDEST PUSH2 0x144D JUMPI PUSH1 0x40 MLOAD PUSH3 0x461BCD PUSH1 0xE5 SHL DUP2 MSTORE PUSH1 0x4 ADD PUSH2 0x2E5 SWAP1 PUSH2 0x1D37 JUMP JUMPDEST PUSH1 0x0 SLOAD PUSH1 0x1 PUSH1 0xA0 SHL SWAP1 DIV PUSH1 0xFF AND ISZERO PUSH2 0x1498 JUMPI PUSH1 0x40 MLOAD PUSH3 0x461BCD PUSH1 0xE5 SHL DUP2 MSTORE PUSH1 0x20 PUSH1 0x4 DUP3 ADD MSTORE PUSH1 0xE PUSH1 0x24 DUP3 ADD MSTORE PUSH14 0x1499595B9D1C985B9D0818D85B1B PUSH1 0x92 SHL PUSH1 0x44 DUP3 ADD MSTORE PUSH1 0x64 ADD PUSH2 0x2E5 JUMP JUMPDEST PUSH1 0x0 DUP1 SLOAD PUSH1 0xFF PUSH1 0xA0 SHL NOT AND PUSH1 0x1 PUSH1 0xA0 SHL OR DUP2 SSTORE DUP2 DUP2 MSTORE PUSH1 0x1 PUSH1 0x20 MSTORE PUSH1 0x40 DUP2 KECCAK256 DUP1 SLOAD SWAP1 SWAP2 SUB PUSH2 0x1500 JUMPI PUSH1 0x40 MLOAD PUSH3 0x461BCD PUSH1 0xE5 SHL DUP2 MSTORE PUSH1 0x20 PUSH1 0x4 DUP3 ADD MSTORE PUSH1 0x15 PUSH1 0x24 DUP3 ADD MSTORE PUSH21 0x151C985B9CD858DD1A5BDB881B9BDD08199BDD5B99 PUSH1 0x5A SHL PUSH1 0x44 DUP3 ADD MSTORE PUSH1 0x64 ADD PUSH2 0x2E5 JUMP JUMPDEST PUSH1 0x0 PUSH1 0x4 DUP3 ADD SLOAD PUSH1 0xFF AND PUSH1 0x2 DUP2 GT ISZERO PUSH2 0x151B JUMPI PUSH2 0x151B PUSH2 0x1B56 JUMP JUMPDEST EQ PUSH2 0x1568 JUMPI PUSH1 0x40 MLOAD PUSH3 0x461BCD PUSH1 0xE5 SHL DUP2 MSTORE PUSH1 0x20 PUSH1 0x4 DUP3 ADD MSTORE PUSH1 0x17 PUSH1 0x24 DUP3 ADD MSTORE PUSH32 0x5472616E73616374696F6E206E6F742070656E64696E67000000000000000000 PUSH1 0x44 DUP3 ADD MSTORE PUSH1 0x64 ADD PUSH2 0x2E5 JUMP JUMPDEST PUSH1 0x0 DUP1 SLOAD PUSH1 0x1 DUP4 ADD SLOAD PUSH1 0x40 MLOAD PUSH4 0x27A92127 PUSH1 0xE0 SHL DUP2 MSTORE PUSH1 0x1 PUSH1 0x1 PUSH1 0xA0 SHL SUB SWAP2 DUP3 AND PUSH1 0x4 DUP3 ADD MSTORE SWAP2 AND SWAP1 PUSH4 0x27A92127 SWAP1 PUSH1 0x24 ADD PUSH1 0x0 PUSH1 0x40 MLOAD DUP1 DUP4 SUB DUP2 DUP7 GAS STATICCALL ISZERO DUP1 ISZERO PUSH2 0x15B7 JUMPI RETURNDATASIZE PUSH1 0x0 DUP1 RETURNDATACOPY RETURNDATASIZE PUSH1 0x0 REVERT JUMPDEST POP POP POP POP PUSH1 0x40 MLOAD RETURNDATASIZE PUSH1 0x0 DUP3 RETURNDATACOPY PUSH1 0x1F RETURNDATASIZE SWAP1 DUP2 ADD PUSH1 0x1F NOT AND DUP3 ADD PUSH1 0x40 MSTORE PUSH2 0x15DF SWAP2 SWAP1 DUP2 ADD SWAP1 PUSH2 0x1DFA JUMP JUMPDEST SWAP1 POP PUSH1 0x3 PUSH1 0x1 DUP4 ADD SLOAD PUSH1 0x1 PUSH1 0xA0 SHL SWAP1 DIV PUSH1 0xFF AND PUSH1 0x3 DUP2 GT ISZERO PUSH2 0x1603 JUMPI PUSH2 0x1603 PUSH2 0x1B56 JUMP JUMPDEST SUB PUSH2 0x1690 JUMPI DUP1 PUSH1 0x20 ADD MLOAD DUP3 PUSH1 0x2 ADD SLOAD DUP3 PUSH1 0x40 ADD MLOAD PUSH2 0x1621 SWAP2 SWAP1 PUSH2 0x210E JUMP JUMPDEST GT ISZERO PUSH2 0x1661 JUMPI PUSH1 0x40 MLOAD PUSH3 0x461BCD PUSH1 0xE5 SHL DUP2 MSTORE PUSH1 0x20 PUSH1 0x4 DUP3 ADD MSTORE PUSH1 0xF PUSH1 0x24 DUP3 ADD MSTORE PUSH15 0x109D5919D95D08195E18D959591959 PUSH1 0x8A SHL PUSH1 0x44 DUP3 ADD MSTORE PUSH1 0x64 ADD PUSH2 0x2E5 JUMP JUMPDEST PUSH1 0x1 DUP3 ADD SLOAD PUSH1 0x2 DUP4 ADD SLOAD PUSH2 0x168B SWAP2 PUSH1 0x1 PUSH1 0x1 PUSH1 0xA0 SHL SUB DUP2 AND SWAP2 PUSH1 0x1 PUSH1 0xA0 SHL SWAP1 SWAP2 DIV PUSH1 0xFF AND SWAP1 PUSH2 0x17A9 JUMP JUMPDEST PUSH2 0x1747 JUMP JUMPDEST PUSH1 0x0 PUSH1 0x1 DUP4 ADD SLOAD PUSH1 0x1 PUSH1 0xA0 SHL SWAP1 DIV PUSH1 0xFF AND PUSH1 0x3 DUP2 GT ISZERO PUSH2 0x16B2 JUMPI PUSH2 0x16B2 PUSH2 0x1B56 JUMP JUMPDEST SUB PUSH2 0x1747 JUMPI PUSH10 0x152D02C7E14AF6800000 DUP3 PUSH1 0x2 ADD SLOAD DUP3 PUSH1 0x20 ADD MLOAD PUSH2 0x16D6 SWAP2 SWAP1 PUSH2 0x210E JUMP JUMPDEST GT ISZERO PUSH2 0x171D JUMPI PUSH1 0x40 MLOAD PUSH3 0x461BCD PUSH1 0xE5 SHL DUP2 MSTORE PUSH1 0x20 PUSH1 0x4 DUP3 ADD MSTORE PUSH1 0x16 PUSH1 0x24 DUP3 ADD MSTORE PUSH22 0x22BC31B2B2B2399036B0BC1030B63637B1B0BA34B7B7 PUSH1 0x51 SHL PUSH1 0x44 DUP3 ADD MSTORE PUSH1 0x64 ADD PUSH2 0x2E5 JUMP JUMPDEST PUSH1 0x1 DUP3 ADD SLOAD PUSH1 0x2 DUP4 ADD SLOAD PUSH2 0x1747 SWAP2 PUSH1 0x1 PUSH1 0x1 PUSH1 0xA0 SHL SUB DUP2 AND SWAP2 PUSH1 0x1 PUSH1 0xA0 SHL SWAP1 SWAP2 DIV PUSH1 0xFF AND SWAP1 PUSH2 0x17A9 JUMP JUMPDEST PUSH1 0x4 DUP3 ADD DUP1 SLOAD PUSH1 0xFF NOT AND PUSH1 0x1 OR SWAP1 SSTORE PUSH2 0x175E PUSH2 0xC04 JUMP JUMPDEST DUP3 PUSH32 0x11A3517410D399D687A3DAC00C28EF32FFEA27E8991A0D4D2283382878B118F6 PUSH1 0x1 PUSH1 0x40 MLOAD PUSH2 0x178F SWAP2 SWAP1 PUSH2 0x2031 JUMP JUMPDEST PUSH1 0x40 MLOAD DUP1 SWAP2 SUB SWAP1 LOG2 POP POP PUSH1 0x0 DUP1 SLOAD PUSH1 0xFF PUSH1 0xA0 SHL NOT AND SWAP1 SSTORE POP JUMP JUMPDEST PUSH1 0x0 DUP1 SLOAD PUSH1 0x40 MLOAD PUSH4 0x27A92127 PUSH1 0xE0 SHL DUP2 MSTORE PUSH1 0x1 PUSH1 0x1 PUSH1 0xA0 SHL SUB DUP7 DUP2 AND PUSH1 0x4 DUP4 ADD MSTORE SWAP1 SWAP2 AND SWAP1 PUSH4 0x27A92127 SWAP1 PUSH1 0x24 ADD PUSH1 0x0 PUSH1 0x40 MLOAD DUP1 DUP4 SUB DUP2 DUP7 GAS STATICCALL ISZERO DUP1 ISZERO PUSH2 0x17F4 JUMPI RETURNDATASIZE PUSH1 0x0 DUP1 RETURNDATACOPY RETURNDATASIZE PUSH1 0x0 REVERT JUMPDEST POP POP POP POP PUSH1 0x40 MLOAD RETURNDATASIZE PUSH1 0x0 DUP3 RETURNDATACOPY PUSH1 0x1F RETURNDATASIZE SWAP1 DUP2 ADD PUSH1 0x1F NOT AND DUP3 ADD PUSH1 0x40 MSTORE PUSH2 0x181C SWAP2 SWAP1 DUP2 ADD SWAP1 PUSH2 0x1DFA JUMP JUMPDEST PUSH1 0x40 DUP2 ADD MLOAD PUSH1 0x20 DUP3 ADD MLOAD SWAP2 SWAP3 POP SWAP1 PUSH1 0x3 DUP6 PUSH1 0x3 DUP2 GT ISZERO PUSH2 0x183E JUMPI PUSH2 0x183E PUSH2 0x1B56 JUMP JUMPDEST SUB PUSH2 0x1854 JUMPI PUSH2 0x184D DUP5 DUP4 PUSH2 0x210E JUMP JUMPDEST SWAP2 POP PUSH2 0x187A JUMP JUMPDEST PUSH1 0x0 DUP6 PUSH1 0x3 DUP2 GT ISZERO PUSH2 0x1868 JUMPI PUSH2 0x1868 PUSH2 0x1B56 JUMP JUMPDEST SUB PUSH2 0x187A JUMPI PUSH2 0x1877 DUP5 DUP3 PUSH2 0x210E JUMP JUMPDEST SWAP1 POP JUMPDEST PUSH1 0x0 PUSH2 0x1886 DUP4 DUP4 PUSH2 0x196C JUMP JUMPDEST PUSH1 0x0 SLOAD PUSH1 0x80 DUP7 ADD MLOAD PUSH1 0x40 MLOAD PUSH3 0xBACB0B PUSH1 0xE0 SHL DUP2 MSTORE PUSH1 0x1 PUSH1 0x1 PUSH1 0xA0 SHL SUB DUP12 DUP2 AND PUSH1 0x4 DUP4 ADD MSTORE PUSH1 0x24 DUP3 ADD DUP6 SWAP1 MSTORE PUSH1 0x44 DUP3 ADD SWAP3 SWAP1 SWAP3 MSTORE PUSH1 0x64 DUP2 ADD DUP8 SWAP1 MSTORE SWAP3 SWAP4 POP AND SWAP1 PUSH3 0xBACB0B SWAP1 PUSH1 0x84 ADD PUSH1 0x0 PUSH1 0x40 MLOAD DUP1 DUP4 SUB DUP2 PUSH1 0x0 DUP8 DUP1 EXTCODESIZE ISZERO DUP1 ISZERO PUSH2 0x18E7 JUMPI PUSH1 0x0 DUP1 REVERT JUMPDEST POP GAS CALL ISZERO DUP1 ISZERO PUSH2 0x18FB JUMPI RETURNDATASIZE PUSH1 0x0 DUP1 RETURNDATACOPY RETURNDATASIZE PUSH1 0x0 REVERT JUMPDEST POP POP POP POP PUSH1 0x64 DUP3 PUSH1 0x5A PUSH2 0x190E SWAP2 SWAP1 PUSH2 0x2121 JUMP JUMPDEST PUSH2 0x1918 SWAP2 SWAP1 PUSH2 0x2138 JUMP JUMPDEST DUP4 LT PUSH2 0x1963 JUMPI PUSH1 0x40 DUP1 MLOAD DUP5 DUP2 MSTORE PUSH1 0x20 DUP2 ADD DUP5 SWAP1 MSTORE PUSH1 0x1 PUSH1 0x1 PUSH1 0xA0 SHL SUB DUP10 AND SWAP2 PUSH32 0xFA05E6C946B9B30D53EA35A0C06832056010F40D2686EBA05A629781030FA8C2 SWAP2 ADD PUSH1 0x40 MLOAD DUP1 SWAP2 SUB SWAP1 LOG2 JUMPDEST POP POP POP POP POP POP POP JUMP JUMPDEST PUSH1 0x0 DUP2 PUSH1 0x0 SUB PUSH2 0x197E JUMPI POP PUSH1 0x0 PUSH2 0x1997 JUMP JUMPDEST DUP2 PUSH2 0x198A DUP5 PUSH1 0x64 PUSH2 0x2121 JUMP JUMPDEST PUSH2 0x1994 SWAP2 SWAP1 PUSH2 0x2138 JUMP JUMPDEST SWAP1 POP JUMPDEST SWAP3 SWAP2 POP POP JUMP JUMPDEST PUSH1 0x1 PUSH1 0x1 PUSH1 0xA0 SHL SUB DUP2 AND DUP2 EQ PUSH2 0x19B2 JUMPI PUSH1 0x0 DUP1 REVERT JUMPDEST POP JUMP JUMPDEST PUSH1 0x0 DUP1 PUSH1 0x40 DUP4 DUP6 SUB SLT ISZERO PUSH2 0x19C8 JUMPI PUSH1 0x0 DUP1 REVERT JUMPDEST DUP3 CALLDATALOAD PUSH2 0x19D3 DUP2 PUSH2 0x199D JUMP JUMPDEST SWAP5 PUSH1 0x20 SWAP4 SWAP1 SWAP4 ADD CALLDATALOAD SWAP4 POP POP POP JUMP JUMPDEST PUSH4 0x4E487B71 PUSH1 0xE0 SHL PUSH1 0x0 MSTORE PUSH1 0x41 PUSH1 0x4 MSTORE PUSH1 0x24 PUSH1 0x0 REVERT JUMPDEST PUSH1 0x40 MLOAD PUSH1 0xE0 DUP2 ADD PUSH8 0xFFFFFFFFFFFFFFFF DUP2 GT DUP3 DUP3 LT OR ISZERO PUSH2 0x1A1A JUMPI PUSH2 0x1A1A PUSH2 0x19E1 JUMP JUMPDEST PUSH1 0x40 MSTORE SWAP1 JUMP JUMPDEST PUSH1 0x40 MLOAD PUSH1 0x1F DUP3 ADD PUSH1 0x1F NOT AND DUP2 ADD PUSH8 0xFFFFFFFFFFFFFFFF DUP2 GT DUP3 DUP3 LT OR ISZERO PUSH2 0x1A49 JUMPI PUSH2 0x1A49 PUSH2 0x19E1 JUMP JUMPDEST PUSH1 0x40 MSTORE SWAP2 SWAP1 POP JUMP JUMPDEST PUSH1 0x0 PUSH8 0xFFFFFFFFFFFFFFFF DUP3 GT ISZERO PUSH2 0x1A6B JUMPI PUSH2 0x1A6B PUSH2 0x19E1 JUMP JUMPDEST POP PUSH1 0x1F ADD PUSH1 0x1F NOT AND PUSH1 0x20 ADD SWAP1 JUMP JUMPDEST PUSH1 0x0 DUP1 PUSH1 0x0 PUSH1 0x60 DUP5 DUP7 SUB SLT ISZERO PUSH2 0x1A8E JUMPI PUSH1 0x0 DUP1 REVERT JUMPDEST DUP4 CALLDATALOAD PUSH1 0x4 DUP2 LT PUSH2 0x1A9D JUMPI PUSH1 0x0 DUP1 REVERT JUMPDEST SWAP3 POP PUSH1 0x20 DUP5 ADD CALLDATALOAD SWAP2 POP PUSH1 0x40 DUP5 ADD CALLDATALOAD PUSH8 0xFFFFFFFFFFFFFFFF DUP2 GT ISZERO PUSH2 0x1AC0 JUMPI PUSH1 0x0 DUP1 REVERT JUMPDEST DUP5 ADD PUSH1 0x1F DUP2 ADD DUP7 SGT PUSH2 0x1AD1 JUMPI PUSH1 0x0 DUP1 REVERT JUMPDEST DUP1 CALLDATALOAD PUSH2 0x1AE4 PUSH2 0x1ADF DUP3 PUSH2 0x1A51 JUMP JUMPDEST PUSH2 0x1A20 JUMP JUMPDEST DUP2 DUP2 MSTORE DUP8 PUSH1 0x20 DUP4 DUP6 ADD ADD GT ISZERO PUSH2 0x1AF9 JUMPI PUSH1 0x0 DUP1 REVERT JUMPDEST DUP2 PUSH1 0x20 DUP5 ADD PUSH1 0x20 DUP4 ADD CALLDATACOPY PUSH1 0x0 PUSH1 0x20 DUP4 DUP4 ADD ADD MSTORE DUP1 SWAP4 POP POP POP POP SWAP3 POP SWAP3 POP SWAP3 JUMP JUMPDEST PUSH1 0x0 PUSH1 0x20 DUP3 DUP5 SUB SLT ISZERO PUSH2 0x1B2B JUMPI PUSH1 0x0 DUP1 REVERT JUMPDEST DUP2 CALLDATALOAD PUSH2 0x1B36 DUP2 PUSH2 0x199D JUMP JUMPDEST SWAP4 SWAP3 POP POP POP JUMP JUMPDEST PUSH1 0x0 PUSH1 0x20 DUP3 DUP5 SUB SLT ISZERO PUSH2 0x1B4F JUMPI PUSH1 0x0 DUP1 REVERT JUMPDEST POP CALLDATALOAD SWAP2 SWAP1 POP JUMP JUMPDEST PUSH4 0x4E487B71 PUSH1 0xE0 SHL PUSH1 0x0 MSTORE PUSH1 0x21 PUSH1 0x4 MSTORE PUSH1 0x24 PUSH1 0x0 REVERT JUMPDEST PUSH1 0x4 DUP2 LT PUSH2 0x1B7C JUMPI PUSH2 0x1B7C PUSH2 0x1B56 JUMP JUMPDEST SWAP1 MSTORE JUMP JUMPDEST PUSH1 0x0 JUMPDEST DUP4 DUP2 LT ISZERO PUSH2 0x1B9B JUMPI DUP2 DUP2 ADD MLOAD DUP4 DUP3 ADD MSTORE PUSH1 0x20 ADD PUSH2 0x1B83 JUMP JUMPDEST POP POP PUSH1 0x0 SWAP2 ADD MSTORE JUMP JUMPDEST PUSH1 0x0 DUP2 MLOAD DUP1 DUP5 MSTORE PUSH2 0x1BBC DUP2 PUSH1 0x20 DUP7 ADD PUSH1 0x20 DUP7 ADD PUSH2 0x1B80 JUMP JUMPDEST PUSH1 0x1F ADD PUSH1 0x1F NOT AND SWAP3 SWAP1 SWAP3 ADD PUSH1 0x20 ADD SWAP3 SWAP2 POP POP JUMP JUMPDEST PUSH1 0x3 DUP2 LT PUSH2 0x1B7C JUMPI PUSH2 0x1B7C PUSH2 0x1B56 JUMP JUMPDEST DUP8 DUP2 MSTORE PUSH1 0x1 PUSH1 0x1 PUSH1 0xA0 SHL SUB DUP8 AND PUSH1 0x20 DUP3 ADD MSTORE PUSH2 0x1BFF PUSH1 0x40 DUP3 ADD DUP8 PUSH2 0x1B6C JUMP JUMPDEST DUP5 PUSH1 0x60 DUP3 ADD MSTORE PUSH1 0xE0 PUSH1 0x80 DUP3 ADD MSTORE PUSH1 0x0 PUSH2 0x1C1B PUSH1 0xE0 DUP4 ADD DUP7 PUSH2 0x1BA4 JUMP JUMPDEST SWAP1 POP PUSH2 0x1C2A PUSH1 0xA0 DUP4 ADD DUP6 PUSH2 0x1BD0 JUMP JUMPDEST DUP3 PUSH1 0xC0 DUP4 ADD MSTORE SWAP9 SWAP8 POP POP POP POP POP POP POP POP JUMP JUMPDEST PUSH1 0x0 PUSH1 0x20 DUP3 ADD PUSH1 0x20 DUP4 MSTORE DUP1 DUP5 MLOAD DUP1 DUP4 MSTORE PUSH1 0x40 DUP6 ADD SWAP2 POP PUSH1 0x40 DUP2 PUSH1 0x5 SHL DUP7 ADD ADD SWAP3 POP PUSH1 0x20 DUP7 ADD PUSH1 0x0 JUMPDEST DUP3 DUP2 LT ISZERO PUSH2 0x1CFB JUMPI DUP7 DUP6 SUB PUSH1 0x3F NOT ADD DUP5 MSTORE DUP2 MLOAD DUP1 MLOAD DUP7 MSTORE PUSH1 0x20 DUP1 DUP3 ADD MLOAD PUSH1 0x1 PUSH1 0x1 PUSH1 0xA0 SHL SUB AND SWAP1 DUP8 ADD MSTORE PUSH1 0x40 DUP1 DUP3 ADD MLOAD SWAP1 PUSH2 0x1CA1 SWAP1 DUP9 ADD DUP3 PUSH2 0x1B6C JUMP JUMPDEST POP PUSH1 0x60 DUP2 ADD MLOAD PUSH1 0x60 DUP8 ADD MSTORE PUSH1 0x80 DUP2 ADD MLOAD PUSH1 0xE0 PUSH1 0x80 DUP9 ADD MSTORE PUSH2 0x1CC5 PUSH1 0xE0 DUP9 ADD DUP3 PUSH2 0x1BA4 JUMP JUMPDEST SWAP1 POP PUSH1 0xA0 DUP3 ADD MLOAD PUSH2 0x1CD9 PUSH1 0xA0 DUP10 ADD DUP3 PUSH2 0x1BD0 JUMP JUMPDEST POP PUSH1 0xC0 SWAP2 DUP3 ADD MLOAD SWAP7 SWAP1 SWAP2 ADD SWAP6 SWAP1 SWAP6 MSTORE PUSH1 0x20 SWAP4 DUP5 ADD SWAP4 SWAP2 SWAP1 SWAP2 ADD SWAP1 PUSH1 0x1 ADD PUSH2 0x1C64 JUMP JUMPDEST POP SWAP3 SWAP7 SWAP6 POP POP POP POP POP POP JUMP JUMPDEST DUP1 MLOAD DUP1 ISZERO ISZERO DUP2 EQ PUSH2 0x1D17 JUMPI PUSH1 0x0 DUP1 REVERT JUMPDEST SWAP2 SWAP1 POP JUMP JUMPDEST PUSH1 0x0 PUSH1 0x20 DUP3 DUP5 SUB SLT ISZERO PUSH2 0x1D2E JUMPI PUSH1 0x0 DUP1 REVERT JUMPDEST PUSH2 0x1994 DUP3 PUSH2 0x1D07 JUMP JUMPDEST PUSH1 0x20 DUP1 DUP3 MSTORE PUSH1 0xF SWAP1 DUP3 ADD MSTORE PUSH15 0x2737BA1039BAB832B91030B236B4B7 PUSH1 0x89 SHL PUSH1 0x40 DUP3 ADD MSTORE PUSH1 0x60 ADD SWAP1 JUMP JUMPDEST PUSH1 0x0 PUSH1 0x20 DUP3 DUP5 SUB SLT ISZERO PUSH2 0x1D72 JUMPI PUSH1 0x0 DUP1 REVERT JUMPDEST POP MLOAD SWAP2 SWAP1 POP JUMP JUMPDEST PUSH4 0x4E487B71 PUSH1 0xE0 SHL PUSH1 0x0 MSTORE PUSH1 0x11 PUSH1 0x4 MSTORE PUSH1 0x24 PUSH1 0x0 REVERT JUMPDEST DUP2 DUP2 SUB DUP2 DUP2 GT ISZERO PUSH2 0x1997 JUMPI PUSH2 0x1997 PUSH2 0x1D79 JUMP JUMPDEST PUSH1 0x0 DUP3 PUSH1 0x1F DUP4 ADD SLT PUSH2 0x1DB3 JUMPI PUSH1 0x0 DUP1 REVERT JUMPDEST DUP2 MLOAD PUSH2 0x1DC1 PUSH2 0x1ADF DUP3 PUSH2 0x1A51 JUMP JUMPDEST DUP2 DUP2 MSTORE DUP5 PUSH1 0x20 DUP4 DUP7 ADD ADD GT ISZERO PUSH2 0x1DD6 JUMPI PUSH1 0x0 DUP1 REVERT JUMPDEST PUSH2 0x1DE7 DUP3 PUSH1 0x20 DUP4 ADD PUSH1 0x20 DUP8 ADD PUSH2 0x1B80 JUMP JUMPDEST SWAP5 SWAP4 POP POP POP POP JUMP JUMPDEST DUP1 MLOAD PUSH2 0x1D17 DUP2 PUSH2 0x199D JUMP JUMPDEST PUSH1 0x0 PUSH1 0x20 DUP3 DUP5 SUB SLT ISZERO PUSH2 0x1E0C JUMPI PUSH1 0x0 DUP1 REVERT JUMPDEST DUP2 MLOAD PUSH8 0xFFFFFFFFFFFFFFFF DUP2 GT ISZERO PUSH2 0x1E23 JUMPI PUSH1 0x0 DUP1 REVERT JUMPDEST DUP3 ADD PUSH1 0xE0 DUP2 DUP6 SUB SLT ISZERO PUSH2 0x1E35 JUMPI PUSH1 0x0 DUP1 REVERT JUMPDEST PUSH2 0x1E3D PUSH2 0x19F7 JUMP JUMPDEST DUP2 MLOAD PUSH8 0xFFFFFFFFFFFFFFFF DUP2 GT ISZERO PUSH2 0x1E54 JUMPI PUSH1 0x0 DUP1 REVERT JUMPDEST PUSH2 0x1E60 DUP7 DUP3 DUP6 ADD PUSH2 0x1DA2 JUMP JUMPDEST DUP3 MSTORE POP PUSH1 0x20 DUP3 DUP2 ADD MLOAD SWAP1 DUP3 ADD MSTORE PUSH1 0x40 DUP1 DUP4 ADD MLOAD SWAP1 DUP3 ADD MSTORE PUSH1 0x60 DUP1 DUP4 ADD MLOAD SWAP1 DUP3 ADD MSTORE PUSH1 0x80 DUP1 DUP4 ADD MLOAD SWAP1 DUP3 ADD MSTORE PUSH2 0x1E97 PUSH1 0xA0 DUP4 ADD PUSH2 0x1D07 JUMP JUMPDEST PUSH1 0xA0 DUP3 ADD MSTORE PUSH2 0x1EA8 PUSH1 0xC0 DUP4 ADD PUSH2 0x1DEF JUMP JUMPDEST PUSH1 0xC0 DUP3 ADD MSTORE SWAP5 SWAP4 POP POP POP POP JUMP JUMPDEST PUSH1 0x0 PUSH1 0x1 DUP3 ADD PUSH2 0x1EC7 JUMPI PUSH2 0x1EC7 PUSH2 0x1D79 JUMP JUMPDEST POP PUSH1 0x1 ADD SWAP1 JUMP JUMPDEST PUSH1 0x1 DUP2 DUP2 SHR SWAP1 DUP3 AND DUP1 PUSH2 0x1EE2 JUMPI PUSH1 0x7F DUP3 AND SWAP2 POP JUMPDEST PUSH1 0x20 DUP3 LT DUP2 SUB PUSH2 0x1F02 JUMPI PUSH4 0x4E487B71 PUSH1 0xE0 SHL PUSH1 0x0 MSTORE PUSH1 0x22 PUSH1 0x4 MSTORE PUSH1 0x24 PUSH1 0x0 REVERT JUMPDEST POP SWAP2 SWAP1 POP JUMP JUMPDEST PUSH1 0x1F DUP3 GT ISZERO PUSH2 0x1F52 JUMPI DUP1 PUSH1 0x0 MSTORE PUSH1 0x20 PUSH1 0x0 KECCAK256 PUSH1 0x1F DUP5 ADD PUSH1 0x5 SHR DUP2 ADD PUSH1 0x20 DUP6 LT ISZERO PUSH2 0x1F2F JUMPI POP DUP1 JUMPDEST PUSH1 0x1F DUP5 ADD PUSH1 0x5 SHR DUP3 ADD SWAP2 POP JUMPDEST DUP2 DUP2 LT ISZERO PUSH2 0x1F4F JUMPI PUSH1 0x0 DUP2 SSTORE PUSH1 0x1 ADD PUSH2 0x1F3B JUMP JUMPDEST POP POP JUMPDEST POP POP POP JUMP JUMPDEST DUP2 MLOAD PUSH8 0xFFFFFFFFFFFFFFFF DUP2 GT ISZERO PUSH2 0x1F71 JUMPI PUSH2 0x1F71 PUSH2 0x19E1 JUMP JUMPDEST PUSH2 0x1F85 DUP2 PUSH2 0x1F7F DUP5 SLOAD PUSH2 0x1ECE JUMP JUMPDEST DUP5 PUSH2 0x1F08 JUMP JUMPDEST PUSH1 0x20 PUSH1 0x1F DUP3 GT PUSH1 0x1 DUP2 EQ PUSH2 0x1FB9 JUMPI PUSH1 0x0 DUP4 ISZERO PUSH2 0x1FA1 JUMPI POP DUP5 DUP3 ADD MLOAD JUMPDEST PUSH1 0x0 NOT PUSH1 0x3 DUP6 SWAP1 SHL SHR NOT AND PUSH1 0x1 DUP5 SWAP1 SHL OR DUP5 SSTORE PUSH2 0x1F4F JUMP JUMPDEST PUSH1 0x0 DUP5 DUP2 MSTORE PUSH1 0x20 DUP2 KECCAK256 PUSH1 0x1F NOT DUP6 AND SWAP2 JUMPDEST DUP3 DUP2 LT ISZERO PUSH2 0x1FE9 JUMPI DUP8 DUP6 ADD MLOAD DUP3 SSTORE PUSH1 0x20 SWAP5 DUP6 ADD SWAP5 PUSH1 0x1 SWAP1 SWAP3 ADD SWAP2 ADD PUSH2 0x1FC9 JUMP JUMPDEST POP DUP5 DUP3 LT ISZERO PUSH2 0x2007 JUMPI DUP7 DUP5 ADD MLOAD PUSH1 0x0 NOT PUSH1 0x3 DUP8 SWAP1 SHL PUSH1 0xF8 AND SHR NOT AND DUP2 SSTORE JUMPDEST POP POP POP POP PUSH1 0x1 SWAP1 DUP2 SHL ADD SWAP1 SSTORE POP JUMP JUMPDEST PUSH1 0x40 DUP2 ADD PUSH2 0x2024 DUP3 DUP6 PUSH2 0x1B6C JUMP JUMPDEST DUP3 PUSH1 0x20 DUP4 ADD MSTORE SWAP4 SWAP3 POP POP POP JUMP JUMPDEST PUSH1 0x20 DUP2 ADD PUSH2 0x1997 DUP3 DUP5 PUSH2 0x1BD0 JUMP JUMPDEST PUSH1 0x0 PUSH1 0x20 DUP3 DUP5 SUB SLT ISZERO PUSH2 0x2051 JUMPI PUSH1 0x0 DUP1 REVERT JUMPDEST DUP2 MLOAD PUSH8 0xFFFFFFFFFFFFFFFF DUP2 GT ISZERO PUSH2 0x2068 JUMPI PUSH1 0x0 DUP1 REVERT JUMPDEST DUP3 ADD PUSH1 0x1F DUP2 ADD DUP5 SGT PUSH2 0x2079 JUMPI PUSH1 0x0 DUP1 REVERT JUMPDEST DUP1 MLOAD PUSH8 0xFFFFFFFFFFFFFFFF DUP2 GT ISZERO PUSH2 0x2093 JUMPI PUSH2 0x2093 PUSH2 0x19E1 JUMP JUMPDEST DUP1 PUSH1 0x5 SHL PUSH2 0x20A3 PUSH1 0x20 DUP3 ADD PUSH2 0x1A20 JUMP JUMPDEST SWAP2 DUP3 MSTORE PUSH1 0x20 DUP2 DUP5 ADD DUP2 ADD SWAP3 SWAP1 DUP2 ADD SWAP1 DUP8 DUP5 GT ISZERO PUSH2 0x20BF JUMPI PUSH1 0x0 DUP1 REVERT JUMPDEST PUSH1 0x20 DUP6 ADD SWAP5 POP JUMPDEST DUP4 DUP6 LT ISZERO PUSH2 0x20ED JUMPI DUP5 MLOAD SWAP3 POP PUSH2 0x20DB DUP4 PUSH2 0x199D JUMP JUMPDEST DUP3 DUP3 MSTORE PUSH1 0x20 SWAP5 DUP6 ADD SWAP5 SWAP1 SWAP2 ADD SWAP1 PUSH2 0x20C6 JUMP JUMPDEST SWAP8 SWAP7 POP POP POP POP POP POP POP JUMP JUMPDEST PUSH4 0x4E487B71 PUSH1 0xE0 SHL PUSH1 0x0 MSTORE PUSH1 0x32 PUSH1 0x4 MSTORE PUSH1 0x24 PUSH1 0x0 REVERT JUMPDEST DUP1 DUP3 ADD DUP1 DUP3 GT ISZERO PUSH2 0x1997 JUMPI PUSH2 0x1997 PUSH2 0x1D79 JUMP JUMPDEST DUP1 DUP3 MUL DUP2 ISZERO DUP3 DUP3 DIV DUP5 EQ OR PUSH2 0x1997 JUMPI PUSH2 0x1997 PUSH2 0x1D79 JUMP JUMPDEST PUSH1 0x0 DUP3 PUSH2 0x2155 JUMPI PUSH4 0x4E487B71 PUSH1 0xE0 SHL PUSH1 0x0 MSTORE PUSH1 0x12 PUSH1 0x4 MSTORE PUSH1 0x24 PUSH1 0x0 REVERT JUMPDEST POP DIV SWAP1 JUMP INVALID LOG2 PUSH5 0x6970667358 0x22 SLT KECCAK256 0xB7 0x22 0xC6 PUSH12 0x527C0DBD55ED2FAA18F796A7 0xD3 0xC6 PUSH1 0x60 PUSH11 0x8003D3C5DCBE4F160CDC46 PUSH5 0x736F6C6343 STOP ADDMOD SHR STOP CALLER "},"methodIdentifiers":{"createTransaction(uint8,uint256,string)":"5df5010c","departmentRegistry()":"261b3e49","departmentTransactionCount(address)":"680c09b5","departmentTransactions(address,uint256)":"35c7bf9e","getSystemMetrics()":"6cfccc2f","getTransactionsByDepartment(address)":"b5ddbda8","initializeDepartmentBudget(address,uint256)":"1c434df0","processTransaction(uint256)":"f0066f83","submitTransaction(uint8,uint256,string)":"200c5b9d","totalBudgetAllocated()":"58f94031","totalBudgetSpent()":"dd606391","transactionCount()":"b77bf600","transactions(uint256)":"9ace38c2","updateDepartmentBudget(address,uint256)":"0d11506c","updateTotals()":"5155b3ce"}}}}}