{"contracts/Vault.sol":{"Vault":{"abi":[{"inputs":[{"internalType":"address","name":"_owner","type":"address"},{"internalType":"address","name":"_usdc","type":"address"}],"stateMutability":"nonpayable","type":"constructor"},{"inputs":[],"name":"InsufficientBalance","type":"error"},{"inputs":[],"name":"NoBalance","type":"error"},{"inputs":[],"name":"TransferFailed","type":"error"},{"inputs":[],"name":"Unauthorized","type":"error"},{"anonymous":false,"inputs":[{"indexed":true,"internalType":"address","name":"owner","type":"address"},{"indexed":false,"internalType":"uint256","name":"amount","type":"uint256"}],"name":"Deposit","type":"event"},{"anonymous":false,"inputs":[{"indexed":true,"internalType":"address","name":"user","type":"address"},{"indexed":false,"internalType":"uint256","name":"amount","type":"uint256"}],"name":"Payment","type":"event"},{"anonymous":false,"inputs":[{"indexed":true,"internalType":"address","name":"owner","type":"address"},{"indexed":false,"internalType":"uint256","name":"amount","type":"uint256"}],"name":"Withdrawal","type":"event"},{"inputs":[],"name":"USDC","outputs":[{"internalType":"address","name":"","type":"address"}],"stateMutability":"view","type":"function"},{"inputs":[{"internalType":"address","name":"","type":"address"}],"name":"balances","outputs":[{"internalType":"uint256","name":"","type":"uint256"}],"stateMutability":"view","type":"function"},{"inputs":[{"internalType":"address","name":"_owner","type":"address"},{"internalType":"address","name":"spender","type":"address"},{"internalType":"uint256","name":"value","type":"uint256"},{"internalType":"uint256","name":"deadline","type":"uint256"},{"internalType":"uint8","name":"v","type":"uint8"},{"internalType":"bytes32","name":"r","type":"bytes32"},{"internalType":"bytes32","name":"s","type":"bytes32"}],"name":"deposit","outputs":[],"stateMutability":"nonpayable","type":"function"},{"inputs":[{"internalType":"address","name":"user","type":"address"},{"internalType":"uint256","name":"amount","type":"uint256"}],"name":"pay","outputs":[],"stateMutability":"nonpayable","type":"function"},{"inputs":[],"name":"redeem","outputs":[],"stateMutability":"nonpayable","type":"function"},{"inputs":[{"internalType":"uint256","name":"amount","type":"uint256"}],"name":"withdraw","outputs":[],"stateMutability":"nonpayable","type":"function"}],"evm":{"bytecode":{"linkReferences":{},"object":"60a060405234801561001057600080fd5b5060405161080238038061080283398101604081905261002f91610070565b600180546001600160a01b0319166001600160a01b03938416179055166080526100a3565b80516001600160a01b038116811461006b57600080fd5b919050565b6000806040838503121561008357600080fd5b61008c83610054565b915061009a60208401610054565b90509250929050565b6080516107296100d96000396000818160c70152818161018f015281816102ab0152818161033501526104a101526107296000f3fe608060405234801561001057600080fd5b50600436106100625760003560e01c806327e235e3146100675780632e1a7d4d1461009a5780637d7dd076146100af57806389a30271146100c2578063be040fb014610101578063c407687614610109575b600080fd5b6100876100753660046105b7565b60006020819052908152604090205481565b6040519081526020015b60405180910390f35b6100ad6100a83660046105d9565b61011c565b005b6100ad6100bd3660046105f2565b61025f565b6100e97f000000000000000000000000000000000000000000000000000000000000000081565b6040516001600160a01b039091168152602001610091565b6100ad610438565b6100ad610117366004610665565b6104d0565b3360009081526020819052604090205481111561014c57604051631e9acf1760e31b815260040160405180910390fd5b336000908152602081905260408120805483929061016b9084906106a5565b909155505060405163a9059cbb60e01b8152336004820152602481018290526000907f00000000000000000000000000000000000000000000000000000000000000006001600160a01b03169063a9059cbb906044015b6020604051808303816000875af11580156101e1573d6000803e3d6000fd5b505050506040513d601f19601f8201168201806040525081019061020591906106be565b905080610225576040516312171d8360e31b815260040160405180910390fd5b60405182815233907f7fcf532c15f0a6db0bd6d0e038bea71d30d808c7d98cb3bf7268a95bf5081b65906020015b60405180910390a25050565b60405163d505accf60e01b81526001600160a01b0388811660048301528781166024830152604482018790526064820186905260ff8516608483015260a4820184905260c482018390527f0000000000000000000000000000000000000000000000000000000000000000169063d505accf9060e401600060405180830381600087803b1580156102ef57600080fd5b505af1158015610303573d6000803e3d6000fd5b50506040516323b872dd60e01b81526001600160a01b038a8116600483015230602483015260448201899052600093507f00000000000000000000000000000000000000000000000000000000000000001691506323b872dd906064016020604051808303816000875af115801561037f573d6000803e3d6000fd5b505050506040513d601f19601f820116820180604052508101906103a391906106be565b9050806103c3576040516312171d8360e31b815260040160405180910390fd5b6001600160a01b038816600090815260208190526040812080548892906103eb9084906106e0565b90915550506040518681526001600160a01b038916907fe1fffcc4923d04b559f4d29a8bfc6cda04eb5b0d3c460751c2402c5c5cc9109c9060200160405180910390a25050505050505050565b336000908152602081905260408120549081900361046957604051636165515360e11b815260040160405180910390fd5b336000818152602081905260408082208290555163a9059cbb60e01b8152600481019290925260248201839052906001600160a01b037f0000000000000000000000000000000000000000000000000000000000000000169063a9059cbb906044016101c2565b6001546001600160a01b031633146104fa576040516282b42960e81b815260040160405180910390fd5b6001600160a01b03821660009081526020819052604090205481111561053357604051631e9acf1760e31b815260040160405180910390fd5b6001600160a01b0382166000908152602081905260408120805483929061055b9084906106a5565b90915550506040518181526001600160a01b038316907fd4f43975feb89f48dd30cabbb32011045be187d1e11c8ea9faa43efc3528251990602001610253565b80356001600160a01b03811681146105b257600080fd5b919050565b6000602082840312156105c957600080fd5b6105d28261059b565b9392505050565b6000602082840312156105eb57600080fd5b5035919050565b600080600080600080600060e0888a03121561060d57600080fd5b6106168861059b565b96506106246020890161059b565b95506040880135945060608801359350608088013560ff8116811461064857600080fd5b9699959850939692959460a0840135945060c09093013592915050565b6000806040838503121561067857600080fd5b6106818361059b565b946020939093013593505050565b634e487b7160e01b600052601160045260246000fd5b818103818111156106b8576106b861068f565b92915050565b6000602082840312156106d057600080fd5b815180151581146105d257600080fd5b808201808211156106b8576106b861068f56fea2646970667358221220766baca1c390dd11c02601f46ee0d7de2ae455c051ca1a005e72a7ccba3170f164736f6c63430008130033","opcodes":"PUSH1 0xA0 PUSH1 0x40 MSTORE CALLVALUE DUP1 ISZERO PUSH2 0x10 JUMPI PUSH1 0x0 DUP1 REVERT JUMPDEST POP PUSH1 0x40 MLOAD PUSH2 0x802 CODESIZE SUB DUP1 PUSH2 0x802 DUP4 CODECOPY DUP2 ADD PUSH1 0x40 DUP2 SWAP1 MSTORE PUSH2 0x2F SWAP2 PUSH2 0x70 JUMP JUMPDEST PUSH1 0x1 DUP1 SLOAD PUSH1 0x1 PUSH1 0x1 PUSH1 0xA0 SHL SUB NOT AND PUSH1 0x1 PUSH1 0x1 PUSH1 0xA0 SHL SUB SWAP4 DUP5 AND OR SWAP1 SSTORE AND PUSH1 0x80 MSTORE PUSH2 0xA3 JUMP JUMPDEST DUP1 MLOAD PUSH1 0x1 PUSH1 0x1 PUSH1 0xA0 SHL SUB DUP2 AND DUP2 EQ PUSH2 0x6B JUMPI PUSH1 0x0 DUP1 REVERT JUMPDEST SWAP2 SWAP1 POP JUMP JUMPDEST PUSH1 0x0 DUP1 PUSH1 0x40 DUP4 DUP6 SUB SLT ISZERO PUSH2 0x83 JUMPI PUSH1 0x0 DUP1 REVERT JUMPDEST PUSH2 0x8C DUP4 PUSH2 0x54 JUMP JUMPDEST SWAP2 POP PUSH2 0x9A PUSH1 0x20 DUP5 ADD PUSH2 0x54 JUMP JUMPDEST SWAP1 POP SWAP3 POP SWAP3 SWAP1 POP JUMP JUMPDEST PUSH1 0x80 MLOAD PUSH2 0x729 PUSH2 0xD9 PUSH1 0x0 CODECOPY PUSH1 0x0 DUP2 DUP2 PUSH1 0xC7 ADD MSTORE DUP2 DUP2 PUSH2 0x18F ADD MSTORE DUP2 DUP2 PUSH2 0x2AB ADD MSTORE DUP2 DUP2 PUSH2 0x335 ADD MSTORE PUSH2 0x4A1 ADD MSTORE PUSH2 0x729 PUSH1 0x0 RETURN INVALID PUSH1 0x80 PUSH1 0x40 MSTORE CALLVALUE DUP1 ISZERO PUSH2 0x10 JUMPI PUSH1 0x0 DUP1 REVERT JUMPDEST POP PUSH1 0x4 CALLDATASIZE LT PUSH2 0x62 JUMPI PUSH1 0x0 CALLDATALOAD PUSH1 0xE0 SHR DUP1 PUSH4 0x27E235E3 EQ PUSH2 0x67 JUMPI DUP1 PUSH4 0x2E1A7D4D EQ PUSH2 0x9A JUMPI DUP1 PUSH4 0x7D7DD076 EQ PUSH2 0xAF JUMPI DUP1 PUSH4 0x89A30271 EQ PUSH2 0xC2 JUMPI DUP1 PUSH4 0xBE040FB0 EQ PUSH2 0x101 JUMPI DUP1 PUSH4 0xC4076876 EQ PUSH2 0x109 JUMPI JUMPDEST PUSH1 0x0 DUP1 REVERT JUMPDEST PUSH2 0x87 PUSH2 0x75 CALLDATASIZE PUSH1 0x4 PUSH2 0x5B7 JUMP JUMPDEST PUSH1 0x0 PUSH1 0x20 DUP2 SWAP1 MSTORE SWAP1 DUP2 MSTORE PUSH1 0x40 SWAP1 KECCAK256 SLOAD DUP2 JUMP JUMPDEST PUSH1 0x40 MLOAD SWAP1 DUP2 MSTORE PUSH1 0x20 ADD JUMPDEST PUSH1 0x40 MLOAD DUP1 SWAP2 SUB SWAP1 RETURN JUMPDEST PUSH2 0xAD PUSH2 0xA8 CALLDATASIZE PUSH1 0x4 PUSH2 0x5D9 JUMP JUMPDEST PUSH2 0x11C JUMP JUMPDEST STOP JUMPDEST PUSH2 0xAD PUSH2 0xBD CALLDATASIZE PUSH1 0x4 PUSH2 0x5F2 JUMP JUMPDEST PUSH2 0x25F JUMP JUMPDEST PUSH2 0xE9 PUSH32 0x0 DUP2 JUMP JUMPDEST PUSH1 0x40 MLOAD PUSH1 0x1 PUSH1 0x1 PUSH1 0xA0 SHL SUB SWAP1 SWAP2 AND DUP2 MSTORE PUSH1 0x20 ADD PUSH2 0x91 JUMP JUMPDEST PUSH2 0xAD PUSH2 0x438 JUMP JUMPDEST PUSH2 0xAD PUSH2 0x117 CALLDATASIZE PUSH1 0x4 PUSH2 0x665 JUMP JUMPDEST PUSH2 0x4D0 JUMP JUMPDEST CALLER PUSH1 0x0 SWAP1 DUP2 MSTORE PUSH1 0x20 DUP2 SWAP1 MSTORE PUSH1 0x40 SWAP1 KECCAK256 SLOAD DUP2 GT ISZERO PUSH2 0x14C JUMPI PUSH1 0x40 MLOAD PUSH4 0x1E9ACF17 PUSH1 0xE3 SHL DUP2 MSTORE PUSH1 0x4 ADD PUSH1 0x40 MLOAD DUP1 SWAP2 SUB SWAP1 REVERT JUMPDEST CALLER PUSH1 0x0 SWAP1 DUP2 MSTORE PUSH1 0x20 DUP2 SWAP1 MSTORE PUSH1 0x40 DUP2 KECCAK256 DUP1 SLOAD DUP4 SWAP3 SWAP1 PUSH2 0x16B SWAP1 DUP5 SWAP1 PUSH2 0x6A5 JUMP JUMPDEST SWAP1 SWAP2 SSTORE POP POP PUSH1 0x40 MLOAD PUSH4 0xA9059CBB PUSH1 0xE0 SHL DUP2 MSTORE CALLER PUSH1 0x4 DUP3 ADD MSTORE PUSH1 0x24 DUP2 ADD DUP3 SWAP1 MSTORE PUSH1 0x0 SWAP1 PUSH32 0x0 PUSH1 0x1 PUSH1 0x1 PUSH1 0xA0 SHL SUB AND SWAP1 PUSH4 0xA9059CBB SWAP1 PUSH1 0x44 ADD JUMPDEST PUSH1 0x20 PUSH1 0x40 MLOAD DUP1 DUP4 SUB DUP2 PUSH1 0x0 DUP8 GAS CALL ISZERO DUP1 ISZERO PUSH2 0x1E1 JUMPI RETURNDATASIZE PUSH1 0x0 DUP1 RETURNDATACOPY RETURNDATASIZE PUSH1 0x0 REVERT JUMPDEST POP POP POP POP PUSH1 0x40 MLOAD RETURNDATASIZE PUSH1 0x1F NOT PUSH1 0x1F DUP3 ADD AND DUP3 ADD DUP1 PUSH1 0x40 MSTORE POP DUP2 ADD SWAP1 PUSH2 0x205 SWAP2 SWAP1 PUSH2 0x6BE JUMP JUMPDEST SWAP1 POP DUP1 PUSH2 0x225 JUMPI PUSH1 0x40 MLOAD PUSH4 0x12171D83 PUSH1 0xE3 SHL DUP2 MSTORE PUSH1 0x4 ADD PUSH1 0x40 MLOAD DUP1 SWAP2 SUB SWAP1 REVERT JUMPDEST PUSH1 0x40 MLOAD DUP3 DUP2 MSTORE CALLER SWAP1 PUSH32 0x7FCF532C15F0A6DB0BD6D0E038BEA71D30D808C7D98CB3BF7268A95BF5081B65 SWAP1 PUSH1 0x20 ADD JUMPDEST PUSH1 0x40 MLOAD DUP1 SWAP2 SUB SWAP1 LOG2 POP POP JUMP JUMPDEST PUSH1 0x40 MLOAD PUSH4 0xD505ACCF PUSH1 0xE0 SHL DUP2 MSTORE PUSH1 0x1 PUSH1 0x1 PUSH1 0xA0 SHL SUB DUP9 DUP2 AND PUSH1 0x4 DUP4 ADD MSTORE DUP8 DUP2 AND PUSH1 0x24 DUP4 ADD MSTORE PUSH1 0x44 DUP3 ADD DUP8 SWAP1 MSTORE PUSH1 0x64 DUP3 ADD DUP7 SWAP1 MSTORE PUSH1 0xFF DUP6 AND PUSH1 0x84 DUP4 ADD MSTORE PUSH1 0xA4 DUP3 ADD DUP5 SWAP1 MSTORE PUSH1 0xC4 DUP3 ADD DUP4 SWAP1 MSTORE PUSH32 0x0 AND SWAP1 PUSH4 0xD505ACCF SWAP1 PUSH1 0xE4 ADD PUSH1 0x0 PUSH1 0x40 MLOAD DUP1 DUP4 SUB DUP2 PUSH1 0x0 DUP8 DUP1 EXTCODESIZE ISZERO DUP1 ISZERO PUSH2 0x2EF JUMPI PUSH1 0x0 DUP1 REVERT JUMPDEST POP GAS CALL ISZERO DUP1 ISZERO PUSH2 0x303 JUMPI RETURNDATASIZE PUSH1 0x0 DUP1 RETURNDATACOPY RETURNDATASIZE PUSH1 0x0 REVERT JUMPDEST POP POP PUSH1 0x40 MLOAD PUSH4 0x23B872DD PUSH1 0xE0 SHL DUP2 MSTORE PUSH1 0x1 PUSH1 0x1 PUSH1 0xA0 SHL SUB DUP11 DUP2 AND PUSH1 0x4 DUP4 ADD MSTORE ADDRESS PUSH1 0x24 DUP4 ADD MSTORE PUSH1 0x44 DUP3 ADD DUP10 SWAP1 MSTORE PUSH1 0x0 SWAP4 POP PUSH32 0x0 AND SWAP2 POP PUSH4 0x23B872DD SWAP1 PUSH1 0x64 ADD PUSH1 0x20 PUSH1 0x40 MLOAD DUP1 DUP4 SUB DUP2 PUSH1 0x0 DUP8 GAS CALL ISZERO DUP1 ISZERO PUSH2 0x37F JUMPI RETURNDATASIZE PUSH1 0x0 DUP1 RETURNDATACOPY RETURNDATASIZE PUSH1 0x0 REVERT JUMPDEST POP POP POP POP PUSH1 0x40 MLOAD RETURNDATASIZE PUSH1 0x1F NOT PUSH1 0x1F DUP3 ADD AND DUP3 ADD DUP1 PUSH1 0x40 MSTORE POP DUP2 ADD SWAP1 PUSH2 0x3A3 SWAP2 SWAP1 PUSH2 0x6BE JUMP JUMPDEST SWAP1 POP DUP1 PUSH2 0x3C3 JUMPI PUSH1 0x40 MLOAD PUSH4 0x12171D83 PUSH1 0xE3 SHL DUP2 MSTORE PUSH1 0x4 ADD PUSH1 0x40 MLOAD DUP1 SWAP2 SUB SWAP1 REVERT JUMPDEST PUSH1 0x1 PUSH1 0x1 PUSH1 0xA0 SHL SUB DUP9 AND PUSH1 0x0 SWAP1 DUP2 MSTORE PUSH1 0x20 DUP2 SWAP1 MSTORE PUSH1 0x40 DUP2 KECCAK256 DUP1 SLOAD DUP9 SWAP3 SWAP1 PUSH2 0x3EB SWAP1 DUP5 SWAP1 PUSH2 0x6E0 JUMP JUMPDEST SWAP1 SWAP2 SSTORE POP POP PUSH1 0x40 MLOAD DUP7 DUP2 MSTORE PUSH1 0x1 PUSH1 0x1 PUSH1 0xA0 SHL SUB DUP10 AND SWAP1 PUSH32 0xE1FFFCC4923D04B559F4D29A8BFC6CDA04EB5B0D3C460751C2402C5C5CC9109C SWAP1 PUSH1 0x20 ADD PUSH1 0x40 MLOAD DUP1 SWAP2 SUB SWAP1 LOG2 POP POP POP POP POP POP POP POP JUMP JUMPDEST CALLER PUSH1 0x0 SWAP1 DUP2 MSTORE PUSH1 0x20 DUP2 SWAP1 MSTORE PUSH1 0x40 DUP2 KECCAK256 SLOAD SWAP1 DUP2 SWAP1 SUB PUSH2 0x469 JUMPI PUSH1 0x40 MLOAD PUSH4 0x61655153 PUSH1 0xE1 SHL DUP2 MSTORE PUSH1 0x4 ADD PUSH1 0x40 MLOAD DUP1 SWAP2 SUB SWAP1 REVERT JUMPDEST CALLER PUSH1 0x0 DUP2 DUP2 MSTORE PUSH1 0x20 DUP2 SWAP1 MSTORE PUSH1 0x40 DUP1 DUP3 KECCAK256 DUP3 SWAP1 SSTORE MLOAD PUSH4 0xA9059CBB PUSH1 0xE0 SHL DUP2 MSTORE PUSH1 0x4 DUP2 ADD SWAP3 SWAP1 SWAP3 MSTORE PUSH1 0x24 DUP3 ADD DUP4 SWAP1 MSTORE SWAP1 PUSH1 0x1 PUSH1 0x1 PUSH1 0xA0 SHL SUB PUSH32 0x0 AND SWAP1 PUSH4 0xA9059CBB SWAP1 PUSH1 0x44 ADD PUSH2 0x1C2 JUMP JUMPDEST PUSH1 0x1 SLOAD PUSH1 0x1 PUSH1 0x1 PUSH1 0xA0 SHL SUB AND CALLER EQ PUSH2 0x4FA JUMPI PUSH1 0x40 MLOAD PUSH3 0x82B429 PUSH1 0xE8 SHL DUP2 MSTORE PUSH1 0x4 ADD PUSH1 0x40 MLOAD DUP1 SWAP2 SUB SWAP1 REVERT JUMPDEST PUSH1 0x1 PUSH1 0x1 PUSH1 0xA0 SHL SUB DUP3 AND PUSH1 0x0 SWAP1 DUP2 MSTORE PUSH1 0x20 DUP2 SWAP1 MSTORE PUSH1 0x40 SWAP1 KECCAK256 SLOAD DUP2 GT ISZERO PUSH2 0x533 JUMPI PUSH1 0x40 MLOAD PUSH4 0x1E9ACF17 PUSH1 0xE3 SHL DUP2 MSTORE PUSH1 0x4 ADD PUSH1 0x40 MLOAD DUP1 SWAP2 SUB SWAP1 REVERT JUMPDEST PUSH1 0x1 PUSH1 0x1 PUSH1 0xA0 SHL SUB DUP3 AND PUSH1 0x0 SWAP1 DUP2 MSTORE PUSH1 0x20 DUP2 SWAP1 MSTORE PUSH1 0x40 DUP2 KECCAK256 DUP1 SLOAD DUP4 SWAP3 SWAP1 PUSH2 0x55B SWAP1 DUP5 SWAP1 PUSH2 0x6A5 JUMP JUMPDEST SWAP1 SWAP2 SSTORE POP POP PUSH1 0x40 MLOAD DUP2 DUP2 MSTORE PUSH1 0x1 PUSH1 0x1 PUSH1 0xA0 SHL SUB DUP4 AND SWAP1 PUSH32 0xD4F43975FEB89F48DD30CABBB32011045BE187D1E11C8EA9FAA43EFC35282519 SWAP1 PUSH1 0x20 ADD PUSH2 0x253 JUMP JUMPDEST DUP1 CALLDATALOAD PUSH1 0x1 PUSH1 0x1 PUSH1 0xA0 SHL SUB DUP2 AND DUP2 EQ PUSH2 0x5B2 JUMPI PUSH1 0x0 DUP1 REVERT JUMPDEST SWAP2 SWAP1 POP JUMP JUMPDEST PUSH1 0x0 PUSH1 0x20 DUP3 DUP5 SUB SLT ISZERO PUSH2 0x5C9 JUMPI PUSH1 0x0 DUP1 REVERT JUMPDEST PUSH2 0x5D2 DUP3 PUSH2 0x59B JUMP JUMPDEST SWAP4 SWAP3 POP POP POP JUMP JUMPDEST PUSH1 0x0 PUSH1 0x20 DUP3 DUP5 SUB SLT ISZERO PUSH2 0x5EB JUMPI PUSH1 0x0 DUP1 REVERT JUMPDEST POP CALLDATALOAD SWAP2 SWAP1 POP JUMP JUMPDEST PUSH1 0x0 DUP1 PUSH1 0x0 DUP1 PUSH1 0x0 DUP1 PUSH1 0x0 PUSH1 0xE0 DUP9 DUP11 SUB SLT ISZERO PUSH2 0x60D JUMPI PUSH1 0x0 DUP1 REVERT JUMPDEST PUSH2 0x616 DUP9 PUSH2 0x59B JUMP JUMPDEST SWAP7 POP PUSH2 0x624 PUSH1 0x20 DUP10 ADD PUSH2 0x59B JUMP JUMPDEST SWAP6 POP PUSH1 0x40 DUP9 ADD CALLDATALOAD SWAP5 POP PUSH1 0x60 DUP9 ADD CALLDATALOAD SWAP4 POP PUSH1 0x80 DUP9 ADD CALLDATALOAD PUSH1 0xFF DUP2 AND DUP2 EQ PUSH2 0x648 JUMPI PUSH1 0x0 DUP1 REVERT JUMPDEST SWAP7 SWAP10 SWAP6 SWAP9 POP SWAP4 SWAP7 SWAP3 SWAP6 SWAP5 PUSH1 0xA0 DUP5 ADD CALLDATALOAD SWAP5 POP PUSH1 0xC0 SWAP1 SWAP4 ADD CALLDATALOAD SWAP3 SWAP2 POP POP JUMP JUMPDEST PUSH1 0x0 DUP1 PUSH1 0x40 DUP4 DUP6 SUB SLT ISZERO PUSH2 0x678 JUMPI PUSH1 0x0 DUP1 REVERT JUMPDEST PUSH2 0x681 DUP4 PUSH2 0x59B JUMP JUMPDEST SWAP5 PUSH1 0x20 SWAP4 SWAP1 SWAP4 ADD CALLDATALOAD SWAP4 POP POP POP JUMP JUMPDEST PUSH4 0x4E487B71 PUSH1 0xE0 SHL PUSH1 0x0 MSTORE PUSH1 0x11 PUSH1 0x4 MSTORE PUSH1 0x24 PUSH1 0x0 REVERT JUMPDEST DUP2 DUP2 SUB DUP2 DUP2 GT ISZERO PUSH2 0x6B8 JUMPI PUSH2 0x6B8 PUSH2 0x68F JUMP JUMPDEST SWAP3 SWAP2 POP POP JUMP JUMPDEST PUSH1 0x0 PUSH1 0x20 DUP3 DUP5 SUB SLT ISZERO PUSH2 0x6D0 JUMPI PUSH1 0x0 DUP1 REVERT JUMPDEST DUP2 MLOAD DUP1 ISZERO ISZERO DUP2 EQ PUSH2 0x5D2 JUMPI PUSH1 0x0 DUP1 REVERT JUMPDEST DUP1 DUP3 ADD DUP1 DUP3 GT ISZERO PUSH2 0x6B8 JUMPI PUSH2 0x6B8 PUSH2 0x68F JUMP INVALID LOG2 PUSH5 0x6970667358 0x22 SLT KECCAK256 PUSH23 0x6BACA1C390DD11C02601F46EE0D7DE2AE455C051CA1A00 0x5E PUSH19 0xA7CCBA3170F164736F6C634300081300330000 "},"methodIdentifiers":{"USDC()":"89a30271","balances(address)":"27e235e3","deposit(address,address,uint256,uint256,uint8,bytes32,bytes32)":"7d7dd076","pay(address,uint256)":"c4076876","redeem()":"be040fb0","withdraw(uint256)":"2e1a7d4d"}}}}}