{"contracts/Morpho.sol":{"Morpho":{"abi":[{"inputs":[{"internalType":"address","name":"newOwner","type":"address"}],"stateMutability":"nonpayable","type":"constructor"},{"inputs":[],"name":"DOMAIN_SEPARATOR","outputs":[{"internalType":"bytes32","name":"","type":"bytes32"}],"stateMutability":"view","type":"function"},{"inputs":[{"components":[{"internalType":"address","name":"loanToken","type":"address"},{"internalType":"address","name":"collateralToken","type":"address"},{"internalType":"address","name":"oracle","type":"address"},{"internalType":"address","name":"irm","type":"address"},{"internalType":"uint256","name":"lltv","type":"uint256"}],"internalType":"struct Morpho.MarketParams","name":"marketParams","type":"tuple"},{"internalType":"uint256","name":"assets","type":"uint256"},{"internalType":"uint256","name":"shares","type":"uint256"},{"internalType":"address","name":"onBehalf","type":"address"},{"internalType":"address","name":"receiver","type":"address"}],"name":"borrow","outputs":[{"internalType":"uint256","name":"","type":"uint256"},{"internalType":"uint256","name":"","type":"uint256"}],"stateMutability":"nonpayable","type":"function"},{"inputs":[],"name":"feeRecipient","outputs":[{"internalType":"address","name":"","type":"address"}],"stateMutability":"view","type":"function"},{"inputs":[{"internalType":"address","name":"","type":"address"},{"internalType":"address","name":"","type":"address"}],"name":"isAuthorized","outputs":[{"internalType":"bool","name":"","type":"bool"}],"stateMutability":"view","type":"function"},{"inputs":[{"internalType":"address","name":"","type":"address"}],"name":"nonce","outputs":[{"internalType":"uint256","name":"","type":"uint256"}],"stateMutability":"view","type":"function"},{"inputs":[],"name":"owner","outputs":[{"internalType":"address","name":"","type":"address"}],"stateMutability":"view","type":"function"},{"inputs":[{"components":[{"internalType":"address","name":"loanToken","type":"address"},{"internalType":"address","name":"collateralToken","type":"address"},{"internalType":"address","name":"oracle","type":"address"},{"internalType":"address","name":"irm","type":"address"},{"internalType":"uint256","name":"lltv","type":"uint256"}],"internalType":"struct Morpho.MarketParams","name":"marketParams","type":"tuple"},{"internalType":"uint256","name":"assets","type":"uint256"},{"internalType":"uint256","name":"shares","type":"uint256"},{"internalType":"address","name":"onBehalf","type":"address"},{"internalType":"bytes","name":"data","type":"bytes"}],"name":"supply","outputs":[{"internalType":"uint256","name":"","type":"uint256"},{"internalType":"uint256","name":"","type":"uint256"}],"stateMutability":"nonpayable","type":"function"}],"evm":{"bytecode":{"linkReferences":{},"object":"60a060405234801561001057600080fd5b506040516104d33803806104d383398101604081905261002f91610123565b600080546001600160a01b0319166001600160a01b03831617905560408051808201825260068152654d6f7270686f60d01b6020918201528151808301835260018152603160f81b9082015281517f8b73c3c69bb8fe3d512ecc4cf759cc79239f7b179b0ffacaa9a75d522b39400f918101919091527f60c5da11e99eb3cde3ccc51421ee307f73dc44527b3c6223ac0c592d1d811272918101919091527fc89efdaa54c0f20c7adf612882df0950f5a951637e0307cdcb4c672f298b8bc660608201524660808201523060a082015260c00160408051601f19818403018152919052805160209091012060805250610153565b60006020828403121561013557600080fd5b81516001600160a01b038116811461014c57600080fd5b9392505050565b60805161036661016d6000396000608701526103666000f3fe608060405234801561001057600080fd5b506004361061007d5760003560e01c806365e4ad9e1161005b57806365e4ad9e1461011757806370ae92d2146101555780638da5cb5b14610175578063a99aad891461018857600080fd5b80633644e5151461008257806346904840146100bc57806350d8cd4b146100e7575b600080fd5b6100a97f000000000000000000000000000000000000000000000000000000000000000081565b6040519081526020015b60405180910390f35b6001546100cf906001600160a01b031681565b6040516001600160a01b0390911681526020016100b3565b6101026100f53660046101d8565b6000809550959350505050565b604080519283526020830191909152016100b3565b610145610125366004610232565b600260209081526000928352604080842090915290825290205460ff1681565b60405190151581526020016100b3565b6100a9610163366004610265565b60036020526000908152604090205481565b6000546100cf906001600160a01b031681565b610102610196366004610287565b600080965096945050505050565b600060a082840312156101b657600080fd5b50919050565b80356001600160a01b03811681146101d357600080fd5b919050565b600080600080600061012086880312156101f157600080fd5b6101fb87876101a4565b945060a0860135935060c0860135925061021760e087016101bc565b915061022661010087016101bc565b90509295509295909350565b6000806040838503121561024557600080fd5b61024e836101bc565b915061025c602084016101bc565b90509250929050565b60006020828403121561027757600080fd5b610280826101bc565b9392505050565b60008060008060008061012087890312156102a157600080fd5b6102ab88886101a4565b955060a0870135945060c087013593506102c760e088016101bc565b925061010087013567ffffffffffffffff808211156102e557600080fd5b818901915089601f8301126102f957600080fd5b81358181111561030857600080fd5b8a602082850101111561031a57600080fd5b602083019450809350505050929550929550929556fea2646970667358221220fffea647c12d29560c03e9b60eb17e4c66a37008c9ef3db95b640402734ada4a64736f6c63430008130033","opcodes":"PUSH1 0xA0 PUSH1 0x40 MSTORE CALLVALUE DUP1 ISZERO PUSH2 0x10 JUMPI PUSH1 0x0 DUP1 REVERT JUMPDEST POP PUSH1 0x40 MLOAD PUSH2 0x4D3 CODESIZE SUB DUP1 PUSH2 0x4D3 DUP4 CODECOPY DUP2 ADD PUSH1 0x40 DUP2 SWAP1 MSTORE PUSH2 0x2F SWAP2 PUSH2 0x123 JUMP JUMPDEST PUSH1 0x0 DUP1 SLOAD PUSH1 0x1 PUSH1 0x1 PUSH1 0xA0 SHL SUB NOT AND PUSH1 0x1 PUSH1 0x1 PUSH1 0xA0 SHL SUB DUP4 AND OR SWAP1 SSTORE PUSH1 0x40 DUP1 MLOAD DUP1 DUP3 ADD DUP3 MSTORE PUSH1 0x6 DUP2 MSTORE PUSH6 0x4D6F7270686F PUSH1 0xD0 SHL PUSH1 0x20 SWAP2 DUP3 ADD MSTORE DUP2 MLOAD DUP1 DUP4 ADD DUP4 MSTORE PUSH1 0x1 DUP2 MSTORE PUSH1 0x31 PUSH1 0xF8 SHL SWAP1 DUP3 ADD MSTORE DUP2 MLOAD PUSH32 0x8B73C3C69BB8FE3D512ECC4CF759CC79239F7B179B0FFACAA9A75D522B39400F SWAP2 DUP2 ADD SWAP2 SWAP1 SWAP2 MSTORE PUSH32 0x60C5DA11E99EB3CDE3CCC51421EE307F73DC44527B3C6223AC0C592D1D811272 SWAP2 DUP2 ADD SWAP2 SWAP1 SWAP2 MSTORE PUSH32 0xC89EFDAA54C0F20C7ADF612882DF0950F5A951637E0307CDCB4C672F298B8BC6 PUSH1 0x60 DUP3 ADD MSTORE CHAINID PUSH1 0x80 DUP3 ADD MSTORE ADDRESS PUSH1 0xA0 DUP3 ADD MSTORE PUSH1 0xC0 ADD PUSH1 0x40 DUP1 MLOAD PUSH1 0x1F NOT DUP2 DUP5 SUB ADD DUP2 MSTORE SWAP2 SWAP1 MSTORE DUP1 MLOAD PUSH1 0x20 SWAP1 SWAP2 ADD KECCAK256 PUSH1 0x80 MSTORE POP PUSH2 0x153 JUMP JUMPDEST PUSH1 0x0 PUSH1 0x20 DUP3 DUP5 SUB SLT ISZERO PUSH2 0x135 JUMPI PUSH1 0x0 DUP1 REVERT JUMPDEST DUP2 MLOAD PUSH1 0x1 PUSH1 0x1 PUSH1 0xA0 SHL SUB DUP2 AND DUP2 EQ PUSH2 0x14C JUMPI PUSH1 0x0 DUP1 REVERT JUMPDEST SWAP4 SWAP3 POP POP POP JUMP JUMPDEST PUSH1 0x80 MLOAD PUSH2 0x366 PUSH2 0x16D PUSH1 0x0 CODECOPY PUSH1 0x0 PUSH1 0x87 ADD MSTORE PUSH2 0x366 PUSH1 0x0 RETURN INVALID PUSH1 0x80 PUSH1 0x40 MSTORE CALLVALUE DUP1 ISZERO PUSH2 0x10 JUMPI PUSH1 0x0 DUP1 REVERT JUMPDEST POP PUSH1 0x4 CALLDATASIZE LT PUSH2 0x7D JUMPI PUSH1 0x0 CALLDATALOAD PUSH1 0xE0 SHR DUP1 PUSH4 0x65E4AD9E GT PUSH2 0x5B JUMPI DUP1 PUSH4 0x65E4AD9E EQ PUSH2 0x117 JUMPI DUP1 PUSH4 0x70AE92D2 EQ PUSH2 0x155 JUMPI DUP1 PUSH4 0x8DA5CB5B EQ PUSH2 0x175 JUMPI DUP1 PUSH4 0xA99AAD89 EQ PUSH2 0x188 JUMPI PUSH1 0x0 DUP1 REVERT JUMPDEST DUP1 PUSH4 0x3644E515 EQ PUSH2 0x82 JUMPI DUP1 PUSH4 0x46904840 EQ PUSH2 0xBC JUMPI DUP1 PUSH4 0x50D8CD4B EQ PUSH2 0xE7 JUMPI JUMPDEST PUSH1 0x0 DUP1 REVERT JUMPDEST PUSH2 0xA9 PUSH32 0x0 DUP2 JUMP JUMPDEST PUSH1 0x40 MLOAD SWAP1 DUP2 MSTORE PUSH1 0x20 ADD JUMPDEST PUSH1 0x40 MLOAD DUP1 SWAP2 SUB SWAP1 RETURN JUMPDEST PUSH1 0x1 SLOAD PUSH2 0xCF SWAP1 PUSH1 0x1 PUSH1 0x1 PUSH1 0xA0 SHL SUB AND DUP2 JUMP JUMPDEST PUSH1 0x40 MLOAD PUSH1 0x1 PUSH1 0x1 PUSH1 0xA0 SHL SUB SWAP1 SWAP2 AND DUP2 MSTORE PUSH1 0x20 ADD PUSH2 0xB3 JUMP JUMPDEST PUSH2 0x102 PUSH2 0xF5 CALLDATASIZE PUSH1 0x4 PUSH2 0x1D8 JUMP JUMPDEST PUSH1 0x0 DUP1 SWAP6 POP SWAP6 SWAP4 POP POP POP POP JUMP JUMPDEST PUSH1 0x40 DUP1 MLOAD SWAP3 DUP4 MSTORE PUSH1 0x20 DUP4 ADD SWAP2 SWAP1 SWAP2 MSTORE ADD PUSH2 0xB3 JUMP JUMPDEST PUSH2 0x145 PUSH2 0x125 CALLDATASIZE PUSH1 0x4 PUSH2 0x232 JUMP JUMPDEST PUSH1 0x2 PUSH1 0x20 SWAP1 DUP2 MSTORE PUSH1 0x0 SWAP3 DUP4 MSTORE PUSH1 0x40 DUP1 DUP5 KECCAK256 SWAP1 SWAP2 MSTORE SWAP1 DUP3 MSTORE SWAP1 KECCAK256 SLOAD PUSH1 0xFF AND DUP2 JUMP JUMPDEST PUSH1 0x40 MLOAD SWAP1 ISZERO ISZERO DUP2 MSTORE PUSH1 0x20 ADD PUSH2 0xB3 JUMP JUMPDEST PUSH2 0xA9 PUSH2 0x163 CALLDATASIZE PUSH1 0x4 PUSH2 0x265 JUMP JUMPDEST PUSH1 0x3 PUSH1 0x20 MSTORE PUSH1 0x0 SWAP1 DUP2 MSTORE PUSH1 0x40 SWAP1 KECCAK256 SLOAD DUP2 JUMP JUMPDEST PUSH1 0x0 SLOAD PUSH2 0xCF SWAP1 PUSH1 0x1 PUSH1 0x1 PUSH1 0xA0 SHL SUB AND DUP2 JUMP JUMPDEST PUSH2 0x102 PUSH2 0x196 CALLDATASIZE PUSH1 0x4 PUSH2 0x287 JUMP JUMPDEST PUSH1 0x0 DUP1 SWAP7 POP SWAP7 SWAP5 POP POP POP POP POP JUMP JUMPDEST PUSH1 0x0 PUSH1 0xA0 DUP3 DUP5 SUB SLT ISZERO PUSH2 0x1B6 JUMPI PUSH1 0x0 DUP1 REVERT JUMPDEST POP SWAP2 SWAP1 POP JUMP JUMPDEST DUP1 CALLDATALOAD PUSH1 0x1 PUSH1 0x1 PUSH1 0xA0 SHL SUB DUP2 AND DUP2 EQ PUSH2 0x1D3 JUMPI PUSH1 0x0 DUP1 REVERT JUMPDEST SWAP2 SWAP1 POP JUMP JUMPDEST PUSH1 0x0 DUP1 PUSH1 0x0 DUP1 PUSH1 0x0 PUSH2 0x120 DUP7 DUP9 SUB SLT ISZERO PUSH2 0x1F1 JUMPI PUSH1 0x0 DUP1 REVERT JUMPDEST PUSH2 0x1FB DUP8 DUP8 PUSH2 0x1A4 JUMP JUMPDEST SWAP5 POP PUSH1 0xA0 DUP7 ADD CALLDATALOAD SWAP4 POP PUSH1 0xC0 DUP7 ADD CALLDATALOAD SWAP3 POP PUSH2 0x217 PUSH1 0xE0 DUP8 ADD PUSH2 0x1BC JUMP JUMPDEST SWAP2 POP PUSH2 0x226 PUSH2 0x100 DUP8 ADD PUSH2 0x1BC JUMP JUMPDEST SWAP1 POP SWAP3 SWAP6 POP SWAP3 SWAP6 SWAP1 SWAP4 POP JUMP JUMPDEST PUSH1 0x0 DUP1 PUSH1 0x40 DUP4 DUP6 SUB SLT ISZERO PUSH2 0x245 JUMPI PUSH1 0x0 DUP1 REVERT JUMPDEST PUSH2 0x24E DUP4 PUSH2 0x1BC JUMP JUMPDEST SWAP2 POP PUSH2 0x25C PUSH1 0x20 DUP5 ADD PUSH2 0x1BC JUMP JUMPDEST SWAP1 POP SWAP3 POP SWAP3 SWAP1 POP JUMP JUMPDEST PUSH1 0x0 PUSH1 0x20 DUP3 DUP5 SUB SLT ISZERO PUSH2 0x277 JUMPI PUSH1 0x0 DUP1 REVERT JUMPDEST PUSH2 0x280 DUP3 PUSH2 0x1BC JUMP JUMPDEST SWAP4 SWAP3 POP POP POP JUMP JUMPDEST PUSH1 0x0 DUP1 PUSH1 0x0 DUP1 PUSH1 0x0 DUP1 PUSH2 0x120 DUP8 DUP10 SUB SLT ISZERO PUSH2 0x2A1 JUMPI PUSH1 0x0 DUP1 REVERT JUMPDEST PUSH2 0x2AB DUP9 DUP9 PUSH2 0x1A4 JUMP JUMPDEST SWAP6 POP PUSH1 0xA0 DUP8 ADD CALLDATALOAD SWAP5 POP PUSH1 0xC0 DUP8 ADD CALLDATALOAD SWAP4 POP PUSH2 0x2C7 PUSH1 0xE0 DUP9 ADD PUSH2 0x1BC JUMP JUMPDEST SWAP3 POP PUSH2 0x100 DUP8 ADD CALLDATALOAD PUSH8 0xFFFFFFFFFFFFFFFF DUP1 DUP3 GT ISZERO PUSH2 0x2E5 JUMPI PUSH1 0x0 DUP1 REVERT JUMPDEST DUP2 DUP10 ADD SWAP2 POP DUP10 PUSH1 0x1F DUP4 ADD SLT PUSH2 0x2F9 JUMPI PUSH1 0x0 DUP1 REVERT JUMPDEST DUP2 CALLDATALOAD DUP2 DUP2 GT ISZERO PUSH2 0x308 JUMPI PUSH1 0x0 DUP1 REVERT JUMPDEST DUP11 PUSH1 0x20 DUP3 DUP6 ADD ADD GT ISZERO PUSH2 0x31A JUMPI PUSH1 0x0 DUP1 REVERT JUMPDEST PUSH1 0x20 DUP4 ADD SWAP5 POP DUP1 SWAP4 POP POP POP POP SWAP3 SWAP6 POP SWAP3 SWAP6 POP SWAP3 SWAP6 JUMP INVALID LOG2 PUSH5 0x6970667358 0x22 SLT KECCAK256 SELFDESTRUCT INVALID 0xA6 SELFBALANCE 0xC1 0x2D 0x29 JUMP 0xC SUB 0xE9 0xB6 0xE 0xB1 PUSH31 0x4C66A37008C9EF3DB95B640402734ADA4A64736F6C63430008130033000000 "},"methodIdentifiers":{"DOMAIN_SEPARATOR()":"3644e515","borrow((address,address,address,address,uint256),uint256,uint256,address,address)":"50d8cd4b","feeRecipient()":"46904840","isAuthorized(address,address)":"65e4ad9e","nonce(address)":"70ae92d2","owner()":"8da5cb5b","supply((address,address,address,address,uint256),uint256,uint256,address,bytes)":"a99aad89"}}}}}