{"contracts/BudgetController.sol":{"BudgetController":{"abi":[{"inputs":[{"internalType":"address","name":"_departmentRegistry","type":"address"}],"stateMutability":"nonpayable","type":"constructor"},{"anonymous":false,"inputs":[{"indexed":true,"internalType":"address","name":"department","type":"address"},{"indexed":false,"internalType":"uint256","name":"spent","type":"uint256"},{"indexed":false,"internalType":"uint256","name":"budget","type":"uint256"}],"name":"BudgetLimitWarning","type":"event"},{"anonymous":false,"inputs":[{"indexed":true,"internalType":"address","name":"department","type":"address"},{"indexed":false,"internalType":"uint256","name":"oldBudget","type":"uint256"},{"indexed":false,"internalType":"uint256","name":"newBudget","type":"uint256"},{"indexed":false,"internalType":"uint256","name":"transactionId","type":"uint256"}],"name":"BudgetUpdated","type":"event"},{"anonymous":false,"inputs":[{"indexed":true,"internalType":"uint256","name":"id","type":"uint256"},{"indexed":false,"internalType":"enum BudgetController.TransactionStatus","name":"status","type":"uint8"}],"name":"TransactionCompleted","type":"event"},{"anonymous":false,"inputs":[{"indexed":true,"internalType":"uint256","name":"id","type":"uint256"},{"indexed":true,"internalType":"address","name":"department","type":"address"},{"indexed":false,"internalType":"enum BudgetController.TransactionType","name":"txType","type":"uint8"},{"indexed":false,"internalType":"uint256","name":"amount","type":"uint256"}],"name":"TransactionCreated","type":"event"},{"inputs":[],"name":"departmentRegistry","outputs":[{"internalType":"contract IDepartmentRegistry","name":"","type":"address"}],"stateMutability":"view","type":"function"},{"inputs":[{"internalType":"address","name":"","type":"address"}],"name":"departmentTransactionCount","outputs":[{"internalType":"uint256","name":"","type":"uint256"}],"stateMutability":"view","type":"function"},{"inputs":[{"internalType":"address","name":"","type":"address"},{"internalType":"uint256","name":"","type":"uint256"}],"name":"departmentTransactions","outputs":[{"internalType":"uint256","name":"","type":"uint256"}],"stateMutability":"view","type":"function"},{"inputs":[{"internalType":"address","name":"department","type":"address"}],"name":"getTransactionsByDepartment","outputs":[{"components":[{"internalType":"uint256","name":"id","type":"uint256"},{"internalType":"address","name":"department","type":"address"},{"internalType":"enum BudgetController.TransactionType","name":"txType","type":"uint8"},{"internalType":"uint256","name":"amount","type":"uint256"},{"internalType":"string","name":"description","type":"string"},{"internalType":"enum BudgetController.TransactionStatus","name":"status","type":"uint8"},{"internalType":"uint256","name":"timestamp","type":"uint256"}],"internalType":"struct BudgetController.Transaction[]","name":"","type":"tuple[]"}],"stateMutability":"view","type":"function"},{"inputs":[{"internalType":"address","name":"department","type":"address"},{"internalType":"uint256","name":"initialBudget","type":"uint256"}],"name":"initializeDepartmentBudget","outputs":[],"stateMutability":"nonpayable","type":"function"},{"inputs":[{"internalType":"uint256","name":"transactionId","type":"uint256"}],"name":"processTransaction","outputs":[],"stateMutability":"nonpayable","type":"function"},{"inputs":[],"name":"transactionCount","outputs":[{"internalType":"uint256","name":"","type":"uint256"}],"stateMutability":"view","type":"function"},{"inputs":[{"internalType":"uint256","name":"","type":"uint256"}],"name":"transactions","outputs":[{"internalType":"uint256","name":"id","type":"uint256"},{"internalType":"address","name":"department","type":"address"},{"internalType":"enum BudgetController.TransactionType","name":"txType","type":"uint8"},{"internalType":"uint256","name":"amount","type":"uint256"},{"internalType":"string","name":"description","type":"string"},{"internalType":"enum BudgetController.TransactionStatus","name":"status","type":"uint8"},{"internalType":"uint256","name":"timestamp","type":"uint256"}],"stateMutability":"view","type":"function"},{"inputs":[{"internalType":"address","name":"department","type":"address"},{"internalType":"uint256","name":"newBudget","type":"uint256"}],"name":"updateDepartmentBudget","outputs":[],"stateMutability":"nonpayable","type":"function"}],"evm":{"bytecode":{"linkReferences":{},"object":"6080604052348015600f57600080fd5b50604051611aac380380611aac833981016040819052602c916050565b600080546001600160a01b0319166001600160a01b0392909216919091179055607e565b600060208284031215606157600080fd5b81516001600160a01b0381168114607757600080fd5b9392505050565b611a1f8061008d6000396000f3fe608060405234801561001057600080fd5b50600436106100935760003560e01c8063680c09b511610066578063680c09b5146101115780639ace38c214610131578063b5ddbda814610157578063b77bf60014610177578063f0066f831461018057600080fd5b80630d11506c146100985780631c434df0146100ad578063261b3e49146100c057806335c7bf9e146100f0575b600080fd5b6100ab6100a63660046113b8565b610193565b005b6100ab6100bb3660046113b8565b61045b565b6000546100d3906001600160a01b031681565b6040516001600160a01b0390911681526020015b60405180910390f35b6101036100fe3660046113b8565b610861565b6040519081526020016100e7565b61010361011f3660046113e4565b60046020526000908152604090205481565b61014461013f366004611408565b610892565b6040516100e797969594939291906114ab565b61016a6101653660046113e4565b610969565b6040516100e79190611507565b61010360025481565b6100ab61018e366004611408565b610bf1565b600054604051635692e5a160e11b81523360048201526001600160a01b039091169063ad25cb4290602401602060405180830381865afa1580156101db573d6000803e3d6000fd5b505050506040513d601f19601f820116820180604052508101906101ff91906115e7565b6102245760405162461bcd60e51b815260040161021b90611602565b60405180910390fd5b6000546040516344d49dcd60e11b81526001600160a01b038481166004830152909116906389a93b9a90602401602060405180830381865afa15801561026e573d6000803e3d6000fd5b505050506040513d601f19601f8201168201806040525081019061029291906115e7565b6102de5760405162461bcd60e51b815260206004820152601860248201527f4465706172746d656e74206973206e6f74206163746976650000000000000000604482015260640161021b565b60008054604051636e68c25360e01b81526001600160a01b03858116600483015290911690636e68c25390602401602060405180830381865afa158015610329573d6000803e3d6000fd5b505050506040513d601f19601f8201168201806040525081019061034d919061162b565b905060006103a1600283851161036c57610367858561165a565b610376565b610376848661165a565b6040518060400160405280600d81526020016c4275646765742055706461746560981b815250610fd0565b600054604051630344541b60e21b81526001600160a01b03878116600483015260248201879052929350911690630d11506c90604401600060405180830381600087803b1580156103f157600080fd5b505af1158015610405573d6000803e3d6000fd5b505060408051858152602081018790529081018490526001600160a01b03871692507f1c6f534fc8e314bccb4945dbaba4438a802afe2c11d64b93b3eaa79c5f017c6e915060600160405180910390a250505050565b600054604051635692e5a160e11b81523360048201526001600160a01b039091169063ad25cb4290602401602060405180830381865afa1580156104a3573d6000803e3d6000fd5b505050506040513d601f19601f820116820180604052508101906104c791906115e7565b6104e35760405162461bcd60e51b815260040161021b90611602565b600054600160a01b900460ff161561052e5760405162461bcd60e51b815260206004820152600e60248201526d1499595b9d1c985b9d0818d85b1b60921b604482015260640161021b565b6000805460ff60a01b1916600160a01b17905580801580159061055b575069152d02c7e14af68000008111155b6105985760405162461bcd60e51b815260206004820152600e60248201526d125b9d985b1a5908185b5bdd5b9d60921b604482015260640161021b565b600054604051630cd29ba760e31b81526001600160a01b03858116600483015290911690636694dd3890602401600060405180830381865afa1580156105e2573d6000803e3d6000fd5b505050506040513d6000823e601f3d908101601f1916820160405261060a9190810190611742565b60a001516106525760405162461bcd60e51b81526020600482015260156024820152744465706172746d656e74206e6f742061637469766560581b604482015260640161021b565b60028054906000610662836117fd565b90915550506002546040805160e0810182528281526001600160a01b0386811660208084019182526000848601818152606086018a905286518088018852601981527f496e697469616c2062756467657420616c6c6f636174696f6e00000000000000818501526080870152600160a087018190524260c08801528883529283905295902084518155915190820180546001600160a01b03198116929094169182178155945193949193926001600160a81b03191617600160a01b83600381111561072f5761072f611421565b02179055506060820151600282015560808201516003820190610752908261189f565b5060a082015160048201805460ff1916600183600281111561077657610776611421565b021790555060c091909101516005909101556001600160a01b0384166000818152600360209081526040808320805460018101825590845282842001859055928252600490529081208054916107cb836117fd565b9190505550836001600160a01b0316817fc5617696b75e538ed738f904611fdfb78dff557717f05c9ea38595041503c5f060008660405161080d92919061195e565b60405180910390a3807f11a3517410d399d687a3dac00c28ef32ffea27e8991a0d4d2283382878b118f660016040516108469190611979565b60405180910390a250506000805460ff60a01b191690555050565b6003602052816000526040600020818154811061087d57600080fd5b90600052602060002001600091509150505481565b600160208190526000918252604090912080549181015460028201546003830180546001600160a01b03841694600160a01b90940460ff169391906108d690611816565b80601f016020809104026020016040519081016040528092919081815260200182805461090290611816565b801561094f5780601f106109245761010080835404028352916020019161094f565b820191906000526020600020905b81548152906001019060200180831161093257829003601f168201915b505050506004830154600590930154919260ff1691905087565b6001600160a01b03811660009081526003602090815260408083208054825181850281018501909352808352606094938301828280156109c857602002820191906000526020600020905b8154815260200190600101908083116109b4575b505050505090506000815167ffffffffffffffff8111156109eb576109eb61166d565b604051908082528060200260200182016040528015610a5157816020015b6040805160e081018252600080825260208083018290529282018190526060808301829052608083015260a0820181905260c08201528252600019909201910181610a095790505b50905060005b8251811015610be95760016000848381518110610a7657610a76611987565b6020908102919091018101518252818101929092526040908101600020815160e0810183528154815260018201546001600160a01b03811694820194909452929091830190600160a01b900460ff166003811115610ad657610ad6611421565b6003811115610ae757610ae7611421565b815260200160028201548152602001600382018054610b0590611816565b80601f0160208091040260200160405190810160405280929190818152602001828054610b3190611816565b8015610b7e5780601f10610b5357610100808354040283529160200191610b7e565b820191906000526020600020905b815481529060010190602001808311610b6157829003601f168201915b5050509183525050600482015460209091019060ff166002811115610ba557610ba5611421565b6002811115610bb657610bb6611421565b8152602001600582015481525050828281518110610bd657610bd6611987565b6020908102919091010152600101610a57565b509392505050565b600054604051635692e5a160e11b81523360048201526001600160a01b039091169063ad25cb4290602401602060405180830381865afa158015610c39573d6000803e3d6000fd5b505050506040513d601f19601f82011682018060405250810190610c5d91906115e7565b610c795760405162461bcd60e51b815260040161021b90611602565b600054600160a01b900460ff1615610cc45760405162461bcd60e51b815260206004820152600e60248201526d1499595b9d1c985b9d0818d85b1b60921b604482015260640161021b565b6000805460ff60a01b1916600160a01b1781558181526001602052604081208054909103610d2c5760405162461bcd60e51b8152602060048201526015602482015274151c985b9cd858dd1a5bdb881b9bdd08199bdd5b99605a1b604482015260640161021b565b6000600482015460ff166002811115610d4757610d47611421565b14610d945760405162461bcd60e51b815260206004820152601760248201527f5472616e73616374696f6e206e6f742070656e64696e67000000000000000000604482015260640161021b565b6000805460018301546040516327a9212760e01b81526001600160a01b0391821660048201529116906327a9212790602401600060405180830381865afa158015610de3573d6000803e3d6000fd5b505050506040513d6000823e601f3d908101601f19168201604052610e0b9190810190611742565b905060036001830154600160a01b900460ff166003811115610e2f57610e2f611421565b03610ebc57806020015182600201548260400151610e4d919061199d565b1115610e8d5760405162461bcd60e51b815260206004820152600f60248201526e109d5919d95d08195e18d959591959608a1b604482015260640161021b565b60018201546002830154610eb7916001600160a01b03811691600160a01b90910460ff16906111ac565b610f73565b60006001830154600160a01b900460ff166003811115610ede57610ede611421565b03610f735769152d02c7e14af680000082600201548260200151610f02919061199d565b1115610f495760405162461bcd60e51b815260206004820152601660248201527522bc31b2b2b2399036b0bc1030b63637b1b0ba34b7b760511b604482015260640161021b565b60018201546002830154610f73916001600160a01b03811691600160a01b90910460ff16906111ac565b60048201805460ff1916600190811790915560405184917f11a3517410d399d687a3dac00c28ef32ffea27e8991a0d4d2283382878b118f691610fb69190611979565b60405180910390a250506000805460ff60a01b1916905550565b6002805460009182610fe1836117fd565b90915550506002546040805160e08101825282815233602082015290810186600381111561101157611011611421565b81526020810186905260408101859052606001600181524260209182015260008381526001808352604091829020845181559284015190830180546001600160a01b039092166001600160a01b0319831681178255928501519290916001600160a81b03191617600160a01b83600381111561108f5761108f611421565b021790555060608201516002820155608082015160038201906110b2908261189f565b5060a082015160048201805460ff191660018360028111156110d6576110d6611421565b021790555060c0919091015160059091015533600081815260036020908152604080832080546001810182559084528284200185905592825260049052908120805491611122836117fd565b9190505550336001600160a01b0316817fc5617696b75e538ed738f904611fdfb78dff557717f05c9ea38595041503c5f0878760405161116392919061195e565b60405180910390a3807f11a3517410d399d687a3dac00c28ef32ffea27e8991a0d4d2283382878b118f6600160405161119c9190611979565b60405180910390a2949350505050565b600080546040516327a9212760e01b81526001600160a01b038681166004830152909116906327a9212790602401600060405180830381865afa1580156111f7573d6000803e3d6000fd5b505050506040513d6000823e601f3d908101601f1916820160405261121f9190810190611742565b6040810151602082015191925090600385600381111561124157611241611421565b0361125757611250848361199d565b915061127d565b600085600381111561126b5761126b611421565b0361127d5761127a848261199d565b90505b6000611289838361136f565b600054608086015160405162bacb0b60e01b81526001600160a01b038b8116600483015260248201859052604482019290925260648101879052929350169062bacb0b90608401600060405180830381600087803b1580156112ea57600080fd5b505af11580156112fe573d6000803e3d6000fd5b50505050606482605a61131191906119b0565b61131b91906119c7565b83106113665760408051848152602081018490526001600160a01b038916917ffa05e6c946b9b30d53ea35a0c06832056010f40d2686eba05a629781030fa8c2910160405180910390a25b50505050505050565b6000816000036113815750600061139a565b8161138d8460646119b0565b61139791906119c7565b90505b92915050565b6001600160a01b03811681146113b557600080fd5b50565b600080604083850312156113cb57600080fd5b82356113d6816113a0565b946020939093013593505050565b6000602082840312156113f657600080fd5b8135611401816113a0565b9392505050565b60006020828403121561141a57600080fd5b5035919050565b634e487b7160e01b600052602160045260246000fd5b6004811061144757611447611421565b9052565b60005b8381101561146657818101518382015260200161144e565b50506000910152565b6000815180845261148781602086016020860161144b565b601f01601f19169290920160200192915050565b6003811061144757611447611421565b8781526001600160a01b03871660208201526114ca6040820187611437565b84606082015260e0608082015260006114e660e083018661146f565b90506114f560a083018561149b565b8260c083015298975050505050505050565b6000602082016020835280845180835260408501915060408160051b86010192506020860160005b828110156115c657868503603f190184528151805186526020808201516001600160a01b0316908701526040808201519061156c90880182611437565b5060608101516060870152608081015160e0608088015261159060e088018261146f565b905060a08201516115a460a089018261149b565b5060c0918201519690910195909552602093840193919091019060010161152f565b50929695505050505050565b805180151581146115e257600080fd5b919050565b6000602082840312156115f957600080fd5b611397826115d2565b6020808252600f908201526e2737ba1039bab832b91030b236b4b760891b604082015260600190565b60006020828403121561163d57600080fd5b5051919050565b634e487b7160e01b600052601160045260246000fd5b8181038181111561139a5761139a611644565b634e487b7160e01b600052604160045260246000fd5b60405160e0810167ffffffffffffffff811182821017156116a6576116a661166d565b60405290565b600082601f8301126116bd57600080fd5b815167ffffffffffffffff8111156116d7576116d761166d565b604051601f8201601f19908116603f0116810167ffffffffffffffff811182821017156117065761170661166d565b60405281815283820160200185101561171e57600080fd5b61172f82602083016020870161144b565b949350505050565b80516115e2816113a0565b60006020828403121561175457600080fd5b815167ffffffffffffffff81111561176b57600080fd5b820160e0818503121561177d57600080fd5b611785611683565b815167ffffffffffffffff81111561179c57600080fd5b6117a8868285016116ac565b825250602082810151908201526040808301519082015260608083015190820152608080830151908201526117df60a083016115d2565b60a08201526117f060c08301611737565b60c0820152949350505050565b60006001820161180f5761180f611644565b5060010190565b600181811c9082168061182a57607f821691505b60208210810361184a57634e487b7160e01b600052602260045260246000fd5b50919050565b601f82111561189a57806000526020600020601f840160051c810160208510156118775750805b601f840160051c820191505b818110156118975760008155600101611883565b50505b505050565b815167ffffffffffffffff8111156118b9576118b961166d565b6118cd816118c78454611816565b84611850565b6020601f82116001811461190157600083156118e95750848201515b600019600385901b1c1916600184901b178455611897565b600084815260208120601f198516915b828110156119315787850151825560209485019460019092019101611911565b508482101561194f5786840151600019600387901b60f8161c191681555b50505050600190811b01905550565b6040810161196c8285611437565b8260208301529392505050565b6020810161139a828461149b565b634e487b7160e01b600052603260045260246000fd5b8082018082111561139a5761139a611644565b808202811582820484141761139a5761139a611644565b6000826119e457634e487b7160e01b600052601260045260246000fd5b50049056fea2646970667358221220399c1a5d6b5a5efd87c1489b73f7f6dae610ce74e2fb096b935f02df1245fabb64736f6c634300081c0033","opcodes":"PUSH1 0x80 PUSH1 0x40 MSTORE CALLVALUE DUP1 ISZERO PUSH1 0xF JUMPI PUSH1 0x0 DUP1 REVERT JUMPDEST POP PUSH1 0x40 MLOAD PUSH2 0x1AAC CODESIZE SUB DUP1 PUSH2 0x1AAC DUP4 CODECOPY DUP2 ADD PUSH1 0x40 DUP2 SWAP1 MSTORE PUSH1 0x2C SWAP2 PUSH1 0x50 JUMP JUMPDEST PUSH1 0x0 DUP1 SLOAD PUSH1 0x1 PUSH1 0x1 PUSH1 0xA0 SHL SUB NOT AND PUSH1 0x1 PUSH1 0x1 PUSH1 0xA0 SHL SUB SWAP3 SWAP1 SWAP3 AND SWAP2 SWAP1 SWAP2 OR SWAP1 SSTORE PUSH1 0x7E JUMP JUMPDEST PUSH1 0x0 PUSH1 0x20 DUP3 DUP5 SUB SLT ISZERO PUSH1 0x61 JUMPI PUSH1 0x0 DUP1 REVERT JUMPDEST DUP2 MLOAD PUSH1 0x1 PUSH1 0x1 PUSH1 0xA0 SHL SUB DUP2 AND DUP2 EQ PUSH1 0x77 JUMPI PUSH1 0x0 DUP1 REVERT JUMPDEST SWAP4 SWAP3 POP POP POP JUMP JUMPDEST PUSH2 0x1A1F DUP1 PUSH2 0x8D PUSH1 0x0 CODECOPY PUSH1 0x0 RETURN INVALID PUSH1 0x80 PUSH1 0x40 MSTORE CALLVALUE DUP1 ISZERO PUSH2 0x10 JUMPI PUSH1 0x0 DUP1 REVERT JUMPDEST POP PUSH1 0x4 CALLDATASIZE LT PUSH2 0x93 JUMPI PUSH1 0x0 CALLDATALOAD PUSH1 0xE0 SHR DUP1 PUSH4 0x680C09B5 GT PUSH2 0x66 JUMPI DUP1 PUSH4 0x680C09B5 EQ PUSH2 0x111 JUMPI DUP1 PUSH4 0x9ACE38C2 EQ PUSH2 0x131 JUMPI DUP1 PUSH4 0xB5DDBDA8 EQ PUSH2 0x157 JUMPI DUP1 PUSH4 0xB77BF600 EQ PUSH2 0x177 JUMPI DUP1 PUSH4 0xF0066F83 EQ PUSH2 0x180 JUMPI PUSH1 0x0 DUP1 REVERT JUMPDEST DUP1 PUSH4 0xD11506C EQ PUSH2 0x98 JUMPI DUP1 PUSH4 0x1C434DF0 EQ PUSH2 0xAD JUMPI DUP1 PUSH4 0x261B3E49 EQ PUSH2 0xC0 JUMPI DUP1 PUSH4 0x35C7BF9E EQ PUSH2 0xF0 JUMPI JUMPDEST PUSH1 0x0 DUP1 REVERT JUMPDEST PUSH2 0xAB PUSH2 0xA6 CALLDATASIZE PUSH1 0x4 PUSH2 0x13B8 JUMP JUMPDEST PUSH2 0x193 JUMP JUMPDEST STOP JUMPDEST PUSH2 0xAB PUSH2 0xBB CALLDATASIZE PUSH1 0x4 PUSH2 0x13B8 JUMP JUMPDEST PUSH2 0x45B JUMP JUMPDEST PUSH1 0x0 SLOAD PUSH2 0xD3 SWAP1 PUSH1 0x1 PUSH1 0x1 PUSH1 0xA0 SHL SUB AND DUP2 JUMP JUMPDEST PUSH1 0x40 MLOAD PUSH1 0x1 PUSH1 0x1 PUSH1 0xA0 SHL SUB SWAP1 SWAP2 AND DUP2 MSTORE PUSH1 0x20 ADD JUMPDEST PUSH1 0x40 MLOAD DUP1 SWAP2 SUB SWAP1 RETURN JUMPDEST PUSH2 0x103 PUSH2 0xFE CALLDATASIZE PUSH1 0x4 PUSH2 0x13B8 JUMP JUMPDEST PUSH2 0x861 JUMP JUMPDEST PUSH1 0x40 MLOAD SWAP1 DUP2 MSTORE PUSH1 0x20 ADD PUSH2 0xE7 JUMP JUMPDEST PUSH2 0x103 PUSH2 0x11F CALLDATASIZE PUSH1 0x4 PUSH2 0x13E4 JUMP JUMPDEST PUSH1 0x4 PUSH1 0x20 MSTORE PUSH1 0x0 SWAP1 DUP2 MSTORE PUSH1 0x40 SWAP1 KECCAK256 SLOAD DUP2 JUMP JUMPDEST PUSH2 0x144 PUSH2 0x13F CALLDATASIZE PUSH1 0x4 PUSH2 0x1408 JUMP JUMPDEST PUSH2 0x892 JUMP JUMPDEST PUSH1 0x40 MLOAD PUSH2 0xE7 SWAP8 SWAP7 SWAP6 SWAP5 SWAP4 SWAP3 SWAP2 SWAP1 PUSH2 0x14AB JUMP JUMPDEST PUSH2 0x16A PUSH2 0x165 CALLDATASIZE PUSH1 0x4 PUSH2 0x13E4 JUMP JUMPDEST PUSH2 0x969 JUMP JUMPDEST PUSH1 0x40 MLOAD PUSH2 0xE7 SWAP2 SWAP1 PUSH2 0x1507 JUMP JUMPDEST PUSH2 0x103 PUSH1 0x2 SLOAD DUP2 JUMP JUMPDEST PUSH2 0xAB PUSH2 0x18E CALLDATASIZE PUSH1 0x4 PUSH2 0x1408 JUMP JUMPDEST PUSH2 0xBF1 JUMP JUMPDEST PUSH1 0x0 SLOAD PUSH1 0x40 MLOAD PUSH4 0x5692E5A1 PUSH1 0xE1 SHL DUP2 MSTORE CALLER PUSH1 0x4 DUP3 ADD MSTORE PUSH1 0x1 PUSH1 0x1 PUSH1 0xA0 SHL SUB SWAP1 SWAP2 AND SWAP1 PUSH4 0xAD25CB42 SWAP1 PUSH1 0x24 ADD PUSH1 0x20 PUSH1 0x40 MLOAD DUP1 DUP4 SUB DUP2 DUP7 GAS STATICCALL ISZERO DUP1 ISZERO PUSH2 0x1DB JUMPI RETURNDATASIZE PUSH1 0x0 DUP1 RETURNDATACOPY RETURNDATASIZE PUSH1 0x0 REVERT JUMPDEST POP POP POP POP PUSH1 0x40 MLOAD RETURNDATASIZE PUSH1 0x1F NOT PUSH1 0x1F DUP3 ADD AND DUP3 ADD DUP1 PUSH1 0x40 MSTORE POP DUP2 ADD SWAP1 PUSH2 0x1FF SWAP2 SWAP1 PUSH2 0x15E7 JUMP JUMPDEST PUSH2 0x224 JUMPI PUSH1 0x40 MLOAD PUSH3 0x461BCD PUSH1 0xE5 SHL DUP2 MSTORE PUSH1 0x4 ADD PUSH2 0x21B SWAP1 PUSH2 0x1602 JUMP JUMPDEST PUSH1 0x40 MLOAD DUP1 SWAP2 SUB SWAP1 REVERT JUMPDEST PUSH1 0x0 SLOAD PUSH1 0x40 MLOAD PUSH4 0x44D49DCD PUSH1 0xE1 SHL DUP2 MSTORE PUSH1 0x1 PUSH1 0x1 PUSH1 0xA0 SHL SUB DUP5 DUP2 AND PUSH1 0x4 DUP4 ADD MSTORE SWAP1 SWAP2 AND SWAP1 PUSH4 0x89A93B9A SWAP1 PUSH1 0x24 ADD PUSH1 0x20 PUSH1 0x40 MLOAD DUP1 DUP4 SUB DUP2 DUP7 GAS STATICCALL ISZERO DUP1 ISZERO PUSH2 0x26E JUMPI RETURNDATASIZE PUSH1 0x0 DUP1 RETURNDATACOPY RETURNDATASIZE PUSH1 0x0 REVERT JUMPDEST POP POP POP POP PUSH1 0x40 MLOAD RETURNDATASIZE PUSH1 0x1F NOT PUSH1 0x1F DUP3 ADD AND DUP3 ADD DUP1 PUSH1 0x40 MSTORE POP DUP2 ADD SWAP1 PUSH2 0x292 SWAP2 SWAP1 PUSH2 0x15E7 JUMP JUMPDEST PUSH2 0x2DE JUMPI PUSH1 0x40 MLOAD PUSH3 0x461BCD PUSH1 0xE5 SHL DUP2 MSTORE PUSH1 0x20 PUSH1 0x4 DUP3 ADD MSTORE PUSH1 0x18 PUSH1 0x24 DUP3 ADD MSTORE PUSH32 0x4465706172746D656E74206973206E6F74206163746976650000000000000000 PUSH1 0x44 DUP3 ADD MSTORE PUSH1 0x64 ADD PUSH2 0x21B JUMP JUMPDEST PUSH1 0x0 DUP1 SLOAD PUSH1 0x40 MLOAD PUSH4 0x6E68C253 PUSH1 0xE0 SHL DUP2 MSTORE PUSH1 0x1 PUSH1 0x1 PUSH1 0xA0 SHL SUB DUP6 DUP2 AND PUSH1 0x4 DUP4 ADD MSTORE SWAP1 SWAP2 AND SWAP1 PUSH4 0x6E68C253 SWAP1 PUSH1 0x24 ADD PUSH1 0x20 PUSH1 0x40 MLOAD DUP1 DUP4 SUB DUP2 DUP7 GAS STATICCALL ISZERO DUP1 ISZERO PUSH2 0x329 JUMPI RETURNDATASIZE PUSH1 0x0 DUP1 RETURNDATACOPY RETURNDATASIZE PUSH1 0x0 REVERT JUMPDEST POP POP POP POP PUSH1 0x40 MLOAD RETURNDATASIZE PUSH1 0x1F NOT PUSH1 0x1F DUP3 ADD AND DUP3 ADD DUP1 PUSH1 0x40 MSTORE POP DUP2 ADD SWAP1 PUSH2 0x34D SWAP2 SWAP1 PUSH2 0x162B JUMP JUMPDEST SWAP1 POP PUSH1 0x0 PUSH2 0x3A1 PUSH1 0x2 DUP4 DUP6 GT PUSH2 0x36C JUMPI PUSH2 0x367 DUP6 DUP6 PUSH2 0x165A JUMP JUMPDEST PUSH2 0x376 JUMP JUMPDEST PUSH2 0x376 DUP5 DUP7 PUSH2 0x165A JUMP JUMPDEST PUSH1 0x40 MLOAD DUP1 PUSH1 0x40 ADD PUSH1 0x40 MSTORE DUP1 PUSH1 0xD DUP2 MSTORE PUSH1 0x20 ADD PUSH13 0x42756467657420557064617465 PUSH1 0x98 SHL DUP2 MSTORE POP PUSH2 0xFD0 JUMP JUMPDEST PUSH1 0x0 SLOAD PUSH1 0x40 MLOAD PUSH4 0x344541B PUSH1 0xE2 SHL DUP2 MSTORE PUSH1 0x1 PUSH1 0x1 PUSH1 0xA0 SHL SUB DUP8 DUP2 AND PUSH1 0x4 DUP4 ADD MSTORE PUSH1 0x24 DUP3 ADD DUP8 SWAP1 MSTORE SWAP3 SWAP4 POP SWAP2 AND SWAP1 PUSH4 0xD11506C SWAP1 PUSH1 0x44 ADD PUSH1 0x0 PUSH1 0x40 MLOAD DUP1 DUP4 SUB DUP2 PUSH1 0x0 DUP8 DUP1 EXTCODESIZE ISZERO DUP1 ISZERO PUSH2 0x3F1 JUMPI PUSH1 0x0 DUP1 REVERT JUMPDEST POP GAS CALL ISZERO DUP1 ISZERO PUSH2 0x405 JUMPI RETURNDATASIZE PUSH1 0x0 DUP1 RETURNDATACOPY RETURNDATASIZE PUSH1 0x0 REVERT JUMPDEST POP POP PUSH1 0x40 DUP1 MLOAD DUP6 DUP2 MSTORE PUSH1 0x20 DUP2 ADD DUP8 SWAP1 MSTORE SWAP1 DUP2 ADD DUP5 SWAP1 MSTORE PUSH1 0x1 PUSH1 0x1 PUSH1 0xA0 SHL SUB DUP8 AND SWAP3 POP PUSH32 0x1C6F534FC8E314BCCB4945DBABA4438A802AFE2C11D64B93B3EAA79C5F017C6E SWAP2 POP PUSH1 0x60 ADD PUSH1 0x40 MLOAD DUP1 SWAP2 SUB SWAP1 LOG2 POP POP POP POP JUMP JUMPDEST PUSH1 0x0 SLOAD PUSH1 0x40 MLOAD PUSH4 0x5692E5A1 PUSH1 0xE1 SHL DUP2 MSTORE CALLER PUSH1 0x4 DUP3 ADD MSTORE PUSH1 0x1 PUSH1 0x1 PUSH1 0xA0 SHL SUB SWAP1 SWAP2 AND SWAP1 PUSH4 0xAD25CB42 SWAP1 PUSH1 0x24 ADD PUSH1 0x20 PUSH1 0x40 MLOAD DUP1 DUP4 SUB DUP2 DUP7 GAS STATICCALL ISZERO DUP1 ISZERO PUSH2 0x4A3 JUMPI RETURNDATASIZE PUSH1 0x0 DUP1 RETURNDATACOPY RETURNDATASIZE PUSH1 0x0 REVERT JUMPDEST POP POP POP POP PUSH1 0x40 MLOAD RETURNDATASIZE PUSH1 0x1F NOT PUSH1 0x1F DUP3 ADD AND DUP3 ADD DUP1 PUSH1 0x40 MSTORE POP DUP2 ADD SWAP1 PUSH2 0x4C7 SWAP2 SWAP1 PUSH2 0x15E7 JUMP JUMPDEST PUSH2 0x4E3 JUMPI PUSH1 0x40 MLOAD PUSH3 0x461BCD PUSH1 0xE5 SHL DUP2 MSTORE PUSH1 0x4 ADD PUSH2 0x21B SWAP1 PUSH2 0x1602 JUMP JUMPDEST PUSH1 0x0 SLOAD PUSH1 0x1 PUSH1 0xA0 SHL SWAP1 DIV PUSH1 0xFF AND ISZERO PUSH2 0x52E JUMPI PUSH1 0x40 MLOAD PUSH3 0x461BCD PUSH1 0xE5 SHL DUP2 MSTORE PUSH1 0x20 PUSH1 0x4 DUP3 ADD MSTORE PUSH1 0xE PUSH1 0x24 DUP3 ADD MSTORE PUSH14 0x1499595B9D1C985B9D0818D85B1B PUSH1 0x92 SHL PUSH1 0x44 DUP3 ADD MSTORE PUSH1 0x64 ADD PUSH2 0x21B JUMP JUMPDEST PUSH1 0x0 DUP1 SLOAD PUSH1 0xFF PUSH1 0xA0 SHL NOT AND PUSH1 0x1 PUSH1 0xA0 SHL OR SWAP1 SSTORE DUP1 DUP1 ISZERO DUP1 ISZERO SWAP1 PUSH2 0x55B JUMPI POP PUSH10 0x152D02C7E14AF6800000 DUP2 GT ISZERO JUMPDEST PUSH2 0x598 JUMPI PUSH1 0x40 MLOAD PUSH3 0x461BCD PUSH1 0xE5 SHL DUP2 MSTORE PUSH1 0x20 PUSH1 0x4 DUP3 ADD MSTORE PUSH1 0xE PUSH1 0x24 DUP3 ADD MSTORE PUSH14 0x125B9D985B1A5908185B5BDD5B9D PUSH1 0x92 SHL PUSH1 0x44 DUP3 ADD MSTORE PUSH1 0x64 ADD PUSH2 0x21B JUMP JUMPDEST PUSH1 0x0 SLOAD PUSH1 0x40 MLOAD PUSH4 0xCD29BA7 PUSH1 0xE3 SHL DUP2 MSTORE PUSH1 0x1 PUSH1 0x1 PUSH1 0xA0 SHL SUB DUP6 DUP2 AND PUSH1 0x4 DUP4 ADD MSTORE SWAP1 SWAP2 AND SWAP1 PUSH4 0x6694DD38 SWAP1 PUSH1 0x24 ADD PUSH1 0x0 PUSH1 0x40 MLOAD DUP1 DUP4 SUB DUP2 DUP7 GAS STATICCALL ISZERO DUP1 ISZERO PUSH2 0x5E2 JUMPI RETURNDATASIZE PUSH1 0x0 DUP1 RETURNDATACOPY RETURNDATASIZE PUSH1 0x0 REVERT JUMPDEST POP POP POP POP PUSH1 0x40 MLOAD RETURNDATASIZE PUSH1 0x0 DUP3 RETURNDATACOPY PUSH1 0x1F RETURNDATASIZE SWAP1 DUP2 ADD PUSH1 0x1F NOT AND DUP3 ADD PUSH1 0x40 MSTORE PUSH2 0x60A SWAP2 SWAP1 DUP2 ADD SWAP1 PUSH2 0x1742 JUMP JUMPDEST PUSH1 0xA0 ADD MLOAD PUSH2 0x652 JUMPI PUSH1 0x40 MLOAD PUSH3 0x461BCD PUSH1 0xE5 SHL DUP2 MSTORE PUSH1 0x20 PUSH1 0x4 DUP3 ADD MSTORE PUSH1 0x15 PUSH1 0x24 DUP3 ADD MSTORE PUSH21 0x4465706172746D656E74206E6F7420616374697665 PUSH1 0x58 SHL PUSH1 0x44 DUP3 ADD MSTORE PUSH1 0x64 ADD PUSH2 0x21B JUMP JUMPDEST PUSH1 0x2 DUP1 SLOAD SWAP1 PUSH1 0x0 PUSH2 0x662 DUP4 PUSH2 0x17FD JUMP JUMPDEST SWAP1 SWAP2 SSTORE POP POP PUSH1 0x2 SLOAD PUSH1 0x40 DUP1 MLOAD PUSH1 0xE0 DUP2 ADD DUP3 MSTORE DUP3 DUP2 MSTORE PUSH1 0x1 PUSH1 0x1 PUSH1 0xA0 SHL SUB DUP7 DUP2 AND PUSH1 0x20 DUP1 DUP5 ADD SWAP2 DUP3 MSTORE PUSH1 0x0 DUP5 DUP7 ADD DUP2 DUP2 MSTORE PUSH1 0x60 DUP7 ADD DUP11 SWAP1 MSTORE DUP7 MLOAD DUP1 DUP9 ADD DUP9 MSTORE PUSH1 0x19 DUP2 MSTORE PUSH32 0x496E697469616C2062756467657420616C6C6F636174696F6E00000000000000 DUP2 DUP6 ADD MSTORE PUSH1 0x80 DUP8 ADD MSTORE PUSH1 0x1 PUSH1 0xA0 DUP8 ADD DUP2 SWAP1 MSTORE TIMESTAMP PUSH1 0xC0 DUP9 ADD MSTORE DUP9 DUP4 MSTORE SWAP3 DUP4 SWAP1 MSTORE SWAP6 SWAP1 KECCAK256 DUP5 MLOAD DUP2 SSTORE SWAP2 MLOAD SWAP1 DUP3 ADD DUP1 SLOAD PUSH1 0x1 PUSH1 0x1 PUSH1 0xA0 SHL SUB NOT DUP2 AND SWAP3 SWAP1 SWAP5 AND SWAP2 DUP3 OR DUP2 SSTORE SWAP5 MLOAD SWAP4 SWAP5 SWAP2 SWAP4 SWAP3 PUSH1 0x1 PUSH1 0x1 PUSH1 0xA8 SHL SUB NOT AND OR PUSH1 0x1 PUSH1 0xA0 SHL DUP4 PUSH1 0x3 DUP2 GT ISZERO PUSH2 0x72F JUMPI PUSH2 0x72F PUSH2 0x1421 JUMP JUMPDEST MUL OR SWAP1 SSTORE POP PUSH1 0x60 DUP3 ADD MLOAD PUSH1 0x2 DUP3 ADD SSTORE PUSH1 0x80 DUP3 ADD MLOAD PUSH1 0x3 DUP3 ADD SWAP1 PUSH2 0x752 SWAP1 DUP3 PUSH2 0x189F JUMP JUMPDEST POP PUSH1 0xA0 DUP3 ADD MLOAD PUSH1 0x4 DUP3 ADD DUP1 SLOAD PUSH1 0xFF NOT AND PUSH1 0x1 DUP4 PUSH1 0x2 DUP2 GT ISZERO PUSH2 0x776 JUMPI PUSH2 0x776 PUSH2 0x1421 JUMP JUMPDEST MUL OR SWAP1 SSTORE POP PUSH1 0xC0 SWAP2 SWAP1 SWAP2 ADD MLOAD PUSH1 0x5 SWAP1 SWAP2 ADD SSTORE PUSH1 0x1 PUSH1 0x1 PUSH1 0xA0 SHL SUB DUP5 AND PUSH1 0x0 DUP2 DUP2 MSTORE PUSH1 0x3 PUSH1 0x20 SWAP1 DUP2 MSTORE PUSH1 0x40 DUP1 DUP4 KECCAK256 DUP1 SLOAD PUSH1 0x1 DUP2 ADD DUP3 SSTORE SWAP1 DUP5 MSTORE DUP3 DUP5 KECCAK256 ADD DUP6 SWAP1 SSTORE SWAP3 DUP3 MSTORE PUSH1 0x4 SWAP1 MSTORE SWAP1 DUP2 KECCAK256 DUP1 SLOAD SWAP2 PUSH2 0x7CB DUP4 PUSH2 0x17FD JUMP JUMPDEST SWAP2 SWAP1 POP SSTORE POP DUP4 PUSH1 0x1 PUSH1 0x1 PUSH1 0xA0 SHL SUB AND DUP2 PUSH32 0xC5617696B75E538ED738F904611FDFB78DFF557717F05C9EA38595041503C5F0 PUSH1 0x0 DUP7 PUSH1 0x40 MLOAD PUSH2 0x80D SWAP3 SWAP2 SWAP1 PUSH2 0x195E JUMP JUMPDEST PUSH1 0x40 MLOAD DUP1 SWAP2 SUB SWAP1 LOG3 DUP1 PUSH32 0x11A3517410D399D687A3DAC00C28EF32FFEA27E8991A0D4D2283382878B118F6 PUSH1 0x1 PUSH1 0x40 MLOAD PUSH2 0x846 SWAP2 SWAP1 PUSH2 0x1979 JUMP JUMPDEST PUSH1 0x40 MLOAD DUP1 SWAP2 SUB SWAP1 LOG2 POP POP PUSH1 0x0 DUP1 SLOAD PUSH1 0xFF PUSH1 0xA0 SHL NOT AND SWAP1 SSTORE POP POP JUMP JUMPDEST PUSH1 0x3 PUSH1 0x20 MSTORE DUP2 PUSH1 0x0 MSTORE PUSH1 0x40 PUSH1 0x0 KECCAK256 DUP2 DUP2 SLOAD DUP2 LT PUSH2 0x87D JUMPI PUSH1 0x0 DUP1 REVERT JUMPDEST SWAP1 PUSH1 0x0 MSTORE PUSH1 0x20 PUSH1 0x0 KECCAK256 ADD PUSH1 0x0 SWAP2 POP SWAP2 POP POP SLOAD DUP2 JUMP JUMPDEST PUSH1 0x1 PUSH1 0x20 DUP2 SWAP1 MSTORE PUSH1 0x0 SWAP2 DUP3 MSTORE PUSH1 0x40 SWAP1 SWAP2 KECCAK256 DUP1 SLOAD SWAP2 DUP2 ADD SLOAD PUSH1 0x2 DUP3 ADD SLOAD PUSH1 0x3 DUP4 ADD DUP1 SLOAD PUSH1 0x1 PUSH1 0x1 PUSH1 0xA0 SHL SUB DUP5 AND SWAP5 PUSH1 0x1 PUSH1 0xA0 SHL SWAP1 SWAP5 DIV PUSH1 0xFF AND SWAP4 SWAP2 SWAP1 PUSH2 0x8D6 SWAP1 PUSH2 0x1816 JUMP JUMPDEST DUP1 PUSH1 0x1F ADD PUSH1 0x20 DUP1 SWAP2 DIV MUL PUSH1 0x20 ADD PUSH1 0x40 MLOAD SWAP1 DUP2 ADD PUSH1 0x40 MSTORE DUP1 SWAP3 SWAP2 SWAP1 DUP2 DUP2 MSTORE PUSH1 0x20 ADD DUP3 DUP1 SLOAD PUSH2 0x902 SWAP1 PUSH2 0x1816 JUMP JUMPDEST DUP1 ISZERO PUSH2 0x94F JUMPI DUP1 PUSH1 0x1F LT PUSH2 0x924 JUMPI PUSH2 0x100 DUP1 DUP4 SLOAD DIV MUL DUP4 MSTORE SWAP2 PUSH1 0x20 ADD SWAP2 PUSH2 0x94F JUMP JUMPDEST DUP3 ADD SWAP2 SWAP1 PUSH1 0x0 MSTORE PUSH1 0x20 PUSH1 0x0 KECCAK256 SWAP1 JUMPDEST DUP2 SLOAD DUP2 MSTORE SWAP1 PUSH1 0x1 ADD SWAP1 PUSH1 0x20 ADD DUP1 DUP4 GT PUSH2 0x932 JUMPI DUP3 SWAP1 SUB PUSH1 0x1F AND DUP3 ADD SWAP2 JUMPDEST POP POP POP POP PUSH1 0x4 DUP4 ADD SLOAD PUSH1 0x5 SWAP1 SWAP4 ADD SLOAD SWAP2 SWAP3 PUSH1 0xFF AND SWAP2 SWAP1 POP DUP8 JUMP JUMPDEST PUSH1 0x1 PUSH1 0x1 PUSH1 0xA0 SHL SUB DUP2 AND PUSH1 0x0 SWAP1 DUP2 MSTORE PUSH1 0x3 PUSH1 0x20 SWAP1 DUP2 MSTORE PUSH1 0x40 DUP1 DUP4 KECCAK256 DUP1 SLOAD DUP3 MLOAD DUP2 DUP6 MUL DUP2 ADD DUP6 ADD SWAP1 SWAP4 MSTORE DUP1 DUP4 MSTORE PUSH1 0x60 SWAP5 SWAP4 DUP4 ADD DUP3 DUP3 DUP1 ISZERO PUSH2 0x9C8 JUMPI PUSH1 0x20 MUL DUP3 ADD SWAP2 SWAP1 PUSH1 0x0 MSTORE PUSH1 0x20 PUSH1 0x0 KECCAK256 SWAP1 JUMPDEST DUP2 SLOAD DUP2 MSTORE PUSH1 0x20 ADD SWAP1 PUSH1 0x1 ADD SWAP1 DUP1 DUP4 GT PUSH2 0x9B4 JUMPI JUMPDEST POP POP POP POP POP SWAP1 POP PUSH1 0x0 DUP2 MLOAD PUSH8 0xFFFFFFFFFFFFFFFF DUP2 GT ISZERO PUSH2 0x9EB JUMPI PUSH2 0x9EB PUSH2 0x166D JUMP JUMPDEST PUSH1 0x40 MLOAD SWAP1 DUP1 DUP3 MSTORE DUP1 PUSH1 0x20 MUL PUSH1 0x20 ADD DUP3 ADD PUSH1 0x40 MSTORE DUP1 ISZERO PUSH2 0xA51 JUMPI DUP2 PUSH1 0x20 ADD JUMPDEST PUSH1 0x40 DUP1 MLOAD PUSH1 0xE0 DUP2 ADD DUP3 MSTORE PUSH1 0x0 DUP1 DUP3 MSTORE PUSH1 0x20 DUP1 DUP4 ADD DUP3 SWAP1 MSTORE SWAP3 DUP3 ADD DUP2 SWAP1 MSTORE PUSH1 0x60 DUP1 DUP4 ADD DUP3 SWAP1 MSTORE PUSH1 0x80 DUP4 ADD MSTORE PUSH1 0xA0 DUP3 ADD DUP2 SWAP1 MSTORE PUSH1 0xC0 DUP3 ADD MSTORE DUP3 MSTORE PUSH1 0x0 NOT SWAP1 SWAP3 ADD SWAP2 ADD DUP2 PUSH2 0xA09 JUMPI SWAP1 POP JUMPDEST POP SWAP1 POP PUSH1 0x0 JUMPDEST DUP3 MLOAD DUP2 LT ISZERO PUSH2 0xBE9 JUMPI PUSH1 0x1 PUSH1 0x0 DUP5 DUP4 DUP2 MLOAD DUP2 LT PUSH2 0xA76 JUMPI PUSH2 0xA76 PUSH2 0x1987 JUMP JUMPDEST PUSH1 0x20 SWAP1 DUP2 MUL SWAP2 SWAP1 SWAP2 ADD DUP2 ADD MLOAD DUP3 MSTORE DUP2 DUP2 ADD SWAP3 SWAP1 SWAP3 MSTORE PUSH1 0x40 SWAP1 DUP2 ADD PUSH1 0x0 KECCAK256 DUP2 MLOAD PUSH1 0xE0 DUP2 ADD DUP4 MSTORE DUP2 SLOAD DUP2 MSTORE PUSH1 0x1 DUP3 ADD SLOAD PUSH1 0x1 PUSH1 0x1 PUSH1 0xA0 SHL SUB DUP2 AND SWAP5 DUP3 ADD SWAP5 SWAP1 SWAP5 MSTORE SWAP3 SWAP1 SWAP2 DUP4 ADD SWAP1 PUSH1 0x1 PUSH1 0xA0 SHL SWAP1 DIV PUSH1 0xFF AND PUSH1 0x3 DUP2 GT ISZERO PUSH2 0xAD6 JUMPI PUSH2 0xAD6 PUSH2 0x1421 JUMP JUMPDEST PUSH1 0x3 DUP2 GT ISZERO PUSH2 0xAE7 JUMPI PUSH2 0xAE7 PUSH2 0x1421 JUMP JUMPDEST DUP2 MSTORE PUSH1 0x20 ADD PUSH1 0x2 DUP3 ADD SLOAD DUP2 MSTORE PUSH1 0x20 ADD PUSH1 0x3 DUP3 ADD DUP1 SLOAD PUSH2 0xB05 SWAP1 PUSH2 0x1816 JUMP JUMPDEST DUP1 PUSH1 0x1F ADD PUSH1 0x20 DUP1 SWAP2 DIV MUL PUSH1 0x20 ADD PUSH1 0x40 MLOAD SWAP1 DUP2 ADD PUSH1 0x40 MSTORE DUP1 SWAP3 SWAP2 SWAP1 DUP2 DUP2 MSTORE PUSH1 0x20 ADD DUP3 DUP1 SLOAD PUSH2 0xB31 SWAP1 PUSH2 0x1816 JUMP JUMPDEST DUP1 ISZERO PUSH2 0xB7E JUMPI DUP1 PUSH1 0x1F LT PUSH2 0xB53 JUMPI PUSH2 0x100 DUP1 DUP4 SLOAD DIV MUL DUP4 MSTORE SWAP2 PUSH1 0x20 ADD SWAP2 PUSH2 0xB7E JUMP JUMPDEST DUP3 ADD SWAP2 SWAP1 PUSH1 0x0 MSTORE PUSH1 0x20 PUSH1 0x0 KECCAK256 SWAP1 JUMPDEST DUP2 SLOAD DUP2 MSTORE SWAP1 PUSH1 0x1 ADD SWAP1 PUSH1 0x20 ADD DUP1 DUP4 GT PUSH2 0xB61 JUMPI DUP3 SWAP1 SUB PUSH1 0x1F AND DUP3 ADD SWAP2 JUMPDEST POP POP POP SWAP2 DUP4 MSTORE POP POP PUSH1 0x4 DUP3 ADD SLOAD PUSH1 0x20 SWAP1 SWAP2 ADD SWAP1 PUSH1 0xFF AND PUSH1 0x2 DUP2 GT ISZERO PUSH2 0xBA5 JUMPI PUSH2 0xBA5 PUSH2 0x1421 JUMP JUMPDEST PUSH1 0x2 DUP2 GT ISZERO PUSH2 0xBB6 JUMPI PUSH2 0xBB6 PUSH2 0x1421 JUMP JUMPDEST DUP2 MSTORE PUSH1 0x20 ADD PUSH1 0x5 DUP3 ADD SLOAD DUP2 MSTORE POP POP DUP3 DUP3 DUP2 MLOAD DUP2 LT PUSH2 0xBD6 JUMPI PUSH2 0xBD6 PUSH2 0x1987 JUMP JUMPDEST PUSH1 0x20 SWAP1 DUP2 MUL SWAP2 SWAP1 SWAP2 ADD ADD MSTORE PUSH1 0x1 ADD PUSH2 0xA57 JUMP JUMPDEST POP SWAP4 SWAP3 POP POP POP JUMP JUMPDEST PUSH1 0x0 SLOAD PUSH1 0x40 MLOAD PUSH4 0x5692E5A1 PUSH1 0xE1 SHL DUP2 MSTORE CALLER PUSH1 0x4 DUP3 ADD MSTORE PUSH1 0x1 PUSH1 0x1 PUSH1 0xA0 SHL SUB SWAP1 SWAP2 AND SWAP1 PUSH4 0xAD25CB42 SWAP1 PUSH1 0x24 ADD PUSH1 0x20 PUSH1 0x40 MLOAD DUP1 DUP4 SUB DUP2 DUP7 GAS STATICCALL ISZERO DUP1 ISZERO PUSH2 0xC39 JUMPI RETURNDATASIZE PUSH1 0x0 DUP1 RETURNDATACOPY RETURNDATASIZE PUSH1 0x0 REVERT JUMPDEST POP POP POP POP PUSH1 0x40 MLOAD RETURNDATASIZE PUSH1 0x1F NOT PUSH1 0x1F DUP3 ADD AND DUP3 ADD DUP1 PUSH1 0x40 MSTORE POP DUP2 ADD SWAP1 PUSH2 0xC5D SWAP2 SWAP1 PUSH2 0x15E7 JUMP JUMPDEST PUSH2 0xC79 JUMPI PUSH1 0x40 MLOAD PUSH3 0x461BCD PUSH1 0xE5 SHL DUP2 MSTORE PUSH1 0x4 ADD PUSH2 0x21B SWAP1 PUSH2 0x1602 JUMP JUMPDEST PUSH1 0x0 SLOAD PUSH1 0x1 PUSH1 0xA0 SHL SWAP1 DIV PUSH1 0xFF AND ISZERO PUSH2 0xCC4 JUMPI PUSH1 0x40 MLOAD PUSH3 0x461BCD PUSH1 0xE5 SHL DUP2 MSTORE PUSH1 0x20 PUSH1 0x4 DUP3 ADD MSTORE PUSH1 0xE PUSH1 0x24 DUP3 ADD MSTORE PUSH14 0x1499595B9D1C985B9D0818D85B1B PUSH1 0x92 SHL PUSH1 0x44 DUP3 ADD MSTORE PUSH1 0x64 ADD PUSH2 0x21B JUMP JUMPDEST PUSH1 0x0 DUP1 SLOAD PUSH1 0xFF PUSH1 0xA0 SHL NOT AND PUSH1 0x1 PUSH1 0xA0 SHL OR DUP2 SSTORE DUP2 DUP2 MSTORE PUSH1 0x1 PUSH1 0x20 MSTORE PUSH1 0x40 DUP2 KECCAK256 DUP1 SLOAD SWAP1 SWAP2 SUB PUSH2 0xD2C JUMPI PUSH1 0x40 MLOAD PUSH3 0x461BCD PUSH1 0xE5 SHL DUP2 MSTORE PUSH1 0x20 PUSH1 0x4 DUP3 ADD MSTORE PUSH1 0x15 PUSH1 0x24 DUP3 ADD MSTORE PUSH21 0x151C985B9CD858DD1A5BDB881B9BDD08199BDD5B99 PUSH1 0x5A SHL PUSH1 0x44 DUP3 ADD MSTORE PUSH1 0x64 ADD PUSH2 0x21B JUMP JUMPDEST PUSH1 0x0 PUSH1 0x4 DUP3 ADD SLOAD PUSH1 0xFF AND PUSH1 0x2 DUP2 GT ISZERO PUSH2 0xD47 JUMPI PUSH2 0xD47 PUSH2 0x1421 JUMP JUMPDEST EQ PUSH2 0xD94 JUMPI PUSH1 0x40 MLOAD PUSH3 0x461BCD PUSH1 0xE5 SHL DUP2 MSTORE PUSH1 0x20 PUSH1 0x4 DUP3 ADD MSTORE PUSH1 0x17 PUSH1 0x24 DUP3 ADD MSTORE PUSH32 0x5472616E73616374696F6E206E6F742070656E64696E67000000000000000000 PUSH1 0x44 DUP3 ADD MSTORE PUSH1 0x64 ADD PUSH2 0x21B JUMP JUMPDEST PUSH1 0x0 DUP1 SLOAD PUSH1 0x1 DUP4 ADD SLOAD PUSH1 0x40 MLOAD PUSH4 0x27A92127 PUSH1 0xE0 SHL DUP2 MSTORE PUSH1 0x1 PUSH1 0x1 PUSH1 0xA0 SHL SUB SWAP2 DUP3 AND PUSH1 0x4 DUP3 ADD MSTORE SWAP2 AND SWAP1 PUSH4 0x27A92127 SWAP1 PUSH1 0x24 ADD PUSH1 0x0 PUSH1 0x40 MLOAD DUP1 DUP4 SUB DUP2 DUP7 GAS STATICCALL ISZERO DUP1 ISZERO PUSH2 0xDE3 JUMPI RETURNDATASIZE PUSH1 0x0 DUP1 RETURNDATACOPY RETURNDATASIZE PUSH1 0x0 REVERT JUMPDEST POP POP POP POP PUSH1 0x40 MLOAD RETURNDATASIZE PUSH1 0x0 DUP3 RETURNDATACOPY PUSH1 0x1F RETURNDATASIZE SWAP1 DUP2 ADD PUSH1 0x1F NOT AND DUP3 ADD PUSH1 0x40 MSTORE PUSH2 0xE0B SWAP2 SWAP1 DUP2 ADD SWAP1 PUSH2 0x1742 JUMP JUMPDEST SWAP1 POP PUSH1 0x3 PUSH1 0x1 DUP4 ADD SLOAD PUSH1 0x1 PUSH1 0xA0 SHL SWAP1 DIV PUSH1 0xFF AND PUSH1 0x3 DUP2 GT ISZERO PUSH2 0xE2F JUMPI PUSH2 0xE2F PUSH2 0x1421 JUMP JUMPDEST SUB PUSH2 0xEBC JUMPI DUP1 PUSH1 0x20 ADD MLOAD DUP3 PUSH1 0x2 ADD SLOAD DUP3 PUSH1 0x40 ADD MLOAD PUSH2 0xE4D SWAP2 SWAP1 PUSH2 0x199D JUMP JUMPDEST GT ISZERO PUSH2 0xE8D JUMPI PUSH1 0x40 MLOAD PUSH3 0x461BCD PUSH1 0xE5 SHL DUP2 MSTORE PUSH1 0x20 PUSH1 0x4 DUP3 ADD MSTORE PUSH1 0xF PUSH1 0x24 DUP3 ADD MSTORE PUSH15 0x109D5919D95D08195E18D959591959 PUSH1 0x8A SHL PUSH1 0x44 DUP3 ADD MSTORE PUSH1 0x64 ADD PUSH2 0x21B JUMP JUMPDEST PUSH1 0x1 DUP3 ADD SLOAD PUSH1 0x2 DUP4 ADD SLOAD PUSH2 0xEB7 SWAP2 PUSH1 0x1 PUSH1 0x1 PUSH1 0xA0 SHL SUB DUP2 AND SWAP2 PUSH1 0x1 PUSH1 0xA0 SHL SWAP1 SWAP2 DIV PUSH1 0xFF AND SWAP1 PUSH2 0x11AC JUMP JUMPDEST PUSH2 0xF73 JUMP JUMPDEST PUSH1 0x0 PUSH1 0x1 DUP4 ADD SLOAD PUSH1 0x1 PUSH1 0xA0 SHL SWAP1 DIV PUSH1 0xFF AND PUSH1 0x3 DUP2 GT ISZERO PUSH2 0xEDE JUMPI PUSH2 0xEDE PUSH2 0x1421 JUMP JUMPDEST SUB PUSH2 0xF73 JUMPI PUSH10 0x152D02C7E14AF6800000 DUP3 PUSH1 0x2 ADD SLOAD DUP3 PUSH1 0x20 ADD MLOAD PUSH2 0xF02 SWAP2 SWAP1 PUSH2 0x199D JUMP JUMPDEST GT ISZERO PUSH2 0xF49 JUMPI PUSH1 0x40 MLOAD PUSH3 0x461BCD PUSH1 0xE5 SHL DUP2 MSTORE PUSH1 0x20 PUSH1 0x4 DUP3 ADD MSTORE PUSH1 0x16 PUSH1 0x24 DUP3 ADD MSTORE PUSH22 0x22BC31B2B2B2399036B0BC1030B63637B1B0BA34B7B7 PUSH1 0x51 SHL PUSH1 0x44 DUP3 ADD MSTORE PUSH1 0x64 ADD PUSH2 0x21B JUMP JUMPDEST PUSH1 0x1 DUP3 ADD SLOAD PUSH1 0x2 DUP4 ADD SLOAD PUSH2 0xF73 SWAP2 PUSH1 0x1 PUSH1 0x1 PUSH1 0xA0 SHL SUB DUP2 AND SWAP2 PUSH1 0x1 PUSH1 0xA0 SHL SWAP1 SWAP2 DIV PUSH1 0xFF AND SWAP1 PUSH2 0x11AC JUMP JUMPDEST PUSH1 0x4 DUP3 ADD DUP1 SLOAD PUSH1 0xFF NOT AND PUSH1 0x1 SWAP1 DUP2 OR SWAP1 SWAP2 SSTORE PUSH1 0x40 MLOAD DUP5 SWAP2 PUSH32 0x11A3517410D399D687A3DAC00C28EF32FFEA27E8991A0D4D2283382878B118F6 SWAP2 PUSH2 0xFB6 SWAP2 SWAP1 PUSH2 0x1979 JUMP JUMPDEST PUSH1 0x40 MLOAD DUP1 SWAP2 SUB SWAP1 LOG2 POP POP PUSH1 0x0 DUP1 SLOAD PUSH1 0xFF PUSH1 0xA0 SHL NOT AND SWAP1 SSTORE POP JUMP JUMPDEST PUSH1 0x2 DUP1 SLOAD PUSH1 0x0 SWAP2 DUP3 PUSH2 0xFE1 DUP4 PUSH2 0x17FD JUMP JUMPDEST SWAP1 SWAP2 SSTORE POP POP PUSH1 0x2 SLOAD PUSH1 0x40 DUP1 MLOAD PUSH1 0xE0 DUP2 ADD DUP3 MSTORE DUP3 DUP2 MSTORE CALLER PUSH1 0x20 DUP3 ADD MSTORE SWAP1 DUP2 ADD DUP7 PUSH1 0x3 DUP2 GT ISZERO PUSH2 0x1011 JUMPI PUSH2 0x1011 PUSH2 0x1421 JUMP JUMPDEST DUP2 MSTORE PUSH1 0x20 DUP2 ADD DUP7 SWAP1 MSTORE PUSH1 0x40 DUP2 ADD DUP6 SWAP1 MSTORE PUSH1 0x60 ADD PUSH1 0x1 DUP2 MSTORE TIMESTAMP PUSH1 0x20 SWAP2 DUP3 ADD MSTORE PUSH1 0x0 DUP4 DUP2 MSTORE PUSH1 0x1 DUP1 DUP4 MSTORE PUSH1 0x40 SWAP2 DUP3 SWAP1 KECCAK256 DUP5 MLOAD DUP2 SSTORE SWAP3 DUP5 ADD MLOAD SWAP1 DUP4 ADD DUP1 SLOAD PUSH1 0x1 PUSH1 0x1 PUSH1 0xA0 SHL SUB SWAP1 SWAP3 AND PUSH1 0x1 PUSH1 0x1 PUSH1 0xA0 SHL SUB NOT DUP4 AND DUP2 OR DUP3 SSTORE SWAP3 DUP6 ADD MLOAD SWAP3 SWAP1 SWAP2 PUSH1 0x1 PUSH1 0x1 PUSH1 0xA8 SHL SUB NOT AND OR PUSH1 0x1 PUSH1 0xA0 SHL DUP4 PUSH1 0x3 DUP2 GT ISZERO PUSH2 0x108F JUMPI PUSH2 0x108F PUSH2 0x1421 JUMP JUMPDEST MUL OR SWAP1 SSTORE POP PUSH1 0x60 DUP3 ADD MLOAD PUSH1 0x2 DUP3 ADD SSTORE PUSH1 0x80 DUP3 ADD MLOAD PUSH1 0x3 DUP3 ADD SWAP1 PUSH2 0x10B2 SWAP1 DUP3 PUSH2 0x189F JUMP JUMPDEST POP PUSH1 0xA0 DUP3 ADD MLOAD PUSH1 0x4 DUP3 ADD DUP1 SLOAD PUSH1 0xFF NOT AND PUSH1 0x1 DUP4 PUSH1 0x2 DUP2 GT ISZERO PUSH2 0x10D6 JUMPI PUSH2 0x10D6 PUSH2 0x1421 JUMP JUMPDEST MUL OR SWAP1 SSTORE POP PUSH1 0xC0 SWAP2 SWAP1 SWAP2 ADD MLOAD PUSH1 0x5 SWAP1 SWAP2 ADD SSTORE CALLER PUSH1 0x0 DUP2 DUP2 MSTORE PUSH1 0x3 PUSH1 0x20 SWAP1 DUP2 MSTORE PUSH1 0x40 DUP1 DUP4 KECCAK256 DUP1 SLOAD PUSH1 0x1 DUP2 ADD DUP3 SSTORE SWAP1 DUP5 MSTORE DUP3 DUP5 KECCAK256 ADD DUP6 SWAP1 SSTORE SWAP3 DUP3 MSTORE PUSH1 0x4 SWAP1 MSTORE SWAP1 DUP2 KECCAK256 DUP1 SLOAD SWAP2 PUSH2 0x1122 DUP4 PUSH2 0x17FD JUMP JUMPDEST SWAP2 SWAP1 POP SSTORE POP CALLER PUSH1 0x1 PUSH1 0x1 PUSH1 0xA0 SHL SUB AND DUP2 PUSH32 0xC5617696B75E538ED738F904611FDFB78DFF557717F05C9EA38595041503C5F0 DUP8 DUP8 PUSH1 0x40 MLOAD PUSH2 0x1163 SWAP3 SWAP2 SWAP1 PUSH2 0x195E JUMP JUMPDEST PUSH1 0x40 MLOAD DUP1 SWAP2 SUB SWAP1 LOG3 DUP1 PUSH32 0x11A3517410D399D687A3DAC00C28EF32FFEA27E8991A0D4D2283382878B118F6 PUSH1 0x1 PUSH1 0x40 MLOAD PUSH2 0x119C SWAP2 SWAP1 PUSH2 0x1979 JUMP JUMPDEST PUSH1 0x40 MLOAD DUP1 SWAP2 SUB SWAP1 LOG2 SWAP5 SWAP4 POP POP POP POP JUMP JUMPDEST PUSH1 0x0 DUP1 SLOAD PUSH1 0x40 MLOAD PUSH4 0x27A92127 PUSH1 0xE0 SHL DUP2 MSTORE PUSH1 0x1 PUSH1 0x1 PUSH1 0xA0 SHL SUB DUP7 DUP2 AND PUSH1 0x4 DUP4 ADD MSTORE SWAP1 SWAP2 AND SWAP1 PUSH4 0x27A92127 SWAP1 PUSH1 0x24 ADD PUSH1 0x0 PUSH1 0x40 MLOAD DUP1 DUP4 SUB DUP2 DUP7 GAS STATICCALL ISZERO DUP1 ISZERO PUSH2 0x11F7 JUMPI RETURNDATASIZE PUSH1 0x0 DUP1 RETURNDATACOPY RETURNDATASIZE PUSH1 0x0 REVERT JUMPDEST POP POP POP POP PUSH1 0x40 MLOAD RETURNDATASIZE PUSH1 0x0 DUP3 RETURNDATACOPY PUSH1 0x1F RETURNDATASIZE SWAP1 DUP2 ADD PUSH1 0x1F NOT AND DUP3 ADD PUSH1 0x40 MSTORE PUSH2 0x121F SWAP2 SWAP1 DUP2 ADD SWAP1 PUSH2 0x1742 JUMP JUMPDEST PUSH1 0x40 DUP2 ADD MLOAD PUSH1 0x20 DUP3 ADD MLOAD SWAP2 SWAP3 POP SWAP1 PUSH1 0x3 DUP6 PUSH1 0x3 DUP2 GT ISZERO PUSH2 0x1241 JUMPI PUSH2 0x1241 PUSH2 0x1421 JUMP JUMPDEST SUB PUSH2 0x1257 JUMPI PUSH2 0x1250 DUP5 DUP4 PUSH2 0x199D JUMP JUMPDEST SWAP2 POP PUSH2 0x127D JUMP JUMPDEST PUSH1 0x0 DUP6 PUSH1 0x3 DUP2 GT ISZERO PUSH2 0x126B JUMPI PUSH2 0x126B PUSH2 0x1421 JUMP JUMPDEST SUB PUSH2 0x127D JUMPI PUSH2 0x127A DUP5 DUP3 PUSH2 0x199D JUMP JUMPDEST SWAP1 POP JUMPDEST PUSH1 0x0 PUSH2 0x1289 DUP4 DUP4 PUSH2 0x136F JUMP JUMPDEST PUSH1 0x0 SLOAD PUSH1 0x80 DUP7 ADD MLOAD PUSH1 0x40 MLOAD PUSH3 0xBACB0B PUSH1 0xE0 SHL DUP2 MSTORE PUSH1 0x1 PUSH1 0x1 PUSH1 0xA0 SHL SUB DUP12 DUP2 AND PUSH1 0x4 DUP4 ADD MSTORE PUSH1 0x24 DUP3 ADD DUP6 SWAP1 MSTORE PUSH1 0x44 DUP3 ADD SWAP3 SWAP1 SWAP3 MSTORE PUSH1 0x64 DUP2 ADD DUP8 SWAP1 MSTORE SWAP3 SWAP4 POP AND SWAP1 PUSH3 0xBACB0B SWAP1 PUSH1 0x84 ADD PUSH1 0x0 PUSH1 0x40 MLOAD DUP1 DUP4 SUB DUP2 PUSH1 0x0 DUP8 DUP1 EXTCODESIZE ISZERO DUP1 ISZERO PUSH2 0x12EA JUMPI PUSH1 0x0 DUP1 REVERT JUMPDEST POP GAS CALL ISZERO DUP1 ISZERO PUSH2 0x12FE JUMPI RETURNDATASIZE PUSH1 0x0 DUP1 RETURNDATACOPY RETURNDATASIZE PUSH1 0x0 REVERT JUMPDEST POP POP POP POP PUSH1 0x64 DUP3 PUSH1 0x5A PUSH2 0x1311 SWAP2 SWAP1 PUSH2 0x19B0 JUMP JUMPDEST PUSH2 0x131B SWAP2 SWAP1 PUSH2 0x19C7 JUMP JUMPDEST DUP4 LT PUSH2 0x1366 JUMPI PUSH1 0x40 DUP1 MLOAD DUP5 DUP2 MSTORE PUSH1 0x20 DUP2 ADD DUP5 SWAP1 MSTORE PUSH1 0x1 PUSH1 0x1 PUSH1 0xA0 SHL SUB DUP10 AND SWAP2 PUSH32 0xFA05E6C946B9B30D53EA35A0C06832056010F40D2686EBA05A629781030FA8C2 SWAP2 ADD PUSH1 0x40 MLOAD DUP1 SWAP2 SUB SWAP1 LOG2 JUMPDEST POP POP POP POP POP POP POP JUMP JUMPDEST PUSH1 0x0 DUP2 PUSH1 0x0 SUB PUSH2 0x1381 JUMPI POP PUSH1 0x0 PUSH2 0x139A JUMP JUMPDEST DUP2 PUSH2 0x138D DUP5 PUSH1 0x64 PUSH2 0x19B0 JUMP JUMPDEST PUSH2 0x1397 SWAP2 SWAP1 PUSH2 0x19C7 JUMP JUMPDEST SWAP1 POP JUMPDEST SWAP3 SWAP2 POP POP JUMP JUMPDEST PUSH1 0x1 PUSH1 0x1 PUSH1 0xA0 SHL SUB DUP2 AND DUP2 EQ PUSH2 0x13B5 JUMPI PUSH1 0x0 DUP1 REVERT JUMPDEST POP JUMP JUMPDEST PUSH1 0x0 DUP1 PUSH1 0x40 DUP4 DUP6 SUB SLT ISZERO PUSH2 0x13CB JUMPI PUSH1 0x0 DUP1 REVERT JUMPDEST DUP3 CALLDATALOAD PUSH2 0x13D6 DUP2 PUSH2 0x13A0 JUMP JUMPDEST SWAP5 PUSH1 0x20 SWAP4 SWAP1 SWAP4 ADD CALLDATALOAD SWAP4 POP POP POP JUMP JUMPDEST PUSH1 0x0 PUSH1 0x20 DUP3 DUP5 SUB SLT ISZERO PUSH2 0x13F6 JUMPI PUSH1 0x0 DUP1 REVERT JUMPDEST DUP2 CALLDATALOAD PUSH2 0x1401 DUP2 PUSH2 0x13A0 JUMP JUMPDEST SWAP4 SWAP3 POP POP POP JUMP JUMPDEST PUSH1 0x0 PUSH1 0x20 DUP3 DUP5 SUB SLT ISZERO PUSH2 0x141A JUMPI PUSH1 0x0 DUP1 REVERT JUMPDEST POP CALLDATALOAD SWAP2 SWAP1 POP JUMP JUMPDEST PUSH4 0x4E487B71 PUSH1 0xE0 SHL PUSH1 0x0 MSTORE PUSH1 0x21 PUSH1 0x4 MSTORE PUSH1 0x24 PUSH1 0x0 REVERT JUMPDEST PUSH1 0x4 DUP2 LT PUSH2 0x1447 JUMPI PUSH2 0x1447 PUSH2 0x1421 JUMP JUMPDEST SWAP1 MSTORE JUMP JUMPDEST PUSH1 0x0 JUMPDEST DUP4 DUP2 LT ISZERO PUSH2 0x1466 JUMPI DUP2 DUP2 ADD MLOAD DUP4 DUP3 ADD MSTORE PUSH1 0x20 ADD PUSH2 0x144E JUMP JUMPDEST POP POP PUSH1 0x0 SWAP2 ADD MSTORE JUMP JUMPDEST PUSH1 0x0 DUP2 MLOAD DUP1 DUP5 MSTORE PUSH2 0x1487 DUP2 PUSH1 0x20 DUP7 ADD PUSH1 0x20 DUP7 ADD PUSH2 0x144B JUMP JUMPDEST PUSH1 0x1F ADD PUSH1 0x1F NOT AND SWAP3 SWAP1 SWAP3 ADD PUSH1 0x20 ADD SWAP3 SWAP2 POP POP JUMP JUMPDEST PUSH1 0x3 DUP2 LT PUSH2 0x1447 JUMPI PUSH2 0x1447 PUSH2 0x1421 JUMP JUMPDEST DUP8 DUP2 MSTORE PUSH1 0x1 PUSH1 0x1 PUSH1 0xA0 SHL SUB DUP8 AND PUSH1 0x20 DUP3 ADD MSTORE PUSH2 0x14CA PUSH1 0x40 DUP3 ADD DUP8 PUSH2 0x1437 JUMP JUMPDEST DUP5 PUSH1 0x60 DUP3 ADD MSTORE PUSH1 0xE0 PUSH1 0x80 DUP3 ADD MSTORE PUSH1 0x0 PUSH2 0x14E6 PUSH1 0xE0 DUP4 ADD DUP7 PUSH2 0x146F JUMP JUMPDEST SWAP1 POP PUSH2 0x14F5 PUSH1 0xA0 DUP4 ADD DUP6 PUSH2 0x149B JUMP JUMPDEST DUP3 PUSH1 0xC0 DUP4 ADD MSTORE SWAP9 SWAP8 POP POP POP POP POP POP POP POP JUMP JUMPDEST PUSH1 0x0 PUSH1 0x20 DUP3 ADD PUSH1 0x20 DUP4 MSTORE DUP1 DUP5 MLOAD DUP1 DUP4 MSTORE PUSH1 0x40 DUP6 ADD SWAP2 POP PUSH1 0x40 DUP2 PUSH1 0x5 SHL DUP7 ADD ADD SWAP3 POP PUSH1 0x20 DUP7 ADD PUSH1 0x0 JUMPDEST DUP3 DUP2 LT ISZERO PUSH2 0x15C6 JUMPI DUP7 DUP6 SUB PUSH1 0x3F NOT ADD DUP5 MSTORE DUP2 MLOAD DUP1 MLOAD DUP7 MSTORE PUSH1 0x20 DUP1 DUP3 ADD MLOAD PUSH1 0x1 PUSH1 0x1 PUSH1 0xA0 SHL SUB AND SWAP1 DUP8 ADD MSTORE PUSH1 0x40 DUP1 DUP3 ADD MLOAD SWAP1 PUSH2 0x156C SWAP1 DUP9 ADD DUP3 PUSH2 0x1437 JUMP JUMPDEST POP PUSH1 0x60 DUP2 ADD MLOAD PUSH1 0x60 DUP8 ADD MSTORE PUSH1 0x80 DUP2 ADD MLOAD PUSH1 0xE0 PUSH1 0x80 DUP9 ADD MSTORE PUSH2 0x1590 PUSH1 0xE0 DUP9 ADD DUP3 PUSH2 0x146F JUMP JUMPDEST SWAP1 POP PUSH1 0xA0 DUP3 ADD MLOAD PUSH2 0x15A4 PUSH1 0xA0 DUP10 ADD DUP3 PUSH2 0x149B JUMP JUMPDEST POP PUSH1 0xC0 SWAP2 DUP3 ADD MLOAD SWAP7 SWAP1 SWAP2 ADD SWAP6 SWAP1 SWAP6 MSTORE PUSH1 0x20 SWAP4 DUP5 ADD SWAP4 SWAP2 SWAP1 SWAP2 ADD SWAP1 PUSH1 0x1 ADD PUSH2 0x152F JUMP JUMPDEST POP SWAP3 SWAP7 SWAP6 POP POP POP POP POP POP JUMP JUMPDEST DUP1 MLOAD DUP1 ISZERO ISZERO DUP2 EQ PUSH2 0x15E2 JUMPI PUSH1 0x0 DUP1 REVERT JUMPDEST SWAP2 SWAP1 POP JUMP JUMPDEST PUSH1 0x0 PUSH1 0x20 DUP3 DUP5 SUB SLT ISZERO PUSH2 0x15F9 JUMPI PUSH1 0x0 DUP1 REVERT JUMPDEST PUSH2 0x1397 DUP3 PUSH2 0x15D2 JUMP JUMPDEST PUSH1 0x20 DUP1 DUP3 MSTORE PUSH1 0xF SWAP1 DUP3 ADD MSTORE PUSH15 0x2737BA1039BAB832B91030B236B4B7 PUSH1 0x89 SHL PUSH1 0x40 DUP3 ADD MSTORE PUSH1 0x60 ADD SWAP1 JUMP JUMPDEST PUSH1 0x0 PUSH1 0x20 DUP3 DUP5 SUB SLT ISZERO PUSH2 0x163D JUMPI PUSH1 0x0 DUP1 REVERT JUMPDEST POP MLOAD SWAP2 SWAP1 POP JUMP JUMPDEST PUSH4 0x4E487B71 PUSH1 0xE0 SHL PUSH1 0x0 MSTORE PUSH1 0x11 PUSH1 0x4 MSTORE PUSH1 0x24 PUSH1 0x0 REVERT JUMPDEST DUP2 DUP2 SUB DUP2 DUP2 GT ISZERO PUSH2 0x139A JUMPI PUSH2 0x139A PUSH2 0x1644 JUMP JUMPDEST PUSH4 0x4E487B71 PUSH1 0xE0 SHL PUSH1 0x0 MSTORE PUSH1 0x41 PUSH1 0x4 MSTORE PUSH1 0x24 PUSH1 0x0 REVERT JUMPDEST PUSH1 0x40 MLOAD PUSH1 0xE0 DUP2 ADD PUSH8 0xFFFFFFFFFFFFFFFF DUP2 GT DUP3 DUP3 LT OR ISZERO PUSH2 0x16A6 JUMPI PUSH2 0x16A6 PUSH2 0x166D JUMP JUMPDEST PUSH1 0x40 MSTORE SWAP1 JUMP JUMPDEST PUSH1 0x0 DUP3 PUSH1 0x1F DUP4 ADD SLT PUSH2 0x16BD JUMPI PUSH1 0x0 DUP1 REVERT JUMPDEST DUP2 MLOAD PUSH8 0xFFFFFFFFFFFFFFFF DUP2 GT ISZERO PUSH2 0x16D7 JUMPI PUSH2 0x16D7 PUSH2 0x166D JUMP JUMPDEST PUSH1 0x40 MLOAD PUSH1 0x1F DUP3 ADD PUSH1 0x1F NOT SWAP1 DUP2 AND PUSH1 0x3F ADD AND DUP2 ADD PUSH8 0xFFFFFFFFFFFFFFFF DUP2 GT DUP3 DUP3 LT OR ISZERO PUSH2 0x1706 JUMPI PUSH2 0x1706 PUSH2 0x166D JUMP JUMPDEST PUSH1 0x40 MSTORE DUP2 DUP2 MSTORE DUP4 DUP3 ADD PUSH1 0x20 ADD DUP6 LT ISZERO PUSH2 0x171E JUMPI PUSH1 0x0 DUP1 REVERT JUMPDEST PUSH2 0x172F DUP3 PUSH1 0x20 DUP4 ADD PUSH1 0x20 DUP8 ADD PUSH2 0x144B JUMP JUMPDEST SWAP5 SWAP4 POP POP POP POP JUMP JUMPDEST DUP1 MLOAD PUSH2 0x15E2 DUP2 PUSH2 0x13A0 JUMP JUMPDEST PUSH1 0x0 PUSH1 0x20 DUP3 DUP5 SUB SLT ISZERO PUSH2 0x1754 JUMPI PUSH1 0x0 DUP1 REVERT JUMPDEST DUP2 MLOAD PUSH8 0xFFFFFFFFFFFFFFFF DUP2 GT ISZERO PUSH2 0x176B JUMPI PUSH1 0x0 DUP1 REVERT JUMPDEST DUP3 ADD PUSH1 0xE0 DUP2 DUP6 SUB SLT ISZERO PUSH2 0x177D JUMPI PUSH1 0x0 DUP1 REVERT JUMPDEST PUSH2 0x1785 PUSH2 0x1683 JUMP JUMPDEST DUP2 MLOAD PUSH8 0xFFFFFFFFFFFFFFFF DUP2 GT ISZERO PUSH2 0x179C JUMPI PUSH1 0x0 DUP1 REVERT JUMPDEST PUSH2 0x17A8 DUP7 DUP3 DUP6 ADD PUSH2 0x16AC JUMP JUMPDEST DUP3 MSTORE POP PUSH1 0x20 DUP3 DUP2 ADD MLOAD SWAP1 DUP3 ADD MSTORE PUSH1 0x40 DUP1 DUP4 ADD MLOAD SWAP1 DUP3 ADD MSTORE PUSH1 0x60 DUP1 DUP4 ADD MLOAD SWAP1 DUP3 ADD MSTORE PUSH1 0x80 DUP1 DUP4 ADD MLOAD SWAP1 DUP3 ADD MSTORE PUSH2 0x17DF PUSH1 0xA0 DUP4 ADD PUSH2 0x15D2 JUMP JUMPDEST PUSH1 0xA0 DUP3 ADD MSTORE PUSH2 0x17F0 PUSH1 0xC0 DUP4 ADD PUSH2 0x1737 JUMP JUMPDEST PUSH1 0xC0 DUP3 ADD MSTORE SWAP5 SWAP4 POP POP POP POP JUMP JUMPDEST PUSH1 0x0 PUSH1 0x1 DUP3 ADD PUSH2 0x180F JUMPI PUSH2 0x180F PUSH2 0x1644 JUMP JUMPDEST POP PUSH1 0x1 ADD SWAP1 JUMP JUMPDEST PUSH1 0x1 DUP2 DUP2 SHR SWAP1 DUP3 AND DUP1 PUSH2 0x182A JUMPI PUSH1 0x7F DUP3 AND SWAP2 POP JUMPDEST PUSH1 0x20 DUP3 LT DUP2 SUB PUSH2 0x184A JUMPI PUSH4 0x4E487B71 PUSH1 0xE0 SHL PUSH1 0x0 MSTORE PUSH1 0x22 PUSH1 0x4 MSTORE PUSH1 0x24 PUSH1 0x0 REVERT JUMPDEST POP SWAP2 SWAP1 POP JUMP JUMPDEST PUSH1 0x1F DUP3 GT ISZERO PUSH2 0x189A JUMPI DUP1 PUSH1 0x0 MSTORE PUSH1 0x20 PUSH1 0x0 KECCAK256 PUSH1 0x1F DUP5 ADD PUSH1 0x5 SHR DUP2 ADD PUSH1 0x20 DUP6 LT ISZERO PUSH2 0x1877 JUMPI POP DUP1 JUMPDEST PUSH1 0x1F DUP5 ADD PUSH1 0x5 SHR DUP3 ADD SWAP2 POP JUMPDEST DUP2 DUP2 LT ISZERO PUSH2 0x1897 JUMPI PUSH1 0x0 DUP2 SSTORE PUSH1 0x1 ADD PUSH2 0x1883 JUMP JUMPDEST POP POP JUMPDEST POP POP POP JUMP JUMPDEST DUP2 MLOAD PUSH8 0xFFFFFFFFFFFFFFFF DUP2 GT ISZERO PUSH2 0x18B9 JUMPI PUSH2 0x18B9 PUSH2 0x166D JUMP JUMPDEST PUSH2 0x18CD DUP2 PUSH2 0x18C7 DUP5 SLOAD PUSH2 0x1816 JUMP JUMPDEST DUP5 PUSH2 0x1850 JUMP JUMPDEST PUSH1 0x20 PUSH1 0x1F DUP3 GT PUSH1 0x1 DUP2 EQ PUSH2 0x1901 JUMPI PUSH1 0x0 DUP4 ISZERO PUSH2 0x18E9 JUMPI POP DUP5 DUP3 ADD MLOAD JUMPDEST PUSH1 0x0 NOT PUSH1 0x3 DUP6 SWAP1 SHL SHR NOT AND PUSH1 0x1 DUP5 SWAP1 SHL OR DUP5 SSTORE PUSH2 0x1897 JUMP JUMPDEST PUSH1 0x0 DUP5 DUP2 MSTORE PUSH1 0x20 DUP2 KECCAK256 PUSH1 0x1F NOT DUP6 AND SWAP2 JUMPDEST DUP3 DUP2 LT ISZERO PUSH2 0x1931 JUMPI DUP8 DUP6 ADD MLOAD DUP3 SSTORE PUSH1 0x20 SWAP5 DUP6 ADD SWAP5 PUSH1 0x1 SWAP1 SWAP3 ADD SWAP2 ADD PUSH2 0x1911 JUMP JUMPDEST POP DUP5 DUP3 LT ISZERO PUSH2 0x194F JUMPI DUP7 DUP5 ADD MLOAD PUSH1 0x0 NOT PUSH1 0x3 DUP8 SWAP1 SHL PUSH1 0xF8 AND SHR NOT AND DUP2 SSTORE JUMPDEST POP POP POP POP PUSH1 0x1 SWAP1 DUP2 SHL ADD SWAP1 SSTORE POP JUMP JUMPDEST PUSH1 0x40 DUP2 ADD PUSH2 0x196C DUP3 DUP6 PUSH2 0x1437 JUMP JUMPDEST DUP3 PUSH1 0x20 DUP4 ADD MSTORE SWAP4 SWAP3 POP POP POP JUMP JUMPDEST PUSH1 0x20 DUP2 ADD PUSH2 0x139A DUP3 DUP5 PUSH2 0x149B JUMP JUMPDEST PUSH4 0x4E487B71 PUSH1 0xE0 SHL PUSH1 0x0 MSTORE PUSH1 0x32 PUSH1 0x4 MSTORE PUSH1 0x24 PUSH1 0x0 REVERT JUMPDEST DUP1 DUP3 ADD DUP1 DUP3 GT ISZERO PUSH2 0x139A JUMPI PUSH2 0x139A PUSH2 0x1644 JUMP JUMPDEST DUP1 DUP3 MUL DUP2 ISZERO DUP3 DUP3 DIV DUP5 EQ OR PUSH2 0x139A JUMPI PUSH2 0x139A PUSH2 0x1644 JUMP JUMPDEST PUSH1 0x0 DUP3 PUSH2 0x19E4 JUMPI PUSH4 0x4E487B71 PUSH1 0xE0 SHL PUSH1 0x0 MSTORE PUSH1 0x12 PUSH1 0x4 MSTORE PUSH1 0x24 PUSH1 0x0 REVERT JUMPDEST POP DIV SWAP1 JUMP INVALID LOG2 PUSH5 0x6970667358 0x22 SLT KECCAK256 CODECOPY SWAP13 BYTE TSTORE PUSH12 0x5A5EFD87C1489B73F7F6DAE6 LT 0xCE PUSH21 0xE2FB096B935F02DF1245FABB64736F6C634300081C STOP CALLER "},"methodIdentifiers":{"departmentRegistry()":"261b3e49","departmentTransactionCount(address)":"680c09b5","departmentTransactions(address,uint256)":"35c7bf9e","getTransactionsByDepartment(address)":"b5ddbda8","initializeDepartmentBudget(address,uint256)":"1c434df0","processTransaction(uint256)":"f0066f83","transactionCount()":"b77bf600","transactions(uint256)":"9ace38c2","updateDepartmentBudget(address,uint256)":"0d11506c"}}}}}