{"contracts/ProposalManager.sol":{"ProposalManager":{"abi":[{"inputs":[{"internalType":"address","name":"_departmentRegistry","type":"address"}],"stateMutability":"nonpayable","type":"constructor"},{"anonymous":false,"inputs":[{"indexed":true,"internalType":"uint256","name":"proposalId","type":"uint256"},{"indexed":true,"internalType":"address","name":"commenter","type":"address"},{"indexed":false,"internalType":"string","name":"comment","type":"string"}],"name":"CommentAdded","type":"event"},{"anonymous":false,"inputs":[{"indexed":true,"internalType":"uint256","name":"id","type":"uint256"},{"indexed":false,"internalType":"enum ProposalManager.ProposalStatus","name":"status","type":"uint8"},{"indexed":false,"internalType":"address","name":"reviewer","type":"address"}],"name":"ProposalReviewed","type":"event"},{"anonymous":false,"inputs":[{"indexed":true,"internalType":"uint256","name":"id","type":"uint256"},{"indexed":true,"internalType":"address","name":"department","type":"address"},{"indexed":false,"internalType":"uint256","name":"amount","type":"uint256"}],"name":"ProposalSubmitted","type":"event"},{"inputs":[{"internalType":"uint256","name":"proposalId","type":"uint256"},{"internalType":"string","name":"comment","type":"string"}],"name":"addProposalComment","outputs":[],"stateMutability":"nonpayable","type":"function"},{"inputs":[{"internalType":"address","name":"","type":"address"},{"internalType":"uint256","name":"","type":"uint256"}],"name":"departmentProposals","outputs":[{"internalType":"uint256","name":"","type":"uint256"}],"stateMutability":"view","type":"function"},{"inputs":[],"name":"departmentRegistry","outputs":[{"internalType":"contract IDepartmentRegistry","name":"","type":"address"}],"stateMutability":"view","type":"function"},{"inputs":[{"internalType":"uint256","name":"proposalId","type":"uint256"}],"name":"getProposalComments","outputs":[{"components":[{"internalType":"address","name":"commenter","type":"address"},{"internalType":"string","name":"comment","type":"string"},{"internalType":"uint256","name":"timestamp","type":"uint256"}],"internalType":"struct ProposalManager.ProposalComment[]","name":"","type":"tuple[]"}],"stateMutability":"view","type":"function"},{"inputs":[{"internalType":"address","name":"department","type":"address"}],"name":"getProposalsByDepartment","outputs":[{"components":[{"internalType":"uint256","name":"id","type":"uint256"},{"internalType":"address","name":"department","type":"address"},{"internalType":"string","name":"title","type":"string"},{"internalType":"uint256","name":"amount","type":"uint256"},{"internalType":"string","name":"description","type":"string"},{"internalType":"enum ProposalManager.ProposalStatus","name":"status","type":"uint8"},{"internalType":"uint256","name":"submittedDate","type":"uint256"},{"internalType":"uint256","name":"reviewedDate","type":"uint256"},{"internalType":"address","name":"reviewedBy","type":"address"},{"internalType":"string","name":"category","type":"string"}],"internalType":"struct ProposalManager.Proposal[]","name":"","type":"tuple[]"}],"stateMutability":"view","type":"function"},{"inputs":[{"internalType":"address","name":"department","type":"address"}],"name":"initializeDepartmentProposals","outputs":[],"stateMutability":"nonpayable","type":"function"},{"inputs":[{"internalType":"uint256","name":"","type":"uint256"},{"internalType":"uint256","name":"","type":"uint256"}],"name":"proposalComments","outputs":[{"internalType":"address","name":"commenter","type":"address"},{"internalType":"string","name":"comment","type":"string"},{"internalType":"uint256","name":"timestamp","type":"uint256"}],"stateMutability":"view","type":"function"},{"inputs":[],"name":"proposalCount","outputs":[{"internalType":"uint256","name":"","type":"uint256"}],"stateMutability":"view","type":"function"},{"inputs":[{"internalType":"uint256","name":"","type":"uint256"}],"name":"proposals","outputs":[{"internalType":"uint256","name":"id","type":"uint256"},{"internalType":"address","name":"department","type":"address"},{"internalType":"string","name":"title","type":"string"},{"internalType":"uint256","name":"amount","type":"uint256"},{"internalType":"string","name":"description","type":"string"},{"internalType":"enum ProposalManager.ProposalStatus","name":"status","type":"uint8"},{"internalType":"uint256","name":"submittedDate","type":"uint256"},{"internalType":"uint256","name":"reviewedDate","type":"uint256"},{"internalType":"address","name":"reviewedBy","type":"address"},{"internalType":"string","name":"category","type":"string"}],"stateMutability":"view","type":"function"},{"inputs":[{"internalType":"uint256","name":"proposalId","type":"uint256"},{"internalType":"enum ProposalManager.ProposalStatus","name":"newStatus","type":"uint8"}],"name":"reviewProposal","outputs":[],"stateMutability":"nonpayable","type":"function"},{"inputs":[{"internalType":"string","name":"title","type":"string"},{"internalType":"uint256","name":"amount","type":"uint256"},{"internalType":"string","name":"description","type":"string"},{"internalType":"string","name":"category","type":"string"}],"name":"submitProposal","outputs":[{"internalType":"uint256","name":"","type":"uint256"}],"stateMutability":"nonpayable","type":"function"}],"evm":{"bytecode":{"linkReferences":{},"object":"6080604052348015600f57600080fd5b50604051611d41380380611d41833981016040819052602c916050565b600080546001600160a01b0319166001600160a01b0392909216919091179055607e565b600060208284031215606157600080fd5b81516001600160a01b0381168114607757600080fd5b9392505050565b611cb48061008d6000396000f3fe608060405234801561001057600080fd5b50600436106100a95760003560e01c806383316752116100715780638331675214610154578063a708058114610174578063c05f410414610187578063da35c664146101a7578063e4f25b2b146101b0578063f61736f4146101c357600080fd5b8063013cf08b146100ae5780630fdcdf7a146100e0578063261b3e49146101015780633870c4cf1461012c578063488680f31461013f575b600080fd5b6100c16100bc366004611396565b6101e5565b6040516100d79a99989796959493929190611437565b60405180910390f35b6100f36100ee3660046115b9565b6103e7565b6040519081526020016100d7565b600054610114906001600160a01b031681565b6040516001600160a01b0390911681526020016100d7565b6100f361013a36600461166f565b6107d7565b61015261014d36600461169b565b610808565b005b61016761016236600461169b565b61097f565b6040516100d791906116bf565b6101526101823660046117dc565b610d04565b61019a610195366004611396565b610ea0565b6040516100d79190611823565b6100f360045481565b6101526101be3660046118a9565b610fc4565b6101d66101d13660046118dd565b6111ea565b6040516100d7939291906118ff565b60016020819052600091825260409091208054918101546002820180546001600160a01b03909216929161021890611933565b80601f016020809104026020016040519081016040528092919081815260200182805461024490611933565b80156102915780601f1061026657610100808354040283529160200191610291565b820191906000526020600020905b81548152906001019060200180831161027457829003601f168201915b5050505050908060030154908060040180546102ac90611933565b80601f01602080910402602001604051908101604052809291908181526020018280546102d890611933565b80156103255780601f106102fa57610100808354040283529160200191610325565b820191906000526020600020905b81548152906001019060200180831161030857829003601f168201915b5050506005840154600685015460078601546008870154600988018054979860ff909516979396509194506001600160a01b0316929161036490611933565b80601f016020809104026020016040519081016040528092919081815260200182805461039090611933565b80156103dd5780601f106103b2576101008083540402835291602001916103dd565b820191906000526020600020905b8154815290600101906020018083116103c057829003601f168201915b505050505090508a565b6000805460405163266ebeb160e21b81523360048201526001600160a01b03909116906399bafac490602401602060405180830381865afa158015610430573d6000803e3d6000fd5b505050506040513d601f19601f820116820180604052508101906104549190611982565b61049b5760405162461bcd60e51b8152602060048201526013602482015272139bdd0819195c185c9d1b595b9d081a195859606a1b60448201526064015b60405180910390fd5b600054600160a01b900460ff16156104e65760405162461bcd60e51b815260206004820152600e60248201526d1499595b9d1c985b9d0818d85b1b60921b6044820152606401610492565b6000805460ff60a01b1916600160a01b17905583806105475760405162461bcd60e51b815260206004820152601760248201527f416d6f756e74206d75737420626520706f7369746976650000000000000000006044820152606401610492565b600080546040516327a9212760e01b81523360048201526001600160a01b03909116906327a9212790602401600060405180830381865afa158015610590573d6000803e3d6000fd5b505050506040513d6000823e601f3d908101601f191682016040526105b891908101906119f5565b9050806040015181602001516105ce9190611ac6565b8611156106135760405162461bcd60e51b8152602060048201526013602482015272125b9cdd59999a58da595b9d08189d5919d95d606a1b6044820152606401610492565b6004805490600061062383611adf565b909155505060045460408051610140810182528281523360208083019182528284018c8152606084018c9052608084018b9052600060a085018190524260c086015260e08501819052610100850181905261012085018b90528681526001928390529490942083518155915190820180546001600160a01b0319166001600160a01b03909216919091179055915190919060028201906106c39082611b47565b5060608201516003820155608082015160048201906106e29082611b47565b5060a082015160058201805460ff19166001836003811115610706576107066113ff565b021790555060c0820151600682015560e082015160078201556101008201516008820180546001600160a01b0319166001600160a01b03909216919091179055610120820151600982019061075b9082611b47565b5050336000818152600360209081526040808320805460018101825590845291909220018490555190915082907f6595205dae276ce902b2ea66a70a1f42db62056854c3c4dba1e00ec5e2d56e3d906107b7908b815260200190565b60405180910390a36000805460ff60a01b19169055979650505050505050565b600360205281600052604060002081815481106107f357600080fd5b90600052602060002001600091509150505481565b600054604051635692e5a160e11b81523360048201526001600160a01b039091169063ad25cb4290602401602060405180830381865afa158015610850573d6000803e3d6000fd5b505050506040513d601f19601f820116820180604052508101906108749190611982565b6108905760405162461bcd60e51b815260040161049290611c06565b600054604051630cd29ba760e31b81526001600160a01b03838116600483015290911690636694dd3890602401600060405180830381865afa1580156108da573d6000803e3d6000fd5b505050506040513d6000823e601f3d908101601f1916820160405261090291908101906119f5565b60a0015161094a5760405162461bcd60e51b81526020600482015260156024820152744465706172746d656e74206e6f742061637469766560581b6044820152606401610492565b60408051600080825260208083018085526001600160a01b03861683526003909152929020905161097b92906112c0565b5050565b6001600160a01b03811660009081526003602090815260408083208054825181850281018501909352808352606094938301828280156109de57602002820191906000526020600020905b8154815260200190600101908083116109ca575b505050505090506000815167ffffffffffffffff811115610a0157610a016114cb565b604051908082528060200260200182016040528015610a3a57816020015b610a2761130b565b815260200190600190039081610a1f5790505b50905060005b8251811015610cfc5760016000848381518110610a5f57610a5f611c2f565b6020026020010151815260200190815260200160002060405180610140016040529081600082015481526020016001820160009054906101000a90046001600160a01b03166001600160a01b03166001600160a01b03168152602001600282018054610aca90611933565b80601f0160208091040260200160405190810160405280929190818152602001828054610af690611933565b8015610b435780601f10610b1857610100808354040283529160200191610b43565b820191906000526020600020905b815481529060010190602001808311610b2657829003601f168201915b5050505050815260200160038201548152602001600482018054610b6690611933565b80601f0160208091040260200160405190810160405280929190818152602001828054610b9290611933565b8015610bdf5780601f10610bb457610100808354040283529160200191610bdf565b820191906000526020600020905b815481529060010190602001808311610bc257829003601f168201915b5050509183525050600582015460209091019060ff166003811115610c0657610c066113ff565b6003811115610c1757610c176113ff565b8152600682015460208201526007820154604082015260088201546001600160a01b03166060820152600982018054608090920191610c5590611933565b80601f0160208091040260200160405190810160405280929190818152602001828054610c8190611933565b8015610cce5780601f10610ca357610100808354040283529160200191610cce565b820191906000526020600020905b815481529060010190602001808311610cb157829003601f168201915b505050505081525050828281518110610ce957610ce9611c2f565b6020908102919091010152600101610a40565b509392505050565b600054604051635692e5a160e11b81523360048201526001600160a01b039091169063ad25cb4290602401602060405180830381865afa158015610d4c573d6000803e3d6000fd5b505050506040513d601f19601f82011682018060405250810190610d709190611982565b610d8c5760405162461bcd60e51b815260040161049290611c06565b6000828152600160205260408120549003610dde5760405162461bcd60e51b8152602060048201526012602482015271141c9bdc1bdcd85b081b9bdd08199bdd5b9960721b6044820152606401610492565b60008281526002602090815260408083208151606081018352338152808401868152429382019390935281546001808201845592865293909420845160039094020180546001600160a01b0319166001600160a01b03909416939093178355905190820190610e4d9082611b47565b50604082015181600201555050336001600160a01b0316827fcc2d7dd2085ae6644799a42c0174adf9afc10a43f26db5eac3ddd1f96d1d64be83604051610e949190611c45565b60405180910390a35050565b606060026000838152602001908152602001600020805480602002602001604051908101604052809291908181526020016000905b82821015610fb957600084815260209081902060408051606081019091526003850290910180546001600160a01b031682526001810180549293919291840191610f1e90611933565b80601f0160208091040260200160405190810160405280929190818152602001828054610f4a90611933565b8015610f975780601f10610f6c57610100808354040283529160200191610f97565b820191906000526020600020905b815481529060010190602001808311610f7a57829003601f168201915b5050505050815260200160028201548152505081526020019060010190610ed5565b505050509050919050565b600054604051635692e5a160e11b81523360048201526001600160a01b039091169063ad25cb4290602401602060405180830381865afa15801561100c573d6000803e3d6000fd5b505050506040513d601f19601f820116820180604052508101906110309190611982565b61104c5760405162461bcd60e51b815260040161049290611c06565b600054600160a01b900460ff16156110975760405162461bcd60e51b815260206004820152600e60248201526d1499595b9d1c985b9d0818d85b1b60921b6044820152606401610492565b6000805460ff60a01b1916600160a01b17815582815260016020526040812080549091036110fc5760405162461bcd60e51b8152602060048201526012602482015271141c9bdc1bdcd85b081b9bdd08199bdd5b9960721b6044820152606401610492565b6000600582015460ff166003811115611117576111176113ff565b1461115b5760405162461bcd60e51b815260206004820152601460248201527350726f706f73616c206e6f742070656e64696e6760601b6044820152606401610492565b60058101805483919060ff1916600183600381111561117c5761117c6113ff565b02179055504260078201556008810180546001600160a01b0319163390811790915560405184917fef0d88bbaeb4891d8e9303afd9d553f2807df5898cedf46c37ec9feba34741d3916111d0918691611c58565b60405180910390a250506000805460ff60a01b1916905550565b6002602052816000526040600020818154811061120657600080fd5b6000918252602090912060039091020180546001820180546001600160a01b03909216945091925061123790611933565b80601f016020809104026020016040519081016040528092919081815260200182805461126390611933565b80156112b05780601f10611285576101008083540402835291602001916112b0565b820191906000526020600020905b81548152906001019060200180831161129357829003601f168201915b5050505050908060020154905083565b8280548282559060005260206000209081019282156112fb579160200282015b828111156112fb5782518255916020019190600101906112e0565b50611307929150611381565b5090565b6040518061014001604052806000815260200160006001600160a01b0316815260200160608152602001600081526020016060815260200160006003811115611356576113566113ff565b8152602001600081526020016000815260200160006001600160a01b03168152602001606081525090565b5b808211156113075760008155600101611382565b6000602082840312156113a857600080fd5b5035919050565b60005b838110156113ca5781810151838201526020016113b2565b50506000910152565b600081518084526113eb8160208601602086016113af565b601f01601f19169290920160200192915050565b634e487b7160e01b600052602160045260246000fd5b6004811061143357634e487b7160e01b600052602160045260246000fd5b9052565b8a81526001600160a01b038a166020820152610140604082018190526000906114629083018b6113d3565b896060840152828103608084015261147a818a6113d3565b905061148960a0840189611415565b60c0830187905260e083018690526001600160a01b0385166101008401528281036101208401526114ba81856113d3565b9d9c50505050505050505050505050565b634e487b7160e01b600052604160045260246000fd5b60405160e0810167ffffffffffffffff81118282101715611504576115046114cb565b60405290565b604051601f8201601f1916810167ffffffffffffffff81118282101715611533576115336114cb565b604052919050565b600067ffffffffffffffff821115611555576115556114cb565b50601f01601f191660200190565b600082601f83011261157457600080fd5b81356115876115828261153b565b61150a565b81815284602083860101111561159c57600080fd5b816020850160208301376000918101602001919091529392505050565b600080600080608085870312156115cf57600080fd5b843567ffffffffffffffff8111156115e657600080fd5b6115f287828801611563565b94505060208501359250604085013567ffffffffffffffff81111561161657600080fd5b61162287828801611563565b925050606085013567ffffffffffffffff81111561163f57600080fd5b61164b87828801611563565b91505092959194509250565b6001600160a01b038116811461166c57600080fd5b50565b6000806040838503121561168257600080fd5b823561168d81611657565b946020939093013593505050565b6000602082840312156116ad57600080fd5b81356116b881611657565b9392505050565b6000602082016020835280845180835260408501915060408160051b86010192506020860160005b828110156117d057603f19878603018452815180518652602081015161171860208801826001600160a01b03169052565b50604081015161014060408801526117346101408801826113d3565b9050606082015160608801526080820151878203608089015261175782826113d3565b91505060a082015161176c60a0890182611415565b5060c082015160c088015260e082015160e088015261010082015161179d6101008901826001600160a01b03169052565b5061012082015191508681036101208801526117b981836113d3565b9650505060209384019391909101906001016116e7565b50929695505050505050565b600080604083850312156117ef57600080fd5b82359150602083013567ffffffffffffffff81111561180d57600080fd5b61181985828601611563565b9150509250929050565b6000602082016020835280845180835260408501915060408160051b86010192506020860160005b828110156117d057868503603f19018452815180516001600160a01b03168652602080820151606091880182905290611886908801826113d3565b60409283015197909201969096529450602093840193919091019060010161184b565b600080604083850312156118bc57600080fd5b823591506020830135600481106118d257600080fd5b809150509250929050565b600080604083850312156118f057600080fd5b50508035926020909101359150565b6001600160a01b0384168152606060208201819052600090611923908301856113d3565b9050826040830152949350505050565b600181811c9082168061194757607f821691505b60208210810361196757634e487b7160e01b600052602260045260246000fd5b50919050565b8051801515811461197d57600080fd5b919050565b60006020828403121561199457600080fd5b6116b88261196d565b600082601f8301126119ae57600080fd5b81516119bc6115828261153b565b8181528460208386010111156119d157600080fd5b6119e28260208301602087016113af565b949350505050565b805161197d81611657565b600060208284031215611a0757600080fd5b815167ffffffffffffffff811115611a1e57600080fd5b820160e08185031215611a3057600080fd5b611a386114e1565b815167ffffffffffffffff811115611a4f57600080fd5b611a5b8682850161199d565b82525060208281015190820152604080830151908201526060808301519082015260808083015190820152611a9260a0830161196d565b60a0820152611aa360c083016119ea565b60c0820152949350505050565b634e487b7160e01b600052601160045260246000fd5b81810381811115611ad957611ad9611ab0565b92915050565b600060018201611af157611af1611ab0565b5060010190565b601f821115611b4257806000526020600020601f840160051c81016020851015611b1f5750805b601f840160051c820191505b81811015611b3f5760008155600101611b2b565b50505b505050565b815167ffffffffffffffff811115611b6157611b616114cb565b611b7581611b6f8454611933565b84611af8565b6020601f821160018114611ba95760008315611b915750848201515b600019600385901b1c1916600184901b178455611b3f565b600084815260208120601f198516915b82811015611bd95787850151825560209485019460019092019101611bb9565b5084821015611bf75786840151600019600387901b60f8161c191681555b50505050600190811b01905550565b6020808252600f908201526e2737ba1039bab832b91030b236b4b760891b604082015260600190565b634e487b7160e01b600052603260045260246000fd5b6020815260006116b860208301846113d3565b60408101611c668285611415565b6001600160a01b03929092166020919091015291905056fea264697066735822122046d02588c5c880b69be3172ca7b7552bdef4c34a37f9623068e8636a2550b6b664736f6c634300081c0033","opcodes":"PUSH1 0x80 PUSH1 0x40 MSTORE CALLVALUE DUP1 ISZERO PUSH1 0xF JUMPI PUSH1 0x0 DUP1 REVERT JUMPDEST POP PUSH1 0x40 MLOAD PUSH2 0x1D41 CODESIZE SUB DUP1 PUSH2 0x1D41 DUP4 CODECOPY DUP2 ADD PUSH1 0x40 DUP2 SWAP1 MSTORE PUSH1 0x2C SWAP2 PUSH1 0x50 JUMP JUMPDEST PUSH1 0x0 DUP1 SLOAD PUSH1 0x1 PUSH1 0x1 PUSH1 0xA0 SHL SUB NOT AND PUSH1 0x1 PUSH1 0x1 PUSH1 0xA0 SHL SUB SWAP3 SWAP1 SWAP3 AND SWAP2 SWAP1 SWAP2 OR SWAP1 SSTORE PUSH1 0x7E JUMP JUMPDEST PUSH1 0x0 PUSH1 0x20 DUP3 DUP5 SUB SLT ISZERO PUSH1 0x61 JUMPI PUSH1 0x0 DUP1 REVERT JUMPDEST DUP2 MLOAD PUSH1 0x1 PUSH1 0x1 PUSH1 0xA0 SHL SUB DUP2 AND DUP2 EQ PUSH1 0x77 JUMPI PUSH1 0x0 DUP1 REVERT JUMPDEST SWAP4 SWAP3 POP POP POP JUMP JUMPDEST PUSH2 0x1CB4 DUP1 PUSH2 0x8D PUSH1 0x0 CODECOPY PUSH1 0x0 RETURN INVALID PUSH1 0x80 PUSH1 0x40 MSTORE CALLVALUE DUP1 ISZERO PUSH2 0x10 JUMPI PUSH1 0x0 DUP1 REVERT JUMPDEST POP PUSH1 0x4 CALLDATASIZE LT PUSH2 0xA9 JUMPI PUSH1 0x0 CALLDATALOAD PUSH1 0xE0 SHR DUP1 PUSH4 0x83316752 GT PUSH2 0x71 JUMPI DUP1 PUSH4 0x83316752 EQ PUSH2 0x154 JUMPI DUP1 PUSH4 0xA7080581 EQ PUSH2 0x174 JUMPI DUP1 PUSH4 0xC05F4104 EQ PUSH2 0x187 JUMPI DUP1 PUSH4 0xDA35C664 EQ PUSH2 0x1A7 JUMPI DUP1 PUSH4 0xE4F25B2B EQ PUSH2 0x1B0 JUMPI DUP1 PUSH4 0xF61736F4 EQ PUSH2 0x1C3 JUMPI PUSH1 0x0 DUP1 REVERT JUMPDEST DUP1 PUSH4 0x13CF08B EQ PUSH2 0xAE JUMPI DUP1 PUSH4 0xFDCDF7A EQ PUSH2 0xE0 JUMPI DUP1 PUSH4 0x261B3E49 EQ PUSH2 0x101 JUMPI DUP1 PUSH4 0x3870C4CF EQ PUSH2 0x12C JUMPI DUP1 PUSH4 0x488680F3 EQ PUSH2 0x13F JUMPI JUMPDEST PUSH1 0x0 DUP1 REVERT JUMPDEST PUSH2 0xC1 PUSH2 0xBC CALLDATASIZE PUSH1 0x4 PUSH2 0x1396 JUMP JUMPDEST PUSH2 0x1E5 JUMP JUMPDEST PUSH1 0x40 MLOAD PUSH2 0xD7 SWAP11 SWAP10 SWAP9 SWAP8 SWAP7 SWAP6 SWAP5 SWAP4 SWAP3 SWAP2 SWAP1 PUSH2 0x1437 JUMP JUMPDEST PUSH1 0x40 MLOAD DUP1 SWAP2 SUB SWAP1 RETURN JUMPDEST PUSH2 0xF3 PUSH2 0xEE CALLDATASIZE PUSH1 0x4 PUSH2 0x15B9 JUMP JUMPDEST PUSH2 0x3E7 JUMP JUMPDEST PUSH1 0x40 MLOAD SWAP1 DUP2 MSTORE PUSH1 0x20 ADD PUSH2 0xD7 JUMP JUMPDEST PUSH1 0x0 SLOAD PUSH2 0x114 SWAP1 PUSH1 0x1 PUSH1 0x1 PUSH1 0xA0 SHL SUB AND DUP2 JUMP JUMPDEST PUSH1 0x40 MLOAD PUSH1 0x1 PUSH1 0x1 PUSH1 0xA0 SHL SUB SWAP1 SWAP2 AND DUP2 MSTORE PUSH1 0x20 ADD PUSH2 0xD7 JUMP JUMPDEST PUSH2 0xF3 PUSH2 0x13A CALLDATASIZE PUSH1 0x4 PUSH2 0x166F JUMP JUMPDEST PUSH2 0x7D7 JUMP JUMPDEST PUSH2 0x152 PUSH2 0x14D CALLDATASIZE PUSH1 0x4 PUSH2 0x169B JUMP JUMPDEST PUSH2 0x808 JUMP JUMPDEST STOP JUMPDEST PUSH2 0x167 PUSH2 0x162 CALLDATASIZE PUSH1 0x4 PUSH2 0x169B JUMP JUMPDEST PUSH2 0x97F JUMP JUMPDEST PUSH1 0x40 MLOAD PUSH2 0xD7 SWAP2 SWAP1 PUSH2 0x16BF JUMP JUMPDEST PUSH2 0x152 PUSH2 0x182 CALLDATASIZE PUSH1 0x4 PUSH2 0x17DC JUMP JUMPDEST PUSH2 0xD04 JUMP JUMPDEST PUSH2 0x19A PUSH2 0x195 CALLDATASIZE PUSH1 0x4 PUSH2 0x1396 JUMP JUMPDEST PUSH2 0xEA0 JUMP JUMPDEST PUSH1 0x40 MLOAD PUSH2 0xD7 SWAP2 SWAP1 PUSH2 0x1823 JUMP JUMPDEST PUSH2 0xF3 PUSH1 0x4 SLOAD DUP2 JUMP JUMPDEST PUSH2 0x152 PUSH2 0x1BE CALLDATASIZE PUSH1 0x4 PUSH2 0x18A9 JUMP JUMPDEST PUSH2 0xFC4 JUMP JUMPDEST PUSH2 0x1D6 PUSH2 0x1D1 CALLDATASIZE PUSH1 0x4 PUSH2 0x18DD JUMP JUMPDEST PUSH2 0x11EA JUMP JUMPDEST PUSH1 0x40 MLOAD PUSH2 0xD7 SWAP4 SWAP3 SWAP2 SWAP1 PUSH2 0x18FF JUMP JUMPDEST PUSH1 0x1 PUSH1 0x20 DUP2 SWAP1 MSTORE PUSH1 0x0 SWAP2 DUP3 MSTORE PUSH1 0x40 SWAP1 SWAP2 KECCAK256 DUP1 SLOAD SWAP2 DUP2 ADD SLOAD PUSH1 0x2 DUP3 ADD DUP1 SLOAD PUSH1 0x1 PUSH1 0x1 PUSH1 0xA0 SHL SUB SWAP1 SWAP3 AND SWAP3 SWAP2 PUSH2 0x218 SWAP1 PUSH2 0x1933 JUMP JUMPDEST DUP1 PUSH1 0x1F ADD PUSH1 0x20 DUP1 SWAP2 DIV MUL PUSH1 0x20 ADD PUSH1 0x40 MLOAD SWAP1 DUP2 ADD PUSH1 0x40 MSTORE DUP1 SWAP3 SWAP2 SWAP1 DUP2 DUP2 MSTORE PUSH1 0x20 ADD DUP3 DUP1 SLOAD PUSH2 0x244 SWAP1 PUSH2 0x1933 JUMP JUMPDEST DUP1 ISZERO PUSH2 0x291 JUMPI DUP1 PUSH1 0x1F LT PUSH2 0x266 JUMPI PUSH2 0x100 DUP1 DUP4 SLOAD DIV MUL DUP4 MSTORE SWAP2 PUSH1 0x20 ADD SWAP2 PUSH2 0x291 JUMP JUMPDEST DUP3 ADD SWAP2 SWAP1 PUSH1 0x0 MSTORE PUSH1 0x20 PUSH1 0x0 KECCAK256 SWAP1 JUMPDEST DUP2 SLOAD DUP2 MSTORE SWAP1 PUSH1 0x1 ADD SWAP1 PUSH1 0x20 ADD DUP1 DUP4 GT PUSH2 0x274 JUMPI DUP3 SWAP1 SUB PUSH1 0x1F AND DUP3 ADD SWAP2 JUMPDEST POP POP POP POP POP SWAP1 DUP1 PUSH1 0x3 ADD SLOAD SWAP1 DUP1 PUSH1 0x4 ADD DUP1 SLOAD PUSH2 0x2AC SWAP1 PUSH2 0x1933 JUMP JUMPDEST DUP1 PUSH1 0x1F ADD PUSH1 0x20 DUP1 SWAP2 DIV MUL PUSH1 0x20 ADD PUSH1 0x40 MLOAD SWAP1 DUP2 ADD PUSH1 0x40 MSTORE DUP1 SWAP3 SWAP2 SWAP1 DUP2 DUP2 MSTORE PUSH1 0x20 ADD DUP3 DUP1 SLOAD PUSH2 0x2D8 SWAP1 PUSH2 0x1933 JUMP JUMPDEST DUP1 ISZERO PUSH2 0x325 JUMPI DUP1 PUSH1 0x1F LT PUSH2 0x2FA JUMPI PUSH2 0x100 DUP1 DUP4 SLOAD DIV MUL DUP4 MSTORE SWAP2 PUSH1 0x20 ADD SWAP2 PUSH2 0x325 JUMP JUMPDEST DUP3 ADD SWAP2 SWAP1 PUSH1 0x0 MSTORE PUSH1 0x20 PUSH1 0x0 KECCAK256 SWAP1 JUMPDEST DUP2 SLOAD DUP2 MSTORE SWAP1 PUSH1 0x1 ADD SWAP1 PUSH1 0x20 ADD DUP1 DUP4 GT PUSH2 0x308 JUMPI DUP3 SWAP1 SUB PUSH1 0x1F AND DUP3 ADD SWAP2 JUMPDEST POP POP POP PUSH1 0x5 DUP5 ADD SLOAD PUSH1 0x6 DUP6 ADD SLOAD PUSH1 0x7 DUP7 ADD SLOAD PUSH1 0x8 DUP8 ADD SLOAD PUSH1 0x9 DUP9 ADD DUP1 SLOAD SWAP8 SWAP9 PUSH1 0xFF SWAP1 SWAP6 AND SWAP8 SWAP4 SWAP7 POP SWAP2 SWAP5 POP PUSH1 0x1 PUSH1 0x1 PUSH1 0xA0 SHL SUB AND SWAP3 SWAP2 PUSH2 0x364 SWAP1 PUSH2 0x1933 JUMP JUMPDEST DUP1 PUSH1 0x1F ADD PUSH1 0x20 DUP1 SWAP2 DIV MUL PUSH1 0x20 ADD PUSH1 0x40 MLOAD SWAP1 DUP2 ADD PUSH1 0x40 MSTORE DUP1 SWAP3 SWAP2 SWAP1 DUP2 DUP2 MSTORE PUSH1 0x20 ADD DUP3 DUP1 SLOAD PUSH2 0x390 SWAP1 PUSH2 0x1933 JUMP JUMPDEST DUP1 ISZERO PUSH2 0x3DD JUMPI DUP1 PUSH1 0x1F LT PUSH2 0x3B2 JUMPI PUSH2 0x100 DUP1 DUP4 SLOAD DIV MUL DUP4 MSTORE SWAP2 PUSH1 0x20 ADD SWAP2 PUSH2 0x3DD JUMP JUMPDEST DUP3 ADD SWAP2 SWAP1 PUSH1 0x0 MSTORE PUSH1 0x20 PUSH1 0x0 KECCAK256 SWAP1 JUMPDEST DUP2 SLOAD DUP2 MSTORE SWAP1 PUSH1 0x1 ADD SWAP1 PUSH1 0x20 ADD DUP1 DUP4 GT PUSH2 0x3C0 JUMPI DUP3 SWAP1 SUB PUSH1 0x1F AND DUP3 ADD SWAP2 JUMPDEST POP POP POP POP POP SWAP1 POP DUP11 JUMP JUMPDEST PUSH1 0x0 DUP1 SLOAD PUSH1 0x40 MLOAD PUSH4 0x266EBEB1 PUSH1 0xE2 SHL DUP2 MSTORE CALLER PUSH1 0x4 DUP3 ADD MSTORE PUSH1 0x1 PUSH1 0x1 PUSH1 0xA0 SHL SUB SWAP1 SWAP2 AND SWAP1 PUSH4 0x99BAFAC4 SWAP1 PUSH1 0x24 ADD PUSH1 0x20 PUSH1 0x40 MLOAD DUP1 DUP4 SUB DUP2 DUP7 GAS STATICCALL ISZERO DUP1 ISZERO PUSH2 0x430 JUMPI RETURNDATASIZE PUSH1 0x0 DUP1 RETURNDATACOPY RETURNDATASIZE PUSH1 0x0 REVERT JUMPDEST POP POP POP POP PUSH1 0x40 MLOAD RETURNDATASIZE PUSH1 0x1F NOT PUSH1 0x1F DUP3 ADD AND DUP3 ADD DUP1 PUSH1 0x40 MSTORE POP DUP2 ADD SWAP1 PUSH2 0x454 SWAP2 SWAP1 PUSH2 0x1982 JUMP JUMPDEST PUSH2 0x49B JUMPI PUSH1 0x40 MLOAD PUSH3 0x461BCD PUSH1 0xE5 SHL DUP2 MSTORE PUSH1 0x20 PUSH1 0x4 DUP3 ADD MSTORE PUSH1 0x13 PUSH1 0x24 DUP3 ADD MSTORE PUSH19 0x139BDD0819195C185C9D1B595B9D081A195859 PUSH1 0x6A SHL PUSH1 0x44 DUP3 ADD MSTORE PUSH1 0x64 ADD JUMPDEST PUSH1 0x40 MLOAD DUP1 SWAP2 SUB SWAP1 REVERT JUMPDEST PUSH1 0x0 SLOAD PUSH1 0x1 PUSH1 0xA0 SHL SWAP1 DIV PUSH1 0xFF AND ISZERO PUSH2 0x4E6 JUMPI PUSH1 0x40 MLOAD PUSH3 0x461BCD PUSH1 0xE5 SHL DUP2 MSTORE PUSH1 0x20 PUSH1 0x4 DUP3 ADD MSTORE PUSH1 0xE PUSH1 0x24 DUP3 ADD MSTORE PUSH14 0x1499595B9D1C985B9D0818D85B1B PUSH1 0x92 SHL PUSH1 0x44 DUP3 ADD MSTORE PUSH1 0x64 ADD PUSH2 0x492 JUMP JUMPDEST PUSH1 0x0 DUP1 SLOAD PUSH1 0xFF PUSH1 0xA0 SHL NOT AND PUSH1 0x1 PUSH1 0xA0 SHL OR SWAP1 SSTORE DUP4 DUP1 PUSH2 0x547 JUMPI PUSH1 0x40 MLOAD PUSH3 0x461BCD PUSH1 0xE5 SHL DUP2 MSTORE PUSH1 0x20 PUSH1 0x4 DUP3 ADD MSTORE PUSH1 0x17 PUSH1 0x24 DUP3 ADD MSTORE PUSH32 0x416D6F756E74206D75737420626520706F736974697665000000000000000000 PUSH1 0x44 DUP3 ADD MSTORE PUSH1 0x64 ADD PUSH2 0x492 JUMP JUMPDEST PUSH1 0x0 DUP1 SLOAD PUSH1 0x40 MLOAD PUSH4 0x27A92127 PUSH1 0xE0 SHL DUP2 MSTORE CALLER PUSH1 0x4 DUP3 ADD MSTORE PUSH1 0x1 PUSH1 0x1 PUSH1 0xA0 SHL SUB SWAP1 SWAP2 AND SWAP1 PUSH4 0x27A92127 SWAP1 PUSH1 0x24 ADD PUSH1 0x0 PUSH1 0x40 MLOAD DUP1 DUP4 SUB DUP2 DUP7 GAS STATICCALL ISZERO DUP1 ISZERO PUSH2 0x590 JUMPI RETURNDATASIZE PUSH1 0x0 DUP1 RETURNDATACOPY RETURNDATASIZE PUSH1 0x0 REVERT JUMPDEST POP POP POP POP PUSH1 0x40 MLOAD RETURNDATASIZE PUSH1 0x0 DUP3 RETURNDATACOPY PUSH1 0x1F RETURNDATASIZE SWAP1 DUP2 ADD PUSH1 0x1F NOT AND DUP3 ADD PUSH1 0x40 MSTORE PUSH2 0x5B8 SWAP2 SWAP1 DUP2 ADD SWAP1 PUSH2 0x19F5 JUMP JUMPDEST SWAP1 POP DUP1 PUSH1 0x40 ADD MLOAD DUP2 PUSH1 0x20 ADD MLOAD PUSH2 0x5CE SWAP2 SWAP1 PUSH2 0x1AC6 JUMP JUMPDEST DUP7 GT ISZERO PUSH2 0x613 JUMPI PUSH1 0x40 MLOAD PUSH3 0x461BCD PUSH1 0xE5 SHL DUP2 MSTORE PUSH1 0x20 PUSH1 0x4 DUP3 ADD MSTORE PUSH1 0x13 PUSH1 0x24 DUP3 ADD MSTORE PUSH19 0x125B9CDD59999A58DA595B9D08189D5919D95D PUSH1 0x6A SHL PUSH1 0x44 DUP3 ADD MSTORE PUSH1 0x64 ADD PUSH2 0x492 JUMP JUMPDEST PUSH1 0x4 DUP1 SLOAD SWAP1 PUSH1 0x0 PUSH2 0x623 DUP4 PUSH2 0x1ADF JUMP JUMPDEST SWAP1 SWAP2 SSTORE POP POP PUSH1 0x4 SLOAD PUSH1 0x40 DUP1 MLOAD PUSH2 0x140 DUP2 ADD DUP3 MSTORE DUP3 DUP2 MSTORE CALLER PUSH1 0x20 DUP1 DUP4 ADD SWAP2 DUP3 MSTORE DUP3 DUP5 ADD DUP13 DUP2 MSTORE PUSH1 0x60 DUP5 ADD DUP13 SWAP1 MSTORE PUSH1 0x80 DUP5 ADD DUP12 SWAP1 MSTORE PUSH1 0x0 PUSH1 0xA0 DUP6 ADD DUP2 SWAP1 MSTORE TIMESTAMP PUSH1 0xC0 DUP7 ADD MSTORE PUSH1 0xE0 DUP6 ADD DUP2 SWAP1 MSTORE PUSH2 0x100 DUP6 ADD DUP2 SWAP1 MSTORE PUSH2 0x120 DUP6 ADD DUP12 SWAP1 MSTORE DUP7 DUP2 MSTORE PUSH1 0x1 SWAP3 DUP4 SWAP1 MSTORE SWAP5 SWAP1 SWAP5 KECCAK256 DUP4 MLOAD DUP2 SSTORE SWAP2 MLOAD SWAP1 DUP3 ADD DUP1 SLOAD PUSH1 0x1 PUSH1 0x1 PUSH1 0xA0 SHL SUB NOT AND PUSH1 0x1 PUSH1 0x1 PUSH1 0xA0 SHL SUB SWAP1 SWAP3 AND SWAP2 SWAP1 SWAP2 OR SWAP1 SSTORE SWAP2 MLOAD SWAP1 SWAP2 SWAP1 PUSH1 0x2 DUP3 ADD SWAP1 PUSH2 0x6C3 SWAP1 DUP3 PUSH2 0x1B47 JUMP JUMPDEST POP PUSH1 0x60 DUP3 ADD MLOAD PUSH1 0x3 DUP3 ADD SSTORE PUSH1 0x80 DUP3 ADD MLOAD PUSH1 0x4 DUP3 ADD SWAP1 PUSH2 0x6E2 SWAP1 DUP3 PUSH2 0x1B47 JUMP JUMPDEST POP PUSH1 0xA0 DUP3 ADD MLOAD PUSH1 0x5 DUP3 ADD DUP1 SLOAD PUSH1 0xFF NOT AND PUSH1 0x1 DUP4 PUSH1 0x3 DUP2 GT ISZERO PUSH2 0x706 JUMPI PUSH2 0x706 PUSH2 0x13FF JUMP JUMPDEST MUL OR SWAP1 SSTORE POP PUSH1 0xC0 DUP3 ADD MLOAD PUSH1 0x6 DUP3 ADD SSTORE PUSH1 0xE0 DUP3 ADD MLOAD PUSH1 0x7 DUP3 ADD SSTORE PUSH2 0x100 DUP3 ADD MLOAD PUSH1 0x8 DUP3 ADD DUP1 SLOAD PUSH1 0x1 PUSH1 0x1 PUSH1 0xA0 SHL SUB NOT AND PUSH1 0x1 PUSH1 0x1 PUSH1 0xA0 SHL SUB SWAP1 SWAP3 AND SWAP2 SWAP1 SWAP2 OR SWAP1 SSTORE PUSH2 0x120 DUP3 ADD MLOAD PUSH1 0x9 DUP3 ADD SWAP1 PUSH2 0x75B SWAP1 DUP3 PUSH2 0x1B47 JUMP JUMPDEST POP POP CALLER PUSH1 0x0 DUP2 DUP2 MSTORE PUSH1 0x3 PUSH1 0x20 SWAP1 DUP2 MSTORE PUSH1 0x40 DUP1 DUP4 KECCAK256 DUP1 SLOAD PUSH1 0x1 DUP2 ADD DUP3 SSTORE SWAP1 DUP5 MSTORE SWAP2 SWAP1 SWAP3 KECCAK256 ADD DUP5 SWAP1 SSTORE MLOAD SWAP1 SWAP2 POP DUP3 SWAP1 PUSH32 0x6595205DAE276CE902B2EA66A70A1F42DB62056854C3C4DBA1E00EC5E2D56E3D SWAP1 PUSH2 0x7B7 SWAP1 DUP12 DUP2 MSTORE PUSH1 0x20 ADD SWAP1 JUMP JUMPDEST PUSH1 0x40 MLOAD DUP1 SWAP2 SUB SWAP1 LOG3 PUSH1 0x0 DUP1 SLOAD PUSH1 0xFF PUSH1 0xA0 SHL NOT AND SWAP1 SSTORE SWAP8 SWAP7 POP POP POP POP POP POP POP JUMP JUMPDEST PUSH1 0x3 PUSH1 0x20 MSTORE DUP2 PUSH1 0x0 MSTORE PUSH1 0x40 PUSH1 0x0 KECCAK256 DUP2 DUP2 SLOAD DUP2 LT PUSH2 0x7F3 JUMPI PUSH1 0x0 DUP1 REVERT JUMPDEST SWAP1 PUSH1 0x0 MSTORE PUSH1 0x20 PUSH1 0x0 KECCAK256 ADD PUSH1 0x0 SWAP2 POP SWAP2 POP POP SLOAD DUP2 JUMP JUMPDEST PUSH1 0x0 SLOAD PUSH1 0x40 MLOAD PUSH4 0x5692E5A1 PUSH1 0xE1 SHL DUP2 MSTORE CALLER PUSH1 0x4 DUP3 ADD MSTORE PUSH1 0x1 PUSH1 0x1 PUSH1 0xA0 SHL SUB SWAP1 SWAP2 AND SWAP1 PUSH4 0xAD25CB42 SWAP1 PUSH1 0x24 ADD PUSH1 0x20 PUSH1 0x40 MLOAD DUP1 DUP4 SUB DUP2 DUP7 GAS STATICCALL ISZERO DUP1 ISZERO PUSH2 0x850 JUMPI RETURNDATASIZE PUSH1 0x0 DUP1 RETURNDATACOPY RETURNDATASIZE PUSH1 0x0 REVERT JUMPDEST POP POP POP POP PUSH1 0x40 MLOAD RETURNDATASIZE PUSH1 0x1F NOT PUSH1 0x1F DUP3 ADD AND DUP3 ADD DUP1 PUSH1 0x40 MSTORE POP DUP2 ADD SWAP1 PUSH2 0x874 SWAP2 SWAP1 PUSH2 0x1982 JUMP JUMPDEST PUSH2 0x890 JUMPI PUSH1 0x40 MLOAD PUSH3 0x461BCD PUSH1 0xE5 SHL DUP2 MSTORE PUSH1 0x4 ADD PUSH2 0x492 SWAP1 PUSH2 0x1C06 JUMP JUMPDEST PUSH1 0x0 SLOAD PUSH1 0x40 MLOAD PUSH4 0xCD29BA7 PUSH1 0xE3 SHL DUP2 MSTORE PUSH1 0x1 PUSH1 0x1 PUSH1 0xA0 SHL SUB DUP4 DUP2 AND PUSH1 0x4 DUP4 ADD MSTORE SWAP1 SWAP2 AND SWAP1 PUSH4 0x6694DD38 SWAP1 PUSH1 0x24 ADD PUSH1 0x0 PUSH1 0x40 MLOAD DUP1 DUP4 SUB DUP2 DUP7 GAS STATICCALL ISZERO DUP1 ISZERO PUSH2 0x8DA JUMPI RETURNDATASIZE PUSH1 0x0 DUP1 RETURNDATACOPY RETURNDATASIZE PUSH1 0x0 REVERT JUMPDEST POP POP POP POP PUSH1 0x40 MLOAD RETURNDATASIZE PUSH1 0x0 DUP3 RETURNDATACOPY PUSH1 0x1F RETURNDATASIZE SWAP1 DUP2 ADD PUSH1 0x1F NOT AND DUP3 ADD PUSH1 0x40 MSTORE PUSH2 0x902 SWAP2 SWAP1 DUP2 ADD SWAP1 PUSH2 0x19F5 JUMP JUMPDEST PUSH1 0xA0 ADD MLOAD PUSH2 0x94A JUMPI PUSH1 0x40 MLOAD PUSH3 0x461BCD PUSH1 0xE5 SHL DUP2 MSTORE PUSH1 0x20 PUSH1 0x4 DUP3 ADD MSTORE PUSH1 0x15 PUSH1 0x24 DUP3 ADD MSTORE PUSH21 0x4465706172746D656E74206E6F7420616374697665 PUSH1 0x58 SHL PUSH1 0x44 DUP3 ADD MSTORE PUSH1 0x64 ADD PUSH2 0x492 JUMP JUMPDEST PUSH1 0x40 DUP1 MLOAD PUSH1 0x0 DUP1 DUP3 MSTORE PUSH1 0x20 DUP1 DUP4 ADD DUP1 DUP6 MSTORE PUSH1 0x1 PUSH1 0x1 PUSH1 0xA0 SHL SUB DUP7 AND DUP4 MSTORE PUSH1 0x3 SWAP1 SWAP2 MSTORE SWAP3 SWAP1 KECCAK256 SWAP1 MLOAD PUSH2 0x97B SWAP3 SWAP1 PUSH2 0x12C0 JUMP JUMPDEST POP POP JUMP JUMPDEST PUSH1 0x1 PUSH1 0x1 PUSH1 0xA0 SHL SUB DUP2 AND PUSH1 0x0 SWAP1 DUP2 MSTORE PUSH1 0x3 PUSH1 0x20 SWAP1 DUP2 MSTORE PUSH1 0x40 DUP1 DUP4 KECCAK256 DUP1 SLOAD DUP3 MLOAD DUP2 DUP6 MUL DUP2 ADD DUP6 ADD SWAP1 SWAP4 MSTORE DUP1 DUP4 MSTORE PUSH1 0x60 SWAP5 SWAP4 DUP4 ADD DUP3 DUP3 DUP1 ISZERO PUSH2 0x9DE JUMPI PUSH1 0x20 MUL DUP3 ADD SWAP2 SWAP1 PUSH1 0x0 MSTORE PUSH1 0x20 PUSH1 0x0 KECCAK256 SWAP1 JUMPDEST DUP2 SLOAD DUP2 MSTORE PUSH1 0x20 ADD SWAP1 PUSH1 0x1 ADD SWAP1 DUP1 DUP4 GT PUSH2 0x9CA JUMPI JUMPDEST POP POP POP POP POP SWAP1 POP PUSH1 0x0 DUP2 MLOAD PUSH8 0xFFFFFFFFFFFFFFFF DUP2 GT ISZERO PUSH2 0xA01 JUMPI PUSH2 0xA01 PUSH2 0x14CB JUMP JUMPDEST PUSH1 0x40 MLOAD SWAP1 DUP1 DUP3 MSTORE DUP1 PUSH1 0x20 MUL PUSH1 0x20 ADD DUP3 ADD PUSH1 0x40 MSTORE DUP1 ISZERO PUSH2 0xA3A JUMPI DUP2 PUSH1 0x20 ADD JUMPDEST PUSH2 0xA27 PUSH2 0x130B JUMP JUMPDEST DUP2 MSTORE PUSH1 0x20 ADD SWAP1 PUSH1 0x1 SWAP1 SUB SWAP1 DUP2 PUSH2 0xA1F JUMPI SWAP1 POP JUMPDEST POP SWAP1 POP PUSH1 0x0 JUMPDEST DUP3 MLOAD DUP2 LT ISZERO PUSH2 0xCFC JUMPI PUSH1 0x1 PUSH1 0x0 DUP5 DUP4 DUP2 MLOAD DUP2 LT PUSH2 0xA5F JUMPI PUSH2 0xA5F PUSH2 0x1C2F JUMP JUMPDEST PUSH1 0x20 MUL PUSH1 0x20 ADD ADD MLOAD DUP2 MSTORE PUSH1 0x20 ADD SWAP1 DUP2 MSTORE PUSH1 0x20 ADD PUSH1 0x0 KECCAK256 PUSH1 0x40 MLOAD DUP1 PUSH2 0x140 ADD PUSH1 0x40 MSTORE SWAP1 DUP2 PUSH1 0x0 DUP3 ADD SLOAD DUP2 MSTORE PUSH1 0x20 ADD PUSH1 0x1 DUP3 ADD PUSH1 0x0 SWAP1 SLOAD SWAP1 PUSH2 0x100 EXP SWAP1 DIV PUSH1 0x1 PUSH1 0x1 PUSH1 0xA0 SHL SUB AND PUSH1 0x1 PUSH1 0x1 PUSH1 0xA0 SHL SUB AND PUSH1 0x1 PUSH1 0x1 PUSH1 0xA0 SHL SUB AND DUP2 MSTORE PUSH1 0x20 ADD PUSH1 0x2 DUP3 ADD DUP1 SLOAD PUSH2 0xACA SWAP1 PUSH2 0x1933 JUMP JUMPDEST DUP1 PUSH1 0x1F ADD PUSH1 0x20 DUP1 SWAP2 DIV MUL PUSH1 0x20 ADD PUSH1 0x40 MLOAD SWAP1 DUP2 ADD PUSH1 0x40 MSTORE DUP1 SWAP3 SWAP2 SWAP1 DUP2 DUP2 MSTORE PUSH1 0x20 ADD DUP3 DUP1 SLOAD PUSH2 0xAF6 SWAP1 PUSH2 0x1933 JUMP JUMPDEST DUP1 ISZERO PUSH2 0xB43 JUMPI DUP1 PUSH1 0x1F LT PUSH2 0xB18 JUMPI PUSH2 0x100 DUP1 DUP4 SLOAD DIV MUL DUP4 MSTORE SWAP2 PUSH1 0x20 ADD SWAP2 PUSH2 0xB43 JUMP JUMPDEST DUP3 ADD SWAP2 SWAP1 PUSH1 0x0 MSTORE PUSH1 0x20 PUSH1 0x0 KECCAK256 SWAP1 JUMPDEST DUP2 SLOAD DUP2 MSTORE SWAP1 PUSH1 0x1 ADD SWAP1 PUSH1 0x20 ADD DUP1 DUP4 GT PUSH2 0xB26 JUMPI DUP3 SWAP1 SUB PUSH1 0x1F AND DUP3 ADD SWAP2 JUMPDEST POP POP POP POP POP DUP2 MSTORE PUSH1 0x20 ADD PUSH1 0x3 DUP3 ADD SLOAD DUP2 MSTORE PUSH1 0x20 ADD PUSH1 0x4 DUP3 ADD DUP1 SLOAD PUSH2 0xB66 SWAP1 PUSH2 0x1933 JUMP JUMPDEST DUP1 PUSH1 0x1F ADD PUSH1 0x20 DUP1 SWAP2 DIV MUL PUSH1 0x20 ADD PUSH1 0x40 MLOAD SWAP1 DUP2 ADD PUSH1 0x40 MSTORE DUP1 SWAP3 SWAP2 SWAP1 DUP2 DUP2 MSTORE PUSH1 0x20 ADD DUP3 DUP1 SLOAD PUSH2 0xB92 SWAP1 PUSH2 0x1933 JUMP JUMPDEST DUP1 ISZERO PUSH2 0xBDF JUMPI DUP1 PUSH1 0x1F LT PUSH2 0xBB4 JUMPI PUSH2 0x100 DUP1 DUP4 SLOAD DIV MUL DUP4 MSTORE SWAP2 PUSH1 0x20 ADD SWAP2 PUSH2 0xBDF JUMP JUMPDEST DUP3 ADD SWAP2 SWAP1 PUSH1 0x0 MSTORE PUSH1 0x20 PUSH1 0x0 KECCAK256 SWAP1 JUMPDEST DUP2 SLOAD DUP2 MSTORE SWAP1 PUSH1 0x1 ADD SWAP1 PUSH1 0x20 ADD DUP1 DUP4 GT PUSH2 0xBC2 JUMPI DUP3 SWAP1 SUB PUSH1 0x1F AND DUP3 ADD SWAP2 JUMPDEST POP POP POP SWAP2 DUP4 MSTORE POP POP PUSH1 0x5 DUP3 ADD SLOAD PUSH1 0x20 SWAP1 SWAP2 ADD SWAP1 PUSH1 0xFF AND PUSH1 0x3 DUP2 GT ISZERO PUSH2 0xC06 JUMPI PUSH2 0xC06 PUSH2 0x13FF JUMP JUMPDEST PUSH1 0x3 DUP2 GT ISZERO PUSH2 0xC17 JUMPI PUSH2 0xC17 PUSH2 0x13FF JUMP JUMPDEST DUP2 MSTORE PUSH1 0x6 DUP3 ADD SLOAD PUSH1 0x20 DUP3 ADD MSTORE PUSH1 0x7 DUP3 ADD SLOAD PUSH1 0x40 DUP3 ADD MSTORE PUSH1 0x8 DUP3 ADD SLOAD PUSH1 0x1 PUSH1 0x1 PUSH1 0xA0 SHL SUB AND PUSH1 0x60 DUP3 ADD MSTORE PUSH1 0x9 DUP3 ADD DUP1 SLOAD PUSH1 0x80 SWAP1 SWAP3 ADD SWAP2 PUSH2 0xC55 SWAP1 PUSH2 0x1933 JUMP JUMPDEST DUP1 PUSH1 0x1F ADD PUSH1 0x20 DUP1 SWAP2 DIV MUL PUSH1 0x20 ADD PUSH1 0x40 MLOAD SWAP1 DUP2 ADD PUSH1 0x40 MSTORE DUP1 SWAP3 SWAP2 SWAP1 DUP2 DUP2 MSTORE PUSH1 0x20 ADD DUP3 DUP1 SLOAD PUSH2 0xC81 SWAP1 PUSH2 0x1933 JUMP JUMPDEST DUP1 ISZERO PUSH2 0xCCE JUMPI DUP1 PUSH1 0x1F LT PUSH2 0xCA3 JUMPI PUSH2 0x100 DUP1 DUP4 SLOAD DIV MUL DUP4 MSTORE SWAP2 PUSH1 0x20 ADD SWAP2 PUSH2 0xCCE JUMP JUMPDEST DUP3 ADD SWAP2 SWAP1 PUSH1 0x0 MSTORE PUSH1 0x20 PUSH1 0x0 KECCAK256 SWAP1 JUMPDEST DUP2 SLOAD DUP2 MSTORE SWAP1 PUSH1 0x1 ADD SWAP1 PUSH1 0x20 ADD DUP1 DUP4 GT PUSH2 0xCB1 JUMPI DUP3 SWAP1 SUB PUSH1 0x1F AND DUP3 ADD SWAP2 JUMPDEST POP POP POP POP POP DUP2 MSTORE POP POP DUP3 DUP3 DUP2 MLOAD DUP2 LT PUSH2 0xCE9 JUMPI PUSH2 0xCE9 PUSH2 0x1C2F JUMP JUMPDEST PUSH1 0x20 SWAP1 DUP2 MUL SWAP2 SWAP1 SWAP2 ADD ADD MSTORE PUSH1 0x1 ADD PUSH2 0xA40 JUMP JUMPDEST POP SWAP4 SWAP3 POP POP POP JUMP JUMPDEST PUSH1 0x0 SLOAD PUSH1 0x40 MLOAD PUSH4 0x5692E5A1 PUSH1 0xE1 SHL DUP2 MSTORE CALLER PUSH1 0x4 DUP3 ADD MSTORE PUSH1 0x1 PUSH1 0x1 PUSH1 0xA0 SHL SUB SWAP1 SWAP2 AND SWAP1 PUSH4 0xAD25CB42 SWAP1 PUSH1 0x24 ADD PUSH1 0x20 PUSH1 0x40 MLOAD DUP1 DUP4 SUB DUP2 DUP7 GAS STATICCALL ISZERO DUP1 ISZERO PUSH2 0xD4C JUMPI RETURNDATASIZE PUSH1 0x0 DUP1 RETURNDATACOPY RETURNDATASIZE PUSH1 0x0 REVERT JUMPDEST POP POP POP POP PUSH1 0x40 MLOAD RETURNDATASIZE PUSH1 0x1F NOT PUSH1 0x1F DUP3 ADD AND DUP3 ADD DUP1 PUSH1 0x40 MSTORE POP DUP2 ADD SWAP1 PUSH2 0xD70 SWAP2 SWAP1 PUSH2 0x1982 JUMP JUMPDEST PUSH2 0xD8C JUMPI PUSH1 0x40 MLOAD PUSH3 0x461BCD PUSH1 0xE5 SHL DUP2 MSTORE PUSH1 0x4 ADD PUSH2 0x492 SWAP1 PUSH2 0x1C06 JUMP JUMPDEST PUSH1 0x0 DUP3 DUP2 MSTORE PUSH1 0x1 PUSH1 0x20 MSTORE PUSH1 0x40 DUP2 KECCAK256 SLOAD SWAP1 SUB PUSH2 0xDDE JUMPI PUSH1 0x40 MLOAD PUSH3 0x461BCD PUSH1 0xE5 SHL DUP2 MSTORE PUSH1 0x20 PUSH1 0x4 DUP3 ADD MSTORE PUSH1 0x12 PUSH1 0x24 DUP3 ADD MSTORE PUSH18 0x141C9BDC1BDCD85B081B9BDD08199BDD5B99 PUSH1 0x72 SHL PUSH1 0x44 DUP3 ADD MSTORE PUSH1 0x64 ADD PUSH2 0x492 JUMP JUMPDEST PUSH1 0x0 DUP3 DUP2 MSTORE PUSH1 0x2 PUSH1 0x20 SWAP1 DUP2 MSTORE PUSH1 0x40 DUP1 DUP4 KECCAK256 DUP2 MLOAD PUSH1 0x60 DUP2 ADD DUP4 MSTORE CALLER DUP2 MSTORE DUP1 DUP5 ADD DUP7 DUP2 MSTORE TIMESTAMP SWAP4 DUP3 ADD SWAP4 SWAP1 SWAP4 MSTORE DUP2 SLOAD PUSH1 0x1 DUP1 DUP3 ADD DUP5 SSTORE SWAP3 DUP7 MSTORE SWAP4 SWAP1 SWAP5 KECCAK256 DUP5 MLOAD PUSH1 0x3 SWAP1 SWAP5 MUL ADD DUP1 SLOAD PUSH1 0x1 PUSH1 0x1 PUSH1 0xA0 SHL SUB NOT AND PUSH1 0x1 PUSH1 0x1 PUSH1 0xA0 SHL SUB SWAP1 SWAP5 AND SWAP4 SWAP1 SWAP4 OR DUP4 SSTORE SWAP1 MLOAD SWAP1 DUP3 ADD SWAP1 PUSH2 0xE4D SWAP1 DUP3 PUSH2 0x1B47 JUMP JUMPDEST POP PUSH1 0x40 DUP3 ADD MLOAD DUP2 PUSH1 0x2 ADD SSTORE POP POP CALLER PUSH1 0x1 PUSH1 0x1 PUSH1 0xA0 SHL SUB AND DUP3 PUSH32 0xCC2D7DD2085AE6644799A42C0174ADF9AFC10A43F26DB5EAC3DDD1F96D1D64BE DUP4 PUSH1 0x40 MLOAD PUSH2 0xE94 SWAP2 SWAP1 PUSH2 0x1C45 JUMP JUMPDEST PUSH1 0x40 MLOAD DUP1 SWAP2 SUB SWAP1 LOG3 POP POP JUMP JUMPDEST PUSH1 0x60 PUSH1 0x2 PUSH1 0x0 DUP4 DUP2 MSTORE PUSH1 0x20 ADD SWAP1 DUP2 MSTORE PUSH1 0x20 ADD PUSH1 0x0 KECCAK256 DUP1 SLOAD DUP1 PUSH1 0x20 MUL PUSH1 0x20 ADD PUSH1 0x40 MLOAD SWAP1 DUP2 ADD PUSH1 0x40 MSTORE DUP1 SWAP3 SWAP2 SWAP1 DUP2 DUP2 MSTORE PUSH1 0x20 ADD PUSH1 0x0 SWAP1 JUMPDEST DUP3 DUP3 LT ISZERO PUSH2 0xFB9 JUMPI PUSH1 0x0 DUP5 DUP2 MSTORE PUSH1 0x20 SWAP1 DUP2 SWAP1 KECCAK256 PUSH1 0x40 DUP1 MLOAD PUSH1 0x60 DUP2 ADD SWAP1 SWAP2 MSTORE PUSH1 0x3 DUP6 MUL SWAP1 SWAP2 ADD DUP1 SLOAD PUSH1 0x1 PUSH1 0x1 PUSH1 0xA0 SHL SUB AND DUP3 MSTORE PUSH1 0x1 DUP2 ADD DUP1 SLOAD SWAP3 SWAP4 SWAP2 SWAP3 SWAP2 DUP5 ADD SWAP2 PUSH2 0xF1E SWAP1 PUSH2 0x1933 JUMP JUMPDEST DUP1 PUSH1 0x1F ADD PUSH1 0x20 DUP1 SWAP2 DIV MUL PUSH1 0x20 ADD PUSH1 0x40 MLOAD SWAP1 DUP2 ADD PUSH1 0x40 MSTORE DUP1 SWAP3 SWAP2 SWAP1 DUP2 DUP2 MSTORE PUSH1 0x20 ADD DUP3 DUP1 SLOAD PUSH2 0xF4A SWAP1 PUSH2 0x1933 JUMP JUMPDEST DUP1 ISZERO PUSH2 0xF97 JUMPI DUP1 PUSH1 0x1F LT PUSH2 0xF6C JUMPI PUSH2 0x100 DUP1 DUP4 SLOAD DIV MUL DUP4 MSTORE SWAP2 PUSH1 0x20 ADD SWAP2 PUSH2 0xF97 JUMP JUMPDEST DUP3 ADD SWAP2 SWAP1 PUSH1 0x0 MSTORE PUSH1 0x20 PUSH1 0x0 KECCAK256 SWAP1 JUMPDEST DUP2 SLOAD DUP2 MSTORE SWAP1 PUSH1 0x1 ADD SWAP1 PUSH1 0x20 ADD DUP1 DUP4 GT PUSH2 0xF7A JUMPI DUP3 SWAP1 SUB PUSH1 0x1F AND DUP3 ADD SWAP2 JUMPDEST POP POP POP POP POP DUP2 MSTORE PUSH1 0x20 ADD PUSH1 0x2 DUP3 ADD SLOAD DUP2 MSTORE POP POP DUP2 MSTORE PUSH1 0x20 ADD SWAP1 PUSH1 0x1 ADD SWAP1 PUSH2 0xED5 JUMP JUMPDEST POP POP POP POP SWAP1 POP SWAP2 SWAP1 POP JUMP JUMPDEST PUSH1 0x0 SLOAD PUSH1 0x40 MLOAD PUSH4 0x5692E5A1 PUSH1 0xE1 SHL DUP2 MSTORE CALLER PUSH1 0x4 DUP3 ADD MSTORE PUSH1 0x1 PUSH1 0x1 PUSH1 0xA0 SHL SUB SWAP1 SWAP2 AND SWAP1 PUSH4 0xAD25CB42 SWAP1 PUSH1 0x24 ADD PUSH1 0x20 PUSH1 0x40 MLOAD DUP1 DUP4 SUB DUP2 DUP7 GAS STATICCALL ISZERO DUP1 ISZERO PUSH2 0x100C JUMPI RETURNDATASIZE PUSH1 0x0 DUP1 RETURNDATACOPY RETURNDATASIZE PUSH1 0x0 REVERT JUMPDEST POP POP POP POP PUSH1 0x40 MLOAD RETURNDATASIZE PUSH1 0x1F NOT PUSH1 0x1F DUP3 ADD AND DUP3 ADD DUP1 PUSH1 0x40 MSTORE POP DUP2 ADD SWAP1 PUSH2 0x1030 SWAP2 SWAP1 PUSH2 0x1982 JUMP JUMPDEST PUSH2 0x104C JUMPI PUSH1 0x40 MLOAD PUSH3 0x461BCD PUSH1 0xE5 SHL DUP2 MSTORE PUSH1 0x4 ADD PUSH2 0x492 SWAP1 PUSH2 0x1C06 JUMP JUMPDEST PUSH1 0x0 SLOAD PUSH1 0x1 PUSH1 0xA0 SHL SWAP1 DIV PUSH1 0xFF AND ISZERO PUSH2 0x1097 JUMPI PUSH1 0x40 MLOAD PUSH3 0x461BCD PUSH1 0xE5 SHL DUP2 MSTORE PUSH1 0x20 PUSH1 0x4 DUP3 ADD MSTORE PUSH1 0xE PUSH1 0x24 DUP3 ADD MSTORE PUSH14 0x1499595B9D1C985B9D0818D85B1B PUSH1 0x92 SHL PUSH1 0x44 DUP3 ADD MSTORE PUSH1 0x64 ADD PUSH2 0x492 JUMP JUMPDEST PUSH1 0x0 DUP1 SLOAD PUSH1 0xFF PUSH1 0xA0 SHL NOT AND PUSH1 0x1 PUSH1 0xA0 SHL OR DUP2 SSTORE DUP3 DUP2 MSTORE PUSH1 0x1 PUSH1 0x20 MSTORE PUSH1 0x40 DUP2 KECCAK256 DUP1 SLOAD SWAP1 SWAP2 SUB PUSH2 0x10FC JUMPI PUSH1 0x40 MLOAD PUSH3 0x461BCD PUSH1 0xE5 SHL DUP2 MSTORE PUSH1 0x20 PUSH1 0x4 DUP3 ADD MSTORE PUSH1 0x12 PUSH1 0x24 DUP3 ADD MSTORE PUSH18 0x141C9BDC1BDCD85B081B9BDD08199BDD5B99 PUSH1 0x72 SHL PUSH1 0x44 DUP3 ADD MSTORE PUSH1 0x64 ADD PUSH2 0x492 JUMP JUMPDEST PUSH1 0x0 PUSH1 0x5 DUP3 ADD SLOAD PUSH1 0xFF AND PUSH1 0x3 DUP2 GT ISZERO PUSH2 0x1117 JUMPI PUSH2 0x1117 PUSH2 0x13FF JUMP JUMPDEST EQ PUSH2 0x115B JUMPI PUSH1 0x40 MLOAD PUSH3 0x461BCD PUSH1 0xE5 SHL DUP2 MSTORE PUSH1 0x20 PUSH1 0x4 DUP3 ADD MSTORE PUSH1 0x14 PUSH1 0x24 DUP3 ADD MSTORE PUSH20 0x50726F706F73616C206E6F742070656E64696E67 PUSH1 0x60 SHL PUSH1 0x44 DUP3 ADD MSTORE PUSH1 0x64 ADD PUSH2 0x492 JUMP JUMPDEST PUSH1 0x5 DUP2 ADD DUP1 SLOAD DUP4 SWAP2 SWAP1 PUSH1 0xFF NOT AND PUSH1 0x1 DUP4 PUSH1 0x3 DUP2 GT ISZERO PUSH2 0x117C JUMPI PUSH2 0x117C PUSH2 0x13FF JUMP JUMPDEST MUL OR SWAP1 SSTORE POP TIMESTAMP PUSH1 0x7 DUP3 ADD SSTORE PUSH1 0x8 DUP2 ADD DUP1 SLOAD PUSH1 0x1 PUSH1 0x1 PUSH1 0xA0 SHL SUB NOT AND CALLER SWAP1 DUP2 OR SWAP1 SWAP2 SSTORE PUSH1 0x40 MLOAD DUP5 SWAP2 PUSH32 0xEF0D88BBAEB4891D8E9303AFD9D553F2807DF5898CEDF46C37EC9FEBA34741D3 SWAP2 PUSH2 0x11D0 SWAP2 DUP7 SWAP2 PUSH2 0x1C58 JUMP JUMPDEST PUSH1 0x40 MLOAD DUP1 SWAP2 SUB SWAP1 LOG2 POP POP PUSH1 0x0 DUP1 SLOAD PUSH1 0xFF PUSH1 0xA0 SHL NOT AND SWAP1 SSTORE POP JUMP JUMPDEST PUSH1 0x2 PUSH1 0x20 MSTORE DUP2 PUSH1 0x0 MSTORE PUSH1 0x40 PUSH1 0x0 KECCAK256 DUP2 DUP2 SLOAD DUP2 LT PUSH2 0x1206 JUMPI PUSH1 0x0 DUP1 REVERT JUMPDEST PUSH1 0x0 SWAP2 DUP3 MSTORE PUSH1 0x20 SWAP1 SWAP2 KECCAK256 PUSH1 0x3 SWAP1 SWAP2 MUL ADD DUP1 SLOAD PUSH1 0x1 DUP3 ADD DUP1 SLOAD PUSH1 0x1 PUSH1 0x1 PUSH1 0xA0 SHL SUB SWAP1 SWAP3 AND SWAP5 POP SWAP2 SWAP3 POP PUSH2 0x1237 SWAP1 PUSH2 0x1933 JUMP JUMPDEST DUP1 PUSH1 0x1F ADD PUSH1 0x20 DUP1 SWAP2 DIV MUL PUSH1 0x20 ADD PUSH1 0x40 MLOAD SWAP1 DUP2 ADD PUSH1 0x40 MSTORE DUP1 SWAP3 SWAP2 SWAP1 DUP2 DUP2 MSTORE PUSH1 0x20 ADD DUP3 DUP1 SLOAD PUSH2 0x1263 SWAP1 PUSH2 0x1933 JUMP JUMPDEST DUP1 ISZERO PUSH2 0x12B0 JUMPI DUP1 PUSH1 0x1F LT PUSH2 0x1285 JUMPI PUSH2 0x100 DUP1 DUP4 SLOAD DIV MUL DUP4 MSTORE SWAP2 PUSH1 0x20 ADD SWAP2 PUSH2 0x12B0 JUMP JUMPDEST DUP3 ADD SWAP2 SWAP1 PUSH1 0x0 MSTORE PUSH1 0x20 PUSH1 0x0 KECCAK256 SWAP1 JUMPDEST DUP2 SLOAD DUP2 MSTORE SWAP1 PUSH1 0x1 ADD SWAP1 PUSH1 0x20 ADD DUP1 DUP4 GT PUSH2 0x1293 JUMPI DUP3 SWAP1 SUB PUSH1 0x1F AND DUP3 ADD SWAP2 JUMPDEST POP POP POP POP POP SWAP1 DUP1 PUSH1 0x2 ADD SLOAD SWAP1 POP DUP4 JUMP JUMPDEST DUP3 DUP1 SLOAD DUP3 DUP3 SSTORE SWAP1 PUSH1 0x0 MSTORE PUSH1 0x20 PUSH1 0x0 KECCAK256 SWAP1 DUP2 ADD SWAP3 DUP3 ISZERO PUSH2 0x12FB JUMPI SWAP2 PUSH1 0x20 MUL DUP3 ADD JUMPDEST DUP3 DUP2 GT ISZERO PUSH2 0x12FB JUMPI DUP3 MLOAD DUP3 SSTORE SWAP2 PUSH1 0x20 ADD SWAP2 SWAP1 PUSH1 0x1 ADD SWAP1 PUSH2 0x12E0 JUMP JUMPDEST POP PUSH2 0x1307 SWAP3 SWAP2 POP PUSH2 0x1381 JUMP JUMPDEST POP SWAP1 JUMP JUMPDEST PUSH1 0x40 MLOAD DUP1 PUSH2 0x140 ADD PUSH1 0x40 MSTORE DUP1 PUSH1 0x0 DUP2 MSTORE PUSH1 0x20 ADD PUSH1 0x0 PUSH1 0x1 PUSH1 0x1 PUSH1 0xA0 SHL SUB AND DUP2 MSTORE PUSH1 0x20 ADD PUSH1 0x60 DUP2 MSTORE PUSH1 0x20 ADD PUSH1 0x0 DUP2 MSTORE PUSH1 0x20 ADD PUSH1 0x60 DUP2 MSTORE PUSH1 0x20 ADD PUSH1 0x0 PUSH1 0x3 DUP2 GT ISZERO PUSH2 0x1356 JUMPI PUSH2 0x1356 PUSH2 0x13FF JUMP JUMPDEST DUP2 MSTORE PUSH1 0x20 ADD PUSH1 0x0 DUP2 MSTORE PUSH1 0x20 ADD PUSH1 0x0 DUP2 MSTORE PUSH1 0x20 ADD PUSH1 0x0 PUSH1 0x1 PUSH1 0x1 PUSH1 0xA0 SHL SUB AND DUP2 MSTORE PUSH1 0x20 ADD PUSH1 0x60 DUP2 MSTORE POP SWAP1 JUMP JUMPDEST JUMPDEST DUP1 DUP3 GT ISZERO PUSH2 0x1307 JUMPI PUSH1 0x0 DUP2 SSTORE PUSH1 0x1 ADD PUSH2 0x1382 JUMP JUMPDEST PUSH1 0x0 PUSH1 0x20 DUP3 DUP5 SUB SLT ISZERO PUSH2 0x13A8 JUMPI PUSH1 0x0 DUP1 REVERT JUMPDEST POP CALLDATALOAD SWAP2 SWAP1 POP JUMP JUMPDEST PUSH1 0x0 JUMPDEST DUP4 DUP2 LT ISZERO PUSH2 0x13CA JUMPI DUP2 DUP2 ADD MLOAD DUP4 DUP3 ADD MSTORE PUSH1 0x20 ADD PUSH2 0x13B2 JUMP JUMPDEST POP POP PUSH1 0x0 SWAP2 ADD MSTORE JUMP JUMPDEST PUSH1 0x0 DUP2 MLOAD DUP1 DUP5 MSTORE PUSH2 0x13EB DUP2 PUSH1 0x20 DUP7 ADD PUSH1 0x20 DUP7 ADD PUSH2 0x13AF JUMP JUMPDEST PUSH1 0x1F ADD PUSH1 0x1F NOT AND SWAP3 SWAP1 SWAP3 ADD PUSH1 0x20 ADD SWAP3 SWAP2 POP POP JUMP JUMPDEST PUSH4 0x4E487B71 PUSH1 0xE0 SHL PUSH1 0x0 MSTORE PUSH1 0x21 PUSH1 0x4 MSTORE PUSH1 0x24 PUSH1 0x0 REVERT JUMPDEST PUSH1 0x4 DUP2 LT PUSH2 0x1433 JUMPI PUSH4 0x4E487B71 PUSH1 0xE0 SHL PUSH1 0x0 MSTORE PUSH1 0x21 PUSH1 0x4 MSTORE PUSH1 0x24 PUSH1 0x0 REVERT JUMPDEST SWAP1 MSTORE JUMP JUMPDEST DUP11 DUP2 MSTORE PUSH1 0x1 PUSH1 0x1 PUSH1 0xA0 SHL SUB DUP11 AND PUSH1 0x20 DUP3 ADD MSTORE PUSH2 0x140 PUSH1 0x40 DUP3 ADD DUP2 SWAP1 MSTORE PUSH1 0x0 SWAP1 PUSH2 0x1462 SWAP1 DUP4 ADD DUP12 PUSH2 0x13D3 JUMP JUMPDEST DUP10 PUSH1 0x60 DUP5 ADD MSTORE DUP3 DUP2 SUB PUSH1 0x80 DUP5 ADD MSTORE PUSH2 0x147A DUP2 DUP11 PUSH2 0x13D3 JUMP JUMPDEST SWAP1 POP PUSH2 0x1489 PUSH1 0xA0 DUP5 ADD DUP10 PUSH2 0x1415 JUMP JUMPDEST PUSH1 0xC0 DUP4 ADD DUP8 SWAP1 MSTORE PUSH1 0xE0 DUP4 ADD DUP7 SWAP1 MSTORE PUSH1 0x1 PUSH1 0x1 PUSH1 0xA0 SHL SUB DUP6 AND PUSH2 0x100 DUP5 ADD MSTORE DUP3 DUP2 SUB PUSH2 0x120 DUP5 ADD MSTORE PUSH2 0x14BA DUP2 DUP6 PUSH2 0x13D3 JUMP JUMPDEST SWAP14 SWAP13 POP POP POP POP POP POP POP POP POP POP POP POP POP JUMP JUMPDEST PUSH4 0x4E487B71 PUSH1 0xE0 SHL PUSH1 0x0 MSTORE PUSH1 0x41 PUSH1 0x4 MSTORE PUSH1 0x24 PUSH1 0x0 REVERT JUMPDEST PUSH1 0x40 MLOAD PUSH1 0xE0 DUP2 ADD PUSH8 0xFFFFFFFFFFFFFFFF DUP2 GT DUP3 DUP3 LT OR ISZERO PUSH2 0x1504 JUMPI PUSH2 0x1504 PUSH2 0x14CB JUMP JUMPDEST PUSH1 0x40 MSTORE SWAP1 JUMP JUMPDEST PUSH1 0x40 MLOAD PUSH1 0x1F DUP3 ADD PUSH1 0x1F NOT AND DUP2 ADD PUSH8 0xFFFFFFFFFFFFFFFF DUP2 GT DUP3 DUP3 LT OR ISZERO PUSH2 0x1533 JUMPI PUSH2 0x1533 PUSH2 0x14CB JUMP JUMPDEST PUSH1 0x40 MSTORE SWAP2 SWAP1 POP JUMP JUMPDEST PUSH1 0x0 PUSH8 0xFFFFFFFFFFFFFFFF DUP3 GT ISZERO PUSH2 0x1555 JUMPI PUSH2 0x1555 PUSH2 0x14CB JUMP JUMPDEST POP PUSH1 0x1F ADD PUSH1 0x1F NOT AND PUSH1 0x20 ADD SWAP1 JUMP JUMPDEST PUSH1 0x0 DUP3 PUSH1 0x1F DUP4 ADD SLT PUSH2 0x1574 JUMPI PUSH1 0x0 DUP1 REVERT JUMPDEST DUP2 CALLDATALOAD PUSH2 0x1587 PUSH2 0x1582 DUP3 PUSH2 0x153B JUMP JUMPDEST PUSH2 0x150A JUMP JUMPDEST DUP2 DUP2 MSTORE DUP5 PUSH1 0x20 DUP4 DUP7 ADD ADD GT ISZERO PUSH2 0x159C JUMPI PUSH1 0x0 DUP1 REVERT JUMPDEST DUP2 PUSH1 0x20 DUP6 ADD PUSH1 0x20 DUP4 ADD CALLDATACOPY PUSH1 0x0 SWAP2 DUP2 ADD PUSH1 0x20 ADD SWAP2 SWAP1 SWAP2 MSTORE SWAP4 SWAP3 POP POP POP JUMP JUMPDEST PUSH1 0x0 DUP1 PUSH1 0x0 DUP1 PUSH1 0x80 DUP6 DUP8 SUB SLT ISZERO PUSH2 0x15CF JUMPI PUSH1 0x0 DUP1 REVERT JUMPDEST DUP5 CALLDATALOAD PUSH8 0xFFFFFFFFFFFFFFFF DUP2 GT ISZERO PUSH2 0x15E6 JUMPI PUSH1 0x0 DUP1 REVERT JUMPDEST PUSH2 0x15F2 DUP8 DUP3 DUP9 ADD PUSH2 0x1563 JUMP JUMPDEST SWAP5 POP POP PUSH1 0x20 DUP6 ADD CALLDATALOAD SWAP3 POP PUSH1 0x40 DUP6 ADD CALLDATALOAD PUSH8 0xFFFFFFFFFFFFFFFF DUP2 GT ISZERO PUSH2 0x1616 JUMPI PUSH1 0x0 DUP1 REVERT JUMPDEST PUSH2 0x1622 DUP8 DUP3 DUP9 ADD PUSH2 0x1563 JUMP JUMPDEST SWAP3 POP POP PUSH1 0x60 DUP6 ADD CALLDATALOAD PUSH8 0xFFFFFFFFFFFFFFFF DUP2 GT ISZERO PUSH2 0x163F JUMPI PUSH1 0x0 DUP1 REVERT JUMPDEST PUSH2 0x164B DUP8 DUP3 DUP9 ADD PUSH2 0x1563 JUMP JUMPDEST SWAP2 POP POP SWAP3 SWAP6 SWAP2 SWAP5 POP SWAP3 POP JUMP JUMPDEST PUSH1 0x1 PUSH1 0x1 PUSH1 0xA0 SHL SUB DUP2 AND DUP2 EQ PUSH2 0x166C JUMPI PUSH1 0x0 DUP1 REVERT JUMPDEST POP JUMP JUMPDEST PUSH1 0x0 DUP1 PUSH1 0x40 DUP4 DUP6 SUB SLT ISZERO PUSH2 0x1682 JUMPI PUSH1 0x0 DUP1 REVERT JUMPDEST DUP3 CALLDATALOAD PUSH2 0x168D DUP2 PUSH2 0x1657 JUMP JUMPDEST SWAP5 PUSH1 0x20 SWAP4 SWAP1 SWAP4 ADD CALLDATALOAD SWAP4 POP POP POP JUMP JUMPDEST PUSH1 0x0 PUSH1 0x20 DUP3 DUP5 SUB SLT ISZERO PUSH2 0x16AD JUMPI PUSH1 0x0 DUP1 REVERT JUMPDEST DUP2 CALLDATALOAD PUSH2 0x16B8 DUP2 PUSH2 0x1657 JUMP JUMPDEST SWAP4 SWAP3 POP POP POP JUMP JUMPDEST PUSH1 0x0 PUSH1 0x20 DUP3 ADD PUSH1 0x20 DUP4 MSTORE DUP1 DUP5 MLOAD DUP1 DUP4 MSTORE PUSH1 0x40 DUP6 ADD SWAP2 POP PUSH1 0x40 DUP2 PUSH1 0x5 SHL DUP7 ADD ADD SWAP3 POP PUSH1 0x20 DUP7 ADD PUSH1 0x0 JUMPDEST DUP3 DUP2 LT ISZERO PUSH2 0x17D0 JUMPI PUSH1 0x3F NOT DUP8 DUP7 SUB ADD DUP5 MSTORE DUP2 MLOAD DUP1 MLOAD DUP7 MSTORE PUSH1 0x20 DUP2 ADD MLOAD PUSH2 0x1718 PUSH1 0x20 DUP9 ADD DUP3 PUSH1 0x1 PUSH1 0x1 PUSH1 0xA0 SHL SUB AND SWAP1 MSTORE JUMP JUMPDEST POP PUSH1 0x40 DUP2 ADD MLOAD PUSH2 0x140 PUSH1 0x40 DUP9 ADD MSTORE PUSH2 0x1734 PUSH2 0x140 DUP9 ADD DUP3 PUSH2 0x13D3 JUMP JUMPDEST SWAP1 POP PUSH1 0x60 DUP3 ADD MLOAD PUSH1 0x60 DUP9 ADD MSTORE PUSH1 0x80 DUP3 ADD MLOAD DUP8 DUP3 SUB PUSH1 0x80 DUP10 ADD MSTORE PUSH2 0x1757 DUP3 DUP3 PUSH2 0x13D3 JUMP JUMPDEST SWAP2 POP POP PUSH1 0xA0 DUP3 ADD MLOAD PUSH2 0x176C PUSH1 0xA0 DUP10 ADD DUP3 PUSH2 0x1415 JUMP JUMPDEST POP PUSH1 0xC0 DUP3 ADD MLOAD PUSH1 0xC0 DUP9 ADD MSTORE PUSH1 0xE0 DUP3 ADD MLOAD PUSH1 0xE0 DUP9 ADD MSTORE PUSH2 0x100 DUP3 ADD MLOAD PUSH2 0x179D PUSH2 0x100 DUP10 ADD DUP3 PUSH1 0x1 PUSH1 0x1 PUSH1 0xA0 SHL SUB AND SWAP1 MSTORE JUMP JUMPDEST POP PUSH2 0x120 DUP3 ADD MLOAD SWAP2 POP DUP7 DUP2 SUB PUSH2 0x120 DUP9 ADD MSTORE PUSH2 0x17B9 DUP2 DUP4 PUSH2 0x13D3 JUMP JUMPDEST SWAP7 POP POP POP PUSH1 0x20 SWAP4 DUP5 ADD SWAP4 SWAP2 SWAP1 SWAP2 ADD SWAP1 PUSH1 0x1 ADD PUSH2 0x16E7 JUMP JUMPDEST POP SWAP3 SWAP7 SWAP6 POP POP POP POP POP POP JUMP JUMPDEST PUSH1 0x0 DUP1 PUSH1 0x40 DUP4 DUP6 SUB SLT ISZERO PUSH2 0x17EF JUMPI PUSH1 0x0 DUP1 REVERT JUMPDEST DUP3 CALLDATALOAD SWAP2 POP PUSH1 0x20 DUP4 ADD CALLDATALOAD PUSH8 0xFFFFFFFFFFFFFFFF DUP2 GT ISZERO PUSH2 0x180D JUMPI PUSH1 0x0 DUP1 REVERT JUMPDEST PUSH2 0x1819 DUP6 DUP3 DUP7 ADD PUSH2 0x1563 JUMP JUMPDEST SWAP2 POP POP SWAP3 POP SWAP3 SWAP1 POP JUMP JUMPDEST PUSH1 0x0 PUSH1 0x20 DUP3 ADD PUSH1 0x20 DUP4 MSTORE DUP1 DUP5 MLOAD DUP1 DUP4 MSTORE PUSH1 0x40 DUP6 ADD SWAP2 POP PUSH1 0x40 DUP2 PUSH1 0x5 SHL DUP7 ADD ADD SWAP3 POP PUSH1 0x20 DUP7 ADD PUSH1 0x0 JUMPDEST DUP3 DUP2 LT ISZERO PUSH2 0x17D0 JUMPI DUP7 DUP6 SUB PUSH1 0x3F NOT ADD DUP5 MSTORE DUP2 MLOAD DUP1 MLOAD PUSH1 0x1 PUSH1 0x1 PUSH1 0xA0 SHL SUB AND DUP7 MSTORE PUSH1 0x20 DUP1 DUP3 ADD MLOAD PUSH1 0x60 SWAP2 DUP9 ADD DUP3 SWAP1 MSTORE SWAP1 PUSH2 0x1886 SWAP1 DUP9 ADD DUP3 PUSH2 0x13D3 JUMP JUMPDEST PUSH1 0x40 SWAP3 DUP4 ADD MLOAD SWAP8 SWAP1 SWAP3 ADD SWAP7 SWAP1 SWAP7 MSTORE SWAP5 POP PUSH1 0x20 SWAP4 DUP5 ADD SWAP4 SWAP2 SWAP1 SWAP2 ADD SWAP1 PUSH1 0x1 ADD PUSH2 0x184B JUMP JUMPDEST PUSH1 0x0 DUP1 PUSH1 0x40 DUP4 DUP6 SUB SLT ISZERO PUSH2 0x18BC JUMPI PUSH1 0x0 DUP1 REVERT JUMPDEST DUP3 CALLDATALOAD SWAP2 POP PUSH1 0x20 DUP4 ADD CALLDATALOAD PUSH1 0x4 DUP2 LT PUSH2 0x18D2 JUMPI PUSH1 0x0 DUP1 REVERT JUMPDEST DUP1 SWAP2 POP POP SWAP3 POP SWAP3 SWAP1 POP JUMP JUMPDEST PUSH1 0x0 DUP1 PUSH1 0x40 DUP4 DUP6 SUB SLT ISZERO PUSH2 0x18F0 JUMPI PUSH1 0x0 DUP1 REVERT JUMPDEST POP POP DUP1 CALLDATALOAD SWAP3 PUSH1 0x20 SWAP1 SWAP2 ADD CALLDATALOAD SWAP2 POP JUMP JUMPDEST PUSH1 0x1 PUSH1 0x1 PUSH1 0xA0 SHL SUB DUP5 AND DUP2 MSTORE PUSH1 0x60 PUSH1 0x20 DUP3 ADD DUP2 SWAP1 MSTORE PUSH1 0x0 SWAP1 PUSH2 0x1923 SWAP1 DUP4 ADD DUP6 PUSH2 0x13D3 JUMP JUMPDEST SWAP1 POP DUP3 PUSH1 0x40 DUP4 ADD MSTORE SWAP5 SWAP4 POP POP POP POP JUMP JUMPDEST PUSH1 0x1 DUP2 DUP2 SHR SWAP1 DUP3 AND DUP1 PUSH2 0x1947 JUMPI PUSH1 0x7F DUP3 AND SWAP2 POP JUMPDEST PUSH1 0x20 DUP3 LT DUP2 SUB PUSH2 0x1967 JUMPI PUSH4 0x4E487B71 PUSH1 0xE0 SHL PUSH1 0x0 MSTORE PUSH1 0x22 PUSH1 0x4 MSTORE PUSH1 0x24 PUSH1 0x0 REVERT JUMPDEST POP SWAP2 SWAP1 POP JUMP JUMPDEST DUP1 MLOAD DUP1 ISZERO ISZERO DUP2 EQ PUSH2 0x197D JUMPI PUSH1 0x0 DUP1 REVERT JUMPDEST SWAP2 SWAP1 POP JUMP JUMPDEST PUSH1 0x0 PUSH1 0x20 DUP3 DUP5 SUB SLT ISZERO PUSH2 0x1994 JUMPI PUSH1 0x0 DUP1 REVERT JUMPDEST PUSH2 0x16B8 DUP3 PUSH2 0x196D JUMP JUMPDEST PUSH1 0x0 DUP3 PUSH1 0x1F DUP4 ADD SLT PUSH2 0x19AE JUMPI PUSH1 0x0 DUP1 REVERT JUMPDEST DUP2 MLOAD PUSH2 0x19BC PUSH2 0x1582 DUP3 PUSH2 0x153B JUMP JUMPDEST DUP2 DUP2 MSTORE DUP5 PUSH1 0x20 DUP4 DUP7 ADD ADD GT ISZERO PUSH2 0x19D1 JUMPI PUSH1 0x0 DUP1 REVERT JUMPDEST PUSH2 0x19E2 DUP3 PUSH1 0x20 DUP4 ADD PUSH1 0x20 DUP8 ADD PUSH2 0x13AF JUMP JUMPDEST SWAP5 SWAP4 POP POP POP POP JUMP JUMPDEST DUP1 MLOAD PUSH2 0x197D DUP2 PUSH2 0x1657 JUMP JUMPDEST PUSH1 0x0 PUSH1 0x20 DUP3 DUP5 SUB SLT ISZERO PUSH2 0x1A07 JUMPI PUSH1 0x0 DUP1 REVERT JUMPDEST DUP2 MLOAD PUSH8 0xFFFFFFFFFFFFFFFF DUP2 GT ISZERO PUSH2 0x1A1E JUMPI PUSH1 0x0 DUP1 REVERT JUMPDEST DUP3 ADD PUSH1 0xE0 DUP2 DUP6 SUB SLT ISZERO PUSH2 0x1A30 JUMPI PUSH1 0x0 DUP1 REVERT JUMPDEST PUSH2 0x1A38 PUSH2 0x14E1 JUMP JUMPDEST DUP2 MLOAD PUSH8 0xFFFFFFFFFFFFFFFF DUP2 GT ISZERO PUSH2 0x1A4F JUMPI PUSH1 0x0 DUP1 REVERT JUMPDEST PUSH2 0x1A5B DUP7 DUP3 DUP6 ADD PUSH2 0x199D JUMP JUMPDEST DUP3 MSTORE POP PUSH1 0x20 DUP3 DUP2 ADD MLOAD SWAP1 DUP3 ADD MSTORE PUSH1 0x40 DUP1 DUP4 ADD MLOAD SWAP1 DUP3 ADD MSTORE PUSH1 0x60 DUP1 DUP4 ADD MLOAD SWAP1 DUP3 ADD MSTORE PUSH1 0x80 DUP1 DUP4 ADD MLOAD SWAP1 DUP3 ADD MSTORE PUSH2 0x1A92 PUSH1 0xA0 DUP4 ADD PUSH2 0x196D JUMP JUMPDEST PUSH1 0xA0 DUP3 ADD MSTORE PUSH2 0x1AA3 PUSH1 0xC0 DUP4 ADD PUSH2 0x19EA JUMP JUMPDEST PUSH1 0xC0 DUP3 ADD MSTORE SWAP5 SWAP4 POP POP POP POP JUMP JUMPDEST PUSH4 0x4E487B71 PUSH1 0xE0 SHL PUSH1 0x0 MSTORE PUSH1 0x11 PUSH1 0x4 MSTORE PUSH1 0x24 PUSH1 0x0 REVERT JUMPDEST DUP2 DUP2 SUB DUP2 DUP2 GT ISZERO PUSH2 0x1AD9 JUMPI PUSH2 0x1AD9 PUSH2 0x1AB0 JUMP JUMPDEST SWAP3 SWAP2 POP POP JUMP JUMPDEST PUSH1 0x0 PUSH1 0x1 DUP3 ADD PUSH2 0x1AF1 JUMPI PUSH2 0x1AF1 PUSH2 0x1AB0 JUMP JUMPDEST POP PUSH1 0x1 ADD SWAP1 JUMP JUMPDEST PUSH1 0x1F DUP3 GT ISZERO PUSH2 0x1B42 JUMPI DUP1 PUSH1 0x0 MSTORE PUSH1 0x20 PUSH1 0x0 KECCAK256 PUSH1 0x1F DUP5 ADD PUSH1 0x5 SHR DUP2 ADD PUSH1 0x20 DUP6 LT ISZERO PUSH2 0x1B1F JUMPI POP DUP1 JUMPDEST PUSH1 0x1F DUP5 ADD PUSH1 0x5 SHR DUP3 ADD SWAP2 POP JUMPDEST DUP2 DUP2 LT ISZERO PUSH2 0x1B3F JUMPI PUSH1 0x0 DUP2 SSTORE PUSH1 0x1 ADD PUSH2 0x1B2B JUMP JUMPDEST POP POP JUMPDEST POP POP POP JUMP JUMPDEST DUP2 MLOAD PUSH8 0xFFFFFFFFFFFFFFFF DUP2 GT ISZERO PUSH2 0x1B61 JUMPI PUSH2 0x1B61 PUSH2 0x14CB JUMP JUMPDEST PUSH2 0x1B75 DUP2 PUSH2 0x1B6F DUP5 SLOAD PUSH2 0x1933 JUMP JUMPDEST DUP5 PUSH2 0x1AF8 JUMP JUMPDEST PUSH1 0x20 PUSH1 0x1F DUP3 GT PUSH1 0x1 DUP2 EQ PUSH2 0x1BA9 JUMPI PUSH1 0x0 DUP4 ISZERO PUSH2 0x1B91 JUMPI POP DUP5 DUP3 ADD MLOAD JUMPDEST PUSH1 0x0 NOT PUSH1 0x3 DUP6 SWAP1 SHL SHR NOT AND PUSH1 0x1 DUP5 SWAP1 SHL OR DUP5 SSTORE PUSH2 0x1B3F JUMP JUMPDEST PUSH1 0x0 DUP5 DUP2 MSTORE PUSH1 0x20 DUP2 KECCAK256 PUSH1 0x1F NOT DUP6 AND SWAP2 JUMPDEST DUP3 DUP2 LT ISZERO PUSH2 0x1BD9 JUMPI DUP8 DUP6 ADD MLOAD DUP3 SSTORE PUSH1 0x20 SWAP5 DUP6 ADD SWAP5 PUSH1 0x1 SWAP1 SWAP3 ADD SWAP2 ADD PUSH2 0x1BB9 JUMP JUMPDEST POP DUP5 DUP3 LT ISZERO PUSH2 0x1BF7 JUMPI DUP7 DUP5 ADD MLOAD PUSH1 0x0 NOT PUSH1 0x3 DUP8 SWAP1 SHL PUSH1 0xF8 AND SHR NOT AND DUP2 SSTORE JUMPDEST POP POP POP POP PUSH1 0x1 SWAP1 DUP2 SHL ADD SWAP1 SSTORE POP JUMP JUMPDEST PUSH1 0x20 DUP1 DUP3 MSTORE PUSH1 0xF SWAP1 DUP3 ADD MSTORE PUSH15 0x2737BA1039BAB832B91030B236B4B7 PUSH1 0x89 SHL PUSH1 0x40 DUP3 ADD MSTORE PUSH1 0x60 ADD SWAP1 JUMP JUMPDEST PUSH4 0x4E487B71 PUSH1 0xE0 SHL PUSH1 0x0 MSTORE PUSH1 0x32 PUSH1 0x4 MSTORE PUSH1 0x24 PUSH1 0x0 REVERT JUMPDEST PUSH1 0x20 DUP2 MSTORE PUSH1 0x0 PUSH2 0x16B8 PUSH1 0x20 DUP4 ADD DUP5 PUSH2 0x13D3 JUMP JUMPDEST PUSH1 0x40 DUP2 ADD PUSH2 0x1C66 DUP3 DUP6 PUSH2 0x1415 JUMP JUMPDEST PUSH1 0x1 PUSH1 0x1 PUSH1 0xA0 SHL SUB SWAP3 SWAP1 SWAP3 AND PUSH1 0x20 SWAP2 SWAP1 SWAP2 ADD MSTORE SWAP2 SWAP1 POP JUMP INVALID LOG2 PUSH5 0x6970667358 0x22 SLT KECCAK256 CHAINID 0xD0 0x25 DUP9 0xC5 0xC8 DUP1 0xB6 SWAP12 0xE3 OR 0x2C 0xA7 0xB7 SSTORE 0x2B 0xDE DELEGATECALL 0xC3 BLOBBASEFEE CALLDATACOPY 0xF9 PUSH3 0x3068E8 PUSH4 0x6A2550B6 0xB6 PUSH5 0x736F6C6343 STOP ADDMOD SHR STOP CALLER "},"methodIdentifiers":{"addProposalComment(uint256,string)":"a7080581","departmentProposals(address,uint256)":"3870c4cf","departmentRegistry()":"261b3e49","getProposalComments(uint256)":"c05f4104","getProposalsByDepartment(address)":"83316752","initializeDepartmentProposals(address)":"488680f3","proposalComments(uint256,uint256)":"f61736f4","proposalCount()":"da35c664","proposals(uint256)":"013cf08b","reviewProposal(uint256,uint8)":"e4f25b2b","submitProposal(string,uint256,string,string)":"0fdcdf7a"}}}}}