{
  "_format": "hh-sol-artifact-1",
  "contractName": "BudgetController",
  "sourceName": "contracts/BudgetController.sol",
  "abi": [
    {
      "inputs": [
        {
          "internalType": "address",
          "name": "_departmentRegistry",
          "type": "address"
        },
        {
          "internalType": "address",
          "name": "_budgetDAO",
          "type": "address"
        }
      ],
      "stateMutability": "nonpayable",
      "type": "constructor"
    },
    {
      "anonymous": false,
      "inputs": [
        {
          "indexed": true,
          "internalType": "address",
          "name": "department",
          "type": "address"
        },
        {
          "indexed": false,
          "internalType": "uint256",
          "name": "spent",
          "type": "uint256"
        },
        {
          "indexed": false,
          "internalType": "uint256",
          "name": "budget",
          "type": "uint256"
        }
      ],
      "name": "BudgetLimitWarning",
      "type": "event"
    },
    {
      "anonymous": false,
      "inputs": [
        {
          "indexed": true,
          "internalType": "address",
          "name": "department",
          "type": "address"
        },
        {
          "indexed": false,
          "internalType": "uint256",
          "name": "oldBudget",
          "type": "uint256"
        },
        {
          "indexed": false,
          "internalType": "uint256",
          "name": "newBudget",
          "type": "uint256"
        },
        {
          "indexed": false,
          "internalType": "uint256",
          "name": "transactionId",
          "type": "uint256"
        }
      ],
      "name": "BudgetUpdated",
      "type": "event"
    },
    {
      "anonymous": false,
      "inputs": [
        {
          "indexed": true,
          "internalType": "uint256",
          "name": "id",
          "type": "uint256"
        },
        {
          "indexed": false,
          "internalType": "enum BudgetController.TransactionStatus",
          "name": "status",
          "type": "uint8"
        }
      ],
      "name": "TransactionCompleted",
      "type": "event"
    },
    {
      "anonymous": false,
      "inputs": [
        {
          "indexed": true,
          "internalType": "uint256",
          "name": "id",
          "type": "uint256"
        },
        {
          "indexed": true,
          "internalType": "address",
          "name": "department",
          "type": "address"
        },
        {
          "indexed": false,
          "internalType": "enum BudgetController.TransactionType",
          "name": "txType",
          "type": "uint8"
        },
        {
          "indexed": false,
          "internalType": "uint256",
          "name": "amount",
          "type": "uint256"
        }
      ],
      "name": "TransactionCreated",
      "type": "event"
    },
    {
      "inputs": [],
      "name": "budgetDAO",
      "outputs": [
        {
          "internalType": "address",
          "name": "",
          "type": "address"
        }
      ],
      "stateMutability": "view",
      "type": "function"
    },
    {
      "inputs": [
        {
          "internalType": "enum BudgetController.TransactionType",
          "name": "txType",
          "type": "uint8"
        },
        {
          "internalType": "uint256",
          "name": "amount",
          "type": "uint256"
        },
        {
          "internalType": "string",
          "name": "description",
          "type": "string"
        }
      ],
      "name": "createTransaction",
      "outputs": [
        {
          "internalType": "uint256",
          "name": "",
          "type": "uint256"
        }
      ],
      "stateMutability": "nonpayable",
      "type": "function"
    },
    {
      "inputs": [],
      "name": "departmentRegistry",
      "outputs": [
        {
          "internalType": "contract IDepartmentRegistry",
          "name": "",
          "type": "address"
        }
      ],
      "stateMutability": "view",
      "type": "function"
    },
    {
      "inputs": [
        {
          "internalType": "address",
          "name": "",
          "type": "address"
        }
      ],
      "name": "departmentTransactionCount",
      "outputs": [
        {
          "internalType": "uint256",
          "name": "",
          "type": "uint256"
        }
      ],
      "stateMutability": "view",
      "type": "function"
    },
    {
      "inputs": [
        {
          "internalType": "address",
          "name": "",
          "type": "address"
        },
        {
          "internalType": "uint256",
          "name": "",
          "type": "uint256"
        }
      ],
      "name": "departmentTransactions",
      "outputs": [
        {
          "internalType": "uint256",
          "name": "",
          "type": "uint256"
        }
      ],
      "stateMutability": "view",
      "type": "function"
    },
    {
      "inputs": [
        {
          "internalType": "address",
          "name": "department",
          "type": "address"
        }
      ],
      "name": "getTransactionsByDepartment",
      "outputs": [
        {
          "components": [
            {
              "internalType": "uint256",
              "name": "id",
              "type": "uint256"
            },
            {
              "internalType": "address",
              "name": "department",
              "type": "address"
            },
            {
              "internalType": "enum BudgetController.TransactionType",
              "name": "txType",
              "type": "uint8"
            },
            {
              "internalType": "uint256",
              "name": "amount",
              "type": "uint256"
            },
            {
              "internalType": "string",
              "name": "description",
              "type": "string"
            },
            {
              "internalType": "enum BudgetController.TransactionStatus",
              "name": "status",
              "type": "uint8"
            },
            {
              "internalType": "uint256",
              "name": "timestamp",
              "type": "uint256"
            }
          ],
          "internalType": "struct BudgetController.Transaction[]",
          "name": "",
          "type": "tuple[]"
        }
      ],
      "stateMutability": "view",
      "type": "function"
    },
    {
      "inputs": [
        {
          "internalType": "address",
          "name": "department",
          "type": "address"
        },
        {
          "internalType": "uint256",
          "name": "initialBudget",
          "type": "uint256"
        }
      ],
      "name": "initializeDepartmentBudget",
      "outputs": [],
      "stateMutability": "nonpayable",
      "type": "function"
    },
    {
      "inputs": [
        {
          "internalType": "uint256",
          "name": "transactionId",
          "type": "uint256"
        }
      ],
      "name": "processTransaction",
      "outputs": [],
      "stateMutability": "nonpayable",
      "type": "function"
    },
    {
      "inputs": [
        {
          "internalType": "enum BudgetController.TransactionType",
          "name": "txType",
          "type": "uint8"
        },
        {
          "internalType": "uint256",
          "name": "amount",
          "type": "uint256"
        },
        {
          "internalType": "string",
          "name": "description",
          "type": "string"
        }
      ],
      "name": "submitTransaction",
      "outputs": [
        {
          "internalType": "uint256",
          "name": "",
          "type": "uint256"
        }
      ],
      "stateMutability": "nonpayable",
      "type": "function"
    },
    {
      "inputs": [],
      "name": "transactionCount",
      "outputs": [
        {
          "internalType": "uint256",
          "name": "",
          "type": "uint256"
        }
      ],
      "stateMutability": "view",
      "type": "function"
    },
    {
      "inputs": [
        {
          "internalType": "uint256",
          "name": "",
          "type": "uint256"
        }
      ],
      "name": "transactions",
      "outputs": [
        {
          "internalType": "uint256",
          "name": "id",
          "type": "uint256"
        },
        {
          "internalType": "address",
          "name": "department",
          "type": "address"
        },
        {
          "internalType": "enum BudgetController.TransactionType",
          "name": "txType",
          "type": "uint8"
        },
        {
          "internalType": "uint256",
          "name": "amount",
          "type": "uint256"
        },
        {
          "internalType": "string",
          "name": "description",
          "type": "string"
        },
        {
          "internalType": "enum BudgetController.TransactionStatus",
          "name": "status",
          "type": "uint8"
        },
        {
          "internalType": "uint256",
          "name": "timestamp",
          "type": "uint256"
        }
      ],
      "stateMutability": "view",
      "type": "function"
    },
    {
      "inputs": [
        {
          "internalType": "address",
          "name": "department",
          "type": "address"
        },
        {
          "internalType": "uint256",
          "name": "newBudget",
          "type": "uint256"
        }
      ],
      "name": "updateDepartmentBudget",
      "outputs": [],
      "stateMutability": "nonpayable",
      "type": "function"
    }
  ],
  "bytecode": "0x6080604052348015600f57600080fd5b50604051611ece380380611ece833981016040819052602c916077565b600080546001600160a01b039384166001600160a01b0319918216179091556005805492909316911617905560a5565b80516001600160a01b0381168114607257600080fd5b919050565b60008060408385031215608957600080fd5b609083605c565b9150609c60208401605c565b90509250929050565b611e1a806100b46000396000f3fe608060405234801561001057600080fd5b50600436106100b45760003560e01c8063680c09b511610071578063680c09b5146101585780639ace38c214610178578063b5ddbda81461019e578063b77bf600146101be578063f0066f83146101c7578063f57c5ecc146101da57600080fd5b80630d11506c146100b95780631c434df0146100ce578063200c5b9d146100e1578063261b3e491461010757806335c7bf9e146101325780635df5010c14610145575b600080fd5b6100cc6100c73660046116f9565b6101ed565b005b6100cc6100dc3660046116f9565b6104ca565b6100f46100ef3660046117bd565b6108e5565b6040519081526020015b60405180910390f35b60005461011a906001600160a01b031681565b6040516001600160a01b0390911681526020016100fe565b6100f46101403660046116f9565b610b8d565b6100f46101533660046117bd565b610bbe565b6100f461016636600461185d565b60046020526000908152604090205481565b61018b610186366004611881565b610d9a565b6040516100fe9796959493929190611924565b6101b16101ac36600461185d565b610e71565b6040516100fe9190611980565b6100f460025481565b6100cc6101d5366004611881565b6110f9565b60055461011a906001600160a01b031681565b600054604051635692e5a160e11b81523360048201526001600160a01b039091169063ad25cb4290602401602060405180830381865afa158015610235573d6000803e3d6000fd5b505050506040513d601f19601f820116820180604052508101906102599190611a60565b8061026e57506005546001600160a01b031633145b6102935760405162461bcd60e51b815260040161028a90611a7b565b60405180910390fd5b6000546040516344d49dcd60e11b81526001600160a01b038481166004830152909116906389a93b9a90602401602060405180830381865afa1580156102dd573d6000803e3d6000fd5b505050506040513d601f19601f820116820180604052508101906103019190611a60565b61034d5760405162461bcd60e51b815260206004820152601860248201527f4465706172746d656e74206973206e6f74206163746976650000000000000000604482015260640161028a565b60008054604051636e68c25360e01b81526001600160a01b03858116600483015290911690636e68c25390602401602060405180830381865afa158015610398573d6000803e3d6000fd5b505050506040513d601f19601f820116820180604052508101906103bc9190611aa3565b9050600061041060028385116103db576103d68585611ad2565b6103e5565b6103e58486611ad2565b6040518060400160405280600d81526020016c4275646765742055706461746560981b815250610bbe565b600054604051630344541b60e21b81526001600160a01b03878116600483015260248201879052929350911690630d11506c90604401600060405180830381600087803b15801561046057600080fd5b505af1158015610474573d6000803e3d6000fd5b505060408051858152602081018790529081018490526001600160a01b03871692507f1c6f534fc8e314bccb4945dbaba4438a802afe2c11d64b93b3eaa79c5f017c6e915060600160405180910390a250505050565b600054604051635692e5a160e11b81523360048201526001600160a01b039091169063ad25cb4290602401602060405180830381865afa158015610512573d6000803e3d6000fd5b505050506040513d601f19601f820116820180604052508101906105369190611a60565b8061054b57506005546001600160a01b031633145b6105675760405162461bcd60e51b815260040161028a90611a7b565b600054600160a01b900460ff16156105b25760405162461bcd60e51b815260206004820152600e60248201526d1499595b9d1c985b9d0818d85b1b60921b604482015260640161028a565b6000805460ff60a01b1916600160a01b1790558080158015906105df575069152d02c7e14af68000008111155b61061c5760405162461bcd60e51b815260206004820152600e60248201526d125b9d985b1a5908185b5bdd5b9d60921b604482015260640161028a565b600054604051630cd29ba760e31b81526001600160a01b03858116600483015290911690636694dd3890602401600060405180830381865afa158015610666573d6000803e3d6000fd5b505050506040513d6000823e601f3d908101601f1916820160405261068e9190810190611b3d565b60a001516106d65760405162461bcd60e51b81526020600482015260156024820152744465706172746d656e74206e6f742061637469766560581b604482015260640161028a565b600280549060006106e683611bf8565b90915550506002546040805160e0810182528281526001600160a01b0386811660208084019182526000848601818152606086018a905286518088018852601981527f496e697469616c2062756467657420616c6c6f636174696f6e00000000000000818501526080870152600160a087018190524260c08801528883529283905295902084518155915190820180546001600160a01b03198116929094169182178155945193949193926001600160a81b03191617600160a01b8360038111156107b3576107b361189a565b021790555060608201516002820155608082015160038201906107d69082611c9a565b5060a082015160048201805460ff191660018360028111156107fa576107fa61189a565b021790555060c091909101516005909101556001600160a01b03841660008181526003602090815260408083208054600181018255908452828420018590559282526004905290812080549161084f83611bf8565b9190505550836001600160a01b0316817fc5617696b75e538ed738f904611fdfb78dff557717f05c9ea38595041503c5f0600086604051610891929190611d59565b60405180910390a3807f11a3517410d399d687a3dac00c28ef32ffea27e8991a0d4d2283382878b118f660016040516108ca9190611d74565b60405180910390a250506000805460ff60a01b191690555050565b6000805460405163266ebeb160e21b81523360048201526001600160a01b03909116906399bafac490602401602060405180830381865afa15801561092e573d6000803e3d6000fd5b505050506040513d601f19601f820116820180604052508101906109529190611a60565b6109945760405162461bcd60e51b8152602060048201526013602482015272139bdd0819195c185c9d1b595b9d081a195859606a1b604482015260640161028a565b6000831180156109ae575069152d02c7e14af68000008311155b6109eb5760405162461bcd60e51b815260206004820152600e60248201526d125b9d985b1a5908185b5bdd5b9d60921b604482015260640161028a565b600280549060006109fb83611bf8565b90915550506002546040805160e081018252828152336020820152908101866003811115610a2b57610a2b61189a565b81526020810186905260408101859052606001600081524260209182015260008381526001808352604091829020845181559284015190830180546001600160a01b039092166001600160a01b0319831681178255928501519290916001600160a81b03191617600160a01b836003811115610aa957610aa961189a565b02179055506060820151600282015560808201516003820190610acc9082611c9a565b5060a082015160048201805460ff19166001836002811115610af057610af061189a565b021790555060c0919091015160059091015533600081815260036020908152604080832080546001810182559084528284200185905592825260049052908120805491610b3c83611bf8565b9190505550336001600160a01b0316817fc5617696b75e538ed738f904611fdfb78dff557717f05c9ea38595041503c5f08787604051610b7d929190611d59565b60405180910390a3949350505050565b60036020528160005260406000208181548110610ba957600080fd5b90600052602060002001600091509150505481565b6002805460009182610bcf83611bf8565b90915550506002546040805160e081018252828152336020820152908101866003811115610bff57610bff61189a565b81526020810186905260408101859052606001600181524260209182015260008381526001808352604091829020845181559284015190830180546001600160a01b039092166001600160a01b0319831681178255928501519290916001600160a81b03191617600160a01b836003811115610c7d57610c7d61189a565b02179055506060820151600282015560808201516003820190610ca09082611c9a565b5060a082015160048201805460ff19166001836002811115610cc457610cc461189a565b021790555060c0919091015160059091015533600081815260036020908152604080832080546001810182559084528284200185905592825260049052908120805491610d1083611bf8565b9190505550336001600160a01b0316817fc5617696b75e538ed738f904611fdfb78dff557717f05c9ea38595041503c5f08787604051610d51929190611d59565b60405180910390a3807f11a3517410d399d687a3dac00c28ef32ffea27e8991a0d4d2283382878b118f66001604051610d8a9190611d74565b60405180910390a2949350505050565b600160208190526000918252604090912080549181015460028201546003830180546001600160a01b03841694600160a01b90940460ff16939190610dde90611c11565b80601f0160208091040260200160405190810160405280929190818152602001828054610e0a90611c11565b8015610e575780601f10610e2c57610100808354040283529160200191610e57565b820191906000526020600020905b815481529060010190602001808311610e3a57829003601f168201915b505050506004830154600590930154919260ff1691905087565b6001600160a01b0381166000908152600360209081526040808320805482518185028101850190935280835260609493830182828015610ed057602002820191906000526020600020905b815481526020019060010190808311610ebc575b505050505090506000815167ffffffffffffffff811115610ef357610ef3611725565b604051908082528060200260200182016040528015610f5957816020015b6040805160e081018252600080825260208083018290529282018190526060808301829052608083015260a0820181905260c08201528252600019909201910181610f115790505b50905060005b82518110156110f15760016000848381518110610f7e57610f7e611d82565b6020908102919091018101518252818101929092526040908101600020815160e0810183528154815260018201546001600160a01b03811694820194909452929091830190600160a01b900460ff166003811115610fde57610fde61189a565b6003811115610fef57610fef61189a565b81526020016002820154815260200160038201805461100d90611c11565b80601f016020809104026020016040519081016040528092919081815260200182805461103990611c11565b80156110865780601f1061105b57610100808354040283529160200191611086565b820191906000526020600020905b81548152906001019060200180831161106957829003601f168201915b5050509183525050600482015460209091019060ff1660028111156110ad576110ad61189a565b60028111156110be576110be61189a565b81526020016005820154815250508282815181106110de576110de611d82565b6020908102919091010152600101610f5f565b509392505050565b600054604051635692e5a160e11b81523360048201526001600160a01b039091169063ad25cb4290602401602060405180830381865afa158015611141573d6000803e3d6000fd5b505050506040513d601f19601f820116820180604052508101906111659190611a60565b8061117a57506005546001600160a01b031633145b6111965760405162461bcd60e51b815260040161028a90611a7b565b600054600160a01b900460ff16156111e15760405162461bcd60e51b815260206004820152600e60248201526d1499595b9d1c985b9d0818d85b1b60921b604482015260640161028a565b6000805460ff60a01b1916600160a01b17815581815260016020526040812080549091036112495760405162461bcd60e51b8152602060048201526015602482015274151c985b9cd858dd1a5bdb881b9bdd08199bdd5b99605a1b604482015260640161028a565b6000600482015460ff1660028111156112645761126461189a565b146112b15760405162461bcd60e51b815260206004820152601760248201527f5472616e73616374696f6e206e6f742070656e64696e67000000000000000000604482015260640161028a565b6000805460018301546040516327a9212760e01b81526001600160a01b0391821660048201529116906327a9212790602401600060405180830381865afa158015611300573d6000803e3d6000fd5b505050506040513d6000823e601f3d908101601f191682016040526113289190810190611b3d565b905060036001830154600160a01b900460ff16600381111561134c5761134c61189a565b036113d95780602001518260020154826040015161136a9190611d98565b11156113aa5760405162461bcd60e51b815260206004820152600f60248201526e109d5919d95d08195e18d959591959608a1b604482015260640161028a565b600182015460028301546113d4916001600160a01b03811691600160a01b90910460ff16906114ed565b611490565b60006001830154600160a01b900460ff1660038111156113fb576113fb61189a565b036114905769152d02c7e14af68000008260020154826020015161141f9190611d98565b11156114665760405162461bcd60e51b815260206004820152601660248201527522bc31b2b2b2399036b0bc1030b63637b1b0ba34b7b760511b604482015260640161028a565b60018201546002830154611490916001600160a01b03811691600160a01b90910460ff16906114ed565b60048201805460ff1916600190811790915560405184917f11a3517410d399d687a3dac00c28ef32ffea27e8991a0d4d2283382878b118f6916114d39190611d74565b60405180910390a250506000805460ff60a01b1916905550565b600080546040516327a9212760e01b81526001600160a01b038681166004830152909116906327a9212790602401600060405180830381865afa158015611538573d6000803e3d6000fd5b505050506040513d6000823e601f3d908101601f191682016040526115609190810190611b3d565b604081015160208201519192509060038560038111156115825761158261189a565b03611598576115918483611d98565b91506115be565b60008560038111156115ac576115ac61189a565b036115be576115bb8482611d98565b90505b60006115ca83836116b0565b600054608086015160405162bacb0b60e01b81526001600160a01b038b8116600483015260248201859052604482019290925260648101879052929350169062bacb0b90608401600060405180830381600087803b15801561162b57600080fd5b505af115801561163f573d6000803e3d6000fd5b50505050606482605a6116529190611dab565b61165c9190611dc2565b83106116a75760408051848152602081018490526001600160a01b038916917ffa05e6c946b9b30d53ea35a0c06832056010f40d2686eba05a629781030fa8c2910160405180910390a25b50505050505050565b6000816000036116c2575060006116db565b816116ce846064611dab565b6116d89190611dc2565b90505b92915050565b6001600160a01b03811681146116f657600080fd5b50565b6000806040838503121561170c57600080fd5b8235611717816116e1565b946020939093013593505050565b634e487b7160e01b600052604160045260246000fd5b60405160e0810167ffffffffffffffff8111828210171561175e5761175e611725565b60405290565b604051601f8201601f1916810167ffffffffffffffff8111828210171561178d5761178d611725565b604052919050565b600067ffffffffffffffff8211156117af576117af611725565b50601f01601f191660200190565b6000806000606084860312156117d257600080fd5b8335600481106117e157600080fd5b925060208401359150604084013567ffffffffffffffff81111561180457600080fd5b8401601f8101861361181557600080fd5b803561182861182382611795565b611764565b81815287602083850101111561183d57600080fd5b816020840160208301376000602083830101528093505050509250925092565b60006020828403121561186f57600080fd5b813561187a816116e1565b9392505050565b60006020828403121561189357600080fd5b5035919050565b634e487b7160e01b600052602160045260246000fd5b600481106118c0576118c061189a565b9052565b60005b838110156118df5781810151838201526020016118c7565b50506000910152565b600081518084526119008160208601602086016118c4565b601f01601f19169290920160200192915050565b600381106118c0576118c061189a565b8781526001600160a01b038716602082015261194360408201876118b0565b84606082015260e06080820152600061195f60e08301866118e8565b905061196e60a0830185611914565b8260c083015298975050505050505050565b6000602082016020835280845180835260408501915060408160051b86010192506020860160005b82811015611a3f57868503603f190184528151805186526020808201516001600160a01b031690870152604080820151906119e5908801826118b0565b5060608101516060870152608081015160e06080880152611a0960e08801826118e8565b905060a0820151611a1d60a0890182611914565b5060c091820151969091019590955260209384019391909101906001016119a8565b50929695505050505050565b80518015158114611a5b57600080fd5b919050565b600060208284031215611a7257600080fd5b6116d882611a4b565b6020808252600e908201526d139bdd08185d5d1a1bdc9a5e995960921b604082015260600190565b600060208284031215611ab557600080fd5b5051919050565b634e487b7160e01b600052601160045260246000fd5b818103818111156116db576116db611abc565b600082601f830112611af657600080fd5b8151611b0461182382611795565b818152846020838601011115611b1957600080fd5b611b2a8260208301602087016118c4565b949350505050565b8051611a5b816116e1565b600060208284031215611b4f57600080fd5b815167ffffffffffffffff811115611b6657600080fd5b820160e08185031215611b7857600080fd5b611b8061173b565b815167ffffffffffffffff811115611b9757600080fd5b611ba386828501611ae5565b82525060208281015190820152604080830151908201526060808301519082015260808083015190820152611bda60a08301611a4b565b60a0820152611beb60c08301611b32565b60c0820152949350505050565b600060018201611c0a57611c0a611abc565b5060010190565b600181811c90821680611c2557607f821691505b602082108103611c4557634e487b7160e01b600052602260045260246000fd5b50919050565b601f821115611c9557806000526020600020601f840160051c81016020851015611c725750805b601f840160051c820191505b81811015611c925760008155600101611c7e565b50505b505050565b815167ffffffffffffffff811115611cb457611cb4611725565b611cc881611cc28454611c11565b84611c4b565b6020601f821160018114611cfc5760008315611ce45750848201515b600019600385901b1c1916600184901b178455611c92565b600084815260208120601f198516915b82811015611d2c5787850151825560209485019460019092019101611d0c565b5084821015611d4a5786840151600019600387901b60f8161c191681555b50505050600190811b01905550565b60408101611d6782856118b0565b8260208301529392505050565b602081016116db8284611914565b634e487b7160e01b600052603260045260246000fd5b808201808211156116db576116db611abc565b80820281158282048414176116db576116db611abc565b600082611ddf57634e487b7160e01b600052601260045260246000fd5b50049056fea2646970667358221220020237cc5156f0833e0c93a016d7f14bff796f9741fd714d6ede615cb5bb9c0264736f6c634300081c0033",
  "linkReferences": {},
  "deployedLinkReferences": {}
}