{
  "_format": "hh-sol-artifact-1",
  "contractName": "BudgetController",
  "sourceName": "contracts/BudgetController.sol",
  "abi": [
    {
      "inputs": [
        {
          "internalType": "address",
          "name": "_departmentRegistry",
          "type": "address"
        }
      ],
      "stateMutability": "nonpayable",
      "type": "constructor"
    },
    {
      "anonymous": false,
      "inputs": [
        {
          "indexed": true,
          "internalType": "address",
          "name": "department",
          "type": "address"
        },
        {
          "indexed": false,
          "internalType": "uint256",
          "name": "spent",
          "type": "uint256"
        },
        {
          "indexed": false,
          "internalType": "uint256",
          "name": "budget",
          "type": "uint256"
        }
      ],
      "name": "BudgetLimitWarning",
      "type": "event"
    },
    {
      "anonymous": false,
      "inputs": [
        {
          "indexed": true,
          "internalType": "address",
          "name": "department",
          "type": "address"
        },
        {
          "indexed": false,
          "internalType": "uint256",
          "name": "oldBudget",
          "type": "uint256"
        },
        {
          "indexed": false,
          "internalType": "uint256",
          "name": "newBudget",
          "type": "uint256"
        },
        {
          "indexed": false,
          "internalType": "uint256",
          "name": "transactionId",
          "type": "uint256"
        }
      ],
      "name": "BudgetUpdated",
      "type": "event"
    },
    {
      "anonymous": false,
      "inputs": [
        {
          "indexed": false,
          "internalType": "uint256",
          "name": "newTotalBudget",
          "type": "uint256"
        }
      ],
      "name": "TotalBudgetUpdated",
      "type": "event"
    },
    {
      "anonymous": false,
      "inputs": [
        {
          "indexed": false,
          "internalType": "uint256",
          "name": "newTotalSpent",
          "type": "uint256"
        }
      ],
      "name": "TotalSpentUpdated",
      "type": "event"
    },
    {
      "anonymous": false,
      "inputs": [
        {
          "indexed": true,
          "internalType": "uint256",
          "name": "id",
          "type": "uint256"
        },
        {
          "indexed": false,
          "internalType": "enum BudgetController.TransactionStatus",
          "name": "status",
          "type": "uint8"
        }
      ],
      "name": "TransactionCompleted",
      "type": "event"
    },
    {
      "anonymous": false,
      "inputs": [
        {
          "indexed": true,
          "internalType": "uint256",
          "name": "id",
          "type": "uint256"
        },
        {
          "indexed": true,
          "internalType": "address",
          "name": "department",
          "type": "address"
        },
        {
          "indexed": false,
          "internalType": "enum BudgetController.TransactionType",
          "name": "txType",
          "type": "uint8"
        },
        {
          "indexed": false,
          "internalType": "uint256",
          "name": "amount",
          "type": "uint256"
        }
      ],
      "name": "TransactionCreated",
      "type": "event"
    },
    {
      "inputs": [
        {
          "internalType": "enum BudgetController.TransactionType",
          "name": "txType",
          "type": "uint8"
        },
        {
          "internalType": "uint256",
          "name": "amount",
          "type": "uint256"
        },
        {
          "internalType": "string",
          "name": "description",
          "type": "string"
        }
      ],
      "name": "createTransaction",
      "outputs": [
        {
          "internalType": "uint256",
          "name": "",
          "type": "uint256"
        }
      ],
      "stateMutability": "nonpayable",
      "type": "function"
    },
    {
      "inputs": [],
      "name": "departmentRegistry",
      "outputs": [
        {
          "internalType": "contract IDepartmentRegistry",
          "name": "",
          "type": "address"
        }
      ],
      "stateMutability": "view",
      "type": "function"
    },
    {
      "inputs": [
        {
          "internalType": "address",
          "name": "",
          "type": "address"
        }
      ],
      "name": "departmentTransactionCount",
      "outputs": [
        {
          "internalType": "uint256",
          "name": "",
          "type": "uint256"
        }
      ],
      "stateMutability": "view",
      "type": "function"
    },
    {
      "inputs": [
        {
          "internalType": "address",
          "name": "",
          "type": "address"
        },
        {
          "internalType": "uint256",
          "name": "",
          "type": "uint256"
        }
      ],
      "name": "departmentTransactions",
      "outputs": [
        {
          "internalType": "uint256",
          "name": "",
          "type": "uint256"
        }
      ],
      "stateMutability": "view",
      "type": "function"
    },
    {
      "inputs": [],
      "name": "getSystemMetrics",
      "outputs": [
        {
          "internalType": "uint256",
          "name": "totalBudget",
          "type": "uint256"
        },
        {
          "internalType": "uint256",
          "name": "totalSpent",
          "type": "uint256"
        },
        {
          "internalType": "uint256",
          "name": "pendingTransactionCount",
          "type": "uint256"
        },
        {
          "internalType": "uint256",
          "name": "completedTransactionCount",
          "type": "uint256"
        }
      ],
      "stateMutability": "view",
      "type": "function"
    },
    {
      "inputs": [
        {
          "internalType": "address",
          "name": "department",
          "type": "address"
        }
      ],
      "name": "getTransactionsByDepartment",
      "outputs": [
        {
          "components": [
            {
              "internalType": "uint256",
              "name": "id",
              "type": "uint256"
            },
            {
              "internalType": "address",
              "name": "department",
              "type": "address"
            },
            {
              "internalType": "enum BudgetController.TransactionType",
              "name": "txType",
              "type": "uint8"
            },
            {
              "internalType": "uint256",
              "name": "amount",
              "type": "uint256"
            },
            {
              "internalType": "string",
              "name": "description",
              "type": "string"
            },
            {
              "internalType": "enum BudgetController.TransactionStatus",
              "name": "status",
              "type": "uint8"
            },
            {
              "internalType": "uint256",
              "name": "timestamp",
              "type": "uint256"
            }
          ],
          "internalType": "struct BudgetController.Transaction[]",
          "name": "",
          "type": "tuple[]"
        }
      ],
      "stateMutability": "view",
      "type": "function"
    },
    {
      "inputs": [
        {
          "internalType": "address",
          "name": "department",
          "type": "address"
        },
        {
          "internalType": "uint256",
          "name": "initialBudget",
          "type": "uint256"
        }
      ],
      "name": "initializeDepartmentBudget",
      "outputs": [],
      "stateMutability": "nonpayable",
      "type": "function"
    },
    {
      "inputs": [
        {
          "internalType": "uint256",
          "name": "transactionId",
          "type": "uint256"
        }
      ],
      "name": "processTransaction",
      "outputs": [],
      "stateMutability": "nonpayable",
      "type": "function"
    },
    {
      "inputs": [
        {
          "internalType": "enum BudgetController.TransactionType",
          "name": "txType",
          "type": "uint8"
        },
        {
          "internalType": "uint256",
          "name": "amount",
          "type": "uint256"
        },
        {
          "internalType": "string",
          "name": "description",
          "type": "string"
        }
      ],
      "name": "submitTransaction",
      "outputs": [
        {
          "internalType": "uint256",
          "name": "",
          "type": "uint256"
        }
      ],
      "stateMutability": "nonpayable",
      "type": "function"
    },
    {
      "inputs": [],
      "name": "totalBudgetAllocated",
      "outputs": [
        {
          "internalType": "uint256",
          "name": "",
          "type": "uint256"
        }
      ],
      "stateMutability": "view",
      "type": "function"
    },
    {
      "inputs": [],
      "name": "totalBudgetSpent",
      "outputs": [
        {
          "internalType": "uint256",
          "name": "",
          "type": "uint256"
        }
      ],
      "stateMutability": "view",
      "type": "function"
    },
    {
      "inputs": [],
      "name": "transactionCount",
      "outputs": [
        {
          "internalType": "uint256",
          "name": "",
          "type": "uint256"
        }
      ],
      "stateMutability": "view",
      "type": "function"
    },
    {
      "inputs": [
        {
          "internalType": "uint256",
          "name": "",
          "type": "uint256"
        }
      ],
      "name": "transactions",
      "outputs": [
        {
          "internalType": "uint256",
          "name": "id",
          "type": "uint256"
        },
        {
          "internalType": "address",
          "name": "department",
          "type": "address"
        },
        {
          "internalType": "enum BudgetController.TransactionType",
          "name": "txType",
          "type": "uint8"
        },
        {
          "internalType": "uint256",
          "name": "amount",
          "type": "uint256"
        },
        {
          "internalType": "string",
          "name": "description",
          "type": "string"
        },
        {
          "internalType": "enum BudgetController.TransactionStatus",
          "name": "status",
          "type": "uint8"
        },
        {
          "internalType": "uint256",
          "name": "timestamp",
          "type": "uint256"
        }
      ],
      "stateMutability": "view",
      "type": "function"
    },
    {
      "inputs": [
        {
          "internalType": "address",
          "name": "department",
          "type": "address"
        },
        {
          "internalType": "uint256",
          "name": "newBudget",
          "type": "uint256"
        }
      ],
      "name": "updateDepartmentBudget",
      "outputs": [],
      "stateMutability": "nonpayable",
      "type": "function"
    },
    {
      "inputs": [],
      "name": "updateTotals",
      "outputs": [],
      "stateMutability": "nonpayable",
      "type": "function"
    }
  ],
  "bytecode": "0x6080604052348015600f57600080fd5b5060405161221d38038061221d833981016040819052602c916050565b600080546001600160a01b0319166001600160a01b0392909216919091179055607e565b600060208284031215606157600080fd5b81516001600160a01b0381168114607757600080fd5b9392505050565b6121908061008d6000396000f3fe608060405234801561001057600080fd5b50600436106100f55760003560e01c80635df5010c11610097578063b5ddbda811610066578063b5ddbda814610218578063b77bf60014610238578063dd60639114610241578063f0066f831461024a57600080fd5b80635df5010c14610197578063680c09b5146101aa5780636cfccc2f146101ca5780639ace38c2146101f257600080fd5b8063261b3e49116100d3578063261b3e491461014857806335c7bf9e146101735780635155b3ce1461018657806358f940311461018e57600080fd5b80630d11506c146100fa5780631c434df01461010f578063200c5b9d14610122575b600080fd5b61010d6101083660046119b5565b61025d565b005b61010d61011d3660046119b5565b610525565b610135610130366004611a79565b61092b565b6040519081526020015b60405180910390f35b60005461015b906001600160a01b031681565b6040516001600160a01b03909116815260200161013f565b6101356101813660046119b5565b610bd3565b61010d610c04565b61013560055481565b6101356101a5366004611a79565b610dd8565b6101356101b8366004611b19565b60046020526000908152604090205481565b6101d2610fb4565b60408051948552602085019390935291830152606082015260800161013f565b610205610200366004611b3d565b611066565b60405161013f9796959493929190611be0565b61022b610226366004611b19565b61113d565b60405161013f9190611c3c565b61013560025481565b61013560065481565b61010d610258366004611b3d565b6113c5565b600054604051635692e5a160e11b81523360048201526001600160a01b039091169063ad25cb4290602401602060405180830381865afa1580156102a5573d6000803e3d6000fd5b505050506040513d601f19601f820116820180604052508101906102c99190611d1c565b6102ee5760405162461bcd60e51b81526004016102e590611d37565b60405180910390fd5b6000546040516344d49dcd60e11b81526001600160a01b038481166004830152909116906389a93b9a90602401602060405180830381865afa158015610338573d6000803e3d6000fd5b505050506040513d601f19601f8201168201806040525081019061035c9190611d1c565b6103a85760405162461bcd60e51b815260206004820152601860248201527f4465706172746d656e74206973206e6f7420616374697665000000000000000060448201526064016102e5565b60008054604051636e68c25360e01b81526001600160a01b03858116600483015290911690636e68c25390602401602060405180830381865afa1580156103f3573d6000803e3d6000fd5b505050506040513d601f19601f820116820180604052508101906104179190611d60565b9050600061046b6002838511610436576104318585611d8f565b610440565b6104408486611d8f565b6040518060400160405280600d81526020016c4275646765742055706461746560981b815250610dd8565b600054604051630344541b60e21b81526001600160a01b03878116600483015260248201879052929350911690630d11506c90604401600060405180830381600087803b1580156104bb57600080fd5b505af11580156104cf573d6000803e3d6000fd5b505060408051858152602081018790529081018490526001600160a01b03871692507f1c6f534fc8e314bccb4945dbaba4438a802afe2c11d64b93b3eaa79c5f017c6e915060600160405180910390a250505050565b600054604051635692e5a160e11b81523360048201526001600160a01b039091169063ad25cb4290602401602060405180830381865afa15801561056d573d6000803e3d6000fd5b505050506040513d601f19601f820116820180604052508101906105919190611d1c565b6105ad5760405162461bcd60e51b81526004016102e590611d37565b600054600160a01b900460ff16156105f85760405162461bcd60e51b815260206004820152600e60248201526d1499595b9d1c985b9d0818d85b1b60921b60448201526064016102e5565b6000805460ff60a01b1916600160a01b179055808015801590610625575069152d02c7e14af68000008111155b6106625760405162461bcd60e51b815260206004820152600e60248201526d125b9d985b1a5908185b5bdd5b9d60921b60448201526064016102e5565b600054604051630cd29ba760e31b81526001600160a01b03858116600483015290911690636694dd3890602401600060405180830381865afa1580156106ac573d6000803e3d6000fd5b505050506040513d6000823e601f3d908101601f191682016040526106d49190810190611dfa565b60a0015161071c5760405162461bcd60e51b81526020600482015260156024820152744465706172746d656e74206e6f742061637469766560581b60448201526064016102e5565b6002805490600061072c83611eb5565b90915550506002546040805160e0810182528281526001600160a01b0386811660208084019182526000848601818152606086018a905286518088018852601981527f496e697469616c2062756467657420616c6c6f636174696f6e00000000000000818501526080870152600160a087018190524260c08801528883529283905295902084518155915190820180546001600160a01b03198116929094169182178155945193949193926001600160a81b03191617600160a01b8360038111156107f9576107f9611b56565b0217905550606082015160028201556080820151600382019061081c9082611f57565b5060a082015160048201805460ff1916600183600281111561084057610840611b56565b021790555060c091909101516005909101556001600160a01b03841660008181526003602090815260408083208054600181018255908452828420018590559282526004905290812080549161089583611eb5565b9190505550836001600160a01b0316817fc5617696b75e538ed738f904611fdfb78dff557717f05c9ea38595041503c5f06000866040516108d7929190612016565b60405180910390a3807f11a3517410d399d687a3dac00c28ef32ffea27e8991a0d4d2283382878b118f660016040516109109190612031565b60405180910390a250506000805460ff60a01b191690555050565b6000805460405163266ebeb160e21b81523360048201526001600160a01b03909116906399bafac490602401602060405180830381865afa158015610974573d6000803e3d6000fd5b505050506040513d601f19601f820116820180604052508101906109989190611d1c565b6109da5760405162461bcd60e51b8152602060048201526013602482015272139bdd0819195c185c9d1b595b9d081a195859606a1b60448201526064016102e5565b6000831180156109f4575069152d02c7e14af68000008311155b610a315760405162461bcd60e51b815260206004820152600e60248201526d125b9d985b1a5908185b5bdd5b9d60921b60448201526064016102e5565b60028054906000610a4183611eb5565b90915550506002546040805160e081018252828152336020820152908101866003811115610a7157610a71611b56565b81526020810186905260408101859052606001600081524260209182015260008381526001808352604091829020845181559284015190830180546001600160a01b039092166001600160a01b0319831681178255928501519290916001600160a81b03191617600160a01b836003811115610aef57610aef611b56565b02179055506060820151600282015560808201516003820190610b129082611f57565b5060a082015160048201805460ff19166001836002811115610b3657610b36611b56565b021790555060c0919091015160059091015533600081815260036020908152604080832080546001810182559084528284200185905592825260049052908120805491610b8283611eb5565b9190505550336001600160a01b0316817fc5617696b75e538ed738f904611fdfb78dff557717f05c9ea38595041503c5f08787604051610bc3929190612016565b60405180910390a3949350505050565b60036020528160005260406000208181548110610bef57600080fd5b90600052602060002001600091509150505481565b60008060008060009054906101000a90046001600160a01b03166001600160a01b03166386c3a49c6040518163ffffffff1660e01b8152600401600060405180830381865afa158015610c5b573d6000803e3d6000fd5b505050506040513d6000823e601f3d908101601f19168201604052610c83919081019061203f565b905060005b8151811015610d62576000805483516001600160a01b03909116906327a9212790859085908110610cbb57610cbb6120f8565b60200260200101516040518263ffffffff1660e01b8152600401610cee91906001600160a01b0391909116815260200190565b600060405180830381865afa158015610d0b573d6000803e3d6000fd5b505050506040513d6000823e601f3d908101601f19168201604052610d339190810190611dfa565b9050806020015185610d45919061210e565b9450806040015184610d57919061210e565b935050600101610c88565b50600583905560068290556040518381527f4dfcea5534e430bad95ff41acae4f2a378560e369ce29b71affe10a986cc7cfa9060200160405180910390a16040518281527ff7bbcd269fa2c82d62b258820df285e9b0d85df8637cf63c22ee5c350e7ff3fa9060200160405180910390a1505050565b6002805460009182610de983611eb5565b90915550506002546040805160e081018252828152336020820152908101866003811115610e1957610e19611b56565b81526020810186905260408101859052606001600181524260209182015260008381526001808352604091829020845181559284015190830180546001600160a01b039092166001600160a01b0319831681178255928501519290916001600160a81b03191617600160a01b836003811115610e9757610e97611b56565b02179055506060820151600282015560808201516003820190610eba9082611f57565b5060a082015160048201805460ff19166001836002811115610ede57610ede611b56565b021790555060c0919091015160059091015533600081815260036020908152604080832080546001810182559084528284200185905592825260049052908120805491610f2a83611eb5565b9190505550336001600160a01b0316817fc5617696b75e538ed738f904611fdfb78dff557717f05c9ea38595041503c5f08787604051610f6b929190612016565b60405180910390a3807f11a3517410d399d687a3dac00c28ef32ffea27e8991a0d4d2283382878b118f66001604051610fa49190612031565b60405180910390a2949350505050565b6000808080808060015b60025481116110515760008181526001602052604081206004015460ff166002811115610fed57610fed611b56565b036110045782610ffc81611eb5565b93505061103f565b600160008281526001602052604090206004015460ff16600281111561102c5761102c611b56565b0361103f578161103b81611eb5565b9250505b8061104981611eb5565b915050610fbe565b50600554600654909790965091945092509050565b600160208190526000918252604090912080549181015460028201546003830180546001600160a01b03841694600160a01b90940460ff169391906110aa90611ece565b80601f01602080910402602001604051908101604052809291908181526020018280546110d690611ece565b80156111235780601f106110f857610100808354040283529160200191611123565b820191906000526020600020905b81548152906001019060200180831161110657829003601f168201915b505050506004830154600590930154919260ff1691905087565b6001600160a01b038116600090815260036020908152604080832080548251818502810185019093528083526060949383018282801561119c57602002820191906000526020600020905b815481526020019060010190808311611188575b505050505090506000815167ffffffffffffffff8111156111bf576111bf6119e1565b60405190808252806020026020018201604052801561122557816020015b6040805160e081018252600080825260208083018290529282018190526060808301829052608083015260a0820181905260c082015282526000199092019101816111dd5790505b50905060005b82518110156113bd576001600084838151811061124a5761124a6120f8565b6020908102919091018101518252818101929092526040908101600020815160e0810183528154815260018201546001600160a01b03811694820194909452929091830190600160a01b900460ff1660038111156112aa576112aa611b56565b60038111156112bb576112bb611b56565b8152602001600282015481526020016003820180546112d990611ece565b80601f016020809104026020016040519081016040528092919081815260200182805461130590611ece565b80156113525780601f1061132757610100808354040283529160200191611352565b820191906000526020600020905b81548152906001019060200180831161133557829003601f168201915b5050509183525050600482015460209091019060ff16600281111561137957611379611b56565b600281111561138a5761138a611b56565b81526020016005820154815250508282815181106113aa576113aa6120f8565b602090810291909101015260010161122b565b509392505050565b600054604051635692e5a160e11b81523360048201526001600160a01b039091169063ad25cb4290602401602060405180830381865afa15801561140d573d6000803e3d6000fd5b505050506040513d601f19601f820116820180604052508101906114319190611d1c565b61144d5760405162461bcd60e51b81526004016102e590611d37565b600054600160a01b900460ff16156114985760405162461bcd60e51b815260206004820152600e60248201526d1499595b9d1c985b9d0818d85b1b60921b60448201526064016102e5565b6000805460ff60a01b1916600160a01b17815581815260016020526040812080549091036115005760405162461bcd60e51b8152602060048201526015602482015274151c985b9cd858dd1a5bdb881b9bdd08199bdd5b99605a1b60448201526064016102e5565b6000600482015460ff16600281111561151b5761151b611b56565b146115685760405162461bcd60e51b815260206004820152601760248201527f5472616e73616374696f6e206e6f742070656e64696e6700000000000000000060448201526064016102e5565b6000805460018301546040516327a9212760e01b81526001600160a01b0391821660048201529116906327a9212790602401600060405180830381865afa1580156115b7573d6000803e3d6000fd5b505050506040513d6000823e601f3d908101601f191682016040526115df9190810190611dfa565b905060036001830154600160a01b900460ff16600381111561160357611603611b56565b0361169057806020015182600201548260400151611621919061210e565b11156116615760405162461bcd60e51b815260206004820152600f60248201526e109d5919d95d08195e18d959591959608a1b60448201526064016102e5565b6001820154600283015461168b916001600160a01b03811691600160a01b90910460ff16906117a9565b611747565b60006001830154600160a01b900460ff1660038111156116b2576116b2611b56565b036117475769152d02c7e14af6800000826002015482602001516116d6919061210e565b111561171d5760405162461bcd60e51b815260206004820152601660248201527522bc31b2b2b2399036b0bc1030b63637b1b0ba34b7b760511b60448201526064016102e5565b60018201546002830154611747916001600160a01b03811691600160a01b90910460ff16906117a9565b60048201805460ff1916600117905561175e610c04565b827f11a3517410d399d687a3dac00c28ef32ffea27e8991a0d4d2283382878b118f6600160405161178f9190612031565b60405180910390a250506000805460ff60a01b1916905550565b600080546040516327a9212760e01b81526001600160a01b038681166004830152909116906327a9212790602401600060405180830381865afa1580156117f4573d6000803e3d6000fd5b505050506040513d6000823e601f3d908101601f1916820160405261181c9190810190611dfa565b6040810151602082015191925090600385600381111561183e5761183e611b56565b036118545761184d848361210e565b915061187a565b600085600381111561186857611868611b56565b0361187a57611877848261210e565b90505b6000611886838361196c565b600054608086015160405162bacb0b60e01b81526001600160a01b038b8116600483015260248201859052604482019290925260648101879052929350169062bacb0b90608401600060405180830381600087803b1580156118e757600080fd5b505af11580156118fb573d6000803e3d6000fd5b50505050606482605a61190e9190612121565b6119189190612138565b83106119635760408051848152602081018490526001600160a01b038916917ffa05e6c946b9b30d53ea35a0c06832056010f40d2686eba05a629781030fa8c2910160405180910390a25b50505050505050565b60008160000361197e57506000611997565b8161198a846064612121565b6119949190612138565b90505b92915050565b6001600160a01b03811681146119b257600080fd5b50565b600080604083850312156119c857600080fd5b82356119d38161199d565b946020939093013593505050565b634e487b7160e01b600052604160045260246000fd5b60405160e0810167ffffffffffffffff81118282101715611a1a57611a1a6119e1565b60405290565b604051601f8201601f1916810167ffffffffffffffff81118282101715611a4957611a496119e1565b604052919050565b600067ffffffffffffffff821115611a6b57611a6b6119e1565b50601f01601f191660200190565b600080600060608486031215611a8e57600080fd5b833560048110611a9d57600080fd5b925060208401359150604084013567ffffffffffffffff811115611ac057600080fd5b8401601f81018613611ad157600080fd5b8035611ae4611adf82611a51565b611a20565b818152876020838501011115611af957600080fd5b816020840160208301376000602083830101528093505050509250925092565b600060208284031215611b2b57600080fd5b8135611b368161199d565b9392505050565b600060208284031215611b4f57600080fd5b5035919050565b634e487b7160e01b600052602160045260246000fd5b60048110611b7c57611b7c611b56565b9052565b60005b83811015611b9b578181015183820152602001611b83565b50506000910152565b60008151808452611bbc816020860160208601611b80565b601f01601f19169290920160200192915050565b60038110611b7c57611b7c611b56565b8781526001600160a01b0387166020820152611bff6040820187611b6c565b84606082015260e060808201526000611c1b60e0830186611ba4565b9050611c2a60a0830185611bd0565b8260c083015298975050505050505050565b6000602082016020835280845180835260408501915060408160051b86010192506020860160005b82811015611cfb57868503603f190184528151805186526020808201516001600160a01b03169087015260408082015190611ca190880182611b6c565b5060608101516060870152608081015160e06080880152611cc560e0880182611ba4565b905060a0820151611cd960a0890182611bd0565b5060c09182015196909101959095526020938401939190910190600101611c64565b50929695505050505050565b80518015158114611d1757600080fd5b919050565b600060208284031215611d2e57600080fd5b61199482611d07565b6020808252600f908201526e2737ba1039bab832b91030b236b4b760891b604082015260600190565b600060208284031215611d7257600080fd5b5051919050565b634e487b7160e01b600052601160045260246000fd5b8181038181111561199757611997611d79565b600082601f830112611db357600080fd5b8151611dc1611adf82611a51565b818152846020838601011115611dd657600080fd5b611de7826020830160208701611b80565b949350505050565b8051611d178161199d565b600060208284031215611e0c57600080fd5b815167ffffffffffffffff811115611e2357600080fd5b820160e08185031215611e3557600080fd5b611e3d6119f7565b815167ffffffffffffffff811115611e5457600080fd5b611e6086828501611da2565b82525060208281015190820152604080830151908201526060808301519082015260808083015190820152611e9760a08301611d07565b60a0820152611ea860c08301611def565b60c0820152949350505050565b600060018201611ec757611ec7611d79565b5060010190565b600181811c90821680611ee257607f821691505b602082108103611f0257634e487b7160e01b600052602260045260246000fd5b50919050565b601f821115611f5257806000526020600020601f840160051c81016020851015611f2f5750805b601f840160051c820191505b81811015611f4f5760008155600101611f3b565b50505b505050565b815167ffffffffffffffff811115611f7157611f716119e1565b611f8581611f7f8454611ece565b84611f08565b6020601f821160018114611fb95760008315611fa15750848201515b600019600385901b1c1916600184901b178455611f4f565b600084815260208120601f198516915b82811015611fe95787850151825560209485019460019092019101611fc9565b50848210156120075786840151600019600387901b60f8161c191681555b50505050600190811b01905550565b604081016120248285611b6c565b8260208301529392505050565b602081016119978284611bd0565b60006020828403121561205157600080fd5b815167ffffffffffffffff81111561206857600080fd5b8201601f8101841361207957600080fd5b805167ffffffffffffffff811115612093576120936119e1565b8060051b6120a360208201611a20565b918252602081840181019290810190878411156120bf57600080fd5b6020850194505b838510156120ed57845192506120db8361199d565b828252602094850194909101906120c6565b979650505050505050565b634e487b7160e01b600052603260045260246000fd5b8082018082111561199757611997611d79565b808202811582820484141761199757611997611d79565b60008261215557634e487b7160e01b600052601260045260246000fd5b50049056fea2646970667358221220b722c66b527c0dbd55ed2faa18f796a7d3c660606a8003d3c5dcbe4f160cdc4664736f6c634300081c0033",
  "linkReferences": {},
  "deployedLinkReferences": {}
}