{
  "_format": "hh-sol-artifact-1",
  "contractName": "BudgetController",
  "sourceName": "contracts/BudgetController.sol",
  "abi": [
    {
      "inputs": [
        {
          "internalType": "address",
          "name": "_departmentRegistry",
          "type": "address"
        }
      ],
      "stateMutability": "nonpayable",
      "type": "constructor"
    },
    {
      "anonymous": false,
      "inputs": [
        {
          "indexed": true,
          "internalType": "address",
          "name": "department",
          "type": "address"
        },
        {
          "indexed": false,
          "internalType": "uint256",
          "name": "spent",
          "type": "uint256"
        },
        {
          "indexed": false,
          "internalType": "uint256",
          "name": "budget",
          "type": "uint256"
        }
      ],
      "name": "BudgetLimitWarning",
      "type": "event"
    },
    {
      "anonymous": false,
      "inputs": [
        {
          "indexed": true,
          "internalType": "address",
          "name": "department",
          "type": "address"
        },
        {
          "indexed": false,
          "internalType": "uint256",
          "name": "oldBudget",
          "type": "uint256"
        },
        {
          "indexed": false,
          "internalType": "uint256",
          "name": "newBudget",
          "type": "uint256"
        },
        {
          "indexed": false,
          "internalType": "uint256",
          "name": "transactionId",
          "type": "uint256"
        }
      ],
      "name": "BudgetUpdated",
      "type": "event"
    },
    {
      "anonymous": false,
      "inputs": [
        {
          "indexed": true,
          "internalType": "uint256",
          "name": "id",
          "type": "uint256"
        },
        {
          "indexed": false,
          "internalType": "enum BudgetController.TransactionStatus",
          "name": "status",
          "type": "uint8"
        }
      ],
      "name": "TransactionCompleted",
      "type": "event"
    },
    {
      "anonymous": false,
      "inputs": [
        {
          "indexed": true,
          "internalType": "uint256",
          "name": "id",
          "type": "uint256"
        },
        {
          "indexed": true,
          "internalType": "address",
          "name": "department",
          "type": "address"
        },
        {
          "indexed": false,
          "internalType": "enum BudgetController.TransactionType",
          "name": "txType",
          "type": "uint8"
        },
        {
          "indexed": false,
          "internalType": "uint256",
          "name": "amount",
          "type": "uint256"
        }
      ],
      "name": "TransactionCreated",
      "type": "event"
    },
    {
      "inputs": [],
      "name": "departmentRegistry",
      "outputs": [
        {
          "internalType": "contract IDepartmentRegistry",
          "name": "",
          "type": "address"
        }
      ],
      "stateMutability": "view",
      "type": "function"
    },
    {
      "inputs": [
        {
          "internalType": "address",
          "name": "",
          "type": "address"
        }
      ],
      "name": "departmentTransactionCount",
      "outputs": [
        {
          "internalType": "uint256",
          "name": "",
          "type": "uint256"
        }
      ],
      "stateMutability": "view",
      "type": "function"
    },
    {
      "inputs": [
        {
          "internalType": "address",
          "name": "",
          "type": "address"
        },
        {
          "internalType": "uint256",
          "name": "",
          "type": "uint256"
        }
      ],
      "name": "departmentTransactions",
      "outputs": [
        {
          "internalType": "uint256",
          "name": "",
          "type": "uint256"
        }
      ],
      "stateMutability": "view",
      "type": "function"
    },
    {
      "inputs": [
        {
          "internalType": "address",
          "name": "department",
          "type": "address"
        }
      ],
      "name": "getTransactionsByDepartment",
      "outputs": [
        {
          "components": [
            {
              "internalType": "uint256",
              "name": "id",
              "type": "uint256"
            },
            {
              "internalType": "address",
              "name": "department",
              "type": "address"
            },
            {
              "internalType": "enum BudgetController.TransactionType",
              "name": "txType",
              "type": "uint8"
            },
            {
              "internalType": "uint256",
              "name": "amount",
              "type": "uint256"
            },
            {
              "internalType": "string",
              "name": "description",
              "type": "string"
            },
            {
              "internalType": "enum BudgetController.TransactionStatus",
              "name": "status",
              "type": "uint8"
            },
            {
              "internalType": "uint256",
              "name": "timestamp",
              "type": "uint256"
            }
          ],
          "internalType": "struct BudgetController.Transaction[]",
          "name": "",
          "type": "tuple[]"
        }
      ],
      "stateMutability": "view",
      "type": "function"
    },
    {
      "inputs": [
        {
          "internalType": "address",
          "name": "department",
          "type": "address"
        },
        {
          "internalType": "uint256",
          "name": "initialBudget",
          "type": "uint256"
        }
      ],
      "name": "initializeDepartmentBudget",
      "outputs": [],
      "stateMutability": "nonpayable",
      "type": "function"
    },
    {
      "inputs": [
        {
          "internalType": "uint256",
          "name": "transactionId",
          "type": "uint256"
        }
      ],
      "name": "processTransaction",
      "outputs": [],
      "stateMutability": "nonpayable",
      "type": "function"
    },
    {
      "inputs": [],
      "name": "transactionCount",
      "outputs": [
        {
          "internalType": "uint256",
          "name": "",
          "type": "uint256"
        }
      ],
      "stateMutability": "view",
      "type": "function"
    },
    {
      "inputs": [
        {
          "internalType": "uint256",
          "name": "",
          "type": "uint256"
        }
      ],
      "name": "transactions",
      "outputs": [
        {
          "internalType": "uint256",
          "name": "id",
          "type": "uint256"
        },
        {
          "internalType": "address",
          "name": "department",
          "type": "address"
        },
        {
          "internalType": "enum BudgetController.TransactionType",
          "name": "txType",
          "type": "uint8"
        },
        {
          "internalType": "uint256",
          "name": "amount",
          "type": "uint256"
        },
        {
          "internalType": "string",
          "name": "description",
          "type": "string"
        },
        {
          "internalType": "enum BudgetController.TransactionStatus",
          "name": "status",
          "type": "uint8"
        },
        {
          "internalType": "uint256",
          "name": "timestamp",
          "type": "uint256"
        }
      ],
      "stateMutability": "view",
      "type": "function"
    },
    {
      "inputs": [
        {
          "internalType": "address",
          "name": "department",
          "type": "address"
        },
        {
          "internalType": "uint256",
          "name": "newBudget",
          "type": "uint256"
        }
      ],
      "name": "updateDepartmentBudget",
      "outputs": [],
      "stateMutability": "nonpayable",
      "type": "function"
    }
  ],
  "bytecode": "0x6080604052348015600f57600080fd5b50604051611aac380380611aac833981016040819052602c916050565b600080546001600160a01b0319166001600160a01b0392909216919091179055607e565b600060208284031215606157600080fd5b81516001600160a01b0381168114607757600080fd5b9392505050565b611a1f8061008d6000396000f3fe608060405234801561001057600080fd5b50600436106100935760003560e01c8063680c09b511610066578063680c09b5146101115780639ace38c214610131578063b5ddbda814610157578063b77bf60014610177578063f0066f831461018057600080fd5b80630d11506c146100985780631c434df0146100ad578063261b3e49146100c057806335c7bf9e146100f0575b600080fd5b6100ab6100a63660046113b8565b610193565b005b6100ab6100bb3660046113b8565b61045b565b6000546100d3906001600160a01b031681565b6040516001600160a01b0390911681526020015b60405180910390f35b6101036100fe3660046113b8565b610861565b6040519081526020016100e7565b61010361011f3660046113e4565b60046020526000908152604090205481565b61014461013f366004611408565b610892565b6040516100e797969594939291906114ab565b61016a6101653660046113e4565b610969565b6040516100e79190611507565b61010360025481565b6100ab61018e366004611408565b610bf1565b600054604051635692e5a160e11b81523360048201526001600160a01b039091169063ad25cb4290602401602060405180830381865afa1580156101db573d6000803e3d6000fd5b505050506040513d601f19601f820116820180604052508101906101ff91906115e7565b6102245760405162461bcd60e51b815260040161021b90611602565b60405180910390fd5b6000546040516344d49dcd60e11b81526001600160a01b038481166004830152909116906389a93b9a90602401602060405180830381865afa15801561026e573d6000803e3d6000fd5b505050506040513d601f19601f8201168201806040525081019061029291906115e7565b6102de5760405162461bcd60e51b815260206004820152601860248201527f4465706172746d656e74206973206e6f74206163746976650000000000000000604482015260640161021b565b60008054604051636e68c25360e01b81526001600160a01b03858116600483015290911690636e68c25390602401602060405180830381865afa158015610329573d6000803e3d6000fd5b505050506040513d601f19601f8201168201806040525081019061034d919061162b565b905060006103a1600283851161036c57610367858561165a565b610376565b610376848661165a565b6040518060400160405280600d81526020016c4275646765742055706461746560981b815250610fd0565b600054604051630344541b60e21b81526001600160a01b03878116600483015260248201879052929350911690630d11506c90604401600060405180830381600087803b1580156103f157600080fd5b505af1158015610405573d6000803e3d6000fd5b505060408051858152602081018790529081018490526001600160a01b03871692507f1c6f534fc8e314bccb4945dbaba4438a802afe2c11d64b93b3eaa79c5f017c6e915060600160405180910390a250505050565b600054604051635692e5a160e11b81523360048201526001600160a01b039091169063ad25cb4290602401602060405180830381865afa1580156104a3573d6000803e3d6000fd5b505050506040513d601f19601f820116820180604052508101906104c791906115e7565b6104e35760405162461bcd60e51b815260040161021b90611602565b600054600160a01b900460ff161561052e5760405162461bcd60e51b815260206004820152600e60248201526d1499595b9d1c985b9d0818d85b1b60921b604482015260640161021b565b6000805460ff60a01b1916600160a01b17905580801580159061055b575069152d02c7e14af68000008111155b6105985760405162461bcd60e51b815260206004820152600e60248201526d125b9d985b1a5908185b5bdd5b9d60921b604482015260640161021b565b600054604051630cd29ba760e31b81526001600160a01b03858116600483015290911690636694dd3890602401600060405180830381865afa1580156105e2573d6000803e3d6000fd5b505050506040513d6000823e601f3d908101601f1916820160405261060a9190810190611742565b60a001516106525760405162461bcd60e51b81526020600482015260156024820152744465706172746d656e74206e6f742061637469766560581b604482015260640161021b565b60028054906000610662836117fd565b90915550506002546040805160e0810182528281526001600160a01b0386811660208084019182526000848601818152606086018a905286518088018852601981527f496e697469616c2062756467657420616c6c6f636174696f6e00000000000000818501526080870152600160a087018190524260c08801528883529283905295902084518155915190820180546001600160a01b03198116929094169182178155945193949193926001600160a81b03191617600160a01b83600381111561072f5761072f611421565b02179055506060820151600282015560808201516003820190610752908261189f565b5060a082015160048201805460ff1916600183600281111561077657610776611421565b021790555060c091909101516005909101556001600160a01b0384166000818152600360209081526040808320805460018101825590845282842001859055928252600490529081208054916107cb836117fd565b9190505550836001600160a01b0316817fc5617696b75e538ed738f904611fdfb78dff557717f05c9ea38595041503c5f060008660405161080d92919061195e565b60405180910390a3807f11a3517410d399d687a3dac00c28ef32ffea27e8991a0d4d2283382878b118f660016040516108469190611979565b60405180910390a250506000805460ff60a01b191690555050565b6003602052816000526040600020818154811061087d57600080fd5b90600052602060002001600091509150505481565b600160208190526000918252604090912080549181015460028201546003830180546001600160a01b03841694600160a01b90940460ff169391906108d690611816565b80601f016020809104026020016040519081016040528092919081815260200182805461090290611816565b801561094f5780601f106109245761010080835404028352916020019161094f565b820191906000526020600020905b81548152906001019060200180831161093257829003601f168201915b505050506004830154600590930154919260ff1691905087565b6001600160a01b03811660009081526003602090815260408083208054825181850281018501909352808352606094938301828280156109c857602002820191906000526020600020905b8154815260200190600101908083116109b4575b505050505090506000815167ffffffffffffffff8111156109eb576109eb61166d565b604051908082528060200260200182016040528015610a5157816020015b6040805160e081018252600080825260208083018290529282018190526060808301829052608083015260a0820181905260c08201528252600019909201910181610a095790505b50905060005b8251811015610be95760016000848381518110610a7657610a76611987565b6020908102919091018101518252818101929092526040908101600020815160e0810183528154815260018201546001600160a01b03811694820194909452929091830190600160a01b900460ff166003811115610ad657610ad6611421565b6003811115610ae757610ae7611421565b815260200160028201548152602001600382018054610b0590611816565b80601f0160208091040260200160405190810160405280929190818152602001828054610b3190611816565b8015610b7e5780601f10610b5357610100808354040283529160200191610b7e565b820191906000526020600020905b815481529060010190602001808311610b6157829003601f168201915b5050509183525050600482015460209091019060ff166002811115610ba557610ba5611421565b6002811115610bb657610bb6611421565b8152602001600582015481525050828281518110610bd657610bd6611987565b6020908102919091010152600101610a57565b509392505050565b600054604051635692e5a160e11b81523360048201526001600160a01b039091169063ad25cb4290602401602060405180830381865afa158015610c39573d6000803e3d6000fd5b505050506040513d601f19601f82011682018060405250810190610c5d91906115e7565b610c795760405162461bcd60e51b815260040161021b90611602565b600054600160a01b900460ff1615610cc45760405162461bcd60e51b815260206004820152600e60248201526d1499595b9d1c985b9d0818d85b1b60921b604482015260640161021b565b6000805460ff60a01b1916600160a01b1781558181526001602052604081208054909103610d2c5760405162461bcd60e51b8152602060048201526015602482015274151c985b9cd858dd1a5bdb881b9bdd08199bdd5b99605a1b604482015260640161021b565b6000600482015460ff166002811115610d4757610d47611421565b14610d945760405162461bcd60e51b815260206004820152601760248201527f5472616e73616374696f6e206e6f742070656e64696e67000000000000000000604482015260640161021b565b6000805460018301546040516327a9212760e01b81526001600160a01b0391821660048201529116906327a9212790602401600060405180830381865afa158015610de3573d6000803e3d6000fd5b505050506040513d6000823e601f3d908101601f19168201604052610e0b9190810190611742565b905060036001830154600160a01b900460ff166003811115610e2f57610e2f611421565b03610ebc57806020015182600201548260400151610e4d919061199d565b1115610e8d5760405162461bcd60e51b815260206004820152600f60248201526e109d5919d95d08195e18d959591959608a1b604482015260640161021b565b60018201546002830154610eb7916001600160a01b03811691600160a01b90910460ff16906111ac565b610f73565b60006001830154600160a01b900460ff166003811115610ede57610ede611421565b03610f735769152d02c7e14af680000082600201548260200151610f02919061199d565b1115610f495760405162461bcd60e51b815260206004820152601660248201527522bc31b2b2b2399036b0bc1030b63637b1b0ba34b7b760511b604482015260640161021b565b60018201546002830154610f73916001600160a01b03811691600160a01b90910460ff16906111ac565b60048201805460ff1916600190811790915560405184917f11a3517410d399d687a3dac00c28ef32ffea27e8991a0d4d2283382878b118f691610fb69190611979565b60405180910390a250506000805460ff60a01b1916905550565b6002805460009182610fe1836117fd565b90915550506002546040805160e08101825282815233602082015290810186600381111561101157611011611421565b81526020810186905260408101859052606001600181524260209182015260008381526001808352604091829020845181559284015190830180546001600160a01b039092166001600160a01b0319831681178255928501519290916001600160a81b03191617600160a01b83600381111561108f5761108f611421565b021790555060608201516002820155608082015160038201906110b2908261189f565b5060a082015160048201805460ff191660018360028111156110d6576110d6611421565b021790555060c0919091015160059091015533600081815260036020908152604080832080546001810182559084528284200185905592825260049052908120805491611122836117fd565b9190505550336001600160a01b0316817fc5617696b75e538ed738f904611fdfb78dff557717f05c9ea38595041503c5f0878760405161116392919061195e565b60405180910390a3807f11a3517410d399d687a3dac00c28ef32ffea27e8991a0d4d2283382878b118f6600160405161119c9190611979565b60405180910390a2949350505050565b600080546040516327a9212760e01b81526001600160a01b038681166004830152909116906327a9212790602401600060405180830381865afa1580156111f7573d6000803e3d6000fd5b505050506040513d6000823e601f3d908101601f1916820160405261121f9190810190611742565b6040810151602082015191925090600385600381111561124157611241611421565b0361125757611250848361199d565b915061127d565b600085600381111561126b5761126b611421565b0361127d5761127a848261199d565b90505b6000611289838361136f565b600054608086015160405162bacb0b60e01b81526001600160a01b038b8116600483015260248201859052604482019290925260648101879052929350169062bacb0b90608401600060405180830381600087803b1580156112ea57600080fd5b505af11580156112fe573d6000803e3d6000fd5b50505050606482605a61131191906119b0565b61131b91906119c7565b83106113665760408051848152602081018490526001600160a01b038916917ffa05e6c946b9b30d53ea35a0c06832056010f40d2686eba05a629781030fa8c2910160405180910390a25b50505050505050565b6000816000036113815750600061139a565b8161138d8460646119b0565b61139791906119c7565b90505b92915050565b6001600160a01b03811681146113b557600080fd5b50565b600080604083850312156113cb57600080fd5b82356113d6816113a0565b946020939093013593505050565b6000602082840312156113f657600080fd5b8135611401816113a0565b9392505050565b60006020828403121561141a57600080fd5b5035919050565b634e487b7160e01b600052602160045260246000fd5b6004811061144757611447611421565b9052565b60005b8381101561146657818101518382015260200161144e565b50506000910152565b6000815180845261148781602086016020860161144b565b601f01601f19169290920160200192915050565b6003811061144757611447611421565b8781526001600160a01b03871660208201526114ca6040820187611437565b84606082015260e0608082015260006114e660e083018661146f565b90506114f560a083018561149b565b8260c083015298975050505050505050565b6000602082016020835280845180835260408501915060408160051b86010192506020860160005b828110156115c657868503603f190184528151805186526020808201516001600160a01b0316908701526040808201519061156c90880182611437565b5060608101516060870152608081015160e0608088015261159060e088018261146f565b905060a08201516115a460a089018261149b565b5060c0918201519690910195909552602093840193919091019060010161152f565b50929695505050505050565b805180151581146115e257600080fd5b919050565b6000602082840312156115f957600080fd5b611397826115d2565b6020808252600f908201526e2737ba1039bab832b91030b236b4b760891b604082015260600190565b60006020828403121561163d57600080fd5b5051919050565b634e487b7160e01b600052601160045260246000fd5b8181038181111561139a5761139a611644565b634e487b7160e01b600052604160045260246000fd5b60405160e0810167ffffffffffffffff811182821017156116a6576116a661166d565b60405290565b600082601f8301126116bd57600080fd5b815167ffffffffffffffff8111156116d7576116d761166d565b604051601f8201601f19908116603f0116810167ffffffffffffffff811182821017156117065761170661166d565b60405281815283820160200185101561171e57600080fd5b61172f82602083016020870161144b565b949350505050565b80516115e2816113a0565b60006020828403121561175457600080fd5b815167ffffffffffffffff81111561176b57600080fd5b820160e0818503121561177d57600080fd5b611785611683565b815167ffffffffffffffff81111561179c57600080fd5b6117a8868285016116ac565b825250602082810151908201526040808301519082015260608083015190820152608080830151908201526117df60a083016115d2565b60a08201526117f060c08301611737565b60c0820152949350505050565b60006001820161180f5761180f611644565b5060010190565b600181811c9082168061182a57607f821691505b60208210810361184a57634e487b7160e01b600052602260045260246000fd5b50919050565b601f82111561189a57806000526020600020601f840160051c810160208510156118775750805b601f840160051c820191505b818110156118975760008155600101611883565b50505b505050565b815167ffffffffffffffff8111156118b9576118b961166d565b6118cd816118c78454611816565b84611850565b6020601f82116001811461190157600083156118e95750848201515b600019600385901b1c1916600184901b178455611897565b600084815260208120601f198516915b828110156119315787850151825560209485019460019092019101611911565b508482101561194f5786840151600019600387901b60f8161c191681555b50505050600190811b01905550565b6040810161196c8285611437565b8260208301529392505050565b6020810161139a828461149b565b634e487b7160e01b600052603260045260246000fd5b8082018082111561139a5761139a611644565b808202811582820484141761139a5761139a611644565b6000826119e457634e487b7160e01b600052601260045260246000fd5b50049056fea2646970667358221220399c1a5d6b5a5efd87c1489b73f7f6dae610ce74e2fb096b935f02df1245fabb64736f6c634300081c0033",
  "linkReferences": {},
  "deployedLinkReferences": {}
}