{
  "_format": "hh-sol-artifact-1",
  "contractName": "Executor",
  "sourceName": "contracts/Executor.sol",
  "abi": [
    {
      "inputs": [
        {
          "internalType": "address",
          "name": "_vault",
          "type": "address"
        }
      ],
      "stateMutability": "nonpayable",
      "type": "constructor"
    },
    {
      "inputs": [
        {
          "components": [
            {
              "internalType": "address",
              "name": "target",
              "type": "address"
            },
            {
              "internalType": "bytes",
              "name": "callData",
              "type": "bytes"
            }
          ],
          "internalType": "struct Executor.Call[]",
          "name": "calls",
          "type": "tuple[]"
        }
      ],
      "name": "aggregate",
      "outputs": [
        {
          "internalType": "uint256",
          "name": "blockNumber",
          "type": "uint256"
        },
        {
          "internalType": "bytes[]",
          "name": "returnData",
          "type": "bytes[]"
        }
      ],
      "stateMutability": "payable",
      "type": "function"
    },
    {
      "inputs": [
        {
          "components": [
            {
              "internalType": "address",
              "name": "target",
              "type": "address"
            },
            {
              "internalType": "bool",
              "name": "allowFailure",
              "type": "bool"
            },
            {
              "internalType": "bytes",
              "name": "callData",
              "type": "bytes"
            }
          ],
          "internalType": "struct Executor.Call3[]",
          "name": "calls",
          "type": "tuple[]"
        }
      ],
      "name": "aggregate3",
      "outputs": [
        {
          "components": [
            {
              "internalType": "bool",
              "name": "success",
              "type": "bool"
            },
            {
              "internalType": "bytes",
              "name": "returnData",
              "type": "bytes"
            }
          ],
          "internalType": "struct Executor.Result[]",
          "name": "returnData",
          "type": "tuple[]"
        }
      ],
      "stateMutability": "payable",
      "type": "function"
    },
    {
      "inputs": [
        {
          "internalType": "uint256",
          "name": "blockNumber",
          "type": "uint256"
        }
      ],
      "name": "getBlockHash",
      "outputs": [
        {
          "internalType": "bytes32",
          "name": "",
          "type": "bytes32"
        }
      ],
      "stateMutability": "view",
      "type": "function"
    },
    {
      "inputs": [],
      "name": "getBlockNumber",
      "outputs": [
        {
          "internalType": "uint256",
          "name": "",
          "type": "uint256"
        }
      ],
      "stateMutability": "view",
      "type": "function"
    },
    {
      "inputs": [],
      "name": "getChainId",
      "outputs": [
        {
          "internalType": "uint256",
          "name": "",
          "type": "uint256"
        }
      ],
      "stateMutability": "view",
      "type": "function"
    },
    {
      "inputs": [],
      "name": "vault",
      "outputs": [
        {
          "internalType": "address",
          "name": "",
          "type": "address"
        }
      ],
      "stateMutability": "view",
      "type": "function"
    }
  ],
  "bytecode": "0x60a060405234801561001057600080fd5b506040516108aa3803806108aa83398101604081905261002f91610040565b6001600160a01b0316608052610070565b60006020828403121561005257600080fd5b81516001600160a01b038116811461006957600080fd5b9392505050565b60805161081f61008b6000396000610105015261081f6000f3fe6080604052600436106100555760003560e01c8063252dba421461005a5780633408e4701461008457806342cbb15c146100a157806382ad56cb146100b4578063ee82ac5e146100d4578063fbfa77cf146100f3575b600080fd5b61006d610068366004610536565b61013f565b60405161007b9291906105be565b60405180910390f35b34801561009057600080fd5b50465b60405190815260200161007b565b3480156100ad57600080fd5b5043610093565b6100c76100c2366004610536565b6102ed565b60405161007b9190610628565b3480156100e057600080fd5b506100936100ef36600461069e565b4090565b3480156100ff57600080fd5b506101277f000000000000000000000000000000000000000000000000000000000000000081565b6040516001600160a01b03909116815260200161007b565b600060608267ffffffffffffffff81111561015c5761015c6106b7565b60405190808252806020026020018201604052801561018f57816020015b606081526020019060019003908161017a5790505b50905060005b838110156102e1576000808686848181106101b2576101b26106cd565b90506020028101906101c491906106e3565b6101d2906020810190610703565b6001600160a01b03168787858181106101ed576101ed6106cd565b90506020028101906101ff91906106e3565b61020d906020810190610733565b60405161021b92919061077a565b6000604051808303816000865af19150503d8060008114610258576040519150601f19603f3d011682016040523d82523d6000602084013e61025d565b606091505b5091509150816102ae5760405162461bcd60e51b8152602060048201526017602482015276135d5b1d1a58d85b1b0cce8818d85b1b0819985a5b1959604a1b60448201526064015b60405180910390fd5b808484815181106102c1576102c16106cd565b6020026020010181905250505080806102d99061078a565b915050610195565b504391505b9250929050565b60608167ffffffffffffffff811115610308576103086106b7565b60405190808252806020026020018201604052801561034e57816020015b6040805180820190915260008152606060208201528152602001906001900390816103265790505b50905060005b828110156104ea57600080858584818110610371576103716106cd565b905060200281019061038391906107b1565b610391906020810190610703565b6001600160a01b03168686858181106103ac576103ac6106cd565b90506020028101906103be91906107b1565b6103cc906040810190610733565b6040516103da92919061077a565b6000604051808303816000865af19150503d8060008114610417576040519150601f19603f3d011682016040523d82523d6000602084013e61041c565b606091505b5091509150858584818110610433576104336106cd565b905060200281019061044591906107b1565b6104569060408101906020016107c7565b6104a157816104a15760405162461bcd60e51b8152602060048201526017602482015276135d5b1d1a58d85b1b0cce8818d85b1b0819985a5b1959604a1b60448201526064016102a5565b60405180604001604052808315158152602001828152508484815181106104ca576104ca6106cd565b6020026020010181905250505080806104e29061078a565b915050610354565b5092915050565b60008083601f84011261050357600080fd5b50813567ffffffffffffffff81111561051b57600080fd5b6020830191508360208260051b85010111156102e657600080fd5b6000806020838503121561054957600080fd5b823567ffffffffffffffff81111561056057600080fd5b61056c858286016104f1565b90969095509350505050565b6000815180845260005b8181101561059e57602081850181015186830182015201610582565b506000602082860101526020601f19601f83011685010191505092915050565b600060408201848352602060408185015281855180845260608601915060608160051b870101935082870160005b8281101561061a57605f19888703018452610608868351610578565b955092840192908401906001016105ec565b509398975050505050505050565b60006020808301818452808551808352604092508286019150828160051b87010184880160005b8381101561069057888303603f19018552815180511515845287015187840187905261067d87850182610578565b958801959350509086019060010161064f565b509098975050505050505050565b6000602082840312156106b057600080fd5b5035919050565b634e487b7160e01b600052604160045260246000fd5b634e487b7160e01b600052603260045260246000fd5b60008235603e198336030181126106f957600080fd5b9190910192915050565b60006020828403121561071557600080fd5b81356001600160a01b038116811461072c57600080fd5b9392505050565b6000808335601e1984360301811261074a57600080fd5b83018035915067ffffffffffffffff82111561076557600080fd5b6020019150368190038213156102e657600080fd5b8183823760009101908152919050565b6000600182016107aa57634e487b7160e01b600052601160045260246000fd5b5060010190565b60008235605e198336030181126106f957600080fd5b6000602082840312156107d957600080fd5b8135801515811461072c57600080fdfea26469706673582212201b0beb5a0f0c9b5c772ab8a10479855d91e6162901930adffd565439dceab03164736f6c63430008130033",
  "linkReferences": {},
  "deployedLinkReferences": {}
}