{
  "_format": "hh-sol-artifact-1",
  "contractName": "Vault",
  "sourceName": "contracts/Vault.sol",
  "abi": [
    {
      "inputs": [
        {
          "internalType": "address",
          "name": "_owner",
          "type": "address"
        },
        {
          "internalType": "address",
          "name": "_usdc",
          "type": "address"
        }
      ],
      "stateMutability": "nonpayable",
      "type": "constructor"
    },
    {
      "inputs": [],
      "name": "InsufficientBalance",
      "type": "error"
    },
    {
      "inputs": [],
      "name": "NoBalance",
      "type": "error"
    },
    {
      "inputs": [],
      "name": "TransferFailed",
      "type": "error"
    },
    {
      "inputs": [],
      "name": "Unauthorized",
      "type": "error"
    },
    {
      "anonymous": false,
      "inputs": [
        {
          "indexed": true,
          "internalType": "address",
          "name": "owner",
          "type": "address"
        },
        {
          "indexed": false,
          "internalType": "uint256",
          "name": "amount",
          "type": "uint256"
        }
      ],
      "name": "Deposit",
      "type": "event"
    },
    {
      "anonymous": false,
      "inputs": [
        {
          "indexed": true,
          "internalType": "address",
          "name": "user",
          "type": "address"
        },
        {
          "indexed": false,
          "internalType": "uint256",
          "name": "amount",
          "type": "uint256"
        }
      ],
      "name": "Payment",
      "type": "event"
    },
    {
      "anonymous": false,
      "inputs": [
        {
          "indexed": true,
          "internalType": "address",
          "name": "owner",
          "type": "address"
        },
        {
          "indexed": false,
          "internalType": "uint256",
          "name": "amount",
          "type": "uint256"
        }
      ],
      "name": "Withdrawal",
      "type": "event"
    },
    {
      "inputs": [],
      "name": "USDC",
      "outputs": [
        {
          "internalType": "address",
          "name": "",
          "type": "address"
        }
      ],
      "stateMutability": "view",
      "type": "function"
    },
    {
      "inputs": [
        {
          "internalType": "address",
          "name": "",
          "type": "address"
        }
      ],
      "name": "balances",
      "outputs": [
        {
          "internalType": "uint256",
          "name": "",
          "type": "uint256"
        }
      ],
      "stateMutability": "view",
      "type": "function"
    },
    {
      "inputs": [
        {
          "internalType": "address",
          "name": "_owner",
          "type": "address"
        },
        {
          "internalType": "address",
          "name": "spender",
          "type": "address"
        },
        {
          "internalType": "uint256",
          "name": "value",
          "type": "uint256"
        },
        {
          "internalType": "uint256",
          "name": "deadline",
          "type": "uint256"
        },
        {
          "internalType": "uint8",
          "name": "v",
          "type": "uint8"
        },
        {
          "internalType": "bytes32",
          "name": "r",
          "type": "bytes32"
        },
        {
          "internalType": "bytes32",
          "name": "s",
          "type": "bytes32"
        }
      ],
      "name": "deposit",
      "outputs": [],
      "stateMutability": "nonpayable",
      "type": "function"
    },
    {
      "inputs": [
        {
          "internalType": "address",
          "name": "user",
          "type": "address"
        },
        {
          "internalType": "uint256",
          "name": "amount",
          "type": "uint256"
        }
      ],
      "name": "pay",
      "outputs": [],
      "stateMutability": "nonpayable",
      "type": "function"
    },
    {
      "inputs": [],
      "name": "redeem",
      "outputs": [],
      "stateMutability": "nonpayable",
      "type": "function"
    },
    {
      "inputs": [
        {
          "internalType": "uint256",
          "name": "amount",
          "type": "uint256"
        }
      ],
      "name": "withdraw",
      "outputs": [],
      "stateMutability": "nonpayable",
      "type": "function"
    }
  ],
  "bytecode": "0x60a060405234801561001057600080fd5b5060405161080238038061080283398101604081905261002f91610070565b600180546001600160a01b0319166001600160a01b03938416179055166080526100a3565b80516001600160a01b038116811461006b57600080fd5b919050565b6000806040838503121561008357600080fd5b61008c83610054565b915061009a60208401610054565b90509250929050565b6080516107296100d96000396000818160c70152818161018f015281816102ab0152818161033501526104a101526107296000f3fe608060405234801561001057600080fd5b50600436106100625760003560e01c806327e235e3146100675780632e1a7d4d1461009a5780637d7dd076146100af57806389a30271146100c2578063be040fb014610101578063c407687614610109575b600080fd5b6100876100753660046105b7565b60006020819052908152604090205481565b6040519081526020015b60405180910390f35b6100ad6100a83660046105d9565b61011c565b005b6100ad6100bd3660046105f2565b61025f565b6100e97f000000000000000000000000000000000000000000000000000000000000000081565b6040516001600160a01b039091168152602001610091565b6100ad610438565b6100ad610117366004610665565b6104d0565b3360009081526020819052604090205481111561014c57604051631e9acf1760e31b815260040160405180910390fd5b336000908152602081905260408120805483929061016b9084906106a5565b909155505060405163a9059cbb60e01b8152336004820152602481018290526000907f00000000000000000000000000000000000000000000000000000000000000006001600160a01b03169063a9059cbb906044015b6020604051808303816000875af11580156101e1573d6000803e3d6000fd5b505050506040513d601f19601f8201168201806040525081019061020591906106be565b905080610225576040516312171d8360e31b815260040160405180910390fd5b60405182815233907f7fcf532c15f0a6db0bd6d0e038bea71d30d808c7d98cb3bf7268a95bf5081b65906020015b60405180910390a25050565b60405163d505accf60e01b81526001600160a01b0388811660048301528781166024830152604482018790526064820186905260ff8516608483015260a4820184905260c482018390527f0000000000000000000000000000000000000000000000000000000000000000169063d505accf9060e401600060405180830381600087803b1580156102ef57600080fd5b505af1158015610303573d6000803e3d6000fd5b50506040516323b872dd60e01b81526001600160a01b038a8116600483015230602483015260448201899052600093507f00000000000000000000000000000000000000000000000000000000000000001691506323b872dd906064016020604051808303816000875af115801561037f573d6000803e3d6000fd5b505050506040513d601f19601f820116820180604052508101906103a391906106be565b9050806103c3576040516312171d8360e31b815260040160405180910390fd5b6001600160a01b038816600090815260208190526040812080548892906103eb9084906106e0565b90915550506040518681526001600160a01b038916907fe1fffcc4923d04b559f4d29a8bfc6cda04eb5b0d3c460751c2402c5c5cc9109c9060200160405180910390a25050505050505050565b336000908152602081905260408120549081900361046957604051636165515360e11b815260040160405180910390fd5b336000818152602081905260408082208290555163a9059cbb60e01b8152600481019290925260248201839052906001600160a01b037f0000000000000000000000000000000000000000000000000000000000000000169063a9059cbb906044016101c2565b6001546001600160a01b031633146104fa576040516282b42960e81b815260040160405180910390fd5b6001600160a01b03821660009081526020819052604090205481111561053357604051631e9acf1760e31b815260040160405180910390fd5b6001600160a01b0382166000908152602081905260408120805483929061055b9084906106a5565b90915550506040518181526001600160a01b038316907fd4f43975feb89f48dd30cabbb32011045be187d1e11c8ea9faa43efc3528251990602001610253565b80356001600160a01b03811681146105b257600080fd5b919050565b6000602082840312156105c957600080fd5b6105d28261059b565b9392505050565b6000602082840312156105eb57600080fd5b5035919050565b600080600080600080600060e0888a03121561060d57600080fd5b6106168861059b565b96506106246020890161059b565b95506040880135945060608801359350608088013560ff8116811461064857600080fd5b9699959850939692959460a0840135945060c09093013592915050565b6000806040838503121561067857600080fd5b6106818361059b565b946020939093013593505050565b634e487b7160e01b600052601160045260246000fd5b818103818111156106b8576106b861068f565b92915050565b6000602082840312156106d057600080fd5b815180151581146105d257600080fd5b808201808211156106b8576106b861068f56fea2646970667358221220766baca1c390dd11c02601f46ee0d7de2ae455c051ca1a005e72a7ccba3170f164736f6c63430008130033",
  "linkReferences": {},
  "deployedLinkReferences": {}
}