{
  "_format": "hh-sol-artifact-1",
  "contractName": "ProposalManager",
  "sourceName": "contracts/ProposalManager.sol",
  "abi": [
    {
      "inputs": [
        {
          "internalType": "address",
          "name": "_departmentRegistry",
          "type": "address"
        }
      ],
      "stateMutability": "nonpayable",
      "type": "constructor"
    },
    {
      "anonymous": false,
      "inputs": [
        {
          "indexed": true,
          "internalType": "uint256",
          "name": "proposalId",
          "type": "uint256"
        },
        {
          "indexed": true,
          "internalType": "address",
          "name": "commenter",
          "type": "address"
        },
        {
          "indexed": false,
          "internalType": "string",
          "name": "comment",
          "type": "string"
        }
      ],
      "name": "CommentAdded",
      "type": "event"
    },
    {
      "anonymous": false,
      "inputs": [
        {
          "indexed": true,
          "internalType": "uint256",
          "name": "id",
          "type": "uint256"
        },
        {
          "indexed": false,
          "internalType": "enum ProposalManager.ProposalStatus",
          "name": "status",
          "type": "uint8"
        },
        {
          "indexed": false,
          "internalType": "address",
          "name": "reviewer",
          "type": "address"
        }
      ],
      "name": "ProposalReviewed",
      "type": "event"
    },
    {
      "anonymous": false,
      "inputs": [
        {
          "indexed": true,
          "internalType": "uint256",
          "name": "id",
          "type": "uint256"
        },
        {
          "indexed": true,
          "internalType": "address",
          "name": "department",
          "type": "address"
        },
        {
          "indexed": false,
          "internalType": "uint256",
          "name": "amount",
          "type": "uint256"
        }
      ],
      "name": "ProposalSubmitted",
      "type": "event"
    },
    {
      "inputs": [
        {
          "internalType": "uint256",
          "name": "proposalId",
          "type": "uint256"
        },
        {
          "internalType": "string",
          "name": "comment",
          "type": "string"
        }
      ],
      "name": "addProposalComment",
      "outputs": [],
      "stateMutability": "nonpayable",
      "type": "function"
    },
    {
      "inputs": [
        {
          "internalType": "address",
          "name": "",
          "type": "address"
        },
        {
          "internalType": "uint256",
          "name": "",
          "type": "uint256"
        }
      ],
      "name": "departmentProposals",
      "outputs": [
        {
          "internalType": "uint256",
          "name": "",
          "type": "uint256"
        }
      ],
      "stateMutability": "view",
      "type": "function"
    },
    {
      "inputs": [],
      "name": "departmentRegistry",
      "outputs": [
        {
          "internalType": "contract IDepartmentRegistry",
          "name": "",
          "type": "address"
        }
      ],
      "stateMutability": "view",
      "type": "function"
    },
    {
      "inputs": [
        {
          "internalType": "uint256",
          "name": "proposalId",
          "type": "uint256"
        }
      ],
      "name": "getProposalComments",
      "outputs": [
        {
          "components": [
            {
              "internalType": "address",
              "name": "commenter",
              "type": "address"
            },
            {
              "internalType": "string",
              "name": "comment",
              "type": "string"
            },
            {
              "internalType": "uint256",
              "name": "timestamp",
              "type": "uint256"
            }
          ],
          "internalType": "struct ProposalManager.ProposalComment[]",
          "name": "",
          "type": "tuple[]"
        }
      ],
      "stateMutability": "view",
      "type": "function"
    },
    {
      "inputs": [
        {
          "internalType": "address",
          "name": "department",
          "type": "address"
        }
      ],
      "name": "getProposalsByDepartment",
      "outputs": [
        {
          "components": [
            {
              "internalType": "uint256",
              "name": "id",
              "type": "uint256"
            },
            {
              "internalType": "address",
              "name": "department",
              "type": "address"
            },
            {
              "internalType": "string",
              "name": "title",
              "type": "string"
            },
            {
              "internalType": "uint256",
              "name": "amount",
              "type": "uint256"
            },
            {
              "internalType": "string",
              "name": "description",
              "type": "string"
            },
            {
              "internalType": "enum ProposalManager.ProposalStatus",
              "name": "status",
              "type": "uint8"
            },
            {
              "internalType": "uint256",
              "name": "submittedDate",
              "type": "uint256"
            },
            {
              "internalType": "uint256",
              "name": "reviewedDate",
              "type": "uint256"
            },
            {
              "internalType": "address",
              "name": "reviewedBy",
              "type": "address"
            },
            {
              "internalType": "string",
              "name": "category",
              "type": "string"
            }
          ],
          "internalType": "struct ProposalManager.Proposal[]",
          "name": "",
          "type": "tuple[]"
        }
      ],
      "stateMutability": "view",
      "type": "function"
    },
    {
      "inputs": [
        {
          "internalType": "address",
          "name": "department",
          "type": "address"
        }
      ],
      "name": "initializeDepartmentProposals",
      "outputs": [],
      "stateMutability": "nonpayable",
      "type": "function"
    },
    {
      "inputs": [
        {
          "internalType": "uint256",
          "name": "",
          "type": "uint256"
        },
        {
          "internalType": "uint256",
          "name": "",
          "type": "uint256"
        }
      ],
      "name": "proposalComments",
      "outputs": [
        {
          "internalType": "address",
          "name": "commenter",
          "type": "address"
        },
        {
          "internalType": "string",
          "name": "comment",
          "type": "string"
        },
        {
          "internalType": "uint256",
          "name": "timestamp",
          "type": "uint256"
        }
      ],
      "stateMutability": "view",
      "type": "function"
    },
    {
      "inputs": [],
      "name": "proposalCount",
      "outputs": [
        {
          "internalType": "uint256",
          "name": "",
          "type": "uint256"
        }
      ],
      "stateMutability": "view",
      "type": "function"
    },
    {
      "inputs": [
        {
          "internalType": "uint256",
          "name": "",
          "type": "uint256"
        }
      ],
      "name": "proposals",
      "outputs": [
        {
          "internalType": "uint256",
          "name": "id",
          "type": "uint256"
        },
        {
          "internalType": "address",
          "name": "department",
          "type": "address"
        },
        {
          "internalType": "string",
          "name": "title",
          "type": "string"
        },
        {
          "internalType": "uint256",
          "name": "amount",
          "type": "uint256"
        },
        {
          "internalType": "string",
          "name": "description",
          "type": "string"
        },
        {
          "internalType": "enum ProposalManager.ProposalStatus",
          "name": "status",
          "type": "uint8"
        },
        {
          "internalType": "uint256",
          "name": "submittedDate",
          "type": "uint256"
        },
        {
          "internalType": "uint256",
          "name": "reviewedDate",
          "type": "uint256"
        },
        {
          "internalType": "address",
          "name": "reviewedBy",
          "type": "address"
        },
        {
          "internalType": "string",
          "name": "category",
          "type": "string"
        }
      ],
      "stateMutability": "view",
      "type": "function"
    },
    {
      "inputs": [
        {
          "internalType": "uint256",
          "name": "proposalId",
          "type": "uint256"
        },
        {
          "internalType": "enum ProposalManager.ProposalStatus",
          "name": "newStatus",
          "type": "uint8"
        }
      ],
      "name": "reviewProposal",
      "outputs": [],
      "stateMutability": "nonpayable",
      "type": "function"
    },
    {
      "inputs": [
        {
          "internalType": "string",
          "name": "title",
          "type": "string"
        },
        {
          "internalType": "uint256",
          "name": "amount",
          "type": "uint256"
        },
        {
          "internalType": "string",
          "name": "description",
          "type": "string"
        },
        {
          "internalType": "string",
          "name": "category",
          "type": "string"
        }
      ],
      "name": "submitProposal",
      "outputs": [
        {
          "internalType": "uint256",
          "name": "",
          "type": "uint256"
        }
      ],
      "stateMutability": "nonpayable",
      "type": "function"
    }
  ],
  "bytecode": "0x6080604052348015600f57600080fd5b50604051611d41380380611d41833981016040819052602c916050565b600080546001600160a01b0319166001600160a01b0392909216919091179055607e565b600060208284031215606157600080fd5b81516001600160a01b0381168114607757600080fd5b9392505050565b611cb48061008d6000396000f3fe608060405234801561001057600080fd5b50600436106100a95760003560e01c806383316752116100715780638331675214610154578063a708058114610174578063c05f410414610187578063da35c664146101a7578063e4f25b2b146101b0578063f61736f4146101c357600080fd5b8063013cf08b146100ae5780630fdcdf7a146100e0578063261b3e49146101015780633870c4cf1461012c578063488680f31461013f575b600080fd5b6100c16100bc366004611396565b6101e5565b6040516100d79a99989796959493929190611437565b60405180910390f35b6100f36100ee3660046115b9565b6103e7565b6040519081526020016100d7565b600054610114906001600160a01b031681565b6040516001600160a01b0390911681526020016100d7565b6100f361013a36600461166f565b6107d7565b61015261014d36600461169b565b610808565b005b61016761016236600461169b565b61097f565b6040516100d791906116bf565b6101526101823660046117dc565b610d04565b61019a610195366004611396565b610ea0565b6040516100d79190611823565b6100f360045481565b6101526101be3660046118a9565b610fc4565b6101d66101d13660046118dd565b6111ea565b6040516100d7939291906118ff565b60016020819052600091825260409091208054918101546002820180546001600160a01b03909216929161021890611933565b80601f016020809104026020016040519081016040528092919081815260200182805461024490611933565b80156102915780601f1061026657610100808354040283529160200191610291565b820191906000526020600020905b81548152906001019060200180831161027457829003601f168201915b5050505050908060030154908060040180546102ac90611933565b80601f01602080910402602001604051908101604052809291908181526020018280546102d890611933565b80156103255780601f106102fa57610100808354040283529160200191610325565b820191906000526020600020905b81548152906001019060200180831161030857829003601f168201915b5050506005840154600685015460078601546008870154600988018054979860ff909516979396509194506001600160a01b0316929161036490611933565b80601f016020809104026020016040519081016040528092919081815260200182805461039090611933565b80156103dd5780601f106103b2576101008083540402835291602001916103dd565b820191906000526020600020905b8154815290600101906020018083116103c057829003601f168201915b505050505090508a565b6000805460405163266ebeb160e21b81523360048201526001600160a01b03909116906399bafac490602401602060405180830381865afa158015610430573d6000803e3d6000fd5b505050506040513d601f19601f820116820180604052508101906104549190611982565b61049b5760405162461bcd60e51b8152602060048201526013602482015272139bdd0819195c185c9d1b595b9d081a195859606a1b60448201526064015b60405180910390fd5b600054600160a01b900460ff16156104e65760405162461bcd60e51b815260206004820152600e60248201526d1499595b9d1c985b9d0818d85b1b60921b6044820152606401610492565b6000805460ff60a01b1916600160a01b17905583806105475760405162461bcd60e51b815260206004820152601760248201527f416d6f756e74206d75737420626520706f7369746976650000000000000000006044820152606401610492565b600080546040516327a9212760e01b81523360048201526001600160a01b03909116906327a9212790602401600060405180830381865afa158015610590573d6000803e3d6000fd5b505050506040513d6000823e601f3d908101601f191682016040526105b891908101906119f5565b9050806040015181602001516105ce9190611ac6565b8611156106135760405162461bcd60e51b8152602060048201526013602482015272125b9cdd59999a58da595b9d08189d5919d95d606a1b6044820152606401610492565b6004805490600061062383611adf565b909155505060045460408051610140810182528281523360208083019182528284018c8152606084018c9052608084018b9052600060a085018190524260c086015260e08501819052610100850181905261012085018b90528681526001928390529490942083518155915190820180546001600160a01b0319166001600160a01b03909216919091179055915190919060028201906106c39082611b47565b5060608201516003820155608082015160048201906106e29082611b47565b5060a082015160058201805460ff19166001836003811115610706576107066113ff565b021790555060c0820151600682015560e082015160078201556101008201516008820180546001600160a01b0319166001600160a01b03909216919091179055610120820151600982019061075b9082611b47565b5050336000818152600360209081526040808320805460018101825590845291909220018490555190915082907f6595205dae276ce902b2ea66a70a1f42db62056854c3c4dba1e00ec5e2d56e3d906107b7908b815260200190565b60405180910390a36000805460ff60a01b19169055979650505050505050565b600360205281600052604060002081815481106107f357600080fd5b90600052602060002001600091509150505481565b600054604051635692e5a160e11b81523360048201526001600160a01b039091169063ad25cb4290602401602060405180830381865afa158015610850573d6000803e3d6000fd5b505050506040513d601f19601f820116820180604052508101906108749190611982565b6108905760405162461bcd60e51b815260040161049290611c06565b600054604051630cd29ba760e31b81526001600160a01b03838116600483015290911690636694dd3890602401600060405180830381865afa1580156108da573d6000803e3d6000fd5b505050506040513d6000823e601f3d908101601f1916820160405261090291908101906119f5565b60a0015161094a5760405162461bcd60e51b81526020600482015260156024820152744465706172746d656e74206e6f742061637469766560581b6044820152606401610492565b60408051600080825260208083018085526001600160a01b03861683526003909152929020905161097b92906112c0565b5050565b6001600160a01b03811660009081526003602090815260408083208054825181850281018501909352808352606094938301828280156109de57602002820191906000526020600020905b8154815260200190600101908083116109ca575b505050505090506000815167ffffffffffffffff811115610a0157610a016114cb565b604051908082528060200260200182016040528015610a3a57816020015b610a2761130b565b815260200190600190039081610a1f5790505b50905060005b8251811015610cfc5760016000848381518110610a5f57610a5f611c2f565b6020026020010151815260200190815260200160002060405180610140016040529081600082015481526020016001820160009054906101000a90046001600160a01b03166001600160a01b03166001600160a01b03168152602001600282018054610aca90611933565b80601f0160208091040260200160405190810160405280929190818152602001828054610af690611933565b8015610b435780601f10610b1857610100808354040283529160200191610b43565b820191906000526020600020905b815481529060010190602001808311610b2657829003601f168201915b5050505050815260200160038201548152602001600482018054610b6690611933565b80601f0160208091040260200160405190810160405280929190818152602001828054610b9290611933565b8015610bdf5780601f10610bb457610100808354040283529160200191610bdf565b820191906000526020600020905b815481529060010190602001808311610bc257829003601f168201915b5050509183525050600582015460209091019060ff166003811115610c0657610c066113ff565b6003811115610c1757610c176113ff565b8152600682015460208201526007820154604082015260088201546001600160a01b03166060820152600982018054608090920191610c5590611933565b80601f0160208091040260200160405190810160405280929190818152602001828054610c8190611933565b8015610cce5780601f10610ca357610100808354040283529160200191610cce565b820191906000526020600020905b815481529060010190602001808311610cb157829003601f168201915b505050505081525050828281518110610ce957610ce9611c2f565b6020908102919091010152600101610a40565b509392505050565b600054604051635692e5a160e11b81523360048201526001600160a01b039091169063ad25cb4290602401602060405180830381865afa158015610d4c573d6000803e3d6000fd5b505050506040513d601f19601f82011682018060405250810190610d709190611982565b610d8c5760405162461bcd60e51b815260040161049290611c06565b6000828152600160205260408120549003610dde5760405162461bcd60e51b8152602060048201526012602482015271141c9bdc1bdcd85b081b9bdd08199bdd5b9960721b6044820152606401610492565b60008281526002602090815260408083208151606081018352338152808401868152429382019390935281546001808201845592865293909420845160039094020180546001600160a01b0319166001600160a01b03909416939093178355905190820190610e4d9082611b47565b50604082015181600201555050336001600160a01b0316827fcc2d7dd2085ae6644799a42c0174adf9afc10a43f26db5eac3ddd1f96d1d64be83604051610e949190611c45565b60405180910390a35050565b606060026000838152602001908152602001600020805480602002602001604051908101604052809291908181526020016000905b82821015610fb957600084815260209081902060408051606081019091526003850290910180546001600160a01b031682526001810180549293919291840191610f1e90611933565b80601f0160208091040260200160405190810160405280929190818152602001828054610f4a90611933565b8015610f975780601f10610f6c57610100808354040283529160200191610f97565b820191906000526020600020905b815481529060010190602001808311610f7a57829003601f168201915b5050505050815260200160028201548152505081526020019060010190610ed5565b505050509050919050565b600054604051635692e5a160e11b81523360048201526001600160a01b039091169063ad25cb4290602401602060405180830381865afa15801561100c573d6000803e3d6000fd5b505050506040513d601f19601f820116820180604052508101906110309190611982565b61104c5760405162461bcd60e51b815260040161049290611c06565b600054600160a01b900460ff16156110975760405162461bcd60e51b815260206004820152600e60248201526d1499595b9d1c985b9d0818d85b1b60921b6044820152606401610492565b6000805460ff60a01b1916600160a01b17815582815260016020526040812080549091036110fc5760405162461bcd60e51b8152602060048201526012602482015271141c9bdc1bdcd85b081b9bdd08199bdd5b9960721b6044820152606401610492565b6000600582015460ff166003811115611117576111176113ff565b1461115b5760405162461bcd60e51b815260206004820152601460248201527350726f706f73616c206e6f742070656e64696e6760601b6044820152606401610492565b60058101805483919060ff1916600183600381111561117c5761117c6113ff565b02179055504260078201556008810180546001600160a01b0319163390811790915560405184917fef0d88bbaeb4891d8e9303afd9d553f2807df5898cedf46c37ec9feba34741d3916111d0918691611c58565b60405180910390a250506000805460ff60a01b1916905550565b6002602052816000526040600020818154811061120657600080fd5b6000918252602090912060039091020180546001820180546001600160a01b03909216945091925061123790611933565b80601f016020809104026020016040519081016040528092919081815260200182805461126390611933565b80156112b05780601f10611285576101008083540402835291602001916112b0565b820191906000526020600020905b81548152906001019060200180831161129357829003601f168201915b5050505050908060020154905083565b8280548282559060005260206000209081019282156112fb579160200282015b828111156112fb5782518255916020019190600101906112e0565b50611307929150611381565b5090565b6040518061014001604052806000815260200160006001600160a01b0316815260200160608152602001600081526020016060815260200160006003811115611356576113566113ff565b8152602001600081526020016000815260200160006001600160a01b03168152602001606081525090565b5b808211156113075760008155600101611382565b6000602082840312156113a857600080fd5b5035919050565b60005b838110156113ca5781810151838201526020016113b2565b50506000910152565b600081518084526113eb8160208601602086016113af565b601f01601f19169290920160200192915050565b634e487b7160e01b600052602160045260246000fd5b6004811061143357634e487b7160e01b600052602160045260246000fd5b9052565b8a81526001600160a01b038a166020820152610140604082018190526000906114629083018b6113d3565b896060840152828103608084015261147a818a6113d3565b905061148960a0840189611415565b60c0830187905260e083018690526001600160a01b0385166101008401528281036101208401526114ba81856113d3565b9d9c50505050505050505050505050565b634e487b7160e01b600052604160045260246000fd5b60405160e0810167ffffffffffffffff81118282101715611504576115046114cb565b60405290565b604051601f8201601f1916810167ffffffffffffffff81118282101715611533576115336114cb565b604052919050565b600067ffffffffffffffff821115611555576115556114cb565b50601f01601f191660200190565b600082601f83011261157457600080fd5b81356115876115828261153b565b61150a565b81815284602083860101111561159c57600080fd5b816020850160208301376000918101602001919091529392505050565b600080600080608085870312156115cf57600080fd5b843567ffffffffffffffff8111156115e657600080fd5b6115f287828801611563565b94505060208501359250604085013567ffffffffffffffff81111561161657600080fd5b61162287828801611563565b925050606085013567ffffffffffffffff81111561163f57600080fd5b61164b87828801611563565b91505092959194509250565b6001600160a01b038116811461166c57600080fd5b50565b6000806040838503121561168257600080fd5b823561168d81611657565b946020939093013593505050565b6000602082840312156116ad57600080fd5b81356116b881611657565b9392505050565b6000602082016020835280845180835260408501915060408160051b86010192506020860160005b828110156117d057603f19878603018452815180518652602081015161171860208801826001600160a01b03169052565b50604081015161014060408801526117346101408801826113d3565b9050606082015160608801526080820151878203608089015261175782826113d3565b91505060a082015161176c60a0890182611415565b5060c082015160c088015260e082015160e088015261010082015161179d6101008901826001600160a01b03169052565b5061012082015191508681036101208801526117b981836113d3565b9650505060209384019391909101906001016116e7565b50929695505050505050565b600080604083850312156117ef57600080fd5b82359150602083013567ffffffffffffffff81111561180d57600080fd5b61181985828601611563565b9150509250929050565b6000602082016020835280845180835260408501915060408160051b86010192506020860160005b828110156117d057868503603f19018452815180516001600160a01b03168652602080820151606091880182905290611886908801826113d3565b60409283015197909201969096529450602093840193919091019060010161184b565b600080604083850312156118bc57600080fd5b823591506020830135600481106118d257600080fd5b809150509250929050565b600080604083850312156118f057600080fd5b50508035926020909101359150565b6001600160a01b0384168152606060208201819052600090611923908301856113d3565b9050826040830152949350505050565b600181811c9082168061194757607f821691505b60208210810361196757634e487b7160e01b600052602260045260246000fd5b50919050565b8051801515811461197d57600080fd5b919050565b60006020828403121561199457600080fd5b6116b88261196d565b600082601f8301126119ae57600080fd5b81516119bc6115828261153b565b8181528460208386010111156119d157600080fd5b6119e28260208301602087016113af565b949350505050565b805161197d81611657565b600060208284031215611a0757600080fd5b815167ffffffffffffffff811115611a1e57600080fd5b820160e08185031215611a3057600080fd5b611a386114e1565b815167ffffffffffffffff811115611a4f57600080fd5b611a5b8682850161199d565b82525060208281015190820152604080830151908201526060808301519082015260808083015190820152611a9260a0830161196d565b60a0820152611aa360c083016119ea565b60c0820152949350505050565b634e487b7160e01b600052601160045260246000fd5b81810381811115611ad957611ad9611ab0565b92915050565b600060018201611af157611af1611ab0565b5060010190565b601f821115611b4257806000526020600020601f840160051c81016020851015611b1f5750805b601f840160051c820191505b81811015611b3f5760008155600101611b2b565b50505b505050565b815167ffffffffffffffff811115611b6157611b616114cb565b611b7581611b6f8454611933565b84611af8565b6020601f821160018114611ba95760008315611b915750848201515b600019600385901b1c1916600184901b178455611b3f565b600084815260208120601f198516915b82811015611bd95787850151825560209485019460019092019101611bb9565b5084821015611bf75786840151600019600387901b60f8161c191681555b50505050600190811b01905550565b6020808252600f908201526e2737ba1039bab832b91030b236b4b760891b604082015260600190565b634e487b7160e01b600052603260045260246000fd5b6020815260006116b860208301846113d3565b60408101611c668285611415565b6001600160a01b03929092166020919091015291905056fea264697066735822122046d02588c5c880b69be3172ca7b7552bdef4c34a37f9623068e8636a2550b6b664736f6c634300081c0033",
  "linkReferences": {},
  "deployedLinkReferences": {}
}