{
  "_format": "hh-sol-artifact-1",
  "contractName": "ProposalManager",
  "sourceName": "contracts/ProposalManager.sol",
  "abi": [
    {
      "inputs": [
        {
          "internalType": "address",
          "name": "_departmentRegistry",
          "type": "address"
        }
      ],
      "stateMutability": "nonpayable",
      "type": "constructor"
    },
    {
      "anonymous": false,
      "inputs": [
        {
          "indexed": true,
          "internalType": "uint256",
          "name": "proposalId",
          "type": "uint256"
        },
        {
          "indexed": true,
          "internalType": "address",
          "name": "commenter",
          "type": "address"
        },
        {
          "indexed": false,
          "internalType": "string",
          "name": "comment",
          "type": "string"
        }
      ],
      "name": "CommentAdded",
      "type": "event"
    },
    {
      "anonymous": false,
      "inputs": [
        {
          "indexed": true,
          "internalType": "uint256",
          "name": "id",
          "type": "uint256"
        },
        {
          "indexed": false,
          "internalType": "enum ProposalManager.ProposalStatus",
          "name": "status",
          "type": "uint8"
        },
        {
          "indexed": false,
          "internalType": "address",
          "name": "reviewer",
          "type": "address"
        }
      ],
      "name": "ProposalReviewed",
      "type": "event"
    },
    {
      "anonymous": false,
      "inputs": [
        {
          "indexed": true,
          "internalType": "uint256",
          "name": "id",
          "type": "uint256"
        },
        {
          "indexed": true,
          "internalType": "address",
          "name": "department",
          "type": "address"
        },
        {
          "indexed": false,
          "internalType": "uint256",
          "name": "amount",
          "type": "uint256"
        }
      ],
      "name": "ProposalSubmitted",
      "type": "event"
    },
    {
      "inputs": [
        {
          "internalType": "uint256",
          "name": "proposalId",
          "type": "uint256"
        },
        {
          "internalType": "string",
          "name": "comment",
          "type": "string"
        }
      ],
      "name": "addProposalComment",
      "outputs": [],
      "stateMutability": "nonpayable",
      "type": "function"
    },
    {
      "inputs": [],
      "name": "approvedProposals",
      "outputs": [
        {
          "internalType": "uint256",
          "name": "",
          "type": "uint256"
        }
      ],
      "stateMutability": "view",
      "type": "function"
    },
    {
      "inputs": [
        {
          "internalType": "address",
          "name": "",
          "type": "address"
        },
        {
          "internalType": "uint256",
          "name": "",
          "type": "uint256"
        }
      ],
      "name": "departmentProposals",
      "outputs": [
        {
          "internalType": "uint256",
          "name": "",
          "type": "uint256"
        }
      ],
      "stateMutability": "view",
      "type": "function"
    },
    {
      "inputs": [],
      "name": "departmentRegistry",
      "outputs": [
        {
          "internalType": "contract IDepartmentRegistry",
          "name": "",
          "type": "address"
        }
      ],
      "stateMutability": "view",
      "type": "function"
    },
    {
      "inputs": [
        {
          "internalType": "uint256",
          "name": "proposalId",
          "type": "uint256"
        }
      ],
      "name": "getProposalComments",
      "outputs": [
        {
          "components": [
            {
              "internalType": "address",
              "name": "commenter",
              "type": "address"
            },
            {
              "internalType": "string",
              "name": "comment",
              "type": "string"
            },
            {
              "internalType": "uint256",
              "name": "timestamp",
              "type": "uint256"
            }
          ],
          "internalType": "struct ProposalManager.ProposalComment[]",
          "name": "",
          "type": "tuple[]"
        }
      ],
      "stateMutability": "view",
      "type": "function"
    },
    {
      "inputs": [],
      "name": "getProposalMetrics",
      "outputs": [
        {
          "internalType": "uint256",
          "name": "total",
          "type": "uint256"
        },
        {
          "internalType": "uint256",
          "name": "approved",
          "type": "uint256"
        },
        {
          "internalType": "uint256",
          "name": "pending",
          "type": "uint256"
        }
      ],
      "stateMutability": "view",
      "type": "function"
    },
    {
      "inputs": [
        {
          "internalType": "address",
          "name": "department",
          "type": "address"
        }
      ],
      "name": "getProposalsByDepartment",
      "outputs": [
        {
          "components": [
            {
              "internalType": "uint256",
              "name": "id",
              "type": "uint256"
            },
            {
              "internalType": "address",
              "name": "department",
              "type": "address"
            },
            {
              "internalType": "string",
              "name": "title",
              "type": "string"
            },
            {
              "internalType": "uint256",
              "name": "amount",
              "type": "uint256"
            },
            {
              "internalType": "string",
              "name": "description",
              "type": "string"
            },
            {
              "internalType": "enum ProposalManager.ProposalStatus",
              "name": "status",
              "type": "uint8"
            },
            {
              "internalType": "uint256",
              "name": "submittedDate",
              "type": "uint256"
            },
            {
              "internalType": "uint256",
              "name": "reviewedDate",
              "type": "uint256"
            },
            {
              "internalType": "address",
              "name": "reviewedBy",
              "type": "address"
            },
            {
              "internalType": "string",
              "name": "category",
              "type": "string"
            }
          ],
          "internalType": "struct ProposalManager.Proposal[]",
          "name": "",
          "type": "tuple[]"
        }
      ],
      "stateMutability": "view",
      "type": "function"
    },
    {
      "inputs": [
        {
          "internalType": "address",
          "name": "department",
          "type": "address"
        }
      ],
      "name": "initializeDepartmentProposals",
      "outputs": [],
      "stateMutability": "nonpayable",
      "type": "function"
    },
    {
      "inputs": [],
      "name": "pendingProposals",
      "outputs": [
        {
          "internalType": "uint256",
          "name": "",
          "type": "uint256"
        }
      ],
      "stateMutability": "view",
      "type": "function"
    },
    {
      "inputs": [
        {
          "internalType": "uint256",
          "name": "",
          "type": "uint256"
        },
        {
          "internalType": "uint256",
          "name": "",
          "type": "uint256"
        }
      ],
      "name": "proposalComments",
      "outputs": [
        {
          "internalType": "address",
          "name": "commenter",
          "type": "address"
        },
        {
          "internalType": "string",
          "name": "comment",
          "type": "string"
        },
        {
          "internalType": "uint256",
          "name": "timestamp",
          "type": "uint256"
        }
      ],
      "stateMutability": "view",
      "type": "function"
    },
    {
      "inputs": [],
      "name": "proposalCount",
      "outputs": [
        {
          "internalType": "uint256",
          "name": "",
          "type": "uint256"
        }
      ],
      "stateMutability": "view",
      "type": "function"
    },
    {
      "inputs": [
        {
          "internalType": "uint256",
          "name": "",
          "type": "uint256"
        }
      ],
      "name": "proposals",
      "outputs": [
        {
          "internalType": "uint256",
          "name": "id",
          "type": "uint256"
        },
        {
          "internalType": "address",
          "name": "department",
          "type": "address"
        },
        {
          "internalType": "string",
          "name": "title",
          "type": "string"
        },
        {
          "internalType": "uint256",
          "name": "amount",
          "type": "uint256"
        },
        {
          "internalType": "string",
          "name": "description",
          "type": "string"
        },
        {
          "internalType": "enum ProposalManager.ProposalStatus",
          "name": "status",
          "type": "uint8"
        },
        {
          "internalType": "uint256",
          "name": "submittedDate",
          "type": "uint256"
        },
        {
          "internalType": "uint256",
          "name": "reviewedDate",
          "type": "uint256"
        },
        {
          "internalType": "address",
          "name": "reviewedBy",
          "type": "address"
        },
        {
          "internalType": "string",
          "name": "category",
          "type": "string"
        }
      ],
      "stateMutability": "view",
      "type": "function"
    },
    {
      "inputs": [
        {
          "internalType": "uint256",
          "name": "proposalId",
          "type": "uint256"
        },
        {
          "internalType": "enum ProposalManager.ProposalStatus",
          "name": "newStatus",
          "type": "uint8"
        }
      ],
      "name": "reviewProposal",
      "outputs": [],
      "stateMutability": "nonpayable",
      "type": "function"
    },
    {
      "inputs": [
        {
          "internalType": "string",
          "name": "title",
          "type": "string"
        },
        {
          "internalType": "uint256",
          "name": "amount",
          "type": "uint256"
        },
        {
          "internalType": "string",
          "name": "description",
          "type": "string"
        },
        {
          "internalType": "string",
          "name": "category",
          "type": "string"
        }
      ],
      "name": "submitProposal",
      "outputs": [
        {
          "internalType": "uint256",
          "name": "",
          "type": "uint256"
        }
      ],
      "stateMutability": "nonpayable",
      "type": "function"
    },
    {
      "inputs": [],
      "name": "totalProposals",
      "outputs": [
        {
          "internalType": "uint256",
          "name": "",
          "type": "uint256"
        }
      ],
      "stateMutability": "view",
      "type": "function"
    }
  ],
  "bytecode": "0x6080604052348015600f57600080fd5b50604051611e46380380611e46833981016040819052602c916050565b600080546001600160a01b0319166001600160a01b0392909216919091179055607e565b600060208284031215606157600080fd5b81516001600160a01b0381168114607757600080fd5b9392505050565b611db98061008d6000396000f3fe608060405234801561001057600080fd5b50600436106100f55760003560e01c8063723834d011610097578063c05f410411610066578063c05f410414610212578063da35c66414610232578063e4f25b2b1461023b578063f61736f41461024e57600080fd5b8063723834d0146101cd57806383316752146101d6578063a7080581146101f6578063a78d80fc1461020957600080fd5b8063261b3e49116100d3578063261b3e49146101715780633870c4cf1461019c57806340ac82a2146101af578063488680f3146101b857600080fd5b8063013cf08b146100fa5780630fdcdf7a1461012c578063196064491461014d575b600080fd5b61010d610108366004611484565b610270565b6040516101239a99989796959493929190611525565b60405180910390f35b61013f61013a3660046116a7565b610472565b604051908152602001610123565b60055460065460075460408051938452602084019290925290820152606001610123565b600054610184906001600160a01b031681565b6040516001600160a01b039091168152602001610123565b61013f6101aa36600461175d565b610884565b61013f60075481565b6101cb6101c6366004611789565b6108b5565b005b61013f60065481565b6101e96101e4366004611789565b610a2c565b60405161012391906117ad565b6101cb6102043660046118ca565b610db1565b61013f60055481565b610225610220366004611484565b610f4d565b6040516101239190611911565b61013f60045481565b6101cb610249366004611997565b611071565b61026161025c3660046119cb565b6112d8565b604051610123939291906119ed565b60016020819052600091825260409091208054918101546002820180546001600160a01b0390921692916102a390611a21565b80601f01602080910402602001604051908101604052809291908181526020018280546102cf90611a21565b801561031c5780601f106102f15761010080835404028352916020019161031c565b820191906000526020600020905b8154815290600101906020018083116102ff57829003601f168201915b50505050509080600301549080600401805461033790611a21565b80601f016020809104026020016040519081016040528092919081815260200182805461036390611a21565b80156103b05780601f10610385576101008083540402835291602001916103b0565b820191906000526020600020905b81548152906001019060200180831161039357829003601f168201915b5050506005840154600685015460078601546008870154600988018054979860ff909516979396509194506001600160a01b031692916103ef90611a21565b80601f016020809104026020016040519081016040528092919081815260200182805461041b90611a21565b80156104685780601f1061043d57610100808354040283529160200191610468565b820191906000526020600020905b81548152906001019060200180831161044b57829003601f168201915b505050505090508a565b6000805460405163266ebeb160e21b81523360048201526001600160a01b03909116906399bafac490602401602060405180830381865afa1580156104bb573d6000803e3d6000fd5b505050506040513d601f19601f820116820180604052508101906104df9190611a70565b6105265760405162461bcd60e51b8152602060048201526013602482015272139bdd0819195c185c9d1b595b9d081a195859606a1b60448201526064015b60405180910390fd5b600054600160a01b900460ff16156105715760405162461bcd60e51b815260206004820152600e60248201526d1499595b9d1c985b9d0818d85b1b60921b604482015260640161051d565b6000805460ff60a01b1916600160a01b17905583806105d25760405162461bcd60e51b815260206004820152601760248201527f416d6f756e74206d75737420626520706f736974697665000000000000000000604482015260640161051d565b600080546040516327a9212760e01b81523360048201526001600160a01b03909116906327a9212790602401600060405180830381865afa15801561061b573d6000803e3d6000fd5b505050506040513d6000823e601f3d908101601f191682016040526106439190810190611ae3565b9050806040015181602001516106599190611bb4565b86111561069e5760405162461bcd60e51b8152602060048201526013602482015272125b9cdd59999a58da595b9d08189d5919d95d606a1b604482015260640161051d565b600480549060006106ae83611bcd565b909155505060045460408051610140810182528281523360208083019182528284018c8152606084018c9052608084018b9052600060a085018190524260c086015260e08501819052610100850181905261012085018b90528681526001928390529490942083518155915190820180546001600160a01b0319166001600160a01b039092169190911790559151909190600282019061074e9082611c35565b50606082015160038201556080820151600482019061076d9082611c35565b5060a082015160058201805460ff19166001836003811115610791576107916114ed565b021790555060c0820151600682015560e082015160078201556101008201516008820180546001600160a01b0319166001600160a01b0390921691909117905561012082015160098201906107e69082611c35565b505033600090815260036020908152604082208054600181018255908352908220018390556005805492509061081b83611bcd565b90915550506007805490600061083083611bcd565b9091555050604051878152339082907f6595205dae276ce902b2ea66a70a1f42db62056854c3c4dba1e00ec5e2d56e3d9060200160405180910390a36000805460ff60a01b19169055979650505050505050565b600360205281600052604060002081815481106108a057600080fd5b90600052602060002001600091509150505481565b600054604051635692e5a160e11b81523360048201526001600160a01b039091169063ad25cb4290602401602060405180830381865afa1580156108fd573d6000803e3d6000fd5b505050506040513d601f19601f820116820180604052508101906109219190611a70565b61093d5760405162461bcd60e51b815260040161051d90611cf4565b600054604051630cd29ba760e31b81526001600160a01b03838116600483015290911690636694dd3890602401600060405180830381865afa158015610987573d6000803e3d6000fd5b505050506040513d6000823e601f3d908101601f191682016040526109af9190810190611ae3565b60a001516109f75760405162461bcd60e51b81526020600482015260156024820152744465706172746d656e74206e6f742061637469766560581b604482015260640161051d565b60408051600080825260208083018085526001600160a01b038616835260039091529290209051610a2892906113ae565b5050565b6001600160a01b0381166000908152600360209081526040808320805482518185028101850190935280835260609493830182828015610a8b57602002820191906000526020600020905b815481526020019060010190808311610a77575b505050505090506000815167ffffffffffffffff811115610aae57610aae6115b9565b604051908082528060200260200182016040528015610ae757816020015b610ad46113f9565b815260200190600190039081610acc5790505b50905060005b8251811015610da95760016000848381518110610b0c57610b0c611d1d565b6020026020010151815260200190815260200160002060405180610140016040529081600082015481526020016001820160009054906101000a90046001600160a01b03166001600160a01b03166001600160a01b03168152602001600282018054610b7790611a21565b80601f0160208091040260200160405190810160405280929190818152602001828054610ba390611a21565b8015610bf05780601f10610bc557610100808354040283529160200191610bf0565b820191906000526020600020905b815481529060010190602001808311610bd357829003601f168201915b5050505050815260200160038201548152602001600482018054610c1390611a21565b80601f0160208091040260200160405190810160405280929190818152602001828054610c3f90611a21565b8015610c8c5780601f10610c6157610100808354040283529160200191610c8c565b820191906000526020600020905b815481529060010190602001808311610c6f57829003601f168201915b5050509183525050600582015460209091019060ff166003811115610cb357610cb36114ed565b6003811115610cc457610cc46114ed565b8152600682015460208201526007820154604082015260088201546001600160a01b03166060820152600982018054608090920191610d0290611a21565b80601f0160208091040260200160405190810160405280929190818152602001828054610d2e90611a21565b8015610d7b5780601f10610d5057610100808354040283529160200191610d7b565b820191906000526020600020905b815481529060010190602001808311610d5e57829003601f168201915b505050505081525050828281518110610d9657610d96611d1d565b6020908102919091010152600101610aed565b509392505050565b600054604051635692e5a160e11b81523360048201526001600160a01b039091169063ad25cb4290602401602060405180830381865afa158015610df9573d6000803e3d6000fd5b505050506040513d601f19601f82011682018060405250810190610e1d9190611a70565b610e395760405162461bcd60e51b815260040161051d90611cf4565b6000828152600160205260408120549003610e8b5760405162461bcd60e51b8152602060048201526012602482015271141c9bdc1bdcd85b081b9bdd08199bdd5b9960721b604482015260640161051d565b60008281526002602090815260408083208151606081018352338152808401868152429382019390935281546001808201845592865293909420845160039094020180546001600160a01b0319166001600160a01b03909416939093178355905190820190610efa9082611c35565b50604082015181600201555050336001600160a01b0316827fcc2d7dd2085ae6644799a42c0174adf9afc10a43f26db5eac3ddd1f96d1d64be83604051610f419190611d33565b60405180910390a35050565b606060026000838152602001908152602001600020805480602002602001604051908101604052809291908181526020016000905b8282101561106657600084815260209081902060408051606081019091526003850290910180546001600160a01b031682526001810180549293919291840191610fcb90611a21565b80601f0160208091040260200160405190810160405280929190818152602001828054610ff790611a21565b80156110445780601f1061101957610100808354040283529160200191611044565b820191906000526020600020905b81548152906001019060200180831161102757829003601f168201915b5050505050815260200160028201548152505081526020019060010190610f82565b505050509050919050565b600054604051635692e5a160e11b81523360048201526001600160a01b039091169063ad25cb4290602401602060405180830381865afa1580156110b9573d6000803e3d6000fd5b505050506040513d601f19601f820116820180604052508101906110dd9190611a70565b6110f95760405162461bcd60e51b815260040161051d90611cf4565b600054600160a01b900460ff16156111445760405162461bcd60e51b815260206004820152600e60248201526d1499595b9d1c985b9d0818d85b1b60921b604482015260640161051d565b6000805460ff60a01b1916600160a01b17815582815260016020526040812080549091036111a95760405162461bcd60e51b8152602060048201526012602482015271141c9bdc1bdcd85b081b9bdd08199bdd5b9960721b604482015260640161051d565b6000600582015460ff1660038111156111c4576111c46114ed565b146112085760405162461bcd60e51b815260206004820152601460248201527350726f706f73616c206e6f742070656e64696e6760601b604482015260640161051d565b60058101805483919060ff19166001836003811115611229576112296114ed565b02179055504260078201556008810180546001600160a01b03191633179055600282600381111561125c5761125c6114ed565b03611277576006805490600061127183611bcd565b91905055505b6007805490600061128783611d46565b9190505550827fef0d88bbaeb4891d8e9303afd9d553f2807df5898cedf46c37ec9feba34741d383336040516112be929190611d5d565b60405180910390a250506000805460ff60a01b1916905550565b600260205281600052604060002081815481106112f457600080fd5b6000918252602090912060039091020180546001820180546001600160a01b03909216945091925061132590611a21565b80601f016020809104026020016040519081016040528092919081815260200182805461135190611a21565b801561139e5780601f106113735761010080835404028352916020019161139e565b820191906000526020600020905b81548152906001019060200180831161138157829003601f168201915b5050505050908060020154905083565b8280548282559060005260206000209081019282156113e9579160200282015b828111156113e95782518255916020019190600101906113ce565b506113f592915061146f565b5090565b6040518061014001604052806000815260200160006001600160a01b0316815260200160608152602001600081526020016060815260200160006003811115611444576114446114ed565b8152602001600081526020016000815260200160006001600160a01b03168152602001606081525090565b5b808211156113f55760008155600101611470565b60006020828403121561149657600080fd5b5035919050565b60005b838110156114b85781810151838201526020016114a0565b50506000910152565b600081518084526114d981602086016020860161149d565b601f01601f19169290920160200192915050565b634e487b7160e01b600052602160045260246000fd5b6004811061152157634e487b7160e01b600052602160045260246000fd5b9052565b8a81526001600160a01b038a166020820152610140604082018190526000906115509083018b6114c1565b8960608401528281036080840152611568818a6114c1565b905061157760a0840189611503565b60c0830187905260e083018690526001600160a01b0385166101008401528281036101208401526115a881856114c1565b9d9c50505050505050505050505050565b634e487b7160e01b600052604160045260246000fd5b60405160e0810167ffffffffffffffff811182821017156115f2576115f26115b9565b60405290565b604051601f8201601f1916810167ffffffffffffffff81118282101715611621576116216115b9565b604052919050565b600067ffffffffffffffff821115611643576116436115b9565b50601f01601f191660200190565b600082601f83011261166257600080fd5b813561167561167082611629565b6115f8565b81815284602083860101111561168a57600080fd5b816020850160208301376000918101602001919091529392505050565b600080600080608085870312156116bd57600080fd5b843567ffffffffffffffff8111156116d457600080fd5b6116e087828801611651565b94505060208501359250604085013567ffffffffffffffff81111561170457600080fd5b61171087828801611651565b925050606085013567ffffffffffffffff81111561172d57600080fd5b61173987828801611651565b91505092959194509250565b6001600160a01b038116811461175a57600080fd5b50565b6000806040838503121561177057600080fd5b823561177b81611745565b946020939093013593505050565b60006020828403121561179b57600080fd5b81356117a681611745565b9392505050565b6000602082016020835280845180835260408501915060408160051b86010192506020860160005b828110156118be57603f19878603018452815180518652602081015161180660208801826001600160a01b03169052565b50604081015161014060408801526118226101408801826114c1565b9050606082015160608801526080820151878203608089015261184582826114c1565b91505060a082015161185a60a0890182611503565b5060c082015160c088015260e082015160e088015261010082015161188b6101008901826001600160a01b03169052565b5061012082015191508681036101208801526118a781836114c1565b9650505060209384019391909101906001016117d5565b50929695505050505050565b600080604083850312156118dd57600080fd5b82359150602083013567ffffffffffffffff8111156118fb57600080fd5b61190785828601611651565b9150509250929050565b6000602082016020835280845180835260408501915060408160051b86010192506020860160005b828110156118be57868503603f19018452815180516001600160a01b03168652602080820151606091880182905290611974908801826114c1565b604092830151979092019690965294506020938401939190910190600101611939565b600080604083850312156119aa57600080fd5b823591506020830135600481106119c057600080fd5b809150509250929050565b600080604083850312156119de57600080fd5b50508035926020909101359150565b6001600160a01b0384168152606060208201819052600090611a11908301856114c1565b9050826040830152949350505050565b600181811c90821680611a3557607f821691505b602082108103611a5557634e487b7160e01b600052602260045260246000fd5b50919050565b80518015158114611a6b57600080fd5b919050565b600060208284031215611a8257600080fd5b6117a682611a5b565b600082601f830112611a9c57600080fd5b8151611aaa61167082611629565b818152846020838601011115611abf57600080fd5b611ad082602083016020870161149d565b949350505050565b8051611a6b81611745565b600060208284031215611af557600080fd5b815167ffffffffffffffff811115611b0c57600080fd5b820160e08185031215611b1e57600080fd5b611b266115cf565b815167ffffffffffffffff811115611b3d57600080fd5b611b4986828501611a8b565b82525060208281015190820152604080830151908201526060808301519082015260808083015190820152611b8060a08301611a5b565b60a0820152611b9160c08301611ad8565b60c0820152949350505050565b634e487b7160e01b600052601160045260246000fd5b81810381811115611bc757611bc7611b9e565b92915050565b600060018201611bdf57611bdf611b9e565b5060010190565b601f821115611c3057806000526020600020601f840160051c81016020851015611c0d5750805b601f840160051c820191505b81811015611c2d5760008155600101611c19565b50505b505050565b815167ffffffffffffffff811115611c4f57611c4f6115b9565b611c6381611c5d8454611a21565b84611be6565b6020601f821160018114611c975760008315611c7f5750848201515b600019600385901b1c1916600184901b178455611c2d565b600084815260208120601f198516915b82811015611cc75787850151825560209485019460019092019101611ca7565b5084821015611ce55786840151600019600387901b60f8161c191681555b50505050600190811b01905550565b6020808252600f908201526e2737ba1039bab832b91030b236b4b760891b604082015260600190565b634e487b7160e01b600052603260045260246000fd5b6020815260006117a660208301846114c1565b600081611d5557611d55611b9e565b506000190190565b60408101611d6b8285611503565b6001600160a01b03929092166020919091015291905056fea26469706673582212207bd22b1562790ba0075cd32a9bb258982d4b1682a25d7659b689637640eb555d64736f6c634300081c0033",
  "linkReferences": {},
  "deployedLinkReferences": {}
}