{
  "_format": "hh-sol-artifact-1",
  "contractName": "ActivityTracker",
  "sourceName": "contracts/ActivityTracker.sol",
  "abi": [
    {
      "inputs": [
        {
          "internalType": "address",
          "name": "_departmentRegistry",
          "type": "address"
        }
      ],
      "stateMutability": "nonpayable",
      "type": "constructor"
    },
    {
      "anonymous": false,
      "inputs": [
        {
          "indexed": true,
          "internalType": "uint256",
          "name": "id",
          "type": "uint256"
        },
        {
          "indexed": true,
          "internalType": "address",
          "name": "department",
          "type": "address"
        },
        {
          "indexed": false,
          "internalType": "string",
          "name": "activityType",
          "type": "string"
        },
        {
          "indexed": false,
          "internalType": "uint256",
          "name": "amount",
          "type": "uint256"
        },
        {
          "indexed": false,
          "internalType": "string",
          "name": "description",
          "type": "string"
        },
        {
          "indexed": false,
          "internalType": "bytes32",
          "name": "txHash",
          "type": "bytes32"
        },
        {
          "indexed": false,
          "internalType": "string",
          "name": "status",
          "type": "string"
        }
      ],
      "name": "ActivityLogged",
      "type": "event"
    },
    {
      "inputs": [
        {
          "internalType": "address",
          "name": "",
          "type": "address"
        }
      ],
      "name": "activityCount",
      "outputs": [
        {
          "internalType": "uint256",
          "name": "",
          "type": "uint256"
        }
      ],
      "stateMutability": "view",
      "type": "function"
    },
    {
      "inputs": [
        {
          "internalType": "address",
          "name": "",
          "type": "address"
        },
        {
          "internalType": "uint256",
          "name": "",
          "type": "uint256"
        }
      ],
      "name": "departmentActivities",
      "outputs": [
        {
          "internalType": "uint256",
          "name": "id",
          "type": "uint256"
        },
        {
          "internalType": "address",
          "name": "department",
          "type": "address"
        },
        {
          "internalType": "string",
          "name": "activityType",
          "type": "string"
        },
        {
          "internalType": "uint256",
          "name": "amount",
          "type": "uint256"
        },
        {
          "internalType": "string",
          "name": "description",
          "type": "string"
        },
        {
          "internalType": "uint256",
          "name": "timestamp",
          "type": "uint256"
        },
        {
          "internalType": "bytes32",
          "name": "txHash",
          "type": "bytes32"
        },
        {
          "internalType": "string",
          "name": "status",
          "type": "string"
        }
      ],
      "stateMutability": "view",
      "type": "function"
    },
    {
      "inputs": [],
      "name": "departmentRegistry",
      "outputs": [
        {
          "internalType": "contract IDepartmentRegistry",
          "name": "",
          "type": "address"
        }
      ],
      "stateMutability": "view",
      "type": "function"
    },
    {
      "inputs": [
        {
          "internalType": "address",
          "name": "department",
          "type": "address"
        }
      ],
      "name": "getDepartmentActivities",
      "outputs": [
        {
          "components": [
            {
              "internalType": "uint256",
              "name": "id",
              "type": "uint256"
            },
            {
              "internalType": "address",
              "name": "department",
              "type": "address"
            },
            {
              "internalType": "string",
              "name": "activityType",
              "type": "string"
            },
            {
              "internalType": "uint256",
              "name": "amount",
              "type": "uint256"
            },
            {
              "internalType": "string",
              "name": "description",
              "type": "string"
            },
            {
              "internalType": "uint256",
              "name": "timestamp",
              "type": "uint256"
            },
            {
              "internalType": "bytes32",
              "name": "txHash",
              "type": "bytes32"
            },
            {
              "internalType": "string",
              "name": "status",
              "type": "string"
            }
          ],
          "internalType": "struct ActivityTracker.Activity[]",
          "name": "",
          "type": "tuple[]"
        }
      ],
      "stateMutability": "view",
      "type": "function"
    },
    {
      "inputs": [
        {
          "internalType": "address",
          "name": "department",
          "type": "address"
        },
        {
          "internalType": "uint256",
          "name": "limit",
          "type": "uint256"
        }
      ],
      "name": "getRecentActivities",
      "outputs": [
        {
          "components": [
            {
              "internalType": "uint256",
              "name": "id",
              "type": "uint256"
            },
            {
              "internalType": "address",
              "name": "department",
              "type": "address"
            },
            {
              "internalType": "string",
              "name": "activityType",
              "type": "string"
            },
            {
              "internalType": "uint256",
              "name": "amount",
              "type": "uint256"
            },
            {
              "internalType": "string",
              "name": "description",
              "type": "string"
            },
            {
              "internalType": "uint256",
              "name": "timestamp",
              "type": "uint256"
            },
            {
              "internalType": "bytes32",
              "name": "txHash",
              "type": "bytes32"
            },
            {
              "internalType": "string",
              "name": "status",
              "type": "string"
            }
          ],
          "internalType": "struct ActivityTracker.Activity[]",
          "name": "",
          "type": "tuple[]"
        }
      ],
      "stateMutability": "view",
      "type": "function"
    },
    {
      "inputs": [
        {
          "internalType": "address",
          "name": "department",
          "type": "address"
        },
        {
          "internalType": "string",
          "name": "activityType",
          "type": "string"
        },
        {
          "internalType": "uint256",
          "name": "amount",
          "type": "uint256"
        },
        {
          "internalType": "string",
          "name": "description",
          "type": "string"
        },
        {
          "internalType": "bytes32",
          "name": "txHash",
          "type": "bytes32"
        },
        {
          "internalType": "string",
          "name": "status",
          "type": "string"
        }
      ],
      "name": "logActivity",
      "outputs": [],
      "stateMutability": "nonpayable",
      "type": "function"
    },
    {
      "inputs": [],
      "name": "totalActivities",
      "outputs": [
        {
          "internalType": "uint256",
          "name": "",
          "type": "uint256"
        }
      ],
      "stateMutability": "view",
      "type": "function"
    }
  ],
  "bytecode": "0x6080604052348015600f57600080fd5b50604051611215380380611215833981016040819052602c916050565b600080546001600160a01b0319166001600160a01b0392909216919091179055607e565b600060208284031215606157600080fd5b81516001600160a01b0381168114607757600080fd5b9392505050565b6111888061008d6000396000f3fe608060405234801561001057600080fd5b506004361061007d5760003560e01c80635cce06f91161005b5780635cce06f914610100578063a5a7ddd914610113578063afd327961461013a578063e0b973ec1461014f57600080fd5b8063261b3e4914610082578063325d917e146100b257806355f6408f146100e0575b600080fd5b600054610095906001600160a01b031681565b6040516001600160a01b0390911681526020015b60405180910390f35b6100d26100c0366004610bf4565b60026020526000908152604090205481565b6040519081526020016100a9565b6100f36100ee366004610bf4565b610158565b6040516100a99190610c5c565b6100f361010e366004610d47565b6103c2565b610126610121366004610d47565b610737565b6040516100a9989796959493929190610d71565b61014d610148366004610e88565b61093b565b005b6100d260035481565b6001600160a01b0381166000908152600160209081526040808320805482518185028101850190935280835260609492939192909184015b828210156103b75760008481526020908190206040805161010081018252600886029092018054835260018101546001600160a01b031693830193909352600283018054929392918401916101e490610f3f565b80601f016020809104026020016040519081016040528092919081815260200182805461021090610f3f565b801561025d5780601f106102325761010080835404028352916020019161025d565b820191906000526020600020905b81548152906001019060200180831161024057829003601f168201915b505050505081526020016003820154815260200160048201805461028090610f3f565b80601f01602080910402602001604051908101604052809291908181526020018280546102ac90610f3f565b80156102f95780601f106102ce576101008083540402835291602001916102f9565b820191906000526020600020905b8154815290600101906020018083116102dc57829003601f168201915b50505050508152602001600582015481526020016006820154815260200160078201805461032690610f3f565b80601f016020809104026020016040519081016040528092919081815260200182805461035290610f3f565b801561039f5780601f106103745761010080835404028352916020019161039f565b820191906000526020600020905b81548152906001019060200180831161038257829003601f168201915b50505050508152505081526020019060010190610190565b505050509050919050565b6001600160a01b0382166000908152600260205260408120546060918184106103eb57816103ed565b835b905060008167ffffffffffffffff81111561040a5761040a610de3565b60405190808252806020026020018201604052801561048f57816020015b61047c6040518061010001604052806000815260200160006001600160a01b031681526020016060815260200160008152602001606081526020016000815260200160008019168152602001606081525090565b8152602001906001900390816104285790505b50905060005b8281101561072b576001600160a01b03871660009081526001602081905260409091209082906104c59087610f8f565b6104cf9190610f8f565b815481106104df576104df610fa2565b906000526020600020906008020160405180610100016040529081600082015481526020016001820160009054906101000a90046001600160a01b03166001600160a01b03166001600160a01b0316815260200160028201805461054290610f3f565b80601f016020809104026020016040519081016040528092919081815260200182805461056e90610f3f565b80156105bb5780601f10610590576101008083540402835291602001916105bb565b820191906000526020600020905b81548152906001019060200180831161059e57829003601f168201915b50505050508152602001600382015481526020016004820180546105de90610f3f565b80601f016020809104026020016040519081016040528092919081815260200182805461060a90610f3f565b80156106575780601f1061062c57610100808354040283529160200191610657565b820191906000526020600020905b81548152906001019060200180831161063a57829003601f168201915b50505050508152602001600582015481526020016006820154815260200160078201805461068490610f3f565b80601f01602080910402602001604051908101604052809291908181526020018280546106b090610f3f565b80156106fd5780601f106106d2576101008083540402835291602001916106fd565b820191906000526020600020905b8154815290600101906020018083116106e057829003601f168201915b50505050508152505082828151811061071857610718610fa2565b6020908102919091010152600101610495565b50925050505b92915050565b6001602052816000526040600020818154811061075357600080fd5b60009182526020909120600890910201805460018201546002830180549295506001600160a01b0390911693509061078a90610f3f565b80601f01602080910402602001604051908101604052809291908181526020018280546107b690610f3f565b80156108035780601f106107d857610100808354040283529160200191610803565b820191906000526020600020905b8154815290600101906020018083116107e657829003601f168201915b50505050509080600301549080600401805461081e90610f3f565b80601f016020809104026020016040519081016040528092919081815260200182805461084a90610f3f565b80156108975780601f1061086c57610100808354040283529160200191610897565b820191906000526020600020905b81548152906001019060200180831161087a57829003601f168201915b5050505050908060050154908060060154908060070180546108b890610f3f565b80601f01602080910402602001604051908101604052809291908181526020018280546108e490610f3f565b80156109315780601f1061090657610100808354040283529160200191610931565b820191906000526020600020905b81548152906001019060200180831161091457829003601f168201915b5050505050905088565b600054604051635692e5a160e11b81523360048201526001600160a01b039091169063ad25cb4290602401602060405180830381865afa158015610983573d6000803e3d6000fd5b505050506040513d601f19601f820116820180604052508101906109a79190610fb8565b80610a19575060005460405163266ebeb160e21b81523360048201526001600160a01b03909116906399bafac490602401602060405180830381865afa1580156109f5573d6000803e3d6000fd5b505050506040513d601f19601f82011682018060405250810190610a199190610fb8565b610a5a5760405162461bcd60e51b815260206004820152600e60248201526d139bdd08185d5d1a1bdc9a5e995960921b604482015260640160405180910390fd5b60038054906000610a6a83610fda565b909155505060035460408051610100810182528281526001600160a01b0389811660208084018281528486018c8152606086018c9052608086018b90524260a087015260c086018a905260e0860189905260009384526001808452968420805480890182559085529290932085516008909302019182555194810180546001600160a01b031916959093169490941790915551909182916002820190610b109082611042565b506060820151600382015560808201516004820190610b2f9082611042565b5060a0820151600582015560c0820151600682015560e08201516007820190610b589082611042565b5050506001600160a01b0388166000908152600260205260408120805491610b7f83610fda565b9190505550876001600160a01b0316827f4745ad545f7011d20e5fcc8023727bde169eafe1c4e6c312f62f08ceb2aa99c78989898989604051610bc6959493929190611101565b60405180910390a35050505050505050565b80356001600160a01b0381168114610bef57600080fd5b919050565b600060208284031215610c0657600080fd5b610c0f82610bd8565b9392505050565b6000815180845260005b81811015610c3c57602081850181015186830182015201610c20565b506000602082860101526020601f19601f83011685010191505092915050565b6000602082016020835280845180835260408501915060408160051b86010192506020860160005b82811015610d3b57603f198786030184528151805186526020810151610cb560208801826001600160a01b03169052565b5060408101516101006040880152610cd1610100880182610c16565b90506060820151606088015260808201518782036080890152610cf48282610c16565b91505060a082015160a088015260c082015160c088015260e0820151915086810360e0880152610d248183610c16565b965050506020938401939190910190600101610c84565b50929695505050505050565b60008060408385031215610d5a57600080fd5b610d6383610bd8565b946020939093013593505050565b8881526001600160a01b038816602082015261010060408201819052600090610d9c90830189610c16565b8760608401528281036080840152610db48188610c16565b90508560a08401528460c084015282810360e0840152610dd48185610c16565b9b9a5050505050505050505050565b634e487b7160e01b600052604160045260246000fd5b600082601f830112610e0a57600080fd5b813567ffffffffffffffff811115610e2457610e24610de3565b604051601f8201601f19908116603f0116810167ffffffffffffffff81118282101715610e5357610e53610de3565b604052818152838201602001851015610e6b57600080fd5b816020850160208301376000918101602001919091529392505050565b60008060008060008060c08789031215610ea157600080fd5b610eaa87610bd8565b9550602087013567ffffffffffffffff811115610ec657600080fd5b610ed289828a01610df9565b95505060408701359350606087013567ffffffffffffffff811115610ef657600080fd5b610f0289828a01610df9565b9350506080870135915060a087013567ffffffffffffffff811115610f2657600080fd5b610f3289828a01610df9565b9150509295509295509295565b600181811c90821680610f5357607f821691505b602082108103610f7357634e487b7160e01b600052602260045260246000fd5b50919050565b634e487b7160e01b600052601160045260246000fd5b8181038181111561073157610731610f79565b634e487b7160e01b600052603260045260246000fd5b600060208284031215610fca57600080fd5b81518015158114610c0f57600080fd5b600060018201610fec57610fec610f79565b5060010190565b601f82111561103d57806000526020600020601f840160051c8101602085101561101a5750805b601f840160051c820191505b8181101561103a5760008155600101611026565b50505b505050565b815167ffffffffffffffff81111561105c5761105c610de3565b6110708161106a8454610f3f565b84610ff3565b6020601f8211600181146110a4576000831561108c5750848201515b600019600385901b1c1916600184901b17845561103a565b600084815260208120601f198516915b828110156110d457878501518255602094850194600190920191016110b4565b50848210156110f25786840151600019600387901b60f8161c191681555b50505050600190811b01905550565b60a08152600061111460a0830188610c16565b866020840152828103604084015261112c8187610c16565b905084606084015282810360808401526111468185610c16565b9897505050505050505056fea2646970667358221220cdcf1e411df367dfdbff4da5aa905c235ec1c407a45d19e5a03781ff516ce4f864736f6c634300081c0033",
  "linkReferences": {},
  "deployedLinkReferences": {}
}