{
  "_format": "hh-sol-artifact-1",
  "contractName": "BudgetController",
  "sourceName": "contracts/BudgetController.sol",
  "abi": [
    {
      "inputs": [
        {
          "internalType": "address",
          "name": "_departmentRegistry",
          "type": "address"
        }
      ],
      "stateMutability": "nonpayable",
      "type": "constructor"
    },
    {
      "anonymous": false,
      "inputs": [
        {
          "indexed": true,
          "internalType": "address",
          "name": "department",
          "type": "address"
        },
        {
          "indexed": false,
          "internalType": "uint256",
          "name": "spent",
          "type": "uint256"
        },
        {
          "indexed": false,
          "internalType": "uint256",
          "name": "budget",
          "type": "uint256"
        }
      ],
      "name": "BudgetLimitWarning",
      "type": "event"
    },
    {
      "anonymous": false,
      "inputs": [
        {
          "indexed": true,
          "internalType": "uint256",
          "name": "id",
          "type": "uint256"
        },
        {
          "indexed": false,
          "internalType": "enum BudgetController.TransactionStatus",
          "name": "status",
          "type": "uint8"
        }
      ],
      "name": "TransactionCompleted",
      "type": "event"
    },
    {
      "anonymous": false,
      "inputs": [
        {
          "indexed": true,
          "internalType": "uint256",
          "name": "id",
          "type": "uint256"
        },
        {
          "indexed": true,
          "internalType": "address",
          "name": "department",
          "type": "address"
        },
        {
          "indexed": false,
          "internalType": "enum BudgetController.TransactionType",
          "name": "txType",
          "type": "uint8"
        },
        {
          "indexed": false,
          "internalType": "uint256",
          "name": "amount",
          "type": "uint256"
        }
      ],
      "name": "TransactionCreated",
      "type": "event"
    },
    {
      "inputs": [
        {
          "internalType": "enum BudgetController.TransactionType",
          "name": "txType",
          "type": "uint8"
        },
        {
          "internalType": "uint256",
          "name": "amount",
          "type": "uint256"
        },
        {
          "internalType": "string",
          "name": "description",
          "type": "string"
        }
      ],
      "name": "createTransaction",
      "outputs": [
        {
          "internalType": "uint256",
          "name": "",
          "type": "uint256"
        }
      ],
      "stateMutability": "nonpayable",
      "type": "function"
    },
    {
      "inputs": [],
      "name": "departmentRegistry",
      "outputs": [
        {
          "internalType": "contract IDepartmentRegistry",
          "name": "",
          "type": "address"
        }
      ],
      "stateMutability": "view",
      "type": "function"
    },
    {
      "inputs": [
        {
          "internalType": "address",
          "name": "",
          "type": "address"
        }
      ],
      "name": "departmentTransactionCount",
      "outputs": [
        {
          "internalType": "uint256",
          "name": "",
          "type": "uint256"
        }
      ],
      "stateMutability": "view",
      "type": "function"
    },
    {
      "inputs": [
        {
          "internalType": "address",
          "name": "",
          "type": "address"
        },
        {
          "internalType": "uint256",
          "name": "",
          "type": "uint256"
        }
      ],
      "name": "departmentTransactions",
      "outputs": [
        {
          "internalType": "uint256",
          "name": "",
          "type": "uint256"
        }
      ],
      "stateMutability": "view",
      "type": "function"
    },
    {
      "inputs": [
        {
          "internalType": "address",
          "name": "department",
          "type": "address"
        }
      ],
      "name": "getTransactionsByDepartment",
      "outputs": [
        {
          "components": [
            {
              "internalType": "uint256",
              "name": "id",
              "type": "uint256"
            },
            {
              "internalType": "address",
              "name": "department",
              "type": "address"
            },
            {
              "internalType": "enum BudgetController.TransactionType",
              "name": "txType",
              "type": "uint8"
            },
            {
              "internalType": "uint256",
              "name": "amount",
              "type": "uint256"
            },
            {
              "internalType": "string",
              "name": "description",
              "type": "string"
            },
            {
              "internalType": "enum BudgetController.TransactionStatus",
              "name": "status",
              "type": "uint8"
            },
            {
              "internalType": "uint256",
              "name": "timestamp",
              "type": "uint256"
            }
          ],
          "internalType": "struct BudgetController.Transaction[]",
          "name": "",
          "type": "tuple[]"
        }
      ],
      "stateMutability": "view",
      "type": "function"
    },
    {
      "inputs": [
        {
          "internalType": "address",
          "name": "department",
          "type": "address"
        },
        {
          "internalType": "uint256",
          "name": "initialBudget",
          "type": "uint256"
        }
      ],
      "name": "initializeDepartmentBudget",
      "outputs": [],
      "stateMutability": "nonpayable",
      "type": "function"
    },
    {
      "inputs": [
        {
          "internalType": "uint256",
          "name": "transactionId",
          "type": "uint256"
        }
      ],
      "name": "processTransaction",
      "outputs": [],
      "stateMutability": "nonpayable",
      "type": "function"
    },
    {
      "inputs": [],
      "name": "transactionCount",
      "outputs": [
        {
          "internalType": "uint256",
          "name": "",
          "type": "uint256"
        }
      ],
      "stateMutability": "view",
      "type": "function"
    },
    {
      "inputs": [
        {
          "internalType": "uint256",
          "name": "",
          "type": "uint256"
        }
      ],
      "name": "transactions",
      "outputs": [
        {
          "internalType": "uint256",
          "name": "id",
          "type": "uint256"
        },
        {
          "internalType": "address",
          "name": "department",
          "type": "address"
        },
        {
          "internalType": "enum BudgetController.TransactionType",
          "name": "txType",
          "type": "uint8"
        },
        {
          "internalType": "uint256",
          "name": "amount",
          "type": "uint256"
        },
        {
          "internalType": "string",
          "name": "description",
          "type": "string"
        },
        {
          "internalType": "enum BudgetController.TransactionStatus",
          "name": "status",
          "type": "uint8"
        },
        {
          "internalType": "uint256",
          "name": "timestamp",
          "type": "uint256"
        }
      ],
      "stateMutability": "view",
      "type": "function"
    }
  ],
  "bytecode": "0x6080604052348015600f57600080fd5b50604051611a72380380611a72833981016040819052602c916050565b600080546001600160a01b0319166001600160a01b0392909216919091179055607e565b600060208284031215606157600080fd5b81516001600160a01b0381168114607757600080fd5b9392505050565b6119e58061008d6000396000f3fe608060405234801561001057600080fd5b50600436106100935760003560e01c8063680c09b511610066578063680c09b5146101115780639ace38c214610131578063b5ddbda814610157578063b77bf60014610177578063f0066f831461018057600080fd5b80631c434df014610098578063261b3e49146100ad57806335c7bf9e146100dd5780635df5010c146100fe575b600080fd5b6100ab6100a63660046112f0565b610193565b005b6000546100c0906001600160a01b031681565b6040516001600160a01b0390911681526020015b60405180910390f35b6100f06100eb3660046112f0565b61059f565b6040519081526020016100d4565b6100f061010c3660046113b4565b6105d0565b6100f061011f366004611454565b60046020526000908152604090205481565b61014461013f366004611478565b6109a5565b6040516100d4979695949392919061151b565b61016a610165366004611454565b610a7c565b6040516100d49190611577565b6100f060025481565b6100ab61018e366004611478565b610d04565b600054604051635692e5a160e11b81523360048201526001600160a01b039091169063ad25cb4290602401602060405180830381865afa1580156101db573d6000803e3d6000fd5b505050506040513d601f19601f820116820180604052508101906101ff9190611657565b6102425760405162461bcd60e51b815260206004820152600f60248201526e2737ba1039bab832b91030b236b4b760891b60448201526064015b60405180910390fd5b600054600160a01b900460ff161561026c5760405162461bcd60e51b815260040161023990611672565b6000805460ff60a01b1916600160a01b179055808015801590610299575069152d02c7e14af68000008111155b6102d65760405162461bcd60e51b815260206004820152600e60248201526d125b9d985b1a5908185b5bdd5b9d60921b6044820152606401610239565b600054604051630cd29ba760e31b81526001600160a01b03858116600483015290911690636694dd3890602401600060405180830381865afa158015610320573d6000803e3d6000fd5b505050506040513d6000823e601f3d908101601f1916820160405261034891908101906116f2565b60a001516103905760405162461bcd60e51b81526020600482015260156024820152744465706172746d656e74206e6f742061637469766560581b6044820152606401610239565b600280549060006103a0836117c3565b90915550506002546040805160e0810182528281526001600160a01b0386811660208084019182526000848601818152606086018a905286518088018852601981527f496e697469616c2062756467657420616c6c6f636174696f6e00000000000000818501526080870152600160a087018190524260c08801528883529283905295902084518155915190820180546001600160a01b03198116929094169182178155945193949193926001600160a81b03191617600160a01b83600381111561046d5761046d611491565b021790555060608201516002820155608082015160038201906104909082611865565b5060a082015160048201805460ff191660018360028111156104b4576104b4611491565b021790555060c091909101516005909101556001600160a01b038416600081815260036020908152604080832080546001810182559084528284200185905592825260049052908120805491610509836117c3565b9190505550836001600160a01b0316817fc5617696b75e538ed738f904611fdfb78dff557717f05c9ea38595041503c5f060008660405161054b929190611924565b60405180910390a3807f11a3517410d399d687a3dac00c28ef32ffea27e8991a0d4d2283382878b118f66001604051610584919061193f565b60405180910390a250506000805460ff60a01b191690555050565b600360205281600052604060002081815481106105bb57600080fd5b90600052602060002001600091509150505481565b6000805460405163266ebeb160e21b81523360048201526001600160a01b03909116906399bafac490602401602060405180830381865afa158015610619573d6000803e3d6000fd5b505050506040513d601f19601f8201168201806040525081019061063d9190611657565b61067f5760405162461bcd60e51b8152602060048201526013602482015272139bdd0819195c185c9d1b595b9d081a195859606a1b6044820152606401610239565b600054600160a01b900460ff16156106a95760405162461bcd60e51b815260040161023990611672565b6000805460ff60a01b1916600160a01b1790558280158015906106d6575069152d02c7e14af68000008111155b6107135760405162461bcd60e51b815260206004820152600e60248201526d125b9d985b1a5908185b5bdd5b9d60921b6044820152606401610239565b600080546040516327a9212760e01b81523360048201526001600160a01b03909116906327a9212790602401600060405180830381865afa15801561075c573d6000803e3d6000fd5b505050506040513d6000823e601f3d908101601f1916820160405261078491908101906116f2565b9050600386600381111561079a5761079a611491565b036107f45780602001518582604001516107b4919061194d565b11156107f45760405162461bcd60e51b815260206004820152600f60248201526e109d5919d95d08195e18d959591959608a1b6044820152606401610239565b60028054906000610804836117c3565b90915550506002546040805160e08101825282815233602082015290810188600381111561083457610834611491565b81526020810188905260408101879052606001600081524260209182015260008381526001808352604091829020845181559284015190830180546001600160a01b039092166001600160a01b0319831681178255928501519290916001600160a81b03191617600160a01b8360038111156108b2576108b2611491565b021790555060608201516002820155608082015160038201906108d59082611865565b5060a082015160048201805460ff191660018360028111156108f9576108f9611491565b021790555060c0919091015160059091015533600081815260036020908152604080832080546001810182559084528284200185905592825260049052908120805491610945836117c3565b9190505550336001600160a01b0316817fc5617696b75e538ed738f904611fdfb78dff557717f05c9ea38595041503c5f08989604051610986929190611924565b60405180910390a36000805460ff60a01b191690559695505050505050565b600160208190526000918252604090912080549181015460028201546003830180546001600160a01b03841694600160a01b90940460ff169391906109e9906117dc565b80601f0160208091040260200160405190810160405280929190818152602001828054610a15906117dc565b8015610a625780601f10610a3757610100808354040283529160200191610a62565b820191906000526020600020905b815481529060010190602001808311610a4557829003601f168201915b505050506004830154600590930154919260ff1691905087565b6001600160a01b0381166000908152600360209081526040808320805482518185028101850190935280835260609493830182828015610adb57602002820191906000526020600020905b815481526020019060010190808311610ac7575b505050505090506000815167ffffffffffffffff811115610afe57610afe61131c565b604051908082528060200260200182016040528015610b6457816020015b6040805160e081018252600080825260208083018290529282018190526060808301829052608083015260a0820181905260c08201528252600019909201910181610b1c5790505b50905060005b8251811015610cfc5760016000848381518110610b8957610b89611960565b6020908102919091018101518252818101929092526040908101600020815160e0810183528154815260018201546001600160a01b03811694820194909452929091830190600160a01b900460ff166003811115610be957610be9611491565b6003811115610bfa57610bfa611491565b815260200160028201548152602001600382018054610c18906117dc565b80601f0160208091040260200160405190810160405280929190818152602001828054610c44906117dc565b8015610c915780601f10610c6657610100808354040283529160200191610c91565b820191906000526020600020905b815481529060010190602001808311610c7457829003601f168201915b5050509183525050600482015460209091019060ff166002811115610cb857610cb8611491565b6002811115610cc957610cc9611491565b8152602001600582015481525050828281518110610ce957610ce9611960565b6020908102919091010152600101610b6a565b509392505050565b600054604051635692e5a160e11b81523360048201526001600160a01b039091169063ad25cb4290602401602060405180830381865afa158015610d4c573d6000803e3d6000fd5b505050506040513d601f19601f82011682018060405250810190610d709190611657565b610dae5760405162461bcd60e51b815260206004820152600f60248201526e2737ba1039bab832b91030b236b4b760891b6044820152606401610239565b600054600160a01b900460ff1615610dd85760405162461bcd60e51b815260040161023990611672565b6000805460ff60a01b1916600160a01b1781558181526001602052604081208054909103610e405760405162461bcd60e51b8152602060048201526015602482015274151c985b9cd858dd1a5bdb881b9bdd08199bdd5b99605a1b6044820152606401610239565b6000600482015460ff166002811115610e5b57610e5b611491565b14610ea85760405162461bcd60e51b815260206004820152601760248201527f5472616e73616374696f6e206e6f742070656e64696e670000000000000000006044820152606401610239565b6000805460018301546040516327a9212760e01b81526001600160a01b0391821660048201529116906327a9212790602401600060405180830381865afa158015610ef7573d6000803e3d6000fd5b505050506040513d6000823e601f3d908101601f19168201604052610f1f91908101906116f2565b905060036001830154600160a01b900460ff166003811115610f4357610f43611491565b03610fd057806020015182600201548260400151610f61919061194d565b1115610fa15760405162461bcd60e51b815260206004820152600f60248201526e109d5919d95d08195e18d959591959608a1b6044820152606401610239565b60018201546002830154610fcb916001600160a01b03811691600160a01b90910460ff16906110e4565b611087565b60006001830154600160a01b900460ff166003811115610ff257610ff2611491565b036110875769152d02c7e14af680000082600201548260200151611016919061194d565b111561105d5760405162461bcd60e51b815260206004820152601660248201527522bc31b2b2b2399036b0bc1030b63637b1b0ba34b7b760511b6044820152606401610239565b60018201546002830154611087916001600160a01b03811691600160a01b90910460ff16906110e4565b60048201805460ff1916600190811790915560405184917f11a3517410d399d687a3dac00c28ef32ffea27e8991a0d4d2283382878b118f6916110ca919061193f565b60405180910390a250506000805460ff60a01b1916905550565b600080546040516327a9212760e01b81526001600160a01b038681166004830152909116906327a9212790602401600060405180830381865afa15801561112f573d6000803e3d6000fd5b505050506040513d6000823e601f3d908101601f1916820160405261115791908101906116f2565b6040810151602082015191925090600385600381111561117957611179611491565b0361118f57611188848361194d565b91506111b5565b60008560038111156111a3576111a3611491565b036111b5576111b2848261194d565b90505b60006111c183836112a7565b600054608086015160405162bacb0b60e01b81526001600160a01b038b8116600483015260248201859052604482019290925260648101879052929350169062bacb0b90608401600060405180830381600087803b15801561122257600080fd5b505af1158015611236573d6000803e3d6000fd5b50505050606482605a6112499190611976565b611253919061198d565b831061129e5760408051848152602081018490526001600160a01b038916917ffa05e6c946b9b30d53ea35a0c06832056010f40d2686eba05a629781030fa8c2910160405180910390a25b50505050505050565b6000816000036112b9575060006112d2565b816112c5846064611976565b6112cf919061198d565b90505b92915050565b6001600160a01b03811681146112ed57600080fd5b50565b6000806040838503121561130357600080fd5b823561130e816112d8565b946020939093013593505050565b634e487b7160e01b600052604160045260246000fd5b60405160e0810167ffffffffffffffff811182821017156113555761135561131c565b60405290565b604051601f8201601f1916810167ffffffffffffffff811182821017156113845761138461131c565b604052919050565b600067ffffffffffffffff8211156113a6576113a661131c565b50601f01601f191660200190565b6000806000606084860312156113c957600080fd5b8335600481106113d857600080fd5b925060208401359150604084013567ffffffffffffffff8111156113fb57600080fd5b8401601f8101861361140c57600080fd5b803561141f61141a8261138c565b61135b565b81815287602083850101111561143457600080fd5b816020840160208301376000602083830101528093505050509250925092565b60006020828403121561146657600080fd5b8135611471816112d8565b9392505050565b60006020828403121561148a57600080fd5b5035919050565b634e487b7160e01b600052602160045260246000fd5b600481106114b7576114b7611491565b9052565b60005b838110156114d65781810151838201526020016114be565b50506000910152565b600081518084526114f78160208601602086016114bb565b601f01601f19169290920160200192915050565b600381106114b7576114b7611491565b8781526001600160a01b038716602082015261153a60408201876114a7565b84606082015260e06080820152600061155660e08301866114df565b905061156560a083018561150b565b8260c083015298975050505050505050565b6000602082016020835280845180835260408501915060408160051b86010192506020860160005b8281101561163657868503603f190184528151805186526020808201516001600160a01b031690870152604080820151906115dc908801826114a7565b5060608101516060870152608081015160e0608088015261160060e08801826114df565b905060a082015161161460a089018261150b565b5060c0918201519690910195909552602093840193919091019060010161159f565b50929695505050505050565b8051801515811461165257600080fd5b919050565b60006020828403121561166957600080fd5b6112cf82611642565b6020808252600e908201526d1499595b9d1c985b9d0818d85b1b60921b604082015260600190565b600082601f8301126116ab57600080fd5b81516116b961141a8261138c565b8181528460208386010111156116ce57600080fd5b6116df8260208301602087016114bb565b949350505050565b8051611652816112d8565b60006020828403121561170457600080fd5b815167ffffffffffffffff81111561171b57600080fd5b820160e0818503121561172d57600080fd5b611735611332565b815167ffffffffffffffff81111561174c57600080fd5b6117588682850161169a565b8252506020828101519082015260408083015190820152606080830151908201526080808301519082015261178f60a08301611642565b60a08201526117a060c083016116e7565b60c0820152949350505050565b634e487b7160e01b600052601160045260246000fd5b6000600182016117d5576117d56117ad565b5060010190565b600181811c908216806117f057607f821691505b60208210810361181057634e487b7160e01b600052602260045260246000fd5b50919050565b601f82111561186057806000526020600020601f840160051c8101602085101561183d5750805b601f840160051c820191505b8181101561185d5760008155600101611849565b50505b505050565b815167ffffffffffffffff81111561187f5761187f61131c565b6118938161188d84546117dc565b84611816565b6020601f8211600181146118c757600083156118af5750848201515b600019600385901b1c1916600184901b17845561185d565b600084815260208120601f198516915b828110156118f757878501518255602094850194600190920191016118d7565b50848210156119155786840151600019600387901b60f8161c191681555b50505050600190811b01905550565b6040810161193282856114a7565b8260208301529392505050565b602081016112d2828461150b565b808201808211156112d2576112d26117ad565b634e487b7160e01b600052603260045260246000fd5b80820281158282048414176112d2576112d26117ad565b6000826119aa57634e487b7160e01b600052601260045260246000fd5b50049056fea2646970667358221220901be703dac5243c73969fd5a64e8a7590d6e4980644617196433323bd8ead1164736f6c634300081c0033",
  "linkReferences": {},
  "deployedLinkReferences": {}
}