{
  "_format": "hh-sol-artifact-1",
  "contractName": "DepartmentRegistry",
  "sourceName": "contracts/DepartmentRegistry.sol",
  "abi": [
    {
      "inputs": [],
      "stateMutability": "nonpayable",
      "type": "constructor"
    },
    {
      "anonymous": false,
      "inputs": [
        {
          "indexed": true,
          "internalType": "address",
          "name": "departmentAddress",
          "type": "address"
        },
        {
          "indexed": false,
          "internalType": "uint256",
          "name": "newBudget",
          "type": "uint256"
        }
      ],
      "name": "BudgetUpdated",
      "type": "event"
    },
    {
      "anonymous": false,
      "inputs": [
        {
          "indexed": true,
          "internalType": "address",
          "name": "departmentAddress",
          "type": "address"
        },
        {
          "indexed": true,
          "internalType": "address",
          "name": "newHead",
          "type": "address"
        }
      ],
      "name": "DepartmentHeadChanged",
      "type": "event"
    },
    {
      "anonymous": false,
      "inputs": [
        {
          "indexed": true,
          "internalType": "address",
          "name": "departmentAddress",
          "type": "address"
        },
        {
          "indexed": false,
          "internalType": "string",
          "name": "name",
          "type": "string"
        },
        {
          "indexed": false,
          "internalType": "uint256",
          "name": "budget",
          "type": "uint256"
        },
        {
          "indexed": false,
          "internalType": "address",
          "name": "departmentHead",
          "type": "address"
        }
      ],
      "name": "DepartmentRegistered",
      "type": "event"
    },
    {
      "anonymous": false,
      "inputs": [
        {
          "indexed": true,
          "internalType": "address",
          "name": "department",
          "type": "address"
        },
        {
          "indexed": false,
          "internalType": "uint256",
          "name": "efficiency",
          "type": "uint256"
        },
        {
          "indexed": false,
          "internalType": "uint256",
          "name": "spent",
          "type": "uint256"
        }
      ],
      "name": "MetricsUpdated",
      "type": "event"
    },
    {
      "anonymous": false,
      "inputs": [
        {
          "indexed": true,
          "internalType": "address",
          "name": "admin",
          "type": "address"
        }
      ],
      "name": "SystemPaused",
      "type": "event"
    },
    {
      "anonymous": false,
      "inputs": [
        {
          "indexed": true,
          "internalType": "address",
          "name": "admin",
          "type": "address"
        }
      ],
      "name": "SystemUnpaused",
      "type": "event"
    },
    {
      "inputs": [
        {
          "internalType": "address",
          "name": "admin",
          "type": "address"
        }
      ],
      "name": "addSuperAdmin",
      "outputs": [],
      "stateMutability": "nonpayable",
      "type": "function"
    },
    {
      "inputs": [
        {
          "internalType": "address",
          "name": "departmentAddress",
          "type": "address"
        },
        {
          "internalType": "address",
          "name": "newHead",
          "type": "address"
        }
      ],
      "name": "changeDepartmentHead",
      "outputs": [],
      "stateMutability": "nonpayable",
      "type": "function"
    },
    {
      "inputs": [
        {
          "internalType": "address",
          "name": "departmentAddress",
          "type": "address"
        }
      ],
      "name": "deactivateDepartment",
      "outputs": [],
      "stateMutability": "nonpayable",
      "type": "function"
    },
    {
      "inputs": [
        {
          "internalType": "address",
          "name": "",
          "type": "address"
        }
      ],
      "name": "departmentBalances",
      "outputs": [
        {
          "internalType": "uint256",
          "name": "",
          "type": "uint256"
        }
      ],
      "stateMutability": "view",
      "type": "function"
    },
    {
      "inputs": [
        {
          "internalType": "address",
          "name": "",
          "type": "address"
        },
        {
          "internalType": "uint256",
          "name": "",
          "type": "uint256"
        }
      ],
      "name": "departmentEfficiencyHistory",
      "outputs": [
        {
          "internalType": "uint256",
          "name": "",
          "type": "uint256"
        }
      ],
      "stateMutability": "view",
      "type": "function"
    },
    {
      "inputs": [
        {
          "internalType": "address",
          "name": "",
          "type": "address"
        }
      ],
      "name": "departmentHeads",
      "outputs": [
        {
          "internalType": "bool",
          "name": "",
          "type": "bool"
        }
      ],
      "stateMutability": "view",
      "type": "function"
    },
    {
      "inputs": [
        {
          "internalType": "uint256",
          "name": "",
          "type": "uint256"
        }
      ],
      "name": "departmentList",
      "outputs": [
        {
          "internalType": "address",
          "name": "",
          "type": "address"
        }
      ],
      "stateMutability": "view",
      "type": "function"
    },
    {
      "inputs": [
        {
          "internalType": "address",
          "name": "",
          "type": "address"
        }
      ],
      "name": "departments",
      "outputs": [
        {
          "internalType": "string",
          "name": "name",
          "type": "string"
        },
        {
          "internalType": "uint256",
          "name": "budget",
          "type": "uint256"
        },
        {
          "internalType": "uint256",
          "name": "spent",
          "type": "uint256"
        },
        {
          "internalType": "uint256",
          "name": "efficiency",
          "type": "uint256"
        },
        {
          "internalType": "uint256",
          "name": "projects",
          "type": "uint256"
        },
        {
          "internalType": "bool",
          "name": "isActive",
          "type": "bool"
        },
        {
          "internalType": "address",
          "name": "departmentHead",
          "type": "address"
        }
      ],
      "stateMutability": "view",
      "type": "function"
    },
    {
      "inputs": [],
      "name": "getAllDepartments",
      "outputs": [
        {
          "internalType": "address[]",
          "name": "",
          "type": "address[]"
        }
      ],
      "stateMutability": "view",
      "type": "function"
    },
    {
      "inputs": [
        {
          "internalType": "address",
          "name": "departmentAddress",
          "type": "address"
        }
      ],
      "name": "getDepartmentDetails",
      "outputs": [
        {
          "components": [
            {
              "internalType": "string",
              "name": "name",
              "type": "string"
            },
            {
              "internalType": "uint256",
              "name": "budget",
              "type": "uint256"
            },
            {
              "internalType": "uint256",
              "name": "spent",
              "type": "uint256"
            },
            {
              "internalType": "uint256",
              "name": "efficiency",
              "type": "uint256"
            },
            {
              "internalType": "uint256",
              "name": "projects",
              "type": "uint256"
            },
            {
              "internalType": "bool",
              "name": "isActive",
              "type": "bool"
            },
            {
              "internalType": "address",
              "name": "departmentHead",
              "type": "address"
            }
          ],
          "internalType": "struct DepartmentRegistry.Department",
          "name": "",
          "type": "tuple"
        }
      ],
      "stateMutability": "view",
      "type": "function"
    },
    {
      "inputs": [
        {
          "internalType": "address",
          "name": "departmentAddress",
          "type": "address"
        }
      ],
      "name": "getEfficiencyHistory",
      "outputs": [
        {
          "internalType": "uint256[]",
          "name": "",
          "type": "uint256[]"
        }
      ],
      "stateMutability": "view",
      "type": "function"
    },
    {
      "inputs": [
        {
          "internalType": "address",
          "name": "account",
          "type": "address"
        }
      ],
      "name": "isSuperAdmin",
      "outputs": [
        {
          "internalType": "bool",
          "name": "",
          "type": "bool"
        }
      ],
      "stateMutability": "view",
      "type": "function"
    },
    {
      "inputs": [],
      "name": "pause",
      "outputs": [],
      "stateMutability": "nonpayable",
      "type": "function"
    },
    {
      "inputs": [],
      "name": "paused",
      "outputs": [
        {
          "internalType": "bool",
          "name": "",
          "type": "bool"
        }
      ],
      "stateMutability": "view",
      "type": "function"
    },
    {
      "inputs": [
        {
          "internalType": "address",
          "name": "departmentAddress",
          "type": "address"
        },
        {
          "internalType": "string",
          "name": "name",
          "type": "string"
        },
        {
          "internalType": "uint256",
          "name": "initialBudget",
          "type": "uint256"
        },
        {
          "internalType": "address",
          "name": "departmentHead",
          "type": "address"
        }
      ],
      "name": "registerDepartment",
      "outputs": [],
      "stateMutability": "nonpayable",
      "type": "function"
    },
    {
      "inputs": [
        {
          "internalType": "address",
          "name": "admin",
          "type": "address"
        }
      ],
      "name": "removeSuperAdmin",
      "outputs": [],
      "stateMutability": "nonpayable",
      "type": "function"
    },
    {
      "inputs": [
        {
          "internalType": "address",
          "name": "",
          "type": "address"
        }
      ],
      "name": "superAdmins",
      "outputs": [
        {
          "internalType": "bool",
          "name": "",
          "type": "bool"
        }
      ],
      "stateMutability": "view",
      "type": "function"
    },
    {
      "inputs": [],
      "name": "unpause",
      "outputs": [],
      "stateMutability": "nonpayable",
      "type": "function"
    },
    {
      "inputs": [
        {
          "internalType": "address",
          "name": "departmentAddress",
          "type": "address"
        },
        {
          "internalType": "uint256",
          "name": "newBudget",
          "type": "uint256"
        }
      ],
      "name": "updateBudget",
      "outputs": [],
      "stateMutability": "nonpayable",
      "type": "function"
    },
    {
      "inputs": [
        {
          "internalType": "address",
          "name": "departmentAddress",
          "type": "address"
        },
        {
          "internalType": "uint256",
          "name": "newEfficiency",
          "type": "uint256"
        },
        {
          "internalType": "uint256",
          "name": "projectCount",
          "type": "uint256"
        },
        {
          "internalType": "uint256",
          "name": "newSpent",
          "type": "uint256"
        }
      ],
      "name": "updateDepartmentMetrics",
      "outputs": [],
      "stateMutability": "nonpayable",
      "type": "function"
    }
  ],
  "bytecode": "0x6080604052348015600f57600080fd5b5033600081815260208190526040808220805460ff19166001179055517f0e453e53649b13b8c30ef82dd7bce6c745cfcc7a1dc95170b4750764194f19b29190a26115548061005f6000396000f3fe608060405234801561001057600080fd5b506004361061012b5760003560e01c80636694dd38116100ad5780639ecf3a41116100715780639ecf3a4114610295578063ad25cb42146102c0578063b3292ff0146102e3578063df7f453b146102f6578063e30131551461032257600080fd5b80636694dd381461021c578063835e735a146102425780638456cb591461025557806386c3a49c1461025d57806399bafac41461027257600080fd5b80633f4ba83a116100f45780633f4ba83a146101be5780634902e4aa146101c657806349a62815146101d95780634daaea4e146101ec5780635c975abb146101ff57600080fd5b8062bacb0b146101305780630c1a91d4146101455780631845e1301461015857806327a921271461017e5780633f1a7fd31461019e575b600080fd5b61014361013e366004610fcf565b610342565b005b61014361015336600461101e565b6104bd565b61016b610166366004611102565b6107d6565b6040519081526020015b60405180910390f35b61019161018c36600461112c565b610807565b6040516101759190611194565b6101b16101ac36600461112c565b610993565b6040516101759190611203565b6101436109ff565b6101436101d436600461112c565b610a65565b6101436101e736600461112c565b610b02565b6101436101fa366004611102565b610bd5565b60025461020c9060ff1681565b6040519015158152602001610175565b61022f61022a36600461112c565b610c9b565b6040516101759796959493929190611246565b610143610250366004611295565b610d6c565b610143610e6b565b610265610ed4565b60405161017591906112c8565b61020c61028036600461112c565b60016020526000908152604090205460ff1681565b6102a86102a3366004611309565b610f36565b6040516001600160a01b039091168152602001610175565b61020c6102ce36600461112c565b60006020819052908152604090205460ff1681565b6101436102f136600461112c565b610f60565b61020c61030436600461112c565b6001600160a01b031660009081526020819052604090205460ff1690565b61016b61033036600461112c565b60056020526000908152604090205481565b3360009081526020819052604090205460ff1661037a5760405162461bcd60e51b815260040161037190611322565b60405180910390fd5b60025460ff161561039d5760405162461bcd60e51b81526004016103719061134b565b6001600160a01b03841660009081526003602052604090206005015460ff166103d85760405162461bcd60e51b815260040161037190611375565b6001600160a01b0384166000908152600360205260409020600101548111156104345760405162461bcd60e51b815260206004820152600e60248201526d115e18d959591cc8189d5919d95d60921b6044820152606401610371565b6001600160a01b03841660008181526003602081815260408084209283018890556004830187905560029092018590556006815281832080546001810182559084529281902090920186905580518681529182018490527f79f50eca0b5271175be5e46142efe86fd60e7de6fa43d1eb775db9247843ff4991015b60405180910390a250505050565b3360009081526020819052604090205460ff166104ec5760405162461bcd60e51b815260040161037190611322565b60025460ff161561050f5760405162461bcd60e51b81526004016103719061134b565b6001600160a01b03841660009081526003602052604090206005015460ff161561057b5760405162461bcd60e51b815260206004820152601960248201527f4465706172746d656e7420616c726561647920657869737473000000000000006044820152606401610371565b6001600160a01b0381166105d15760405162461bcd60e51b815260206004820152601760248201527f496e76616c6964206465706172746d656e7420686561640000000000000000006044820152606401610371565b60008351116106195760405162461bcd60e51b81526020600482015260146024820152734e616d652063616e6e6f7420626520656d70747960601b6044820152606401610371565b69d3c21bcecceda100000082111561066c5760405162461bcd60e51b81526020600482015260166024820152754275646765742065786365656473206d6178696d756d60501b6044820152606401610371565b6040805160e081018252848152602080820185905260008284018190526064606084015260808301819052600160a08401526001600160a01b0380861660c085015288168152600390915291909120815181906106c9908261142c565b50602082810151600183810191909155604080850151600285015560608501516003850155608085015160048086019190915560a08601516005958601805460c0909801516001600160a81b0319909816911515610100600160a81b031916919091176101006001600160a01b039889160217905580548084019091557f8a35acfbc15ff81a39ae7d344fd709f28e8600b4aa8c65c6b64bfe7fe36bd19b0180546001600160a01b0319168a87169081179091559486166000908152828452818120805460ff191690931790925584825292909152819020849055517f54a64f09ae9b3e4d9dfd3a40f2f0c8bc4c98cc3fd0ef3ac934a80b6db8f6597a906104af908690869086906114eb565b600660205281600052604060002081815481106107f257600080fd5b90600052602060002001600091509150505481565b6108526040518060e00160405280606081526020016000815260200160008152602001600081526020016000815260200160001515815260200160006001600160a01b031681525090565b6001600160a01b03821660009081526003602052604090206005015460ff1661088d5760405162461bcd60e51b815260040161037190611375565b6001600160a01b03821660009081526003602052604090819020815160e081019092528054829082906108bf906113a3565b80601f01602080910402602001604051908101604052809291908181526020018280546108eb906113a3565b80156109385780601f1061090d57610100808354040283529160200191610938565b820191906000526020600020905b81548152906001019060200180831161091b57829003601f168201915b50505091835250506001820154602082015260028201546040820152600382015460608201526004820154608082015260059091015460ff8116151560a083015261010090046001600160a01b031660c09091015292915050565b6001600160a01b0381166000908152600660209081526040918290208054835181840281018401909452808452606093928301828280156109f357602002820191906000526020600020905b8154815260200190600101908083116109df575b50505050509050919050565b3360009081526020819052604090205460ff16610a2e5760405162461bcd60e51b815260040161037190611322565b6002805460ff1916905560405133907f92414512bd79c80103975d8bef2f4e78aa5930c2869b4bd6139d98836ba8d91890600090a2565b3360009081526020819052604090205460ff16610a945760405162461bcd60e51b815260040161037190611322565b6001600160a01b0381163303610ae15760405162461bcd60e51b815260206004820152601260248201527121b0b73737ba103932b6b7bb329039b2b63360711b6044820152606401610371565b6001600160a01b03166000908152602081905260409020805460ff19169055565b3360009081526020819052604090205460ff16610b315760405162461bcd60e51b815260040161037190611322565b60025460ff1615610b545760405162461bcd60e51b81526004016103719061134b565b6001600160a01b03811660009081526003602052604090206005015460ff16610b8f5760405162461bcd60e51b815260040161037190611375565b6001600160a01b039081166000908152600360209081526040808320600501805460ff199081169182905561010090910490941683526001909152902080549091169055565b3360009081526020819052604090205460ff16610c045760405162461bcd60e51b815260040161037190611322565b6001600160a01b03821660009081526003602052604090206005015460ff16610c3f5760405162461bcd60e51b815260040161037190611375565b6001600160a01b03821660008181526003602052604090819020600101839055517f57b9616e0fa00e313ddaeae02ac1d1c8e4efbfd5987cbb34cf639c5dc11c166f90610c8f9084815260200190565b60405180910390a25050565b600360205260009081526040902080548190610cb6906113a3565b80601f0160208091040260200160405190810160405280929190818152602001828054610ce2906113a3565b8015610d2f5780601f10610d0457610100808354040283529160200191610d2f565b820191906000526020600020905b815481529060010190602001808311610d1257829003601f168201915b505050600184015460028501546003860154600487015460059097015495969295919450925060ff8116906001600160a01b036101009091041687565b3360009081526020819052604090205460ff16610d9b5760405162461bcd60e51b815260040161037190611322565b6001600160a01b03821660009081526003602052604090206005015460ff16610dd65760405162461bcd60e51b815260040161037190611375565b6001600160a01b0380831660008181526003602090815260408083206005018054878716610100818102610100600160a81b0319841617909355919004909516808452600192839052818420805460ff19908116909155868552828520805490911690931790925551909392917fc6583e214e3254d97bfee1108e7133a83912b9ef9fa1a124a932bfecd8f8727591a3505050565b3360009081526020819052604090205460ff16610e9a5760405162461bcd60e51b815260040161037190611322565b6002805460ff1916600117905560405133907f0e453e53649b13b8c30ef82dd7bce6c745cfcc7a1dc95170b4750764194f19b290600090a2565b60606004805480602002602001604051908101604052809291908181526020018280548015610f2c57602002820191906000526020600020905b81546001600160a01b03168152600190910190602001808311610f0e575b5050505050905090565b60048181548110610f4657600080fd5b6000918252602090912001546001600160a01b0316905081565b3360009081526020819052604090205460ff16610f8f5760405162461bcd60e51b815260040161037190611322565b6001600160a01b03166000908152602081905260409020805460ff19166001179055565b80356001600160a01b0381168114610fca57600080fd5b919050565b60008060008060808587031215610fe557600080fd5b610fee85610fb3565b966020860135965060408601359560600135945092505050565b634e487b7160e01b600052604160045260246000fd5b6000806000806080858703121561103457600080fd5b61103d85610fb3565b9350602085013567ffffffffffffffff81111561105957600080fd5b8501601f8101871361106a57600080fd5b803567ffffffffffffffff81111561108457611084611008565b604051601f8201601f19908116603f0116810167ffffffffffffffff811182821017156110b3576110b3611008565b6040528181528282016020018910156110cb57600080fd5b81602084016020830137600091810160200191909152935050604085013591506110f760608601610fb3565b905092959194509250565b6000806040838503121561111557600080fd5b61111e83610fb3565b946020939093013593505050565b60006020828403121561113e57600080fd5b61114782610fb3565b9392505050565b6000815180845260005b8181101561117457602081850181015186830182015201611158565b506000602082860101526020601f19601f83011685010191505092915050565b602081526000825160e060208401526111b161010084018261114e565b9050602084015160408401526040840151606084015260608401516080840152608084015160a084015260a0840151151560c084015260018060a01b0360c08501511660e08401528091505092915050565b602080825282518282018190526000918401906040840190835b8181101561123b57835183526020938401939092019160010161121d565b509095945050505050565b60e08152600061125960e083018a61114e565b602083019890985250604081019590955260608501939093526080840191909152151560a08301526001600160a01b031660c090910152919050565b600080604083850312156112a857600080fd5b6112b183610fb3565b91506112bf60208401610fb3565b90509250929050565b602080825282518282018190526000918401906040840190835b8181101561123b5783516001600160a01b03168352602093840193909201916001016112e2565b60006020828403121561131b57600080fd5b5035919050565b6020808252600f908201526e2737ba1039bab832b91030b236b4b760891b604082015260600190565b60208082526010908201526f14de5cdd195b481a5cc81c185d5cd95960821b604082015260600190565b60208082526014908201527311195c185c9d1b595b9d081b9bdd08199bdd5b9960621b604082015260600190565b600181811c908216806113b757607f821691505b6020821081036113d757634e487b7160e01b600052602260045260246000fd5b50919050565b601f82111561142757806000526020600020601f840160051c810160208510156114045750805b601f840160051c820191505b818110156114245760008155600101611410565b50505b505050565b815167ffffffffffffffff81111561144657611446611008565b61145a8161145484546113a3565b846113dd565b6020601f82116001811461148e57600083156114765750848201515b600019600385901b1c1916600184901b178455611424565b600084815260208120601f198516915b828110156114be578785015182556020948501946001909201910161149e565b50848210156114dc5786840151600019600387901b60f8161c191681555b50505050600190811b01905550565b6060815260006114fe606083018661114e565b6020830194909452506001600160a01b039190911660409091015291905056fea2646970667358221220ae5e5f9f15b34d637400a263cbb1b13c34b99fb484c13eb36dbfac6538d1937664736f6c634300081c0033",
  "linkReferences": {},
  "deployedLinkReferences": {}
}