{
  "_format": "hh-sol-artifact-1",
  "contractName": "DepartmentRegistry",
  "sourceName": "contracts/DepartmentRegistry.sol",
  "abi": [
    {
      "inputs": [],
      "stateMutability": "nonpayable",
      "type": "constructor"
    },
    {
      "anonymous": false,
      "inputs": [
        {
          "indexed": true,
          "internalType": "address",
          "name": "departmentAddress",
          "type": "address"
        },
        {
          "indexed": false,
          "internalType": "uint256",
          "name": "newBudget",
          "type": "uint256"
        }
      ],
      "name": "BudgetUpdated",
      "type": "event"
    },
    {
      "anonymous": false,
      "inputs": [
        {
          "indexed": true,
          "internalType": "address",
          "name": "departmentAddress",
          "type": "address"
        },
        {
          "indexed": true,
          "internalType": "address",
          "name": "newHead",
          "type": "address"
        }
      ],
      "name": "DepartmentHeadChanged",
      "type": "event"
    },
    {
      "anonymous": false,
      "inputs": [
        {
          "indexed": true,
          "internalType": "address",
          "name": "departmentAddress",
          "type": "address"
        },
        {
          "indexed": false,
          "internalType": "string",
          "name": "name",
          "type": "string"
        },
        {
          "indexed": false,
          "internalType": "uint256",
          "name": "budget",
          "type": "uint256"
        },
        {
          "indexed": false,
          "internalType": "address",
          "name": "departmentHead",
          "type": "address"
        }
      ],
      "name": "DepartmentRegistered",
      "type": "event"
    },
    {
      "anonymous": false,
      "inputs": [
        {
          "indexed": true,
          "internalType": "address",
          "name": "department",
          "type": "address"
        },
        {
          "indexed": false,
          "internalType": "uint256",
          "name": "efficiency",
          "type": "uint256"
        },
        {
          "indexed": false,
          "internalType": "uint256",
          "name": "spent",
          "type": "uint256"
        }
      ],
      "name": "MetricsUpdated",
      "type": "event"
    },
    {
      "anonymous": false,
      "inputs": [
        {
          "indexed": true,
          "internalType": "address",
          "name": "admin",
          "type": "address"
        }
      ],
      "name": "SystemPaused",
      "type": "event"
    },
    {
      "anonymous": false,
      "inputs": [
        {
          "indexed": true,
          "internalType": "address",
          "name": "admin",
          "type": "address"
        }
      ],
      "name": "SystemUnpaused",
      "type": "event"
    },
    {
      "inputs": [
        {
          "internalType": "address",
          "name": "admin",
          "type": "address"
        }
      ],
      "name": "addSuperAdmin",
      "outputs": [],
      "stateMutability": "nonpayable",
      "type": "function"
    },
    {
      "inputs": [
        {
          "internalType": "address",
          "name": "departmentAddress",
          "type": "address"
        },
        {
          "internalType": "address",
          "name": "newHead",
          "type": "address"
        }
      ],
      "name": "changeDepartmentHead",
      "outputs": [],
      "stateMutability": "nonpayable",
      "type": "function"
    },
    {
      "inputs": [
        {
          "internalType": "address",
          "name": "departmentAddress",
          "type": "address"
        }
      ],
      "name": "deactivateDepartment",
      "outputs": [],
      "stateMutability": "nonpayable",
      "type": "function"
    },
    {
      "inputs": [
        {
          "internalType": "address",
          "name": "",
          "type": "address"
        }
      ],
      "name": "departmentBalances",
      "outputs": [
        {
          "internalType": "uint256",
          "name": "",
          "type": "uint256"
        }
      ],
      "stateMutability": "view",
      "type": "function"
    },
    {
      "inputs": [
        {
          "internalType": "address",
          "name": "",
          "type": "address"
        },
        {
          "internalType": "uint256",
          "name": "",
          "type": "uint256"
        }
      ],
      "name": "departmentEfficiencyHistory",
      "outputs": [
        {
          "internalType": "uint256",
          "name": "",
          "type": "uint256"
        }
      ],
      "stateMutability": "view",
      "type": "function"
    },
    {
      "inputs": [
        {
          "internalType": "address",
          "name": "",
          "type": "address"
        }
      ],
      "name": "departmentHeads",
      "outputs": [
        {
          "internalType": "bool",
          "name": "",
          "type": "bool"
        }
      ],
      "stateMutability": "view",
      "type": "function"
    },
    {
      "inputs": [
        {
          "internalType": "uint256",
          "name": "",
          "type": "uint256"
        }
      ],
      "name": "departmentList",
      "outputs": [
        {
          "internalType": "address",
          "name": "",
          "type": "address"
        }
      ],
      "stateMutability": "view",
      "type": "function"
    },
    {
      "inputs": [
        {
          "internalType": "address",
          "name": "",
          "type": "address"
        }
      ],
      "name": "departments",
      "outputs": [
        {
          "internalType": "string",
          "name": "name",
          "type": "string"
        },
        {
          "internalType": "uint256",
          "name": "budget",
          "type": "uint256"
        },
        {
          "internalType": "uint256",
          "name": "spent",
          "type": "uint256"
        },
        {
          "internalType": "uint256",
          "name": "efficiency",
          "type": "uint256"
        },
        {
          "internalType": "uint256",
          "name": "projects",
          "type": "uint256"
        },
        {
          "internalType": "bool",
          "name": "isActive",
          "type": "bool"
        },
        {
          "internalType": "address",
          "name": "departmentHead",
          "type": "address"
        },
        {
          "internalType": "string",
          "name": "logoUri",
          "type": "string"
        }
      ],
      "stateMutability": "view",
      "type": "function"
    },
    {
      "inputs": [],
      "name": "getAllDepartments",
      "outputs": [
        {
          "internalType": "address[]",
          "name": "",
          "type": "address[]"
        }
      ],
      "stateMutability": "view",
      "type": "function"
    },
    {
      "inputs": [
        {
          "internalType": "address",
          "name": "departmentAddress",
          "type": "address"
        }
      ],
      "name": "getDepartmentDetails",
      "outputs": [
        {
          "components": [
            {
              "internalType": "string",
              "name": "name",
              "type": "string"
            },
            {
              "internalType": "uint256",
              "name": "budget",
              "type": "uint256"
            },
            {
              "internalType": "uint256",
              "name": "spent",
              "type": "uint256"
            },
            {
              "internalType": "uint256",
              "name": "efficiency",
              "type": "uint256"
            },
            {
              "internalType": "uint256",
              "name": "projects",
              "type": "uint256"
            },
            {
              "internalType": "bool",
              "name": "isActive",
              "type": "bool"
            },
            {
              "internalType": "address",
              "name": "departmentHead",
              "type": "address"
            },
            {
              "internalType": "string",
              "name": "logoUri",
              "type": "string"
            }
          ],
          "internalType": "struct DepartmentRegistry.Department",
          "name": "",
          "type": "tuple"
        }
      ],
      "stateMutability": "view",
      "type": "function"
    },
    {
      "inputs": [
        {
          "internalType": "address",
          "name": "departmentAddress",
          "type": "address"
        }
      ],
      "name": "getEfficiencyHistory",
      "outputs": [
        {
          "internalType": "uint256[]",
          "name": "",
          "type": "uint256[]"
        }
      ],
      "stateMutability": "view",
      "type": "function"
    },
    {
      "inputs": [
        {
          "internalType": "address",
          "name": "account",
          "type": "address"
        }
      ],
      "name": "isSuperAdmin",
      "outputs": [
        {
          "internalType": "bool",
          "name": "",
          "type": "bool"
        }
      ],
      "stateMutability": "view",
      "type": "function"
    },
    {
      "inputs": [],
      "name": "pause",
      "outputs": [],
      "stateMutability": "nonpayable",
      "type": "function"
    },
    {
      "inputs": [],
      "name": "paused",
      "outputs": [
        {
          "internalType": "bool",
          "name": "",
          "type": "bool"
        }
      ],
      "stateMutability": "view",
      "type": "function"
    },
    {
      "inputs": [
        {
          "internalType": "address",
          "name": "departmentAddress",
          "type": "address"
        },
        {
          "internalType": "string",
          "name": "name",
          "type": "string"
        },
        {
          "internalType": "uint256",
          "name": "initialBudget",
          "type": "uint256"
        },
        {
          "internalType": "address",
          "name": "departmentHead",
          "type": "address"
        },
        {
          "internalType": "string",
          "name": "logoUri",
          "type": "string"
        }
      ],
      "name": "registerDepartment",
      "outputs": [],
      "stateMutability": "nonpayable",
      "type": "function"
    },
    {
      "inputs": [
        {
          "internalType": "address",
          "name": "admin",
          "type": "address"
        }
      ],
      "name": "removeSuperAdmin",
      "outputs": [],
      "stateMutability": "nonpayable",
      "type": "function"
    },
    {
      "inputs": [
        {
          "internalType": "address",
          "name": "",
          "type": "address"
        }
      ],
      "name": "superAdmins",
      "outputs": [
        {
          "internalType": "bool",
          "name": "",
          "type": "bool"
        }
      ],
      "stateMutability": "view",
      "type": "function"
    },
    {
      "inputs": [],
      "name": "unpause",
      "outputs": [],
      "stateMutability": "nonpayable",
      "type": "function"
    },
    {
      "inputs": [
        {
          "internalType": "address",
          "name": "departmentAddress",
          "type": "address"
        },
        {
          "internalType": "uint256",
          "name": "newBudget",
          "type": "uint256"
        }
      ],
      "name": "updateBudget",
      "outputs": [],
      "stateMutability": "nonpayable",
      "type": "function"
    },
    {
      "inputs": [
        {
          "internalType": "address",
          "name": "departmentAddress",
          "type": "address"
        },
        {
          "internalType": "uint256",
          "name": "newEfficiency",
          "type": "uint256"
        },
        {
          "internalType": "uint256",
          "name": "projectCount",
          "type": "uint256"
        },
        {
          "internalType": "uint256",
          "name": "newSpent",
          "type": "uint256"
        }
      ],
      "name": "updateDepartmentMetrics",
      "outputs": [],
      "stateMutability": "nonpayable",
      "type": "function"
    }
  ],
  "bytecode": "0x6080604052348015600f57600080fd5b5033600081815260208190526040808220805460ff19166001179055517f0e453e53649b13b8c30ef82dd7bce6c745cfcc7a1dc95170b4750764194f19b29190a26117368061005f6000396000f3fe608060405234801561001057600080fd5b506004361061012b5760003560e01c80636817952b116100ad5780639ecf3a41116100715780639ecf3a4114610296578063ad25cb42146102c1578063b3292ff0146102e4578063df7f453b146102f7578063e30131551461032357600080fd5b80636817952b14610230578063835e735a146102435780638456cb591461025657806386c3a49c1461025e57806399bafac41461027357600080fd5b80634902e4aa116100f45780634902e4aa146101b357806349a62815146101c65780634daaea4e146101d95780635c975abb146101ec5780636694dd381461020957600080fd5b8062bacb0b146101305780631845e1301461014557806327a921271461016b5780633f1a7fd31461018b5780633f4ba83a146101ab575b600080fd5b61014361013e366004611138565b610343565b005b610158610153366004611171565b6104bd565b6040519081526020015b60405180910390f35b61017e61017936600461119b565b6104ee565b6040516101629190611203565b61019e61019936600461119b565b610719565b6040516101629190611297565b610143610785565b6101436101c136600461119b565b6107eb565b6101436101d436600461119b565b610888565b6101436101e7366004611171565b61095b565b6002546101f99060ff1681565b6040519015158152602001610162565b61021c61021736600461119b565b610a21565b6040516101629897969594939291906112da565b61014361023e3660046113e3565b610b86565b610143610251366004611477565b610ed5565b610143610fd4565b61026661103d565b60405161016291906114aa565b6101f961028136600461119b565b60016020526000908152604090205460ff1681565b6102a96102a43660046114eb565b61109f565b6040516001600160a01b039091168152602001610162565b6101f96102cf36600461119b565b60006020819052908152604090205460ff1681565b6101436102f236600461119b565b6110c9565b6101f961030536600461119b565b6001600160a01b031660009081526020819052604090205460ff1690565b61015861033136600461119b565b60056020526000908152604090205481565b3360009081526020819052604090205460ff1661037b5760405162461bcd60e51b815260040161037290611504565b60405180910390fd5b60025460ff161561039e5760405162461bcd60e51b81526004016103729061152d565b6001600160a01b03841660009081526003602052604090206005015460ff166103d95760405162461bcd60e51b815260040161037290611557565b6001600160a01b0384166000908152600360205260409020600101548111156104355760405162461bcd60e51b815260206004820152600e60248201526d115e18d959591cc8189d5919d95d60921b6044820152606401610372565b6001600160a01b03841660008181526003602081815260408084209283018890556004830187905560029092018590556006815281832080546001810182559084529281902090920186905580518681529182018490527f79f50eca0b5271175be5e46142efe86fd60e7de6fa43d1eb775db9247843ff49910160405180910390a250505050565b600660205281600052604060002081815481106104d957600080fd5b90600052602060002001600091509150505481565b610541604051806101000160405280606081526020016000815260200160008152602001600081526020016000815260200160001515815260200160006001600160a01b03168152602001606081525090565b6001600160a01b03821660009081526003602052604090206005015460ff1661057c5760405162461bcd60e51b815260040161037290611557565b6001600160a01b03821660009081526003602052604090819020815161010081019092528054829082906105af90611585565b80601f01602080910402602001604051908101604052809291908181526020018280546105db90611585565b80156106285780601f106105fd57610100808354040283529160200191610628565b820191906000526020600020905b81548152906001019060200180831161060b57829003601f168201915b505050918352505060018201546020820152600282015460408201526003820154606082015260048201546080820152600582015460ff8116151560a083015261010090046001600160a01b031660c082015260068201805460e09092019161069090611585565b80601f01602080910402602001604051908101604052809291908181526020018280546106bc90611585565b80156107095780601f106106de57610100808354040283529160200191610709565b820191906000526020600020905b8154815290600101906020018083116106ec57829003601f168201915b5050505050815250509050919050565b6001600160a01b03811660009081526006602090815260409182902080548351818402810184019094528084526060939283018282801561077957602002820191906000526020600020905b815481526020019060010190808311610765575b50505050509050919050565b3360009081526020819052604090205460ff166107b45760405162461bcd60e51b815260040161037290611504565b6002805460ff1916905560405133907f92414512bd79c80103975d8bef2f4e78aa5930c2869b4bd6139d98836ba8d91890600090a2565b3360009081526020819052604090205460ff1661081a5760405162461bcd60e51b815260040161037290611504565b6001600160a01b03811633036108675760405162461bcd60e51b815260206004820152601260248201527121b0b73737ba103932b6b7bb329039b2b63360711b6044820152606401610372565b6001600160a01b03166000908152602081905260409020805460ff19169055565b3360009081526020819052604090205460ff166108b75760405162461bcd60e51b815260040161037290611504565b60025460ff16156108da5760405162461bcd60e51b81526004016103729061152d565b6001600160a01b03811660009081526003602052604090206005015460ff166109155760405162461bcd60e51b815260040161037290611557565b6001600160a01b039081166000908152600360209081526040808320600501805460ff199081169182905561010090910490941683526001909152902080549091169055565b3360009081526020819052604090205460ff1661098a5760405162461bcd60e51b815260040161037290611504565b6001600160a01b03821660009081526003602052604090206005015460ff166109c55760405162461bcd60e51b815260040161037290611557565b6001600160a01b03821660008181526003602052604090819020600101839055517f57b9616e0fa00e313ddaeae02ac1d1c8e4efbfd5987cbb34cf639c5dc11c166f90610a159084815260200190565b60405180910390a25050565b600360205260009081526040902080548190610a3c90611585565b80601f0160208091040260200160405190810160405280929190818152602001828054610a6890611585565b8015610ab55780601f10610a8a57610100808354040283529160200191610ab5565b820191906000526020600020905b815481529060010190602001808311610a9857829003601f168201915b5050505060018301546002840154600385015460048601546005870154600688018054979895979496509294919360ff8216936101009092046001600160a01b0316929190610b0390611585565b80601f0160208091040260200160405190810160405280929190818152602001828054610b2f90611585565b8015610b7c5780601f10610b5157610100808354040283529160200191610b7c565b820191906000526020600020905b815481529060010190602001808311610b5f57829003601f168201915b5050505050905088565b3360009081526020819052604090205460ff16610bb55760405162461bcd60e51b815260040161037290611504565b60025460ff1615610bd85760405162461bcd60e51b81526004016103729061152d565b6001600160a01b03851660009081526003602052604090206005015460ff1615610c445760405162461bcd60e51b815260206004820152601960248201527f4465706172746d656e7420616c726561647920657869737473000000000000006044820152606401610372565b6001600160a01b038216610c9a5760405162461bcd60e51b815260206004820152601760248201527f496e76616c6964206465706172746d656e7420686561640000000000000000006044820152606401610372565b6000845111610ce25760405162461bcd60e51b81526020600482015260146024820152734e616d652063616e6e6f7420626520656d70747960601b6044820152606401610372565b69d3c21bcecceda1000000831115610d355760405162461bcd60e51b81526020600482015260166024820152754275646765742065786365656473206d6178696d756d60501b6044820152606401610372565b6040805161010081018252858152602080820186905260008284018190526064606084015260808301819052600160a08401526001600160a01b0380871660c085015260e084018690528916815260039091529190912081518190610d9a908261160e565b506020820151600182015560408201516002820155606082015160038201556080820151600482015560a082015160058201805460c08501516001600160a01b031661010002610100600160a81b0319931515939093166001600160a81b03199091161791909117905560e08201516006820190610e18908261160e565b50506004805460018082019092557f8a35acfbc15ff81a39ae7d344fd709f28e8600b4aa8c65c6b64bfe7fe36bd19b0180546001600160a01b0319166001600160a01b03898116918217909255908516600090815260208381526040808320805460ff19169095179094558282526005905282902086905590519091507f54a64f09ae9b3e4d9dfd3a40f2f0c8bc4c98cc3fd0ef3ac934a80b6db8f6597a90610ec6908790879087906116cd565b60405180910390a25050505050565b3360009081526020819052604090205460ff16610f045760405162461bcd60e51b815260040161037290611504565b6001600160a01b03821660009081526003602052604090206005015460ff16610f3f5760405162461bcd60e51b815260040161037290611557565b6001600160a01b0380831660008181526003602090815260408083206005018054878716610100818102610100600160a81b0319841617909355919004909516808452600192839052818420805460ff19908116909155868552828520805490911690931790925551909392917fc6583e214e3254d97bfee1108e7133a83912b9ef9fa1a124a932bfecd8f8727591a3505050565b3360009081526020819052604090205460ff166110035760405162461bcd60e51b815260040161037290611504565b6002805460ff1916600117905560405133907f0e453e53649b13b8c30ef82dd7bce6c745cfcc7a1dc95170b4750764194f19b290600090a2565b6060600480548060200260200160405190810160405280929190818152602001828054801561109557602002820191906000526020600020905b81546001600160a01b03168152600190910190602001808311611077575b5050505050905090565b600481815481106110af57600080fd5b6000918252602090912001546001600160a01b0316905081565b3360009081526020819052604090205460ff166110f85760405162461bcd60e51b815260040161037290611504565b6001600160a01b03166000908152602081905260409020805460ff19166001179055565b80356001600160a01b038116811461113357600080fd5b919050565b6000806000806080858703121561114e57600080fd5b6111578561111c565b966020860135965060408601359560600135945092505050565b6000806040838503121561118457600080fd5b61118d8361111c565b946020939093013593505050565b6000602082840312156111ad57600080fd5b6111b68261111c565b9392505050565b6000815180845260005b818110156111e3576020818501810151868301820152016111c7565b506000602082860101526020601f19601f83011685010191505092915050565b602081526000825161010060208401526112216101208401826111bd565b9050602084015160408401526040840151606084015260608401516080840152608084015160a084015260a0840151151560c084015260c084015161127160e08501826001600160a01b03169052565b5060e0840151838203601f190161010085015261128e82826111bd565b95945050505050565b602080825282518282018190526000918401906040840190835b818110156112cf5783518352602093840193909201916001016112b1565b509095945050505050565b610100815260006112ef61010083018b6111bd565b89602084015288604084015287606084015286608084015285151560a084015260018060a01b03851660c084015282810360e084015261132f81856111bd565b9b9a5050505050505050505050565b634e487b7160e01b600052604160045260246000fd5b600082601f83011261136557600080fd5b813567ffffffffffffffff81111561137f5761137f61133e565b604051601f8201601f19908116603f0116810167ffffffffffffffff811182821017156113ae576113ae61133e565b6040528181528382016020018510156113c657600080fd5b816020850160208301376000918101602001919091529392505050565b600080600080600060a086880312156113fb57600080fd5b6114048661111c565b9450602086013567ffffffffffffffff81111561142057600080fd5b61142c88828901611354565b945050604086013592506114426060870161111c565b9150608086013567ffffffffffffffff81111561145e57600080fd5b61146a88828901611354565b9150509295509295909350565b6000806040838503121561148a57600080fd5b6114938361111c565b91506114a16020840161111c565b90509250929050565b602080825282518282018190526000918401906040840190835b818110156112cf5783516001600160a01b03168352602093840193909201916001016114c4565b6000602082840312156114fd57600080fd5b5035919050565b6020808252600f908201526e2737ba1039bab832b91030b236b4b760891b604082015260600190565b60208082526010908201526f14de5cdd195b481a5cc81c185d5cd95960821b604082015260600190565b60208082526014908201527311195c185c9d1b595b9d081b9bdd08199bdd5b9960621b604082015260600190565b600181811c9082168061159957607f821691505b6020821081036115b957634e487b7160e01b600052602260045260246000fd5b50919050565b601f82111561160957806000526020600020601f840160051c810160208510156115e65750805b601f840160051c820191505b8181101561160657600081556001016115f2565b50505b505050565b815167ffffffffffffffff8111156116285761162861133e565b61163c816116368454611585565b846115bf565b6020601f82116001811461167057600083156116585750848201515b600019600385901b1c1916600184901b178455611606565b600084815260208120601f198516915b828110156116a05787850151825560209485019460019092019101611680565b50848210156116be5786840151600019600387901b60f8161c191681555b50505050600190811b01905550565b6060815260006116e060608301866111bd565b6020830194909452506001600160a01b039190911660409091015291905056fea264697066735822122090262114ced06bf1686a96cf8b91109758aab5cf28044b2d31bbad3489eef93664736f6c634300081c0033",
  "linkReferences": {},
  "deployedLinkReferences": {}
}